{
  "_format": "hh-sol-artifact-1",
  "contractName": "LendingSatellite",
  "sourceName": "examples/cross-chain-lending/LendingSatellite.sol",
  "abi": [
    {
      "inputs": [
        {
          "internalType": "address",
          "name": "gateway_",
          "type": "address"
        },
        {
          "internalType": "string",
          "name": "baseChain_",
          "type": "string"
        },
        {
          "internalType": "string",
          "name": "baseContract_",
          "type": "string"
        }
      ],
      "stateMutability": "nonpayable",
      "type": "constructor"
    },
    {
      "inputs": [],
      "name": "AlreadyForecalled",
      "type": "error"
    },
    {
      "inputs": [],
      "name": "InvalidAddress",
      "type": "error"
    },
    {
      "inputs": [],
      "name": "NotApprovedByGateway",
      "type": "error"
    },
    {
      "inputs": [],
      "name": "TransferFailed",
      "type": "error"
    },
    {
      "inputs": [],
      "name": "FORECALLERS_SALT",
      "outputs": [
        {
          "internalType": "uint256",
          "name": "",
          "type": "uint256"
        }
      ],
      "stateMutability": "view",
      "type": "function"
    },
    {
      "inputs": [
        {
          "internalType": "uint256",
          "name": "amount",
          "type": "uint256"
        },
        {
          "internalType": "bytes",
          "name": "",
          "type": "bytes"
        }
      ],
      "name": "amountPostFee",
      "outputs": [
        {
          "internalType": "uint256",
          "name": "",
          "type": "uint256"
        }
      ],
      "stateMutability": "nonpayable",
      "type": "function"
    },
    {
      "inputs": [],
      "name": "baseChain",
      "outputs": [
        {
          "internalType": "string",
          "name": "",
          "type": "string"
        }
      ],
      "stateMutability": "view",
      "type": "function"
    },
    {
      "inputs": [],
      "name": "baseContract",
      "outputs": [
        {
          "internalType": "string",
          "name": "",
          "type": "string"
        }
      ],
      "stateMutability": "view",
      "type": "function"
    },
    {
      "inputs": [
        {
          "internalType": "bytes32",
          "name": "commandId",
          "type": "bytes32"
        },
        {
          "internalType": "string",
          "name": "sourceChain",
          "type": "string"
        },
        {
          "internalType": "string",
          "name": "sourceAddress",
          "type": "string"
        },
        {
          "internalType": "bytes",
          "name": "payload",
          "type": "bytes"
        }
      ],
      "name": "execute",
      "outputs": [],
      "stateMutability": "nonpayable",
      "type": "function"
    },
    {
      "inputs": [
        {
          "internalType": "bytes32",
          "name": "commandId",
          "type": "bytes32"
        },
        {
          "internalType": "string",
          "name": "sourceChain",
          "type": "string"
        },
        {
          "internalType": "string",
          "name": "sourceAddress",
          "type": "string"
        },
        {
          "internalType": "bytes",
          "name": "payload",
          "type": "bytes"
        },
        {
          "internalType": "string",
          "name": "tokenSymbol",
          "type": "string"
        },
        {
          "internalType": "uint256",
          "name": "amount",
          "type": "uint256"
        }
      ],
      "name": "executeWithToken",
      "outputs": [],
      "stateMutability": "nonpayable",
      "type": "function"
    },
    {
      "inputs": [
        {
          "internalType": "string",
          "name": "sourceChain",
          "type": "string"
        },
        {
          "internalType": "string",
          "name": "sourceAddress",
          "type": "string"
        },
        {
          "internalType": "bytes",
          "name": "payload",
          "type": "bytes"
        }
      ],
      "name": "forecall",
      "outputs": [],
      "stateMutability": "nonpayable",
      "type": "function"
    },
    {
      "inputs": [
        {
          "internalType": "string",
          "name": "sourceChain",
          "type": "string"
        },
        {
          "internalType": "string",
          "name": "sourceAddress",
          "type": "string"
        },
        {
          "internalType": "bytes",
          "name": "payload",
          "type": "bytes"
        },
        {
          "internalType": "string",
          "name": "tokenSymbol",
          "type": "string"
        },
        {
          "internalType": "uint256",
          "name": "amount",
          "type": "uint256"
        }
      ],
      "name": "forecallWithToken",
      "outputs": [],
      "stateMutability": "nonpayable",
      "type": "function"
    },
    {
      "inputs": [],
      "name": "gateway",
      "outputs": [
        {
          "internalType": "contract IAxelarGateway",
          "name": "",
          "type": "address"
        }
      ],
      "stateMutability": "view",
      "type": "function"
    },
    {
      "inputs": [
        {
          "internalType": "string",
          "name": "sourceChain",
          "type": "string"
        },
        {
          "internalType": "string",
          "name": "sourceAddress",
          "type": "string"
        },
        {
          "internalType": "bytes",
          "name": "payload",
          "type": "bytes"
        }
      ],
      "name": "getForecaller",
      "outputs": [
        {
          "internalType": "address",
          "name": "forecaller",
          "type": "address"
        }
      ],
      "stateMutability": "view",
      "type": "function"
    },
    {
      "inputs": [
        {
          "internalType": "string",
          "name": "sourceChain",
          "type": "string"
        },
        {
          "internalType": "string",
          "name": "sourceAddress",
          "type": "string"
        },
        {
          "internalType": "bytes",
          "name": "payload",
          "type": "bytes"
        },
        {
          "internalType": "string",
          "name": "symbol",
          "type": "string"
        },
        {
          "internalType": "uint256",
          "name": "amount",
          "type": "uint256"
        }
      ],
      "name": "getForecallerWithToken",
      "outputs": [
        {
          "internalType": "address",
          "name": "forecaller",
          "type": "address"
        }
      ],
      "stateMutability": "view",
      "type": "function"
    },
    {
      "inputs": [
        {
          "internalType": "string",
          "name": "repayTokenSymbol",
          "type": "string"
        },
        {
          "internalType": "uint256",
          "name": "repayAmount",
          "type": "uint256"
        },
        {
          "internalType": "string",
          "name": "redeemTokenSymbol",
          "type": "string"
        },
        {
          "internalType": "uint256",
          "name": "redeemAmount",
          "type": "uint256"
        }
      ],
      "name": "repayAndRedeem",
      "outputs": [],
      "stateMutability": "nonpayable",
      "type": "function"
    },
    {
      "inputs": [
        {
          "internalType": "string",
          "name": "supplyTokenSymbol",
          "type": "string"
        },
        {
          "internalType": "uint256",
          "name": "supplyAmount",
          "type": "uint256"
        },
        {
          "internalType": "string",
          "name": "borrowTokenSymbol",
          "type": "string"
        },
        {
          "internalType": "uint256",
          "name": "borrowAmount",
          "type": "uint256"
        }
      ],
      "name": "supplyAndBorrow",
      "outputs": [],
      "stateMutability": "nonpayable",
      "type": "function"
    }
  ],
  "bytecode": "0x60a06040523480156200001157600080fd5b5060405162001ded38038062001ded833981016040819052620000349162000211565b826001600160a01b0381166200005d5760405163e6c4247b60e01b815260040160405180910390fd5b6001600160a01b031660805281516200007e9060009060208501906200009e565b508051620000949060019060208401906200009e565b50505050620002d8565b828054620000ac906200029b565b90600052602060002090601f016020900481019282620000d057600085556200011b565b82601f10620000eb57805160ff19168380011785556200011b565b828001600101855582156200011b579182015b828111156200011b578251825591602001919060010190620000fe565b50620001299291506200012d565b5090565b5b808211156200012957600081556001016200012e565b634e487b7160e01b600052604160045260246000fd5b600082601f8301126200016c57600080fd5b81516001600160401b038082111562000189576200018962000144565b604051601f8301601f19908116603f01168101908282118183101715620001b457620001b462000144565b81604052838152602092508683858801011115620001d157600080fd5b600091505b83821015620001f55785820183015181830184015290820190620001d6565b83821115620002075760008385830101525b9695505050505050565b6000806000606084860312156200022757600080fd5b83516001600160a01b03811681146200023f57600080fd5b60208501519093506001600160401b03808211156200025d57600080fd5b6200026b878388016200015a565b935060408601519150808211156200028257600080fd5b5062000291868287016200015a565b9150509250925092565b600181811c90821680620002b057607f821691505b60208210811415620002d257634e487b7160e01b600052602260045260246000fd5b50919050565b608051611aba6200033360003960008181610167015281816103730152818161047801528181610566015281816106770152818161079f015281816108b20152818161093b01528181610a630152610b9e0152611aba6000f3fe608060405234801561001057600080fd5b50600436106100df5760003560e01c8063491606581161008c578063cc87890c11610066578063cc87890c146101e1578063d0224434146101f4578063e888e86c14610207578063facd28a91461021a57600080fd5b806349160658146101b35780635b32619c146101c657806360ae2eb2146101ce57600080fd5b8063116191b6116100bd578063116191b6146101625780631a98b2e0146101895780633ca2fd8e1461019e57600080fd5b806307042656146100e457806309cc027b146101025780630d38218a1461012d575b600080fd5b6100ec61022d565b6040516100f991906111cc565b60405180910390f35b610115610110366004611228565b6102bb565b6040516001600160a01b0390911681526020016100f9565b6101547fdb79ee324babd8834c3c1a1a2739c004fce73b812ac9f637241ff47b19e4b71f81565b6040519081526020016100f9565b6101157f000000000000000000000000000000000000000000000000000000000000000081565b61019c6101973660046112f4565b610329565b005b6101546101ac3660046113ce565b5090919050565b61019c6101c136600461141a565b61051c565b6100ec610650565b61019c6101dc3660046114be565b61065d565b61019c6101ef3660046114be565b610921565b61019c610202366004611540565b610b36565b61019c610215366004611228565b610b84565b610115610228366004611540565b610c8c565b6000805461023a906115da565b80601f0160208091040260200160405190810160405280929190818152602001828054610266906115da565b80156102b35780601f10610288576101008083540402835291602001916102b3565b820191906000526020600020905b81548152906001019060200180831161029657829003601f168201915b505050505081565b6000808a8a8a8a8a8a8a8a8a7fdb79ee324babd8834c3c1a1a2739c004fce73b812ac9f637241ff47b19e4b71f6040516020016103019a9998979695949392919061163e565b60408051601f198184030181529190528051602090910120549b9a5050505050505050505050565b6000858560405161033b9291906116a9565b6040519081900381207f1876eed900000000000000000000000000000000000000000000000000000000825291506001600160a01b037f00000000000000000000000000000000000000000000000000000000000000001690631876eed9906103b8908e908e908e908e908e9089908d908d908d906004016116b9565b602060405180830381600087803b1580156103d257600080fd5b505af11580156103e6573d6000803e3d6000fd5b505050506040513d601f19601f8201168201806040525081019061040a9190611718565b61042757604051631403112d60e21b815260040160405180910390fd5b600061043a8b8b8b8b8b8b8b8b8b6102bb565b90506001600160a01b0381161561050e5761045e8b8b8b8b8b8b8b8b8b6000610cf1565b6040516349ad89fb60e11b81526000906001600160a01b037f0000000000000000000000000000000000000000000000000000000000000000169063935b13f6906104af908990899060040161173a565b60206040518083038186803b1580156104c757600080fd5b505afa1580156104db573d6000803e3d6000fd5b505050506040513d601f19601f820116820180604052508101906104ff9190611756565b905061050c818386610d5e565b505b505050505050505050505050565b6000828260405161052e9291906116a9565b6040519081900381207f5f6970c300000000000000000000000000000000000000000000000000000000825291506001600160a01b037f00000000000000000000000000000000000000000000000000000000000000001690635f6970c3906105a5908b908b908b908b908b90899060040161177f565b602060405180830381600087803b1580156105bf57600080fd5b505af11580156105d3573d6000803e3d6000fd5b505050506040513d601f19601f820116820180604052508101906105f79190611718565b61061457604051631403112d60e21b815260040160405180910390fd5b6000610624888888888888610c8c565b90506001600160a01b03811615610645576106458888888888886000610ecd565b505050505050505050565b6001805461023a906115da565b6040516349ad89fb60e11b81526000906001600160a01b037f0000000000000000000000000000000000000000000000000000000000000000169063935b13f6906106ae908a908a9060040161173a565b60206040518083038186803b1580156106c657600080fd5b505afa1580156106da573d6000803e3d6000fd5b505050506040513d601f19601f820116820180604052508101906106fe9190611756565b6040516323b872dd60e01b8152336004820152306024820152604481018790529091506001600160a01b038216906323b872dd90606401602060405180830381600087803b15801561074f57600080fd5b505af1158015610763573d6000803e3d6000fd5b505050506040513d601f19601f820116820180604052508101906107879190611718565b5060405163095ea7b360e01b81526001600160a01b037f0000000000000000000000000000000000000000000000000000000000000000811660048301526024820187905282169063095ea7b390604401602060405180830381600087803b1580156107f257600080fd5b505af1158015610806573d6000803e3d6000fd5b505050506040513d601f19601f8201168201806040525081019061082a9190611718565b50600084848461083b336014610f31565b60405160200161084e94939291906117c0565b604051602081830303815290604052905060008160405160200161087291906117f7565b60408051601f19818403018152908290527fb541708400000000000000000000000000000000000000000000000000000000825291506001600160a01b037f0000000000000000000000000000000000000000000000000000000000000000169063b5417084906108f39060009060019086908f908f908f906004016118de565b600060405180830381600087803b15801561090d57600080fd5b505af115801561050c573d6000803e3d6000fd5b6040516349ad89fb60e11b81526000906001600160a01b037f0000000000000000000000000000000000000000000000000000000000000000169063935b13f690610972908a908a9060040161173a565b60206040518083038186803b15801561098a57600080fd5b505afa15801561099e573d6000803e3d6000fd5b505050506040513d601f19601f820116820180604052508101906109c29190611756565b6040516323b872dd60e01b8152336004820152306024820152604481018790529091506001600160a01b038216906323b872dd90606401602060405180830381600087803b158015610a1357600080fd5b505af1158015610a27573d6000803e3d6000fd5b505050506040513d601f19601f82011682018060405250810190610a4b9190611718565b5060405163095ea7b360e01b81526001600160a01b037f0000000000000000000000000000000000000000000000000000000000000000811660048301526024820187905282169063095ea7b390604401602060405180830381600087803b158015610ab657600080fd5b505af1158015610aca573d6000803e3d6000fd5b505050506040513d601f19601f82011682018060405250810190610aee9190611718565b506000848484610aff336014610f31565b604051602001610b1294939291906117c0565b60405160208183030381529060405290506000816040516020016108729190611940565b6000610b46878787878787610c8c565b6001600160a01b031614610b6d5760405163035b7d5560e41b815260040160405180910390fd5b610b7c86868686868633610ecd565b505050505050565b6040516349ad89fb60e11b81526000906001600160a01b037f0000000000000000000000000000000000000000000000000000000000000000169063935b13f690610bd5908790879060040161173a565b60206040518083038186803b158015610bed57600080fd5b505afa158015610c01573d6000803e3d6000fd5b505050506040513d601f19601f82011682018060405250810190610c259190611756565b905081610c33823383611137565b6000610c468c8c8c8c8c8c8c8c8c6102bb565b6001600160a01b031614610c6d5760405163035b7d5560e41b815260040160405180910390fd5b610c7f8b8b8b8b8b8b8b8b8b33610cf1565b5050505050505050505050565b6000808787878787877fdb79ee324babd8834c3c1a1a2739c004fce73b812ac9f637241ff47b19e4b71f604051602001610ccc9796959493929190611987565b60408051601f1981840301815291905280516020909101205498975050505050505050565b60008a8a8a8a8a8a8a8a8a7fdb79ee324babd8834c3c1a1a2739c004fce73b812ac9f637241ff47b19e4b71f604051602001610d369a9998979695949392919061163e565b6040516020818303038152906040528051906020012090508181555050505050505050505050565b6040516001600160a01b0383811660248301526044820183905260009182918616907fa9059cbb00000000000000000000000000000000000000000000000000000000906064015b60408051601f198184030181529181526020820180517bffffffffffffffffffffffffffffffffffffffffffffffffffffffff167fffffffff00000000000000000000000000000000000000000000000000000000909416939093179092529051610e1191906119d8565b6000604051808303816000865af19150503d8060008114610e4e576040519150601f19603f3d011682016040523d82523d6000602084013e610e53565b606091505b50915091506000828015610e7f575081511580610e7f575081806020019051810190610e7f9190611718565b9050801580610e9657506001600160a01b0386163b155b15610b7c576040517f90b8ec1800000000000000000000000000000000000000000000000000000000815260040160405180910390fd5b60008787878787877fdb79ee324babd8834c3c1a1a2739c004fce73b812ac9f637241ff47b19e4b71f604051602001610f0c9796959493929190611987565b6040516020818303038152906040528051906020012090508181555050505050505050565b60606000610f40836002611a0a565b610f4b906002611a29565b67ffffffffffffffff811115610f6357610f63611a41565b6040519080825280601f01601f191660200182016040528015610f8d576020820181803683370190505b5090507f300000000000000000000000000000000000000000000000000000000000000081600081518110610fc457610fc4611a57565b60200101906001600160f81b031916908160001a9053507f78000000000000000000000000000000000000000000000000000000000000008160018151811061100f5761100f611a57565b60200101906001600160f81b031916908160001a9053506000611033846002611a0a565b61103e906001611a29565b90505b60018111156110c3577f303132333435363738396162636465660000000000000000000000000000000085600f166010811061107f5761107f611a57565b1a60f81b82828151811061109557611095611a57565b60200101906001600160f81b031916908160001a90535060049490941c936110bc81611a6d565b9050611041565b508315611130576040517f08c379a000000000000000000000000000000000000000000000000000000000815260206004820181905260248201527f537472696e67733a20686578206c656e67746820696e73756666696369656e74604482015260640160405180910390fd5b9392505050565b6040516001600160a01b0383811660248301523060448301526064820183905260009182918616906323b872dd60e01b90608401610da6565b60005b8381101561118b578181015183820152602001611173565b8381111561119a576000848401525b50505050565b600081518084526111b8816020860160208601611170565b601f01601f19169290920160200192915050565b60208152600061113060208301846111a0565b60008083601f8401126111f157600080fd5b50813567ffffffffffffffff81111561120957600080fd5b60208301915083602082850101111561122157600080fd5b9250929050565b600080600080600080600080600060a08a8c03121561124657600080fd5b893567ffffffffffffffff8082111561125e57600080fd5b61126a8d838e016111df565b909b50995060208c013591508082111561128357600080fd5b61128f8d838e016111df565b909950975060408c01359150808211156112a857600080fd5b6112b48d838e016111df565b909750955060608c01359150808211156112cd57600080fd5b506112da8c828d016111df565b9a9d999c50979a9699959894979660800135949350505050565b60008060008060008060008060008060c08b8d03121561131357600080fd5b8a35995060208b013567ffffffffffffffff8082111561133257600080fd5b61133e8e838f016111df565b909b50995060408d013591508082111561135757600080fd5b6113638e838f016111df565b909950975060608d013591508082111561137c57600080fd5b6113888e838f016111df565b909750955060808d01359150808211156113a157600080fd5b506113ae8d828e016111df565b9150809450508092505060a08b013590509295989b9194979a5092959850565b6000806000604084860312156113e357600080fd5b83359250602084013567ffffffffffffffff81111561140157600080fd5b61140d868287016111df565b9497909650939450505050565b60008060008060008060006080888a03121561143557600080fd5b87359650602088013567ffffffffffffffff8082111561145457600080fd5b6114608b838c016111df565b909850965060408a013591508082111561147957600080fd5b6114858b838c016111df565b909650945060608a013591508082111561149e57600080fd5b506114ab8a828b016111df565b989b979a50959850939692959293505050565b600080600080600080608087890312156114d757600080fd5b863567ffffffffffffffff808211156114ef57600080fd5b6114fb8a838b016111df565b909850965060208901359550604089013591508082111561151b57600080fd5b5061152889828a016111df565b979a9699509497949695606090950135949350505050565b6000806000806000806060878903121561155957600080fd5b863567ffffffffffffffff8082111561157157600080fd5b61157d8a838b016111df565b9098509650602089013591508082111561159657600080fd5b6115a28a838b016111df565b909650945060408901359150808211156115bb57600080fd5b506115c889828a016111df565b979a9699509497509295939492505050565b600181811c908216806115ee57607f821691505b6020821081141561160f57634e487b7160e01b600052602260045260246000fd5b50919050565b81835281816020850137506000828201602090810191909152601f909101601f19169091010190565b60c08152600061165260c083018c8e611615565b8281036020840152611665818b8d611615565b9050828103604084015261167a81898b611615565b9050828103606084015261168f818789611615565b6080840195909552505060a0015298975050505050505050565b8183823760009101908152919050565b89815260c0602082015260006116d360c083018a8c611615565b82810360408401526116e681898b611615565b90508660608401528281036080840152611701818688611615565b9150508260a08301529a9950505050505050505050565b60006020828403121561172a57600080fd5b8151801515811461113057600080fd5b60208152600061174e602083018486611615565b949350505050565b60006020828403121561176857600080fd5b81516001600160a01b038116811461113057600080fd5b868152608060208201526000611799608083018789611615565b82810360408401526117ac818688611615565b915050826060830152979650505050505050565b6060815260006117d4606083018688611615565b84602084015282810360408401526117ec81856111a0565b979650505050505050565b60408152600f60408201527f737570706c79416e64426f72726f770000000000000000000000000000000000606082015260806020820152600061113060808301846111a0565b8054600090600181811c908083168061185857607f831692505b602080841082141561187a57634e487b7160e01b600052602260045260246000fd5b8388526020880182801561189557600181146118a6576118d1565b60ff198716825282820197506118d1565b60008981526020902060005b878110156118cb578154848201529086019084016118b2565b83019850505b5050505050505092915050565b60a0815260006118f160a083018961183e565b8281036020840152611903818961183e565b9050828103604084015261191781886111a0565b9050828103606084015261192c818688611615565b915050826080830152979650505050505050565b60408152600e60408201527f7265706179416e6452656465656d000000000000000000000000000000000000606082015260806020820152600061113060808301846111a0565b60808152600061199b60808301898b611615565b82810360208401526119ae81888a611615565b905082810360408401526119c3818688611615565b91505082606083015298975050505050505050565b600082516119ea818460208701611170565b9190910192915050565b634e487b7160e01b600052601160045260246000fd5b6000816000190483118215151615611a2457611a246119f4565b500290565b60008219821115611a3c57611a3c6119f4565b500190565b634e487b7160e01b600052604160045260246000fd5b634e487b7160e01b600052603260045260246000fd5b600081611a7c57611a7c6119f4565b50600019019056fea26469706673582212201ff95cbb09d32c3cc2dfc1f71e52a5d13706c07aadc52642db0cdb4bb507afb264736f6c63430008090033",
  "linkReferences": {},
  "deployedLinkReferences": {}
}