{
  "_format": "hh-sol-artifact-1",
  "contractName": "DistributionForecallable",
  "sourceName": "examples/forecall/DistributionForecallable.sol",
  "abi": [
    {
      "inputs": [
        {
          "internalType": "address",
          "name": "gateway_",
          "type": "address"
        },
        {
          "internalType": "address",
          "name": "gasReceiver_",
          "type": "address"
        }
      ],
      "stateMutability": "nonpayable",
      "type": "constructor"
    },
    {
      "inputs": [],
      "name": "AlreadyForecalled",
      "type": "error"
    },
    {
      "inputs": [],
      "name": "InvalidAddress",
      "type": "error"
    },
    {
      "inputs": [],
      "name": "InvalidCodeHash",
      "type": "error"
    },
    {
      "inputs": [],
      "name": "InvalidImplementation",
      "type": "error"
    },
    {
      "inputs": [],
      "name": "InvalidOwner",
      "type": "error"
    },
    {
      "inputs": [],
      "name": "NotApprovedByGateway",
      "type": "error"
    },
    {
      "inputs": [],
      "name": "NotOwner",
      "type": "error"
    },
    {
      "inputs": [],
      "name": "NotProxy",
      "type": "error"
    },
    {
      "inputs": [],
      "name": "SetupFailed",
      "type": "error"
    },
    {
      "inputs": [],
      "name": "TransferFailed",
      "type": "error"
    },
    {
      "anonymous": false,
      "inputs": [
        {
          "indexed": true,
          "internalType": "address",
          "name": "newOwner",
          "type": "address"
        }
      ],
      "name": "OwnershipTransferred",
      "type": "event"
    },
    {
      "anonymous": false,
      "inputs": [
        {
          "indexed": true,
          "internalType": "address",
          "name": "newImplementation",
          "type": "address"
        }
      ],
      "name": "Upgraded",
      "type": "event"
    },
    {
      "inputs": [],
      "name": "FORECALLERS_SALT",
      "outputs": [
        {
          "internalType": "uint256",
          "name": "",
          "type": "uint256"
        }
      ],
      "stateMutability": "view",
      "type": "function"
    },
    {
      "inputs": [
        {
          "internalType": "uint256",
          "name": "amount",
          "type": "uint256"
        },
        {
          "internalType": "bytes",
          "name": "payload",
          "type": "bytes"
        }
      ],
      "name": "amountPostFee",
      "outputs": [
        {
          "internalType": "uint256",
          "name": "",
          "type": "uint256"
        }
      ],
      "stateMutability": "pure",
      "type": "function"
    },
    {
      "inputs": [],
      "name": "contractId",
      "outputs": [
        {
          "internalType": "bytes32",
          "name": "",
          "type": "bytes32"
        }
      ],
      "stateMutability": "pure",
      "type": "function"
    },
    {
      "inputs": [
        {
          "internalType": "bytes32",
          "name": "commandId",
          "type": "bytes32"
        },
        {
          "internalType": "string",
          "name": "sourceChain",
          "type": "string"
        },
        {
          "internalType": "string",
          "name": "sourceAddress",
          "type": "string"
        },
        {
          "internalType": "bytes",
          "name": "payload",
          "type": "bytes"
        }
      ],
      "name": "execute",
      "outputs": [],
      "stateMutability": "nonpayable",
      "type": "function"
    },
    {
      "inputs": [
        {
          "internalType": "bytes32",
          "name": "commandId",
          "type": "bytes32"
        },
        {
          "internalType": "string",
          "name": "sourceChain",
          "type": "string"
        },
        {
          "internalType": "string",
          "name": "sourceAddress",
          "type": "string"
        },
        {
          "internalType": "bytes",
          "name": "payload",
          "type": "bytes"
        },
        {
          "internalType": "string",
          "name": "tokenSymbol",
          "type": "string"
        },
        {
          "internalType": "uint256",
          "name": "amount",
          "type": "uint256"
        }
      ],
      "name": "executeWithToken",
      "outputs": [],
      "stateMutability": "nonpayable",
      "type": "function"
    },
    {
      "inputs": [
        {
          "internalType": "string",
          "name": "sourceChain",
          "type": "string"
        },
        {
          "internalType": "string",
          "name": "sourceAddress",
          "type": "string"
        },
        {
          "internalType": "bytes",
          "name": "payload",
          "type": "bytes"
        }
      ],
      "name": "forecall",
      "outputs": [],
      "stateMutability": "nonpayable",
      "type": "function"
    },
    {
      "inputs": [
        {
          "internalType": "string",
          "name": "sourceChain",
          "type": "string"
        },
        {
          "internalType": "string",
          "name": "sourceAddress",
          "type": "string"
        },
        {
          "internalType": "bytes",
          "name": "payload",
          "type": "bytes"
        },
        {
          "internalType": "string",
          "name": "tokenSymbol",
          "type": "string"
        },
        {
          "internalType": "uint256",
          "name": "amount",
          "type": "uint256"
        }
      ],
      "name": "forecallWithToken",
      "outputs": [],
      "stateMutability": "nonpayable",
      "type": "function"
    },
    {
      "inputs": [],
      "name": "gasReceiver",
      "outputs": [
        {
          "internalType": "contract IAxelarGasService",
          "name": "",
          "type": "address"
        }
      ],
      "stateMutability": "view",
      "type": "function"
    },
    {
      "inputs": [],
      "name": "gateway",
      "outputs": [
        {
          "internalType": "contract IAxelarGateway",
          "name": "",
          "type": "address"
        }
      ],
      "stateMutability": "view",
      "type": "function"
    },
    {
      "inputs": [
        {
          "internalType": "string",
          "name": "sourceChain",
          "type": "string"
        },
        {
          "internalType": "string",
          "name": "sourceAddress",
          "type": "string"
        },
        {
          "internalType": "bytes",
          "name": "payload",
          "type": "bytes"
        }
      ],
      "name": "getForecaller",
      "outputs": [
        {
          "internalType": "address",
          "name": "forecaller",
          "type": "address"
        }
      ],
      "stateMutability": "view",
      "type": "function"
    },
    {
      "inputs": [
        {
          "internalType": "string",
          "name": "sourceChain",
          "type": "string"
        },
        {
          "internalType": "string",
          "name": "sourceAddress",
          "type": "string"
        },
        {
          "internalType": "bytes",
          "name": "payload",
          "type": "bytes"
        },
        {
          "internalType": "string",
          "name": "symbol",
          "type": "string"
        },
        {
          "internalType": "uint256",
          "name": "amount",
          "type": "uint256"
        }
      ],
      "name": "getForecallerWithToken",
      "outputs": [
        {
          "internalType": "address",
          "name": "forecaller",
          "type": "address"
        }
      ],
      "stateMutability": "view",
      "type": "function"
    },
    {
      "inputs": [],
      "name": "implementation",
      "outputs": [
        {
          "internalType": "address",
          "name": "implementation_",
          "type": "address"
        }
      ],
      "stateMutability": "view",
      "type": "function"
    },
    {
      "inputs": [],
      "name": "owner",
      "outputs": [
        {
          "internalType": "address",
          "name": "owner_",
          "type": "address"
        }
      ],
      "stateMutability": "view",
      "type": "function"
    },
    {
      "inputs": [
        {
          "internalType": "string",
          "name": "destinationChain",
          "type": "string"
        },
        {
          "internalType": "address[]",
          "name": "destinationAddresses",
          "type": "address[]"
        },
        {
          "internalType": "string",
          "name": "symbol",
          "type": "string"
        },
        {
          "internalType": "uint256",
          "name": "amount",
          "type": "uint256"
        }
      ],
      "name": "sendToMany",
      "outputs": [],
      "stateMutability": "payable",
      "type": "function"
    },
    {
      "inputs": [
        {
          "internalType": "string",
          "name": "destinationChain",
          "type": "string"
        },
        {
          "internalType": "address[]",
          "name": "destinationAddresses",
          "type": "address[]"
        },
        {
          "internalType": "string",
          "name": "symbol",
          "type": "string"
        },
        {
          "internalType": "uint256",
          "name": "amount",
          "type": "uint256"
        },
        {
          "internalType": "uint64",
          "name": "feeNum",
          "type": "uint64"
        },
        {
          "internalType": "uint64",
          "name": "feeDenom",
          "type": "uint64"
        },
        {
          "internalType": "uint128",
          "name": "salt",
          "type": "uint128"
        }
      ],
      "name": "sendToManyForecall",
      "outputs": [],
      "stateMutability": "payable",
      "type": "function"
    },
    {
      "inputs": [
        {
          "internalType": "bytes",
          "name": "data",
          "type": "bytes"
        }
      ],
      "name": "setup",
      "outputs": [],
      "stateMutability": "nonpayable",
      "type": "function"
    },
    {
      "inputs": [
        {
          "internalType": "address",
          "name": "newOwner",
          "type": "address"
        }
      ],
      "name": "transferOwnership",
      "outputs": [],
      "stateMutability": "nonpayable",
      "type": "function"
    },
    {
      "inputs": [
        {
          "internalType": "address",
          "name": "newImplementation",
          "type": "address"
        },
        {
          "internalType": "bytes32",
          "name": "newImplementationCodeHash",
          "type": "bytes32"
        },
        {
          "internalType": "bytes",
          "name": "params",
          "type": "bytes"
        }
      ],
      "name": "upgrade",
      "outputs": [],
      "stateMutability": "nonpayable",
      "type": "function"
    }
  ],
  "bytecode": "0x60c06040523480156200001157600080fd5b506040516200257b3803806200257b833981016040819052620000349162000093565b816001600160a01b0381166200005d5760405163e6c4247b60e01b815260040160405180910390fd5b6001600160a01b039081166080521660a05250620000cb565b80516001600160a01b03811681146200008e57600080fd5b919050565b60008060408385031215620000a757600080fd5b620000b28362000076565b9150620000c26020840162000076565b90509250929050565b60805160a05161245262000129600039600061029c0152600081816101bf015281816104b0015281816105b50152818161072b01528181610c8b015281816110d6015281816112de0152818161141d01526114dc01526124526000f3fe6080604052600436106101295760003560e01c80638291286c116100a5578063b0c8e0a611610074578063e888e86c11610059578063e888e86c14610398578063f2fde38b146103b8578063facd28a9146103d857600080fd5b8063b0c8e0a614610365578063d02244341461037857600080fd5b80638291286c146102be5780638da5cb5b146102f15780639ded06df14610325578063a3499c731461034557600080fd5b80633ca2fd8e116100fc5780634efc0ea0116100e15780634efc0ea0146102435780635c60da1b1461025657806380d14b4a1461028a57600080fd5b80633ca2fd8e14610203578063491606581461022357600080fd5b806309cc027b1461012e5780630d38218a1461016b578063116191b6146101ad5780631a98b2e0146101e1575b600080fd5b34801561013a57600080fd5b5061014e6101493660046118ae565b6103f8565b6040516001600160a01b0390911681526020015b60405180910390f35b34801561017757600080fd5b5061019f7fdb79ee324babd8834c3c1a1a2739c004fce73b812ac9f637241ff47b19e4b71f81565b604051908152602001610162565b3480156101b957600080fd5b5061014e7f000000000000000000000000000000000000000000000000000000000000000081565b3480156101ed57600080fd5b506102016101fc36600461197a565b610466565b005b34801561020f57600080fd5b5061019f61021e366004611a54565b61066e565b34801561022f57600080fd5b5061020161023e366004611aa0565b6106e1565b610201610251366004611c5d565b610815565b34801561026257600080fd5b507f360894a13ba1a3210667c828492db98dca3e2076cc3735a920a3ca505d382bbc5461014e565b34801561029657600080fd5b5061014e7f000000000000000000000000000000000000000000000000000000000000000081565b3480156102ca57600080fd5b507f8b88dae839acea7ff6a270cef523f6c04d348796d1890294879850ff17ecd6cc61019f565b3480156102fd57600080fd5b507f02016836a56b71f0d02689e69e326f4f4c1b9057164ef592671cf0d37c8040c05461014e565b34801561033157600080fd5b50610201610340366004611d3f565b610882565b34801561035157600080fd5b50610201610360366004611d99565b6108f1565b610201610373366004611df5565b610c0d565b34801561038457600080fd5b50610201610393366004611e8b565b610c23565b3480156103a457600080fd5b506102016103b33660046118ae565b610c71565b3480156103c457600080fd5b506102016103d3366004611f25565b610d98565b3480156103e457600080fd5b5061014e6103f3366004611e8b565b610e80565b6000808a8a8a8a8a8a8a8a8a7fdb79ee324babd8834c3c1a1a2739c004fce73b812ac9f637241ff47b19e4b71f60405160200161043e9a99989796959493929190611f6b565b60408051601f198184030181529190528051602090910120549b9a5050505050505050505050565b60008585604051610478929190611fd6565b6040519081900381207f1876eed900000000000000000000000000000000000000000000000000000000825291506001600160a01b037f00000000000000000000000000000000000000000000000000000000000000001690631876eed9906104f5908e908e908e908e908e9089908d908d908d90600401611fe6565b602060405180830381600087803b15801561050f57600080fd5b505af1158015610523573d6000803e3d6000fd5b505050506040513d601f19601f820116820180604052508101906105479190612045565b61056457604051631403112d60e21b815260040160405180910390fd5b60006105778b8b8b8b8b8b8b8b8b6103f8565b90506001600160a01b0381161561064f5761059b8b8b8b8b8b8b8b8b8b6000610ee5565b6040516349ad89fb60e11b81526000906001600160a01b037f0000000000000000000000000000000000000000000000000000000000000000169063935b13f6906105ec9089908990600401612067565b60206040518083038186803b15801561060457600080fd5b505afa158015610618573d6000803e3d6000fd5b505050506040513d601f19601f8201168201806040525081019061063c9190612083565b9050610649818386610f52565b50610660565b6106608b8b8b8b8b8b8b8b8b6110c1565b505050505050505050505050565b60008061067d838501856120a0565b905080604081901c67ffffffffffffffff811661069f578693505050506106da565b8067ffffffffffffffff168267ffffffffffffffff16886106c091906120cf565b6106ca91906120ee565b6106d49088612110565b93505050505b9392505050565b600082826040516106f3929190611fd6565b6040519081900381207f5f6970c300000000000000000000000000000000000000000000000000000000825291506001600160a01b037f00000000000000000000000000000000000000000000000000000000000000001690635f6970c39061076a908b908b908b908b908b908990600401612127565b602060405180830381600087803b15801561078457600080fd5b505af1158015610798573d6000803e3d6000fd5b505050506040513d601f19601f820116820180604052508101906107bc9190612045565b6107d957604051631403112d60e21b815260040160405180910390fd5b60006107e9888888888888610e80565b90506001600160a01b0381161561080a5761080a8888888888886000611260565b505050505050505050565b60007fffffffffffffffffffffffffffffffff00000000000000000000000000000000608083901b166108686fffffffffffffffff0000000000000000604086901b1667ffffffffffffffff8716612168565b6108729190612168565b905061080a8989898989866112c4565b60006108ac7f360894a13ba1a3210667c828492db98dca3e2076cc3735a920a3ca505d382bbc5490565b6001600160a01b031614156108ed576040517fbf10dd3a00000000000000000000000000000000000000000000000000000000815260040160405180910390fd5b5050565b3361091a7f02016836a56b71f0d02689e69e326f4f4c1b9057164ef592671cf0d37c8040c05490565b6001600160a01b031614610941576040516330cd747160e01b815260040160405180910390fd5b306001600160a01b0316638291286c6040518163ffffffff1660e01b815260040160206040518083038186803b15801561097a57600080fd5b505afa15801561098e573d6000803e3d6000fd5b505050506040513d601f19601f820116820180604052508101906109b29190612180565b846001600160a01b0316638291286c6040518163ffffffff1660e01b815260040160206040518083038186803b1580156109eb57600080fd5b505afa1580156109ff573d6000803e3d6000fd5b505050506040513d601f19601f82011682018060405250810190610a239190612180565b14610a5a576040517f68155f9a00000000000000000000000000000000000000000000000000000000815260040160405180910390fd5b836001600160a01b03163f8314610a9d576040517f8f84fb2400000000000000000000000000000000000000000000000000000000815260040160405180910390fd5b8015610bb2576000846001600160a01b0316639ded06df60e01b8484604051602401610aca929190612067565b60408051601f198184030181529181526020820180517bffffffffffffffffffffffffffffffffffffffffffffffffffffffff167fffffffff00000000000000000000000000000000000000000000000000000000909416939093179092529051610b3591906121c9565b600060405180830381855af49150503d8060008114610b70576040519150601f19603f3d011682016040523d82523d6000602084013e610b75565b606091505b5050905080610bb0576040517f97905dfb00000000000000000000000000000000000000000000000000000000815260040160405180910390fd5b505b6040516001600160a01b038516907fbc7cd75a20ee27fd9adebab32041f755214dbc6bffa90cc0225b39da2e5c2d3b90600090a25050507f360894a13ba1a3210667c828492db98dca3e2076cc3735a920a3ca505d382bbc55565b610c1c858585858560006112c4565b5050505050565b6000610c33878787878787610e80565b6001600160a01b031614610c5a5760405163035b7d5560e41b815260040160405180910390fd5b610c6986868686868633611260565b505050505050565b6040516349ad89fb60e11b81526000906001600160a01b037f0000000000000000000000000000000000000000000000000000000000000000169063935b13f690610cc29087908790600401612067565b60206040518083038186803b158015610cda57600080fd5b505afa158015610cee573d6000803e3d6000fd5b505050506040513d601f19601f82011682018060405250810190610d129190612083565b90506000610d2183888861066e565b9050610d2e82338361155c565b6000610d418c8c8c8c8c8c8c8c8c6103f8565b6001600160a01b031614610d685760405163035b7d5560e41b815260040160405180910390fd5b610d7a8b8b8b8b8b8b8b8b8b33610ee5565b610d8b8b8b8b8b8b8b8b8b896110c1565b5050505050505050505050565b33610dc17f02016836a56b71f0d02689e69e326f4f4c1b9057164ef592671cf0d37c8040c05490565b6001600160a01b031614610de8576040516330cd747160e01b815260040160405180910390fd5b6001600160a01b038116610e28576040517f49e27cff00000000000000000000000000000000000000000000000000000000815260040160405180910390fd5b6040516001600160a01b038216907f04dba622d284ed0014ee4b9a6a68386be1a4c08a4913ae272de89199cc68616390600090a27f02016836a56b71f0d02689e69e326f4f4c1b9057164ef592671cf0d37c8040c055565b6000808787878787877fdb79ee324babd8834c3c1a1a2739c004fce73b812ac9f637241ff47b19e4b71f604051602001610ec097969594939291906121e5565b60408051601f1981840301815291905280516020909101205498975050505050505050565b60008a8a8a8a8a8a8a8a8a7fdb79ee324babd8834c3c1a1a2739c004fce73b812ac9f637241ff47b19e4b71f604051602001610f2a9a99989796959493929190611f6b565b6040516020818303038152906040528051906020012090508181555050505050505050505050565b6040516001600160a01b0383811660248301526044820183905260009182918616907fa9059cbb00000000000000000000000000000000000000000000000000000000906064015b60408051601f198184030181529181526020820180517bffffffffffffffffffffffffffffffffffffffffffffffffffffffff167fffffffff0000000000000000000000000000000000000000000000000000000090941693909317909252905161100591906121c9565b6000604051808303816000865af19150503d8060008114611042576040519150601f19603f3d011682016040523d82523d6000602084013e611047565b606091505b509150915060008280156110735750815115806110735750818060200190518101906110739190612045565b905080158061108a57506001600160a01b0386163b155b15610c69576040517f90b8ec1800000000000000000000000000000000000000000000000000000000815260040160405180910390fd5b60006110cf85870187612236565b91505060007f00000000000000000000000000000000000000000000000000000000000000006001600160a01b031663935b13f686866040518363ffffffff1660e01b8152600401611122929190612067565b60206040518083038186803b15801561113a57600080fd5b505afa15801561114e573d6000803e3d6000fd5b505050506040513d601f19601f820116820180604052508101906111729190612083565b9050600082518461118391906120ee565b905060005b835181101561125157826001600160a01b031663a9059cbb8583815181106111b2576111b26122f4565b6020026020010151846040518363ffffffff1660e01b81526004016111ec9291906001600160a01b03929092168252602082015260400190565b602060405180830381600087803b15801561120657600080fd5b505af115801561121a573d6000803e3d6000fd5b505050506040513d601f19601f8201168201806040525081019061123e9190612045565b50806112498161230a565b915050611188565b50505050505050505050505050565b60008787878787877fdb79ee324babd8834c3c1a1a2739c004fce73b812ac9f637241ff47b19e4b71f60405160200161129f97969594939291906121e5565b6040516020818303038152906040528051906020012090508181555050505050505050565b6040516349ad89fb60e11b81526000906001600160a01b037f0000000000000000000000000000000000000000000000000000000000000000169063935b13f690611313908790600401612351565b60206040518083038186803b15801561132b57600080fd5b505afa15801561133f573d6000803e3d6000fd5b505050506040513d601f19601f820116820180604052508101906113639190612083565b6040516323b872dd60e01b8152336004820152306024820152604481018590529091506001600160a01b038216906323b872dd90606401602060405180830381600087803b1580156113b457600080fd5b505af11580156113c8573d6000803e3d6000fd5b505050506040513d601f19601f820116820180604052508101906113ec9190612045565b506040517f095ea7b30000000000000000000000000000000000000000000000000000000081526001600160a01b037f0000000000000000000000000000000000000000000000000000000000000000811660048301526024820185905282169063095ea7b390604401602060405180830381600087803b15801561147057600080fd5b505af1158015611484573d6000803e3d6000fd5b505050506040513d601f19601f820116820180604052508101906114a89190612045565b5060008287876040516020016114c093929190612364565b60408051601f1981840301815291905290506001600160a01b037f00000000000000000000000000000000000000000000000000000000000000001663b54170848961150b30611595565b8489896040518663ffffffff1660e01b815260040161152e9594939291906123bc565b600060405180830381600087803b15801561154857600080fd5b505af1158015610660573d6000803e3d6000fd5b6040516001600160a01b0383811660248301523060448301526064820183905260009182918616906323b872dd60e01b90608401610f9a565b604051606082811b6bffffffffffffffffffffffff191660208301529060009060340160408051601f19818403018152828201909152601082527f3031323334353637383961626364656600000000000000000000000000000000602083015280519092506000906116089060026120cf565b611613906002612168565b67ffffffffffffffff81111561162b5761162b611b44565b6040519080825280601f01601f191660200182016040528015611655576020820181803683370190505b5090507f30000000000000000000000000000000000000000000000000000000000000008160008151811061168c5761168c6122f4565b60200101906001600160f81b031916908160001a9053507f7800000000000000000000000000000000000000000000000000000000000000816001815181106116d7576116d76122f4565b60200101906001600160f81b031916908160001a90535060005b835181101561185c5782600485838151811061170f5761170f6122f4565b016020015182517fff0000000000000000000000000000000000000000000000000000000000000090911690911c60f81c90811061174f5761174f6122f4565b01602001517fff0000000000000000000000000000000000000000000000000000000000000016826117828360026120cf565b61178d906002612168565b8151811061179d5761179d6122f4565b60200101906001600160f81b031916908160001a905350828482815181106117c7576117c76122f4565b602091010151815160f89190911c600f169081106117e7576117e76122f4565b01602001517fff00000000000000000000000000000000000000000000000000000000000000168261181a8360026120cf565b611825906003612168565b81518110611835576118356122f4565b60200101906001600160f81b031916908160001a9053506118558161230a565b90506116f1565b50949350505050565b60008083601f84011261187757600080fd5b50813567ffffffffffffffff81111561188f57600080fd5b6020830191508360208285010111156118a757600080fd5b9250929050565b600080600080600080600080600060a08a8c0312156118cc57600080fd5b893567ffffffffffffffff808211156118e457600080fd5b6118f08d838e01611865565b909b50995060208c013591508082111561190957600080fd5b6119158d838e01611865565b909950975060408c013591508082111561192e57600080fd5b61193a8d838e01611865565b909750955060608c013591508082111561195357600080fd5b506119608c828d01611865565b9a9d999c50979a9699959894979660800135949350505050565b60008060008060008060008060008060c08b8d03121561199957600080fd5b8a35995060208b013567ffffffffffffffff808211156119b857600080fd5b6119c48e838f01611865565b909b50995060408d01359150808211156119dd57600080fd5b6119e98e838f01611865565b909950975060608d0135915080821115611a0257600080fd5b611a0e8e838f01611865565b909750955060808d0135915080821115611a2757600080fd5b50611a348d828e01611865565b9150809450508092505060a08b013590509295989b9194979a5092959850565b600080600060408486031215611a6957600080fd5b83359250602084013567ffffffffffffffff811115611a8757600080fd5b611a9386828701611865565b9497909650939450505050565b60008060008060008060006080888a031215611abb57600080fd5b87359650602088013567ffffffffffffffff80821115611ada57600080fd5b611ae68b838c01611865565b909850965060408a0135915080821115611aff57600080fd5b611b0b8b838c01611865565b909650945060608a0135915080821115611b2457600080fd5b50611b318a828b01611865565b989b979a50959850939692959293505050565b634e487b7160e01b600052604160045260246000fd5b604051601f8201601f1916810167ffffffffffffffff81118282101715611b8357611b83611b44565b604052919050565b600082601f830112611b9c57600080fd5b813567ffffffffffffffff811115611bb657611bb6611b44565b611bc9601f8201601f1916602001611b5a565b818152846020838601011115611bde57600080fd5b816020850160208301376000918101602001919091529392505050565b60008083601f840112611c0d57600080fd5b50813567ffffffffffffffff811115611c2557600080fd5b6020830191508360208260051b85010111156118a757600080fd5b803567ffffffffffffffff81168114611c5857600080fd5b919050565b60008060008060008060008060e0898b031215611c7957600080fd5b883567ffffffffffffffff80821115611c9157600080fd5b611c9d8c838d01611b8b565b995060208b0135915080821115611cb357600080fd5b611cbf8c838d01611bfb565b909950975060408b0135915080821115611cd857600080fd5b50611ce58b828c01611b8b565b95505060608901359350611cfb60808a01611c40565b9250611d0960a08a01611c40565b915060c08901356fffffffffffffffffffffffffffffffff81168114611d2e57600080fd5b809150509295985092959890939650565b60008060208385031215611d5257600080fd5b823567ffffffffffffffff811115611d6957600080fd5b611d7585828601611865565b90969095509350505050565b6001600160a01b0381168114611d9657600080fd5b50565b60008060008060608587031215611daf57600080fd5b8435611dba81611d81565b935060208501359250604085013567ffffffffffffffff811115611ddd57600080fd5b611de987828801611865565b95989497509550505050565b600080600080600060808688031215611e0d57600080fd5b853567ffffffffffffffff80821115611e2557600080fd5b611e3189838a01611b8b565b96506020880135915080821115611e4757600080fd5b611e5389838a01611bfb565b90965094506040880135915080821115611e6c57600080fd5b50611e7988828901611b8b565b95989497509295606001359392505050565b60008060008060008060608789031215611ea457600080fd5b863567ffffffffffffffff80821115611ebc57600080fd5b611ec88a838b01611865565b90985096506020890135915080821115611ee157600080fd5b611eed8a838b01611865565b90965094506040890135915080821115611f0657600080fd5b50611f1389828a01611865565b979a9699509497509295939492505050565b600060208284031215611f3757600080fd5b81356106da81611d81565b81835281816020850137506000828201602090810191909152601f909101601f19169091010190565b60c081526000611f7f60c083018c8e611f42565b8281036020840152611f92818b8d611f42565b90508281036040840152611fa781898b611f42565b90508281036060840152611fbc818789611f42565b6080840195909552505060a0015298975050505050505050565b8183823760009101908152919050565b89815260c06020820152600061200060c083018a8c611f42565b828103604084015261201381898b611f42565b9050866060840152828103608084015261202e818688611f42565b9150508260a08301529a9950505050505050505050565b60006020828403121561205757600080fd5b815180151581146106da57600080fd5b60208152600061207b602083018486611f42565b949350505050565b60006020828403121561209557600080fd5b81516106da81611d81565b6000602082840312156120b257600080fd5b5035919050565b634e487b7160e01b600052601160045260246000fd5b60008160001904831182151516156120e9576120e96120b9565b500290565b60008261210b57634e487b7160e01b600052601260045260246000fd5b500490565b600082821015612122576121226120b9565b500390565b868152608060208201526000612141608083018789611f42565b8281036040840152612154818688611f42565b915050826060830152979650505050505050565b6000821982111561217b5761217b6120b9565b500190565b60006020828403121561219257600080fd5b5051919050565b60005b838110156121b457818101518382015260200161219c565b838111156121c3576000848401525b50505050565b600082516121db818460208701612199565b9190910192915050565b6080815260006121f960808301898b611f42565b828103602084015261220c81888a611f42565b90508281036040840152612221818688611f42565b91505082606083015298975050505050505050565b6000806040838503121561224957600080fd5b8235915060208084013567ffffffffffffffff8082111561226957600080fd5b818601915086601f83011261227d57600080fd5b81358181111561228f5761228f611b44565b8060051b91506122a0848301611b5a565b81815291830184019184810190898411156122ba57600080fd5b938501935b838510156122e457843592506122d483611d81565b82825293850193908501906122bf565b8096505050505050509250929050565b634e487b7160e01b600052603260045260246000fd5b600060001982141561231e5761231e6120b9565b5060010190565b6000815180845261233d816020860160208601612199565b601f01601f19169290920160200192915050565b6020815260006106da6020830184612325565b83815260406020808301829052908201839052600090849060608401835b868110156123b057833561239581611d81565b6001600160a01b031682529282019290820190600101612382565b50979650505050505050565b60a0815260006123cf60a0830188612325565b82810360208401526123e18188612325565b905082810360408401526123f58187612325565b905082810360608401526124098186612325565b915050826080830152969550505050505056fea2646970667358221220d1c1911d3891f2184bd59902e0333328dcfca75f6e08cadfd4aa2551ea84c8f464736f6c63430008090033",
  "linkReferences": {},
  "deployedLinkReferences": {}
}