{
  "_format": "hh-sol-artifact-1",
  "contractName": "Headers",
  "sourceName": "examples/headers/Headers.sol",
  "abi": [
    {
      "inputs": [
        {
          "internalType": "address",
          "name": "gateway_",
          "type": "address"
        },
        {
          "internalType": "address",
          "name": "gasReceiver_",
          "type": "address"
        },
        {
          "internalType": "uint256",
          "name": "length_",
          "type": "uint256"
        }
      ],
      "stateMutability": "nonpayable",
      "type": "constructor"
    },
    {
      "inputs": [],
      "name": "AlreadyInitialized",
      "type": "error"
    },
    {
      "inputs": [],
      "name": "InvalidAddress",
      "type": "error"
    },
    {
      "inputs": [],
      "name": "InvalidCodeHash",
      "type": "error"
    },
    {
      "inputs": [],
      "name": "InvalidImplementation",
      "type": "error"
    },
    {
      "inputs": [],
      "name": "InvalidOwner",
      "type": "error"
    },
    {
      "inputs": [],
      "name": "NotApprovedByGateway",
      "type": "error"
    },
    {
      "inputs": [],
      "name": "NotOwner",
      "type": "error"
    },
    {
      "inputs": [],
      "name": "NotProxy",
      "type": "error"
    },
    {
      "inputs": [],
      "name": "SetupFailed",
      "type": "error"
    },
    {
      "anonymous": false,
      "inputs": [
        {
          "indexed": true,
          "internalType": "address",
          "name": "newOwner",
          "type": "address"
        }
      ],
      "name": "OwnershipTransferred",
      "type": "event"
    },
    {
      "anonymous": false,
      "inputs": [
        {
          "indexed": true,
          "internalType": "address",
          "name": "newImplementation",
          "type": "address"
        }
      ],
      "name": "Upgraded",
      "type": "event"
    },
    {
      "inputs": [
        {
          "internalType": "string",
          "name": "",
          "type": "string"
        },
        {
          "internalType": "uint256",
          "name": "",
          "type": "uint256"
        }
      ],
      "name": "blocksMap",
      "outputs": [
        {
          "internalType": "uint256",
          "name": "",
          "type": "uint256"
        }
      ],
      "stateMutability": "view",
      "type": "function"
    },
    {
      "inputs": [],
      "name": "contractId",
      "outputs": [
        {
          "internalType": "bytes32",
          "name": "",
          "type": "bytes32"
        }
      ],
      "stateMutability": "pure",
      "type": "function"
    },
    {
      "inputs": [
        {
          "internalType": "bytes32",
          "name": "commandId",
          "type": "bytes32"
        },
        {
          "internalType": "string",
          "name": "sourceChain",
          "type": "string"
        },
        {
          "internalType": "string",
          "name": "sourceAddress",
          "type": "string"
        },
        {
          "internalType": "bytes",
          "name": "payload",
          "type": "bytes"
        }
      ],
      "name": "execute",
      "outputs": [],
      "stateMutability": "nonpayable",
      "type": "function"
    },
    {
      "inputs": [
        {
          "internalType": "bytes32",
          "name": "commandId",
          "type": "bytes32"
        },
        {
          "internalType": "string",
          "name": "sourceChain",
          "type": "string"
        },
        {
          "internalType": "string",
          "name": "sourceAddress",
          "type": "string"
        },
        {
          "internalType": "bytes",
          "name": "payload",
          "type": "bytes"
        },
        {
          "internalType": "string",
          "name": "tokenSymbol",
          "type": "string"
        },
        {
          "internalType": "uint256",
          "name": "amount",
          "type": "uint256"
        }
      ],
      "name": "executeWithToken",
      "outputs": [],
      "stateMutability": "nonpayable",
      "type": "function"
    },
    {
      "inputs": [],
      "name": "gasReceiver",
      "outputs": [
        {
          "internalType": "contract IAxelarGasService",
          "name": "",
          "type": "address"
        }
      ],
      "stateMutability": "view",
      "type": "function"
    },
    {
      "inputs": [],
      "name": "gateway",
      "outputs": [
        {
          "internalType": "contract IAxelarGateway",
          "name": "",
          "type": "address"
        }
      ],
      "stateMutability": "view",
      "type": "function"
    },
    {
      "inputs": [
        {
          "internalType": "string",
          "name": "chain",
          "type": "string"
        },
        {
          "internalType": "uint256",
          "name": "i_",
          "type": "uint256"
        }
      ],
      "name": "getHeader",
      "outputs": [
        {
          "internalType": "uint256",
          "name": "block_",
          "type": "uint256"
        },
        {
          "internalType": "bytes32",
          "name": "header_",
          "type": "bytes32"
        }
      ],
      "stateMutability": "view",
      "type": "function"
    },
    {
      "inputs": [
        {
          "internalType": "string",
          "name": "chain",
          "type": "string"
        }
      ],
      "name": "getStoredLength",
      "outputs": [
        {
          "internalType": "uint256",
          "name": "",
          "type": "uint256"
        }
      ],
      "stateMutability": "view",
      "type": "function"
    },
    {
      "inputs": [
        {
          "internalType": "string",
          "name": "",
          "type": "string"
        },
        {
          "internalType": "uint256",
          "name": "",
          "type": "uint256"
        }
      ],
      "name": "headersMap",
      "outputs": [
        {
          "internalType": "bytes32",
          "name": "",
          "type": "bytes32"
        }
      ],
      "stateMutability": "view",
      "type": "function"
    },
    {
      "inputs": [],
      "name": "implementation",
      "outputs": [
        {
          "internalType": "address",
          "name": "implementation_",
          "type": "address"
        }
      ],
      "stateMutability": "view",
      "type": "function"
    },
    {
      "inputs": [],
      "name": "length",
      "outputs": [
        {
          "internalType": "uint256",
          "name": "",
          "type": "uint256"
        }
      ],
      "stateMutability": "view",
      "type": "function"
    },
    {
      "inputs": [],
      "name": "n",
      "outputs": [
        {
          "internalType": "uint256",
          "name": "",
          "type": "uint256"
        }
      ],
      "stateMutability": "view",
      "type": "function"
    },
    {
      "inputs": [],
      "name": "owner",
      "outputs": [
        {
          "internalType": "address",
          "name": "owner_",
          "type": "address"
        }
      ],
      "stateMutability": "view",
      "type": "function"
    },
    {
      "inputs": [
        {
          "internalType": "bytes",
          "name": "data",
          "type": "bytes"
        }
      ],
      "name": "setup",
      "outputs": [],
      "stateMutability": "nonpayable",
      "type": "function"
    },
    {
      "inputs": [
        {
          "internalType": "address",
          "name": "newOwner",
          "type": "address"
        }
      ],
      "name": "transferOwnership",
      "outputs": [],
      "stateMutability": "nonpayable",
      "type": "function"
    },
    {
      "inputs": [
        {
          "internalType": "address",
          "name": "token",
          "type": "address"
        },
        {
          "internalType": "string[]",
          "name": "chains",
          "type": "string[]"
        },
        {
          "internalType": "uint256[]",
          "name": "gases",
          "type": "uint256[]"
        }
      ],
      "name": "updateRemoteHeaders",
      "outputs": [],
      "stateMutability": "nonpayable",
      "type": "function"
    },
    {
      "inputs": [
        {
          "internalType": "address",
          "name": "newImplementation",
          "type": "address"
        },
        {
          "internalType": "bytes32",
          "name": "newImplementationCodeHash",
          "type": "bytes32"
        },
        {
          "internalType": "bytes",
          "name": "params",
          "type": "bytes"
        }
      ],
      "name": "upgrade",
      "outputs": [],
      "stateMutability": "nonpayable",
      "type": "function"
    }
  ],
  "bytecode": "0x60e06040523480156200001157600080fd5b5060405162001f2338038062001f23833981016040819052620000349162000099565b826001600160a01b0381166200005d5760405163e6c4247b60e01b815260040160405180910390fd5b6001600160a01b039081166080529190911660c05260a05250620000da565b80516001600160a01b03811681146200009457600080fd5b919050565b600080600060608486031215620000af57600080fd5b620000ba846200007c565b9250620000ca602085016200007c565b9150604084015190509250925092565b60805160a05160c051611de86200013b6000396000818161025701528181610592015261065e0152600081816101b20152818161129d015261133901526000818161014b015281816103880152818161071a01526108590152611de86000f3fe608060405234801561001057600080fd5b506004361061011b5760003560e01c80635c60da1b116100b25780638da5cb5b11610081578063a3499c7311610066578063a3499c73146102d9578063c5643919146102ec578063f2fde38b146102ff57600080fd5b80638da5cb5b1461029f5780639ded06df146102c657600080fd5b80635c60da1b146102035780636d71f90f1461022a57806380d14b4a146102525780638291286c1461027957600080fd5b80631f7b6d32116100ee5780631f7b6d32146101ad57806327b55352146101d45780632e52d606146101e757806349160658146101f057600080fd5b80630835dcba14610120578063116191b6146101465780631a98b2e0146101855780631bf1e3671461019a575b600080fd5b61013361012e36600461154b565b610312565b6040519081526020015b60405180910390f35b61016d7f000000000000000000000000000000000000000000000000000000000000000081565b6040516001600160a01b03909116815260200161013d565b61019861019336600461158d565b61033e565b005b6101986101a83660046117c9565b610449565b6101337f000000000000000000000000000000000000000000000000000000000000000081565b6101336101e23660046118af565b6107cf565b61013360005481565b6101986101fe3660046118f4565b61080f565b7f360894a13ba1a3210667c828492db98dca3e2076cc3735a920a3ca505d382bbc5461016d565b61023d610238366004611998565b61091f565b6040805192835260208301919091520161013d565b61016d7f000000000000000000000000000000000000000000000000000000000000000081565b7f8b88dae839acea7ff6a270cef523f6c04d348796d1890294879850ff17ecd6cc610133565b7f02016836a56b71f0d02689e69e326f4f4c1b9057164ef592671cf0d37c8040c05461016d565b6101986102d436600461154b565b610a4a565b6101986102e73660046119e4565b610ab9565b6101336102fa3660046118af565b610dd5565b61019861030d366004611a3e565b610e00565b600060018383604051610326929190611a60565b90815260405190819003602001902054905092915050565b60008585604051610350929190611a60565b6040519081900381207f1876eed900000000000000000000000000000000000000000000000000000000825291506001600160a01b037f00000000000000000000000000000000000000000000000000000000000000001690631876eed9906103cd908e908e908e908e908e9089908d908d908d90600401611a99565b602060405180830381600087803b1580156103e757600080fd5b505af11580156103fb573d6000803e3d6000fd5b505050506040513d601f19601f8201168201806040525081019061041f9190611af8565b61043c57604051631403112d60e21b815260040160405180910390fd5b5050505050505050505050565b6000610456600143611b30565b610461600143611b30565b4060405160200161047c929190918252602082015260400190565b60408051601f1981840301815291905290506000805b84518110156104d4578381815181106104ad576104ad611b47565b6020026020010151826104c09190611b5d565b9150806104cc81611b75565b915050610492565b506040517f23b872dd000000000000000000000000000000000000000000000000000000008152336004820152306024820152604481018290526001600160a01b038616906323b872dd90606401602060405180830381600087803b15801561053c57600080fd5b505af1158015610550573d6000803e3d6000fd5b505050506040513d601f19601f820116820180604052508101906105749190611af8565b5060005b84518110156107c757856001600160a01b031663095ea7b37f00000000000000000000000000000000000000000000000000000000000000008684815181106105c3576105c3611b47565b60200260200101516040518363ffffffff1660e01b81526004016105fc9291906001600160a01b03929092168252602082015260400190565b602060405180830381600087803b15801561061657600080fd5b505af115801561062a573d6000803e3d6000fd5b505050506040513d601f19601f8201168201806040525081019061064e9190611af8565b50600061065a30610ef3565b90507f00000000000000000000000000000000000000000000000000000000000000006001600160a01b031663fd09e3bd3088858151811061069e5761069e611b47565b602002602001015184888c8b89815181106106bb576106bb611b47565b6020026020010151336040518863ffffffff1660e01b81526004016106e69796959493929190611bec565b600060405180830381600087803b15801561070057600080fd5b505af1158015610714573d6000803e3d6000fd5b505050507f00000000000000000000000000000000000000000000000000000000000000006001600160a01b0316631c92115f87848151811061075957610759611b47565b602002602001015183876040518463ffffffff1660e01b815260040161078193929190611c57565b600060405180830381600087803b15801561079b57600080fd5b505af11580156107af573d6000803e3d6000fd5b505050505080806107bf90611b75565b915050610578565b505050505050565b815160208184018101805160028252928201918501919091209190528054829081106107fa57600080fd5b90600052602060002001600091509150505481565b60008282604051610821929190611a60565b6040519081900381207f5f6970c300000000000000000000000000000000000000000000000000000000825291506001600160a01b037f00000000000000000000000000000000000000000000000000000000000000001690635f6970c390610898908b908b908b908b908b908990600401611c9a565b602060405180830381600087803b1580156108b257600080fd5b505af11580156108c6573d6000803e3d6000fd5b505050506040513d601f19601f820116820180604052508101906108ea9190611af8565b61090757604051631403112d60e21b815260040160405180910390fd5b6109158787878787876111c3565b5050505050505050565b600080600060018686604051610936929190611a60565b90815260405190819003602001902054905080841061099c5760405162461bcd60e51b815260206004820152601a60248201527f4e4f545f454e4f554748545f484541444552535f53544f52454400000000000060448201526064015b60405180910390fd5b60008185836000546109ae9190611b5d565b6109b89190611b30565b6109c29190611cdb565b9050600287876040516109d6929190611a60565b908152602001604051809103902081815481106109f5576109f5611b47565b9060005260206000200154935060018787604051610a14929190611a60565b90815260200160405180910390208181548110610a3357610a33611b47565b906000526020600020015492505050935093915050565b6000610a747f360894a13ba1a3210667c828492db98dca3e2076cc3735a920a3ca505d382bbc5490565b6001600160a01b03161415610ab5576040517fbf10dd3a00000000000000000000000000000000000000000000000000000000815260040160405180910390fd5b5050565b33610ae27f02016836a56b71f0d02689e69e326f4f4c1b9057164ef592671cf0d37c8040c05490565b6001600160a01b031614610b09576040516330cd747160e01b815260040160405180910390fd5b306001600160a01b0316638291286c6040518163ffffffff1660e01b815260040160206040518083038186803b158015610b4257600080fd5b505afa158015610b56573d6000803e3d6000fd5b505050506040513d601f19601f82011682018060405250810190610b7a9190611cfd565b846001600160a01b0316638291286c6040518163ffffffff1660e01b815260040160206040518083038186803b158015610bb357600080fd5b505afa158015610bc7573d6000803e3d6000fd5b505050506040513d601f19601f82011682018060405250810190610beb9190611cfd565b14610c22576040517f68155f9a00000000000000000000000000000000000000000000000000000000815260040160405180910390fd5b836001600160a01b03163f8314610c65576040517f8f84fb2400000000000000000000000000000000000000000000000000000000815260040160405180910390fd5b8015610d7a576000846001600160a01b0316639ded06df60e01b8484604051602401610c92929190611d16565b60408051601f198184030181529181526020820180517bffffffffffffffffffffffffffffffffffffffffffffffffffffffff167fffffffff00000000000000000000000000000000000000000000000000000000909416939093179092529051610cfd9190611d32565b600060405180830381855af49150503d8060008114610d38576040519150601f19603f3d011682016040523d82523d6000602084013e610d3d565b606091505b5050905080610d78576040517f97905dfb00000000000000000000000000000000000000000000000000000000815260040160405180910390fd5b505b6040516001600160a01b038516907fbc7cd75a20ee27fd9adebab32041f755214dbc6bffa90cc0225b39da2e5c2d3b90600090a25050507f360894a13ba1a3210667c828492db98dca3e2076cc3735a920a3ca505d382bbc55565b815160208184018101805160018252928201918501919091209190528054829081106107fa57600080fd5b33610e297f02016836a56b71f0d02689e69e326f4f4c1b9057164ef592671cf0d37c8040c05490565b6001600160a01b031614610e50576040516330cd747160e01b815260040160405180910390fd5b6001600160a01b038116610e90576040517f49e27cff00000000000000000000000000000000000000000000000000000000815260040160405180910390fd5b6040516001600160a01b038216907f04dba622d284ed0014ee4b9a6a68386be1a4c08a4913ae272de89199cc68616390600090a27f02016836a56b71f0d02689e69e326f4f4c1b9057164ef592671cf0d37c8040c055565b505050505050505050565b604051606082811b6bffffffffffffffffffffffff191660208301529060009060340160408051601f19818403018152828201909152601082527f303132333435363738396162636465660000000000000000000000000000000060208301528051909250600090610f66906002611d4e565b610f71906002611b5d565b67ffffffffffffffff811115610f8957610f89611683565b6040519080825280601f01601f191660200182016040528015610fb3576020820181803683370190505b5090507f300000000000000000000000000000000000000000000000000000000000000081600081518110610fea57610fea611b47565b60200101906001600160f81b031916908160001a9053507f78000000000000000000000000000000000000000000000000000000000000008160018151811061103557611035611b47565b60200101906001600160f81b031916908160001a90535060005b83518110156111ba5782600485838151811061106d5761106d611b47565b016020015182517fff0000000000000000000000000000000000000000000000000000000000000090911690911c60f81c9081106110ad576110ad611b47565b01602001517fff0000000000000000000000000000000000000000000000000000000000000016826110e0836002611d4e565b6110eb906002611b5d565b815181106110fb576110fb611b47565b60200101906001600160f81b031916908160001a9053508284828151811061112557611125611b47565b602091010151815160f89190911c600f1690811061114557611145611b47565b01602001517fff000000000000000000000000000000000000000000000000000000000000001682611178836002611d4e565b611183906003611b5d565b8151811061119357611193611b47565b60200101906001600160f81b031916908160001a9053506111b381611b75565b905061104f565b50949350505050565b306001600160a01b031661120c85858080601f01602080910402602001604051908101604052809392919081815260200183838082843760009201919091525061140392505050565b6001600160a01b0316146112625760405162461bcd60e51b815260206004820152600c60248201527f57524f4e475f53454e44455200000000000000000000000000000000000000006044820152606401610993565b60008061127183850185611d6d565b91509150600060018989604051611289929190611a60565b9081526040519081900360200190205490507f00000000000000000000000000000000000000000000000000000000000000008110156113375760008190556040516002906112db908b908b90611a60565b908152604051602091819003820181208054600180820183556000928352939091200185905561130e908b908b90611a60565b908152604051602091819003820190208054600181018255600091825291902001829055610ee8565b7f000000000000000000000000000000000000000000000000000000000000000060005460016113679190611b5d565b6113719190611cdb565b6000556040518390600290611389908c908c90611a60565b9081526020016040518091039020600054815481106113aa576113aa611b47565b90600052602060002001819055508160018a8a6040516113cb929190611a60565b9081526020016040518091039020600054815481106113ec576113ec611b47565b600091825260209091200155505050505050505050565b80516000908290602a1461141a5750600092915050565b60008060025b602a8110156114f85783818151811061143b5761143b611b47565b016020015160f81c91506061821080159061145a575060668260ff1611155b156114715761146a605783611d8f565b91506114cd565b60418260ff1610158015611489575060468260ff1611155b156114995761146a603783611d8f565b60308260ff16101580156114b1575060398260ff1611155b156114c15761146a603083611d8f565b50600095945050505050565b60026114da826029611b30565b60ff8416911b1b9290921791806114f081611b75565b915050611420565b5090949350505050565b60008083601f84011261151457600080fd5b50813567ffffffffffffffff81111561152c57600080fd5b60208301915083602082850101111561154457600080fd5b9250929050565b6000806020838503121561155e57600080fd5b823567ffffffffffffffff81111561157557600080fd5b61158185828601611502565b90969095509350505050565b60008060008060008060008060008060c08b8d0312156115ac57600080fd5b8a35995060208b013567ffffffffffffffff808211156115cb57600080fd5b6115d78e838f01611502565b909b50995060408d01359150808211156115f057600080fd5b6115fc8e838f01611502565b909950975060608d013591508082111561161557600080fd5b6116218e838f01611502565b909750955060808d013591508082111561163a57600080fd5b506116478d828e01611502565b9150809450508092505060a08b013590509295989b9194979a5092959850565b80356001600160a01b038116811461167e57600080fd5b919050565b634e487b7160e01b600052604160045260246000fd5b604051601f8201601f1916810167ffffffffffffffff811182821017156116c2576116c2611683565b604052919050565b600067ffffffffffffffff8211156116e4576116e4611683565b5060051b60200190565b600082601f8301126116ff57600080fd5b813567ffffffffffffffff81111561171957611719611683565b61172c601f8201601f1916602001611699565b81815284602083860101111561174157600080fd5b816020850160208301376000918101602001919091529392505050565b600082601f83011261176f57600080fd5b8135602061178461177f836116ca565b611699565b82815260059290921b840181019181810190868411156117a357600080fd5b8286015b848110156117be57803583529183019183016117a7565b509695505050505050565b6000806000606084860312156117de57600080fd5b6117e784611667565b925060208085013567ffffffffffffffff8082111561180557600080fd5b818701915087601f83011261181957600080fd5b813561182761177f826116ca565b81815260059190911b8301840190848101908a83111561184657600080fd5b8585015b8381101561187e578035858111156118625760008081fd5b6118708d89838a01016116ee565b84525091860191860161184a565b5096505050604087013592508083111561189757600080fd5b50506118a58682870161175e565b9150509250925092565b600080604083850312156118c257600080fd5b823567ffffffffffffffff8111156118d957600080fd5b6118e5858286016116ee565b95602094909401359450505050565b60008060008060008060006080888a03121561190f57600080fd5b87359650602088013567ffffffffffffffff8082111561192e57600080fd5b61193a8b838c01611502565b909850965060408a013591508082111561195357600080fd5b61195f8b838c01611502565b909650945060608a013591508082111561197857600080fd5b506119858a828b01611502565b989b979a50959850939692959293505050565b6000806000604084860312156119ad57600080fd5b833567ffffffffffffffff8111156119c457600080fd5b6119d086828701611502565b909790965060209590950135949350505050565b600080600080606085870312156119fa57600080fd5b611a0385611667565b935060208501359250604085013567ffffffffffffffff811115611a2657600080fd5b611a3287828801611502565b95989497509550505050565b600060208284031215611a5057600080fd5b611a5982611667565b9392505050565b8183823760009101908152919050565b81835281816020850137506000828201602090810191909152601f909101601f19169091010190565b89815260c060208201526000611ab360c083018a8c611a70565b8281036040840152611ac681898b611a70565b90508660608401528281036080840152611ae1818688611a70565b9150508260a08301529a9950505050505050505050565b600060208284031215611b0a57600080fd5b81518015158114611a5957600080fd5b634e487b7160e01b600052601160045260246000fd5b600082821015611b4257611b42611b1a565b500390565b634e487b7160e01b600052603260045260246000fd5b60008219821115611b7057611b70611b1a565b500190565b6000600019821415611b8957611b89611b1a565b5060010190565b60005b83811015611bab578181015183820152602001611b93565b83811115611bba576000848401525b50505050565b60008151808452611bd8816020860160208601611b90565b601f01601f19169290920160200192915050565b60006001600160a01b03808a16835260e06020840152611c0f60e084018a611bc0565b8381036040850152611c21818a611bc0565b90508381036060850152611c358189611bc0565b96821660808501525060a083019490945250911660c090910152949350505050565b606081526000611c6a6060830186611bc0565b8281036020840152611c7c8186611bc0565b90508281036040840152611c908185611bc0565b9695505050505050565b868152608060208201526000611cb4608083018789611a70565b8281036040840152611cc7818688611a70565b915050826060830152979650505050505050565b600082611cf857634e487b7160e01b600052601260045260246000fd5b500690565b600060208284031215611d0f57600080fd5b5051919050565b602081526000611d2a602083018486611a70565b949350505050565b60008251611d44818460208701611b90565b9190910192915050565b6000816000190483118215151615611d6857611d68611b1a565b500290565b60008060408385031215611d8057600080fd5b50508035926020909101359150565b600060ff821660ff841680821015611da957611da9611b1a565b9003939250505056fea2646970667358221220d4112c39533073a5d8946e92fdc29590c9ef174c7e8949832739dc26ce444ee264736f6c63430008090033",
  "linkReferences": {},
  "deployedLinkReferences": {}
}