{
  "_format": "hh-sol-artifact-1",
  "contractName": "SendAckSender",
  "sourceName": "examples/send-ack/SendAckSender.sol",
  "abi": [
    {
      "inputs": [
        {
          "internalType": "address",
          "name": "gateway_",
          "type": "address"
        },
        {
          "internalType": "address",
          "name": "gasReceiver_",
          "type": "address"
        },
        {
          "internalType": "string",
          "name": "thisChain_",
          "type": "string"
        }
      ],
      "stateMutability": "nonpayable",
      "type": "constructor"
    },
    {
      "inputs": [],
      "name": "InvalidAddress",
      "type": "error"
    },
    {
      "inputs": [],
      "name": "NotApprovedByGateway",
      "type": "error"
    },
    {
      "inputs": [],
      "name": "NotEnoughValueForGas",
      "type": "error"
    },
    {
      "anonymous": false,
      "inputs": [
        {
          "indexed": false,
          "internalType": "string",
          "name": "destinationChain",
          "type": "string"
        },
        {
          "indexed": false,
          "internalType": "string",
          "name": "contractAddress",
          "type": "string"
        },
        {
          "indexed": false,
          "internalType": "bytes",
          "name": "payload",
          "type": "bytes"
        },
        {
          "indexed": false,
          "internalType": "uint256",
          "name": "nonce",
          "type": "uint256"
        }
      ],
      "name": "ContractCallSent",
      "type": "event"
    },
    {
      "anonymous": false,
      "inputs": [
        {
          "indexed": false,
          "internalType": "string",
          "name": "destinationChain",
          "type": "string"
        },
        {
          "indexed": false,
          "internalType": "string",
          "name": "contractAddress",
          "type": "string"
        },
        {
          "indexed": false,
          "internalType": "uint256",
          "name": "nonce",
          "type": "uint256"
        }
      ],
      "name": "FalseAcknowledgment",
      "type": "event"
    },
    {
      "inputs": [
        {
          "internalType": "uint256",
          "name": "",
          "type": "uint256"
        }
      ],
      "name": "destination",
      "outputs": [
        {
          "internalType": "bytes32",
          "name": "",
          "type": "bytes32"
        }
      ],
      "stateMutability": "view",
      "type": "function"
    },
    {
      "inputs": [
        {
          "internalType": "bytes32",
          "name": "commandId",
          "type": "bytes32"
        },
        {
          "internalType": "string",
          "name": "sourceChain",
          "type": "string"
        },
        {
          "internalType": "string",
          "name": "sourceAddress",
          "type": "string"
        },
        {
          "internalType": "bytes",
          "name": "payload",
          "type": "bytes"
        }
      ],
      "name": "execute",
      "outputs": [],
      "stateMutability": "nonpayable",
      "type": "function"
    },
    {
      "inputs": [
        {
          "internalType": "bytes32",
          "name": "commandId",
          "type": "bytes32"
        },
        {
          "internalType": "string",
          "name": "sourceChain",
          "type": "string"
        },
        {
          "internalType": "string",
          "name": "sourceAddress",
          "type": "string"
        },
        {
          "internalType": "bytes",
          "name": "payload",
          "type": "bytes"
        },
        {
          "internalType": "string",
          "name": "tokenSymbol",
          "type": "string"
        },
        {
          "internalType": "uint256",
          "name": "amount",
          "type": "uint256"
        }
      ],
      "name": "executeWithToken",
      "outputs": [],
      "stateMutability": "nonpayable",
      "type": "function"
    },
    {
      "inputs": [
        {
          "internalType": "uint256",
          "name": "",
          "type": "uint256"
        }
      ],
      "name": "executed",
      "outputs": [
        {
          "internalType": "bool",
          "name": "",
          "type": "bool"
        }
      ],
      "stateMutability": "view",
      "type": "function"
    },
    {
      "inputs": [],
      "name": "gasReceiver",
      "outputs": [
        {
          "internalType": "contract IAxelarGasService",
          "name": "",
          "type": "address"
        }
      ],
      "stateMutability": "view",
      "type": "function"
    },
    {
      "inputs": [],
      "name": "gateway",
      "outputs": [
        {
          "internalType": "contract IAxelarGateway",
          "name": "",
          "type": "address"
        }
      ],
      "stateMutability": "view",
      "type": "function"
    },
    {
      "inputs": [],
      "name": "nonce",
      "outputs": [
        {
          "internalType": "uint256",
          "name": "",
          "type": "uint256"
        }
      ],
      "stateMutability": "view",
      "type": "function"
    },
    {
      "inputs": [
        {
          "internalType": "string",
          "name": "destinationChain",
          "type": "string"
        },
        {
          "internalType": "string",
          "name": "contractAddress",
          "type": "string"
        },
        {
          "internalType": "bytes",
          "name": "payload",
          "type": "bytes"
        },
        {
          "internalType": "uint256",
          "name": "gasForRemote",
          "type": "uint256"
        }
      ],
      "name": "sendContractCall",
      "outputs": [],
      "stateMutability": "payable",
      "type": "function"
    },
    {
      "inputs": [],
      "name": "thisChain",
      "outputs": [
        {
          "internalType": "string",
          "name": "",
          "type": "string"
        }
      ],
      "stateMutability": "view",
      "type": "function"
    }
  ],
  "bytecode": "0x60c06040523480156200001157600080fd5b50604051620017f2380380620017f2833981016040819052620000349162000168565b826001600160a01b0381166200005d5760405163e6c4247b60e01b815260040160405180910390fd5b6001600160a01b03908116608052821660a0528051620000859060039060208401906200008f565b50505050620002a9565b8280546200009d906200026c565b90600052602060002090601f016020900481019282620000c157600085556200010c565b82601f10620000dc57805160ff19168380011785556200010c565b828001600101855582156200010c579182015b828111156200010c578251825591602001919060010190620000ef565b506200011a9291506200011e565b5090565b5b808211156200011a57600081556001016200011f565b80516001600160a01b03811681146200014d57600080fd5b919050565b634e487b7160e01b600052604160045260246000fd5b6000806000606084860312156200017e57600080fd5b620001898462000135565b925060206200019a81860162000135565b60408601519093506001600160401b0380821115620001b857600080fd5b818701915087601f830112620001cd57600080fd5b815181811115620001e257620001e262000152565b604051601f8201601f19908116603f011681019083821181831017156200020d576200020d62000152565b816040528281528a868487010111156200022657600080fd5b600093505b828410156200024a57848401860151818501870152928501926200022b565b828411156200025c5760008684830101525b8096505050505050509250925092565b600181811c908216806200028157607f821691505b60208210811415620002a357634e487b7160e01b600052602260045260246000fd5b50919050565b60805160a051611501620002f16000396000818161019d0152818161057001526105f701526000818160ad015281816102720152818161037d015261070f01526115016000f3fe6080604052600436106100965760003560e01c80634d427cf911610069578063affed0e01161004e578063affed0e0146101bf578063ca209d7b146101d5578063d3ecebd7146101e857600080fd5b80634d427cf91461016957806380d14b4a1461018b57600080fd5b8063116191b61461009b5780631a98b2e0146100ec57806344f6891e1461010e5780634916065814610149575b600080fd5b3480156100a757600080fd5b506100cf7f000000000000000000000000000000000000000000000000000000000000000081565b6040516001600160a01b0390911681526020015b60405180910390f35b3480156100f857600080fd5b5061010c610107366004610db0565b610228565b005b34801561011a57600080fd5b5061013b610129366004610e8a565b60026020526000908152604090205481565b6040519081526020016100e3565b34801561015557600080fd5b5061010c610164366004610ea3565b610333565b34801561017557600080fd5b5061017e610443565b6040516100e39190610f94565b34801561019757600080fd5b506100cf7f000000000000000000000000000000000000000000000000000000000000000081565b3480156101cb57600080fd5b5061013b60005481565b61010c6101e3366004610fae565b6104d1565b3480156101f457600080fd5b50610218610203366004610e8a565b60016020526000908152604090205460ff1681565b60405190151581526020016100e3565b6000858560405161023a929190611051565b6040519081900381207f1876eed900000000000000000000000000000000000000000000000000000000825291506001600160a01b037f00000000000000000000000000000000000000000000000000000000000000001690631876eed9906102b7908e908e908e908e908e9089908d908d908d9060040161108a565b602060405180830381600087803b1580156102d157600080fd5b505af11580156102e5573d6000803e3d6000fd5b505050506040513d601f19601f8201168201806040525081019061030991906110e9565b61032657604051631403112d60e21b815260040160405180910390fd5b5050505050505050505050565b60008282604051610345929190611051565b6040519081900381207f5f6970c300000000000000000000000000000000000000000000000000000000825291506001600160a01b037f00000000000000000000000000000000000000000000000000000000000000001690635f6970c3906103bc908b908b908b908b908b90899060040161110b565b602060405180830381600087803b1580156103d657600080fd5b505af11580156103ea573d6000803e3d6000fd5b505050506040513d601f19601f8201168201806040525081019061040e91906110e9565b61042b57604051631403112d60e21b815260040160405180910390fd5b61043987878787878761085c565b5050505050505050565b600380546104509061114c565b80601f016020809104026020016040519081016040528092919081815260200182805461047c9061114c565b80156104c95780601f1061049e576101008083540402835291602001916104c9565b820191906000526020600020905b8154815290600101906020018083116104ac57829003601f168201915b505050505081565b60008054905060008185856040516020016104ee93929190611187565b60408051601f19818403018152919052905082156106df5734831115610540576040517fe5f5a79900000000000000000000000000000000000000000000000000000000815260040160405180910390fd5b6040517f0c93e3bb0000000000000000000000000000000000000000000000000000000081526001600160a01b037f00000000000000000000000000000000000000000000000000000000000000001690630c93e3bb9085906105b39030908e908e908e908e908a9033906004016111aa565b6000604051808303818588803b1580156105cc57600080fd5b505af11580156105e0573d6000803e3d6000fd5b5050505050823411156106df576001600160a01b037f000000000000000000000000000000000000000000000000000000000000000016630c93e3bb6106268534611223565b6106658a8a8080601f01602080910402602001604051908101604052809392919081815260200183838082843760009201919091525061096592505050565b600361067030610a64565b60408051602081018a905201604051602081830303815290604052336040518763ffffffff1660e01b81526004016106ac95949392919061123a565b6000604051808303818588803b1580156106c557600080fd5b505af11580156106d9573d6000803e3d6000fd5b50505050505b6040517f1c92115f0000000000000000000000000000000000000000000000000000000081526001600160a01b037f00000000000000000000000000000000000000000000000000000000000000001690631c92115f9061074c908c908c908c908c908890600401611333565b600060405180830381600087803b15801561076657600080fd5b505af115801561077a573d6000803e3d6000fd5b505050507f6c52f5eda14b017bd6057579de78fe8354d9c133d8e7edec70920ef11b108900898989898989886040516107b9979695949392919061137a565b60405180910390a161083489898080601f01602080910402602001604051908101604052809392919081815260200183838082843760009201919091525050604080516020601f8d018190048102820181019092528b815292508b91508a9081908401838280828437600092019190915250610d3492505050565b60008381526002602052604090205561084e8260016113cb565b600055505050505050505050565b600061086a82840184610e8a565b90506108df87878080601f01602080910402602001604051908101604052809392919081815260200183838082843760009201919091525050604080516020601f8b018190048102820181019092528981529250899150889081908401838280828437600092019190915250610d3492505050565b60008281526002602052604090205414610938577f036f215e0dffdb0755f8b502613d33e916e9f35487ca9b8e9be104a1cd9caa12878787878560405161092a9594939291906113e3565b60405180910390a15061095d565b6000908152600160208181526040808420805460ff1916909317909255600290528120555b505050505050565b80516000908290602a1461097c5750600092915050565b60008060025b602a811015610a5a5783818151811061099d5761099d61141d565b016020015160f81c9150606182108015906109bc575060668260ff1611155b156109d3576109cc605783611433565b9150610a2f565b60418260ff16101580156109eb575060468260ff1611155b156109fb576109cc603783611433565b60308260ff1610158015610a13575060398260ff1611155b15610a23576109cc603083611433565b50600095945050505050565b6002610a3c826029611223565b60ff8416911b1b929092179180610a5281611456565b915050610982565b5090949350505050565b604051606082811b6bffffffffffffffffffffffff191660208301529060009060340160408051601f19818403018152828201909152601082527f303132333435363738396162636465660000000000000000000000000000000060208301528051909250600090610ad7906002611471565b610ae29060026113cb565b67ffffffffffffffff811115610afa57610afa611490565b6040519080825280601f01601f191660200182016040528015610b24576020820181803683370190505b5090507f300000000000000000000000000000000000000000000000000000000000000081600081518110610b5b57610b5b61141d565b60200101906001600160f81b031916908160001a9053507f780000000000000000000000000000000000000000000000000000000000000081600181518110610ba657610ba661141d565b60200101906001600160f81b031916908160001a90535060005b8351811015610d2b57826004858381518110610bde57610bde61141d565b016020015182517fff0000000000000000000000000000000000000000000000000000000000000090911690911c60f81c908110610c1e57610c1e61141d565b01602001517fff000000000000000000000000000000000000000000000000000000000000001682610c51836002611471565b610c5c9060026113cb565b81518110610c6c57610c6c61141d565b60200101906001600160f81b031916908160001a90535082848281518110610c9657610c9661141d565b602091010151815160f89190911c600f16908110610cb657610cb661141d565b01602001517fff000000000000000000000000000000000000000000000000000000000000001682610ce9836002611471565b610cf49060036113cb565b81518110610d0457610d0461141d565b60200101906001600160f81b031916908160001a905350610d2481611456565b9050610bc0565b50949350505050565b60008282604051602001610d499291906114a6565b60405160208183030381529060405280519060200120905092915050565b60008083601f840112610d7957600080fd5b50813567ffffffffffffffff811115610d9157600080fd5b602083019150836020828501011115610da957600080fd5b9250929050565b60008060008060008060008060008060c08b8d031215610dcf57600080fd5b8a35995060208b013567ffffffffffffffff80821115610dee57600080fd5b610dfa8e838f01610d67565b909b50995060408d0135915080821115610e1357600080fd5b610e1f8e838f01610d67565b909950975060608d0135915080821115610e3857600080fd5b610e448e838f01610d67565b909750955060808d0135915080821115610e5d57600080fd5b50610e6a8d828e01610d67565b9150809450508092505060a08b013590509295989b9194979a5092959850565b600060208284031215610e9c57600080fd5b5035919050565b60008060008060008060006080888a031215610ebe57600080fd5b87359650602088013567ffffffffffffffff80821115610edd57600080fd5b610ee98b838c01610d67565b909850965060408a0135915080821115610f0257600080fd5b610f0e8b838c01610d67565b909650945060608a0135915080821115610f2757600080fd5b50610f348a828b01610d67565b989b979a50959850939692959293505050565b6000815180845260005b81811015610f6d57602081850181015186830182015201610f51565b81811115610f7f576000602083870101525b50601f01601f19169290920160200192915050565b602081526000610fa76020830184610f47565b9392505050565b60008060008060008060006080888a031215610fc957600080fd5b873567ffffffffffffffff80821115610fe157600080fd5b610fed8b838c01610d67565b909950975060208a013591508082111561100657600080fd5b6110128b838c01610d67565b909750955060408a013591508082111561102b57600080fd5b506110388a828b01610d67565b989b979a50959894979596606090950135949350505050565b8183823760009101908152919050565b81835281816020850137506000828201602090810191909152601f909101601f19169091010190565b89815260c0602082015260006110a460c083018a8c611061565b82810360408401526110b781898b611061565b905086606084015282810360808401526110d2818688611061565b9150508260a08301529a9950505050505050505050565b6000602082840312156110fb57600080fd5b81518015158114610fa757600080fd5b868152608060208201526000611125608083018789611061565b8281036040840152611138818688611061565b915050826060830152979650505050505050565b600181811c9082168061116057607f821691505b6020821081141561118157634e487b7160e01b600052602260045260246000fd5b50919050565b8381526040602082015260006111a1604083018486611061565b95945050505050565b60006001600160a01b03808a16835260a060208401526111ce60a08401898b611061565b83810360408501526111e181888a611061565b905083810360608501526111f58187610f47565b92505080841660808401525098975050505050505050565b634e487b7160e01b600052601160045260246000fd5b6000828210156112355761123561120d565b500390565b6001600160a01b03861681526000602060a0818401526000875481600182811c91508083168061126b57607f831692505b85831081141561128957634e487b7160e01b85526022600452602485fd5b60a0880183905260c088018180156112a857600181146112b9576112e4565b60ff198616825287820196506112e4565b60008e81526020902060005b868110156112de578154848201529085019089016112c5565b83019750505b50505050505083810360408501526112fc8188610f47565b91505082810360608401526113118186610f47565b91505061132960808301846001600160a01b03169052565b9695505050505050565b606081526000611347606083018789611061565b828103602084015261135a818688611061565b9050828103604084015261136e8185610f47565b98975050505050505050565b60808152600061138e60808301898b611061565b82810360208401526113a181888a611061565b905082810360408401526113b6818688611061565b91505082606083015298975050505050505050565b600082198211156113de576113de61120d565b500190565b6060815260006113f7606083018789611061565b828103602084015261140a818688611061565b9150508260408301529695505050505050565b634e487b7160e01b600052603260045260246000fd5b600060ff821660ff84168082101561144d5761144d61120d565b90039392505050565b600060001982141561146a5761146a61120d565b5060010190565b600081600019048311821515161561148b5761148b61120d565b500290565b634e487b7160e01b600052604160045260246000fd5b6040815260006114b96040830185610f47565b82810360208401526111a18185610f4756fea26469706673582212203e8389e73ef0be9f9af8a6e54158f358be269009f27c2581b56add1e6c89e2d664736f6c63430008090033",
  "linkReferences": {},
  "deployedLinkReferences": {}
}