{
  "_format": "hh-sol-artifact-1",
  "contractName": "ERC721Demo",
  "sourceName": "examples/nft-linker/ERC721Demo.sol",
  "abi": [
    {
      "inputs": [
        {
          "internalType": "string",
          "name": "name_",
          "type": "string"
        },
        {
          "internalType": "string",
          "name": "symbol_",
          "type": "string"
        }
      ],
      "stateMutability": "nonpayable",
      "type": "constructor"
    },
    {
      "anonymous": false,
      "inputs": [
        {
          "indexed": true,
          "internalType": "address",
          "name": "owner",
          "type": "address"
        },
        {
          "indexed": true,
          "internalType": "address",
          "name": "approved",
          "type": "address"
        },
        {
          "indexed": true,
          "internalType": "uint256",
          "name": "tokenId",
          "type": "uint256"
        }
      ],
      "name": "Approval",
      "type": "event"
    },
    {
      "anonymous": false,
      "inputs": [
        {
          "indexed": true,
          "internalType": "address",
          "name": "owner",
          "type": "address"
        },
        {
          "indexed": true,
          "internalType": "address",
          "name": "operator",
          "type": "address"
        },
        {
          "indexed": false,
          "internalType": "bool",
          "name": "approved",
          "type": "bool"
        }
      ],
      "name": "ApprovalForAll",
      "type": "event"
    },
    {
      "anonymous": false,
      "inputs": [
        {
          "indexed": true,
          "internalType": "address",
          "name": "from",
          "type": "address"
        },
        {
          "indexed": true,
          "internalType": "address",
          "name": "to",
          "type": "address"
        },
        {
          "indexed": true,
          "internalType": "uint256",
          "name": "tokenId",
          "type": "uint256"
        }
      ],
      "name": "Transfer",
      "type": "event"
    },
    {
      "inputs": [
        {
          "internalType": "address",
          "name": "",
          "type": "address"
        }
      ],
      "name": "addresslist",
      "outputs": [
        {
          "internalType": "string",
          "name": "",
          "type": "string"
        }
      ],
      "stateMutability": "view",
      "type": "function"
    },
    {
      "inputs": [
        {
          "internalType": "address",
          "name": "to",
          "type": "address"
        },
        {
          "internalType": "uint256",
          "name": "tokenId",
          "type": "uint256"
        }
      ],
      "name": "approve",
      "outputs": [],
      "stateMutability": "nonpayable",
      "type": "function"
    },
    {
      "inputs": [
        {
          "internalType": "address",
          "name": "owner",
          "type": "address"
        }
      ],
      "name": "balanceOf",
      "outputs": [
        {
          "internalType": "uint256",
          "name": "",
          "type": "uint256"
        }
      ],
      "stateMutability": "view",
      "type": "function"
    },
    {
      "inputs": [
        {
          "internalType": "uint256",
          "name": "tokenId",
          "type": "uint256"
        }
      ],
      "name": "getApproved",
      "outputs": [
        {
          "internalType": "address",
          "name": "",
          "type": "address"
        }
      ],
      "stateMutability": "view",
      "type": "function"
    },
    {
      "inputs": [
        {
          "internalType": "address",
          "name": "owner",
          "type": "address"
        },
        {
          "internalType": "address",
          "name": "operator",
          "type": "address"
        }
      ],
      "name": "isApprovedForAll",
      "outputs": [
        {
          "internalType": "bool",
          "name": "",
          "type": "bool"
        }
      ],
      "stateMutability": "view",
      "type": "function"
    },
    {
      "inputs": [
        {
          "internalType": "uint256",
          "name": "tokenId",
          "type": "uint256"
        }
      ],
      "name": "mint",
      "outputs": [],
      "stateMutability": "nonpayable",
      "type": "function"
    },
    {
      "inputs": [],
      "name": "name",
      "outputs": [
        {
          "internalType": "string",
          "name": "",
          "type": "string"
        }
      ],
      "stateMutability": "view",
      "type": "function"
    },
    {
      "inputs": [
        {
          "internalType": "uint256",
          "name": "tokenId",
          "type": "uint256"
        }
      ],
      "name": "ownerOf",
      "outputs": [
        {
          "internalType": "address",
          "name": "",
          "type": "address"
        }
      ],
      "stateMutability": "view",
      "type": "function"
    },
    {
      "inputs": [
        {
          "internalType": "address",
          "name": "from",
          "type": "address"
        },
        {
          "internalType": "address",
          "name": "to",
          "type": "address"
        },
        {
          "internalType": "uint256",
          "name": "tokenId",
          "type": "uint256"
        }
      ],
      "name": "safeTransferFrom",
      "outputs": [],
      "stateMutability": "nonpayable",
      "type": "function"
    },
    {
      "inputs": [
        {
          "internalType": "address",
          "name": "from",
          "type": "address"
        },
        {
          "internalType": "address",
          "name": "to",
          "type": "address"
        },
        {
          "internalType": "uint256",
          "name": "tokenId",
          "type": "uint256"
        },
        {
          "internalType": "bytes",
          "name": "data",
          "type": "bytes"
        }
      ],
      "name": "safeTransferFrom",
      "outputs": [],
      "stateMutability": "nonpayable",
      "type": "function"
    },
    {
      "inputs": [
        {
          "internalType": "address",
          "name": "operator",
          "type": "address"
        },
        {
          "internalType": "bool",
          "name": "approved",
          "type": "bool"
        }
      ],
      "name": "setApprovalForAll",
      "outputs": [],
      "stateMutability": "nonpayable",
      "type": "function"
    },
    {
      "inputs": [],
      "name": "setValue",
      "outputs": [],
      "stateMutability": "nonpayable",
      "type": "function"
    },
    {
      "inputs": [
        {
          "internalType": "bytes4",
          "name": "interfaceId",
          "type": "bytes4"
        }
      ],
      "name": "supportsInterface",
      "outputs": [
        {
          "internalType": "bool",
          "name": "",
          "type": "bool"
        }
      ],
      "stateMutability": "view",
      "type": "function"
    },
    {
      "inputs": [],
      "name": "symbol",
      "outputs": [
        {
          "internalType": "string",
          "name": "",
          "type": "string"
        }
      ],
      "stateMutability": "view",
      "type": "function"
    },
    {
      "inputs": [
        {
          "internalType": "uint256",
          "name": "tokenId",
          "type": "uint256"
        }
      ],
      "name": "tokenURI",
      "outputs": [
        {
          "internalType": "string",
          "name": "",
          "type": "string"
        }
      ],
      "stateMutability": "view",
      "type": "function"
    },
    {
      "inputs": [
        {
          "internalType": "address",
          "name": "from",
          "type": "address"
        },
        {
          "internalType": "address",
          "name": "to",
          "type": "address"
        },
        {
          "internalType": "uint256",
          "name": "tokenId",
          "type": "uint256"
        }
      ],
      "name": "transferFrom",
      "outputs": [],
      "stateMutability": "nonpayable",
      "type": "function"
    },
    {
      "inputs": [],
      "name": "vvalue",
      "outputs": [
        {
          "internalType": "uint256",
          "name": "",
          "type": "uint256"
        }
      ],
      "stateMutability": "view",
      "type": "function"
    }
  ],
  "bytecode": "0x608060405260646006553480156200001657600080fd5b506040516200190338038062001903833981016040819052620000399162000252565b81518290829062000052906000906020850190620000df565b50805162000068906001906020840190620000df565b505060408051808201909152600581526468656c6c6f60d81b6020808301918252731ae978f987e9d4ccc32850d995c62f3f6e575efd600052600790529051620000d692507f446c06445e9e517c5c1eafc842ab7f547c9842c35cf7bb3fda5d3986dd683f499190620000df565b505050620002f9565b828054620000ed90620002bc565b90600052602060002090601f0160209004810192826200011157600085556200015c565b82601f106200012c57805160ff19168380011785556200015c565b828001600101855582156200015c579182015b828111156200015c5782518255916020019190600101906200013f565b506200016a9291506200016e565b5090565b5b808211156200016a57600081556001016200016f565b634e487b7160e01b600052604160045260246000fd5b600082601f830112620001ad57600080fd5b81516001600160401b0380821115620001ca57620001ca62000185565b604051601f8301601f19908116603f01168101908282118183101715620001f557620001f562000185565b816040528381526020925086838588010111156200021257600080fd5b600091505b8382101562000236578582018301518183018401529082019062000217565b83821115620002485760008385830101525b9695505050505050565b600080604083850312156200026657600080fd5b82516001600160401b03808211156200027e57600080fd5b6200028c868387016200019b565b93506020850151915080821115620002a357600080fd5b50620002b2858286016200019b565b9150509250929050565b600181811c90821680620002d157607f821691505b60208210811415620002f357634e487b7160e01b600052602260045260246000fd5b50919050565b6115fa80620003096000396000f3fe608060405234801561001057600080fd5b506004361061011b5760003560e01c806370a08231116100b2578063a22cb46511610081578063b88d4fde11610066578063b88d4fde1461024b578063c87b56dd1461025e578063e985e9c51461027157600080fd5b8063a22cb4651461022f578063a3fad6461461024257600080fd5b806370a08231146101e057806370a7287b1461020157806395d89b4114610214578063a0712d681461021c57600080fd5b806323b872dd116100ee57806323b872dd1461019d57806342842e0e146101b05780634fa519fa146101c35780636352211e146101cd57600080fd5b806301ffc9a71461012057806306fdde0314610148578063081812fc1461015d578063095ea7b314610188575b600080fd5b61013361012e3660046111ae565b6102ad565b60405190151581526020015b60405180910390f35b61015061034a565b60405161013f9190611223565b61017061016b366004611236565b6103dc565b6040516001600160a01b03909116815260200161013f565b61019b61019636600461126b565b610403565b005b61019b6101ab366004611295565b61053a565b61019b6101be366004611295565b6105c1565b61019b600b600655565b6101706101db366004611236565b6105dc565b6101f36101ee3660046112d1565b610641565b60405190815260200161013f565b61015061020f3660046112d1565b6106db565b610150610775565b61019b61022a366004611236565b610784565b61019b61023d3660046112ec565b610791565b6101f360065481565b61019b61025936600461133e565b6107a0565b61015061026c366004611236565b61082e565b61013361027f36600461141a565b6001600160a01b03918216600090815260056020908152604080832093909416825291909152205460ff1690565b60006001600160e01b031982167f80ac58cd00000000000000000000000000000000000000000000000000000000148061031057506001600160e01b031982167f5b5e139f00000000000000000000000000000000000000000000000000000000145b8061034457507f01ffc9a7000000000000000000000000000000000000000000000000000000006001600160e01b03198316145b92915050565b6060600080546103599061144d565b80601f01602080910402602001604051908101604052809291908181526020018280546103859061144d565b80156103d25780601f106103a7576101008083540402835291602001916103d2565b820191906000526020600020905b8154815290600101906020018083116103b557829003601f168201915b5050505050905090565b60006103e7826108a2565b506000908152600460205260409020546001600160a01b031690565b600061040e826105dc565b9050806001600160a01b0316836001600160a01b0316141561049d5760405162461bcd60e51b815260206004820152602160248201527f4552433732313a20617070726f76616c20746f2063757272656e74206f776e6560448201527f720000000000000000000000000000000000000000000000000000000000000060648201526084015b60405180910390fd5b336001600160a01b03821614806104b957506104b9813361027f565b61052b5760405162461bcd60e51b815260206004820152603e60248201527f4552433732313a20617070726f76652063616c6c6572206973206e6f7420746f60448201527f6b656e206f776e6572206e6f7220617070726f76656420666f7220616c6c00006064820152608401610494565b6105358383610906565b505050565b6105443382610981565b6105b65760405162461bcd60e51b815260206004820152602e60248201527f4552433732313a2063616c6c6572206973206e6f7420746f6b656e206f776e6560448201527f72206e6f7220617070726f7665640000000000000000000000000000000000006064820152608401610494565b610535838383610a00565b610535838383604051806020016040528060008152506107a0565b6000818152600260205260408120546001600160a01b0316806103445760405162461bcd60e51b815260206004820152601860248201527f4552433732313a20696e76616c696420746f6b656e20494400000000000000006044820152606401610494565b60006001600160a01b0382166106bf5760405162461bcd60e51b815260206004820152602960248201527f4552433732313a2061646472657373207a65726f206973206e6f74206120766160448201527f6c6964206f776e657200000000000000000000000000000000000000000000006064820152608401610494565b506001600160a01b031660009081526003602052604090205490565b600760205260009081526040902080546106f49061144d565b80601f01602080910402602001604051908101604052809291908181526020018280546107209061144d565b801561076d5780601f106107425761010080835404028352916020019161076d565b820191906000526020600020905b81548152906001019060200180831161075057829003601f168201915b505050505081565b6060600180546103599061144d565b61078e3382610bda565b50565b61079c338383610bf4565b5050565b6107aa3383610981565b61081c5760405162461bcd60e51b815260206004820152602e60248201527f4552433732313a2063616c6c6572206973206e6f7420746f6b656e206f776e6560448201527f72206e6f7220617070726f7665640000000000000000000000000000000000006064820152608401610494565b61082884848484610cc3565b50505050565b6060610839826108a2565b600061085060408051602081019091526000815290565b90506000815111610870576040518060200160405280600081525061089b565b8061087a84610d41565b60405160200161088b929190611488565b6040516020818303038152906040525b9392505050565b6000818152600260205260409020546001600160a01b031661078e5760405162461bcd60e51b815260206004820152601860248201527f4552433732313a20696e76616c696420746f6b656e20494400000000000000006044820152606401610494565b6000818152600460205260409020805473ffffffffffffffffffffffffffffffffffffffff19166001600160a01b0384169081179091558190610948826105dc565b6001600160a01b03167f8c5be1e5ebec7d5bd14f71427d1e84f3dd0314c0f7b2291e5b200ac8c7c3b92560405160405180910390a45050565b60008061098d836105dc565b9050806001600160a01b0316846001600160a01b031614806109d457506001600160a01b0380821660009081526005602090815260408083209388168352929052205460ff165b806109f85750836001600160a01b03166109ed846103dc565b6001600160a01b0316145b949350505050565b826001600160a01b0316610a13826105dc565b6001600160a01b031614610a8f5760405162461bcd60e51b815260206004820152602560248201527f4552433732313a207472616e736665722066726f6d20696e636f72726563742060448201527f6f776e65720000000000000000000000000000000000000000000000000000006064820152608401610494565b6001600160a01b038216610b0a5760405162461bcd60e51b8152602060048201526024808201527f4552433732313a207472616e7366657220746f20746865207a65726f2061646460448201527f72657373000000000000000000000000000000000000000000000000000000006064820152608401610494565b610b15600082610906565b6001600160a01b0383166000908152600360205260408120805460019290610b3e9084906114cd565b90915550506001600160a01b0382166000908152600360205260408120805460019290610b6c9084906114e4565b9091555050600081815260026020526040808220805473ffffffffffffffffffffffffffffffffffffffff19166001600160a01b0386811691821790925591518493918716917fddf252ad1be2c89b69c2b068fc378daa952ba7f163c4a11628f55a4df523b3ef91a4505050565b61079c828260405180602001604052806000815250610e73565b816001600160a01b0316836001600160a01b03161415610c565760405162461bcd60e51b815260206004820152601960248201527f4552433732313a20617070726f766520746f2063616c6c6572000000000000006044820152606401610494565b6001600160a01b03838116600081815260056020908152604080832094871680845294825291829020805460ff191686151590811790915591519182527f17307eab39ab6107e8899845ad3d59bd9653f200f220920489ca2b5937696c31910160405180910390a3505050565b610cce848484610a00565b610cda84848484610ef1565b6108285760405162461bcd60e51b815260206004820152603260248201527f4552433732313a207472616e7366657220746f206e6f6e20455243373231526560448201527131b2b4bb32b91034b6b83632b6b2b73a32b960711b6064820152608401610494565b606081610d8157505060408051808201909152600181527f3000000000000000000000000000000000000000000000000000000000000000602082015290565b8160005b8115610dab5780610d95816114fc565b9150610da49050600a8361152d565b9150610d85565b60008167ffffffffffffffff811115610dc657610dc6611328565b6040519080825280601f01601f191660200182016040528015610df0576020820181803683370190505b5090505b84156109f857610e056001836114cd565b9150610e12600a86611541565b610e1d9060306114e4565b60f81b818381518110610e3257610e32611555565b60200101907effffffffffffffffffffffffffffffffffffffffffffffffffffffffffffff1916908160001a905350610e6c600a8661152d565b9450610df4565b610e7d8383611049565b610e8a6000848484610ef1565b6105355760405162461bcd60e51b815260206004820152603260248201527f4552433732313a207472616e7366657220746f206e6f6e20455243373231526560448201527131b2b4bb32b91034b6b83632b6b2b73a32b960711b6064820152608401610494565b60006001600160a01b0384163b1561103e57604051630a85bd0160e11b81526001600160a01b0385169063150b7a0290610f3590339089908890889060040161156b565b602060405180830381600087803b158015610f4f57600080fd5b505af1925050508015610f7f575060408051601f3d908101601f19168201909252610f7c918101906115a7565b60015b611024573d808015610fad576040519150601f19603f3d011682016040523d82523d6000602084013e610fb2565b606091505b50805161101c5760405162461bcd60e51b815260206004820152603260248201527f4552433732313a207472616e7366657220746f206e6f6e20455243373231526560448201527131b2b4bb32b91034b6b83632b6b2b73a32b960711b6064820152608401610494565b805181602001fd5b6001600160e01b031916630a85bd0160e11b1490506109f8565b506001949350505050565b6001600160a01b03821661109f5760405162461bcd60e51b815260206004820181905260248201527f4552433732313a206d696e7420746f20746865207a65726f20616464726573736044820152606401610494565b6000818152600260205260409020546001600160a01b0316156111045760405162461bcd60e51b815260206004820152601c60248201527f4552433732313a20746f6b656e20616c7265616479206d696e746564000000006044820152606401610494565b6001600160a01b038216600090815260036020526040812080546001929061112d9084906114e4565b9091555050600081815260026020526040808220805473ffffffffffffffffffffffffffffffffffffffff19166001600160a01b03861690811790915590518392907fddf252ad1be2c89b69c2b068fc378daa952ba7f163c4a11628f55a4df523b3ef908290a45050565b6001600160e01b03198116811461078e57600080fd5b6000602082840312156111c057600080fd5b813561089b81611198565b60005b838110156111e65781810151838201526020016111ce565b838111156108285750506000910152565b6000815180845261120f8160208601602086016111cb565b601f01601f19169290920160200192915050565b60208152600061089b60208301846111f7565b60006020828403121561124857600080fd5b5035919050565b80356001600160a01b038116811461126657600080fd5b919050565b6000806040838503121561127e57600080fd5b6112878361124f565b946020939093013593505050565b6000806000606084860312156112aa57600080fd5b6112b38461124f565b92506112c16020850161124f565b9150604084013590509250925092565b6000602082840312156112e357600080fd5b61089b8261124f565b600080604083850312156112ff57600080fd5b6113088361124f565b91506020830135801515811461131d57600080fd5b809150509250929050565b634e487b7160e01b600052604160045260246000fd5b6000806000806080858703121561135457600080fd5b61135d8561124f565b935061136b6020860161124f565b925060408501359150606085013567ffffffffffffffff8082111561138f57600080fd5b818701915087601f8301126113a357600080fd5b8135818111156113b5576113b5611328565b604051601f8201601f19908116603f011681019083821181831017156113dd576113dd611328565b816040528281528a60208487010111156113f657600080fd5b82602086016020830137600060208483010152809550505050505092959194509250565b6000806040838503121561142d57600080fd5b6114368361124f565b91506114446020840161124f565b90509250929050565b600181811c9082168061146157607f821691505b6020821081141561148257634e487b7160e01b600052602260045260246000fd5b50919050565b6000835161149a8184602088016111cb565b8351908301906114ae8183602088016111cb565b01949350505050565b634e487b7160e01b600052601160045260246000fd5b6000828210156114df576114df6114b7565b500390565b600082198211156114f7576114f76114b7565b500190565b6000600019821415611510576115106114b7565b5060010190565b634e487b7160e01b600052601260045260246000fd5b60008261153c5761153c611517565b500490565b60008261155057611550611517565b500690565b634e487b7160e01b600052603260045260246000fd5b60006001600160a01b0380871683528086166020840152508360408301526080606083015261159d60808301846111f7565b9695505050505050565b6000602082840312156115b957600080fd5b815161089b8161119856fea2646970667358221220a151e9d17a0f3cd3dcf340296ccaa28f669968c7f662a035e1422839047a3a1864736f6c63430008090033",
  "linkReferences": {},
  "deployedLinkReferences": {}
}