{
  "_format": "hh-sol-artifact-1",
  "contractName": "ERC721Demo",
  "sourceName": "examples/nft-auctionhouse/ERC721Demo.sol",
  "abi": [
    {
      "inputs": [
        {
          "internalType": "string",
          "name": "name_",
          "type": "string"
        },
        {
          "internalType": "string",
          "name": "symbol_",
          "type": "string"
        }
      ],
      "stateMutability": "nonpayable",
      "type": "constructor"
    },
    {
      "anonymous": false,
      "inputs": [
        {
          "indexed": true,
          "internalType": "address",
          "name": "owner",
          "type": "address"
        },
        {
          "indexed": true,
          "internalType": "address",
          "name": "approved",
          "type": "address"
        },
        {
          "indexed": true,
          "internalType": "uint256",
          "name": "tokenId",
          "type": "uint256"
        }
      ],
      "name": "Approval",
      "type": "event"
    },
    {
      "anonymous": false,
      "inputs": [
        {
          "indexed": true,
          "internalType": "address",
          "name": "owner",
          "type": "address"
        },
        {
          "indexed": true,
          "internalType": "address",
          "name": "operator",
          "type": "address"
        },
        {
          "indexed": false,
          "internalType": "bool",
          "name": "approved",
          "type": "bool"
        }
      ],
      "name": "ApprovalForAll",
      "type": "event"
    },
    {
      "anonymous": false,
      "inputs": [
        {
          "indexed": true,
          "internalType": "address",
          "name": "from",
          "type": "address"
        },
        {
          "indexed": true,
          "internalType": "address",
          "name": "to",
          "type": "address"
        },
        {
          "indexed": true,
          "internalType": "uint256",
          "name": "tokenId",
          "type": "uint256"
        }
      ],
      "name": "Transfer",
      "type": "event"
    },
    {
      "inputs": [
        {
          "internalType": "address",
          "name": "to",
          "type": "address"
        },
        {
          "internalType": "uint256",
          "name": "tokenId",
          "type": "uint256"
        }
      ],
      "name": "approve",
      "outputs": [],
      "stateMutability": "nonpayable",
      "type": "function"
    },
    {
      "inputs": [
        {
          "internalType": "address",
          "name": "owner",
          "type": "address"
        }
      ],
      "name": "balanceOf",
      "outputs": [
        {
          "internalType": "uint256",
          "name": "",
          "type": "uint256"
        }
      ],
      "stateMutability": "view",
      "type": "function"
    },
    {
      "inputs": [
        {
          "internalType": "uint256",
          "name": "tokenId",
          "type": "uint256"
        }
      ],
      "name": "getApproved",
      "outputs": [
        {
          "internalType": "address",
          "name": "",
          "type": "address"
        }
      ],
      "stateMutability": "view",
      "type": "function"
    },
    {
      "inputs": [
        {
          "internalType": "address",
          "name": "owner",
          "type": "address"
        },
        {
          "internalType": "address",
          "name": "operator",
          "type": "address"
        }
      ],
      "name": "isApprovedForAll",
      "outputs": [
        {
          "internalType": "bool",
          "name": "",
          "type": "bool"
        }
      ],
      "stateMutability": "view",
      "type": "function"
    },
    {
      "inputs": [
        {
          "internalType": "uint256",
          "name": "tokenId",
          "type": "uint256"
        }
      ],
      "name": "mint",
      "outputs": [],
      "stateMutability": "nonpayable",
      "type": "function"
    },
    {
      "inputs": [],
      "name": "name",
      "outputs": [
        {
          "internalType": "string",
          "name": "",
          "type": "string"
        }
      ],
      "stateMutability": "view",
      "type": "function"
    },
    {
      "inputs": [
        {
          "internalType": "uint256",
          "name": "tokenId",
          "type": "uint256"
        }
      ],
      "name": "ownerOf",
      "outputs": [
        {
          "internalType": "address",
          "name": "",
          "type": "address"
        }
      ],
      "stateMutability": "view",
      "type": "function"
    },
    {
      "inputs": [
        {
          "internalType": "address",
          "name": "from",
          "type": "address"
        },
        {
          "internalType": "address",
          "name": "to",
          "type": "address"
        },
        {
          "internalType": "uint256",
          "name": "tokenId",
          "type": "uint256"
        }
      ],
      "name": "safeTransferFrom",
      "outputs": [],
      "stateMutability": "nonpayable",
      "type": "function"
    },
    {
      "inputs": [
        {
          "internalType": "address",
          "name": "from",
          "type": "address"
        },
        {
          "internalType": "address",
          "name": "to",
          "type": "address"
        },
        {
          "internalType": "uint256",
          "name": "tokenId",
          "type": "uint256"
        },
        {
          "internalType": "bytes",
          "name": "data",
          "type": "bytes"
        }
      ],
      "name": "safeTransferFrom",
      "outputs": [],
      "stateMutability": "nonpayable",
      "type": "function"
    },
    {
      "inputs": [
        {
          "internalType": "address",
          "name": "operator",
          "type": "address"
        },
        {
          "internalType": "bool",
          "name": "approved",
          "type": "bool"
        }
      ],
      "name": "setApprovalForAll",
      "outputs": [],
      "stateMutability": "nonpayable",
      "type": "function"
    },
    {
      "inputs": [
        {
          "internalType": "bytes4",
          "name": "interfaceId",
          "type": "bytes4"
        }
      ],
      "name": "supportsInterface",
      "outputs": [
        {
          "internalType": "bool",
          "name": "",
          "type": "bool"
        }
      ],
      "stateMutability": "view",
      "type": "function"
    },
    {
      "inputs": [],
      "name": "symbol",
      "outputs": [
        {
          "internalType": "string",
          "name": "",
          "type": "string"
        }
      ],
      "stateMutability": "view",
      "type": "function"
    },
    {
      "inputs": [
        {
          "internalType": "uint256",
          "name": "tokenId",
          "type": "uint256"
        }
      ],
      "name": "tokenURI",
      "outputs": [
        {
          "internalType": "string",
          "name": "",
          "type": "string"
        }
      ],
      "stateMutability": "view",
      "type": "function"
    },
    {
      "inputs": [
        {
          "internalType": "address",
          "name": "from",
          "type": "address"
        },
        {
          "internalType": "address",
          "name": "to",
          "type": "address"
        },
        {
          "internalType": "uint256",
          "name": "tokenId",
          "type": "uint256"
        }
      ],
      "name": "transferFrom",
      "outputs": [],
      "stateMutability": "nonpayable",
      "type": "function"
    }
  ],
  "bytecode": "0x60806040523480156200001157600080fd5b50604051620017a1380380620017a18339810160408190526200003491620001e1565b8151829082906200004d9060009060208501906200006e565b508051620000639060019060208401906200006e565b505050505062000288565b8280546200007c906200024b565b90600052602060002090601f016020900481019282620000a05760008555620000eb565b82601f10620000bb57805160ff1916838001178555620000eb565b82800160010185558215620000eb579182015b82811115620000eb578251825591602001919060010190620000ce565b50620000f9929150620000fd565b5090565b5b80821115620000f95760008155600101620000fe565b634e487b7160e01b600052604160045260246000fd5b600082601f8301126200013c57600080fd5b81516001600160401b038082111562000159576200015962000114565b604051601f8301601f19908116603f0116810190828211818310171562000184576200018462000114565b81604052838152602092508683858801011115620001a157600080fd5b600091505b83821015620001c55785820183015181830184015290820190620001a6565b83821115620001d75760008385830101525b9695505050505050565b60008060408385031215620001f557600080fd5b82516001600160401b03808211156200020d57600080fd5b6200021b868387016200012a565b935060208501519150808211156200023257600080fd5b5062000241858286016200012a565b9150509250929050565b600181811c908216806200026057607f821691505b602082108114156200028257634e487b7160e01b600052602260045260246000fd5b50919050565b61150980620002986000396000f3fe608060405234801561001057600080fd5b50600436106100ea5760003560e01c806370a082311161008c578063a22cb46511610066578063a22cb465146101e1578063b88d4fde146101f4578063c87b56dd14610207578063e985e9c51461021a57600080fd5b806370a08231146101a557806395d89b41146101c6578063a0712d68146101ce57600080fd5b8063095ea7b3116100c8578063095ea7b31461015757806323b872dd1461016c57806342842e0e1461017f5780636352211e1461019257600080fd5b806301ffc9a7146100ef57806306fdde0314610117578063081812fc1461012c575b600080fd5b6101026100fd3660046110bd565b610256565b60405190151581526020015b60405180910390f35b61011f6102f3565b60405161010e9190611132565b61013f61013a366004611145565b610385565b6040516001600160a01b03909116815260200161010e565b61016a61016536600461117a565b6103ac565b005b61016a61017a3660046111a4565b6104e3565b61016a61018d3660046111a4565b61056a565b61013f6101a0366004611145565b610585565b6101b86101b33660046111e0565b6105ea565b60405190815260200161010e565b61011f610684565b61016a6101dc366004611145565b610693565b61016a6101ef3660046111fb565b6106a0565b61016a61020236600461124d565b6106af565b61011f610215366004611145565b61073d565b610102610228366004611329565b6001600160a01b03918216600090815260056020908152604080832093909416825291909152205460ff1690565b60006001600160e01b031982167f80ac58cd0000000000000000000000000000000000000000000000000000000014806102b957506001600160e01b031982167f5b5e139f00000000000000000000000000000000000000000000000000000000145b806102ed57507f01ffc9a7000000000000000000000000000000000000000000000000000000006001600160e01b03198316145b92915050565b6060600080546103029061135c565b80601f016020809104026020016040519081016040528092919081815260200182805461032e9061135c565b801561037b5780601f106103505761010080835404028352916020019161037b565b820191906000526020600020905b81548152906001019060200180831161035e57829003601f168201915b5050505050905090565b6000610390826107b1565b506000908152600460205260409020546001600160a01b031690565b60006103b782610585565b9050806001600160a01b0316836001600160a01b031614156104465760405162461bcd60e51b815260206004820152602160248201527f4552433732313a20617070726f76616c20746f2063757272656e74206f776e6560448201527f720000000000000000000000000000000000000000000000000000000000000060648201526084015b60405180910390fd5b336001600160a01b038216148061046257506104628133610228565b6104d45760405162461bcd60e51b815260206004820152603e60248201527f4552433732313a20617070726f76652063616c6c6572206973206e6f7420746f60448201527f6b656e206f776e6572206e6f7220617070726f76656420666f7220616c6c0000606482015260840161043d565b6104de8383610815565b505050565b6104ed3382610890565b61055f5760405162461bcd60e51b815260206004820152602e60248201527f4552433732313a2063616c6c6572206973206e6f7420746f6b656e206f776e6560448201527f72206e6f7220617070726f766564000000000000000000000000000000000000606482015260840161043d565b6104de83838361090f565b6104de838383604051806020016040528060008152506106af565b6000818152600260205260408120546001600160a01b0316806102ed5760405162461bcd60e51b815260206004820152601860248201527f4552433732313a20696e76616c696420746f6b656e2049440000000000000000604482015260640161043d565b60006001600160a01b0382166106685760405162461bcd60e51b815260206004820152602960248201527f4552433732313a2061646472657373207a65726f206973206e6f74206120766160448201527f6c6964206f776e65720000000000000000000000000000000000000000000000606482015260840161043d565b506001600160a01b031660009081526003602052604090205490565b6060600180546103029061135c565b61069d3382610ae9565b50565b6106ab338383610b03565b5050565b6106b93383610890565b61072b5760405162461bcd60e51b815260206004820152602e60248201527f4552433732313a2063616c6c6572206973206e6f7420746f6b656e206f776e6560448201527f72206e6f7220617070726f766564000000000000000000000000000000000000606482015260840161043d565b61073784848484610bd2565b50505050565b6060610748826107b1565b600061075f60408051602081019091526000815290565b9050600081511161077f57604051806020016040528060008152506107aa565b8061078984610c50565b60405160200161079a929190611397565b6040516020818303038152906040525b9392505050565b6000818152600260205260409020546001600160a01b031661069d5760405162461bcd60e51b815260206004820152601860248201527f4552433732313a20696e76616c696420746f6b656e2049440000000000000000604482015260640161043d565b6000818152600460205260409020805473ffffffffffffffffffffffffffffffffffffffff19166001600160a01b038416908117909155819061085782610585565b6001600160a01b03167f8c5be1e5ebec7d5bd14f71427d1e84f3dd0314c0f7b2291e5b200ac8c7c3b92560405160405180910390a45050565b60008061089c83610585565b9050806001600160a01b0316846001600160a01b031614806108e357506001600160a01b0380821660009081526005602090815260408083209388168352929052205460ff165b806109075750836001600160a01b03166108fc84610385565b6001600160a01b0316145b949350505050565b826001600160a01b031661092282610585565b6001600160a01b03161461099e5760405162461bcd60e51b815260206004820152602560248201527f4552433732313a207472616e736665722066726f6d20696e636f72726563742060448201527f6f776e6572000000000000000000000000000000000000000000000000000000606482015260840161043d565b6001600160a01b038216610a195760405162461bcd60e51b8152602060048201526024808201527f4552433732313a207472616e7366657220746f20746865207a65726f2061646460448201527f7265737300000000000000000000000000000000000000000000000000000000606482015260840161043d565b610a24600082610815565b6001600160a01b0383166000908152600360205260408120805460019290610a4d9084906113dc565b90915550506001600160a01b0382166000908152600360205260408120805460019290610a7b9084906113f3565b9091555050600081815260026020526040808220805473ffffffffffffffffffffffffffffffffffffffff19166001600160a01b0386811691821790925591518493918716917fddf252ad1be2c89b69c2b068fc378daa952ba7f163c4a11628f55a4df523b3ef91a4505050565b6106ab828260405180602001604052806000815250610d82565b816001600160a01b0316836001600160a01b03161415610b655760405162461bcd60e51b815260206004820152601960248201527f4552433732313a20617070726f766520746f2063616c6c657200000000000000604482015260640161043d565b6001600160a01b03838116600081815260056020908152604080832094871680845294825291829020805460ff191686151590811790915591519182527f17307eab39ab6107e8899845ad3d59bd9653f200f220920489ca2b5937696c31910160405180910390a3505050565b610bdd84848461090f565b610be984848484610e00565b6107375760405162461bcd60e51b815260206004820152603260248201527f4552433732313a207472616e7366657220746f206e6f6e20455243373231526560448201527131b2b4bb32b91034b6b83632b6b2b73a32b960711b606482015260840161043d565b606081610c9057505060408051808201909152600181527f3000000000000000000000000000000000000000000000000000000000000000602082015290565b8160005b8115610cba5780610ca48161140b565b9150610cb39050600a8361143c565b9150610c94565b60008167ffffffffffffffff811115610cd557610cd5611237565b6040519080825280601f01601f191660200182016040528015610cff576020820181803683370190505b5090505b841561090757610d146001836113dc565b9150610d21600a86611450565b610d2c9060306113f3565b60f81b818381518110610d4157610d41611464565b60200101907effffffffffffffffffffffffffffffffffffffffffffffffffffffffffffff1916908160001a905350610d7b600a8661143c565b9450610d03565b610d8c8383610f58565b610d996000848484610e00565b6104de5760405162461bcd60e51b815260206004820152603260248201527f4552433732313a207472616e7366657220746f206e6f6e20455243373231526560448201527131b2b4bb32b91034b6b83632b6b2b73a32b960711b606482015260840161043d565b60006001600160a01b0384163b15610f4d57604051630a85bd0160e11b81526001600160a01b0385169063150b7a0290610e4490339089908890889060040161147a565b602060405180830381600087803b158015610e5e57600080fd5b505af1925050508015610e8e575060408051601f3d908101601f19168201909252610e8b918101906114b6565b60015b610f33573d808015610ebc576040519150601f19603f3d011682016040523d82523d6000602084013e610ec1565b606091505b508051610f2b5760405162461bcd60e51b815260206004820152603260248201527f4552433732313a207472616e7366657220746f206e6f6e20455243373231526560448201527131b2b4bb32b91034b6b83632b6b2b73a32b960711b606482015260840161043d565b805181602001fd5b6001600160e01b031916630a85bd0160e11b149050610907565b506001949350505050565b6001600160a01b038216610fae5760405162461bcd60e51b815260206004820181905260248201527f4552433732313a206d696e7420746f20746865207a65726f2061646472657373604482015260640161043d565b6000818152600260205260409020546001600160a01b0316156110135760405162461bcd60e51b815260206004820152601c60248201527f4552433732313a20746f6b656e20616c7265616479206d696e74656400000000604482015260640161043d565b6001600160a01b038216600090815260036020526040812080546001929061103c9084906113f3565b9091555050600081815260026020526040808220805473ffffffffffffffffffffffffffffffffffffffff19166001600160a01b03861690811790915590518392907fddf252ad1be2c89b69c2b068fc378daa952ba7f163c4a11628f55a4df523b3ef908290a45050565b6001600160e01b03198116811461069d57600080fd5b6000602082840312156110cf57600080fd5b81356107aa816110a7565b60005b838110156110f55781810151838201526020016110dd565b838111156107375750506000910152565b6000815180845261111e8160208601602086016110da565b601f01601f19169290920160200192915050565b6020815260006107aa6020830184611106565b60006020828403121561115757600080fd5b5035919050565b80356001600160a01b038116811461117557600080fd5b919050565b6000806040838503121561118d57600080fd5b6111968361115e565b946020939093013593505050565b6000806000606084860312156111b957600080fd5b6111c28461115e565b92506111d06020850161115e565b9150604084013590509250925092565b6000602082840312156111f257600080fd5b6107aa8261115e565b6000806040838503121561120e57600080fd5b6112178361115e565b91506020830135801515811461122c57600080fd5b809150509250929050565b634e487b7160e01b600052604160045260246000fd5b6000806000806080858703121561126357600080fd5b61126c8561115e565b935061127a6020860161115e565b925060408501359150606085013567ffffffffffffffff8082111561129e57600080fd5b818701915087601f8301126112b257600080fd5b8135818111156112c4576112c4611237565b604051601f8201601f19908116603f011681019083821181831017156112ec576112ec611237565b816040528281528a602084870101111561130557600080fd5b82602086016020830137600060208483010152809550505050505092959194509250565b6000806040838503121561133c57600080fd5b6113458361115e565b91506113536020840161115e565b90509250929050565b600181811c9082168061137057607f821691505b6020821081141561139157634e487b7160e01b600052602260045260246000fd5b50919050565b600083516113a98184602088016110da565b8351908301906113bd8183602088016110da565b01949350505050565b634e487b7160e01b600052601160045260246000fd5b6000828210156113ee576113ee6113c6565b500390565b60008219821115611406576114066113c6565b500190565b600060001982141561141f5761141f6113c6565b5060010190565b634e487b7160e01b600052601260045260246000fd5b60008261144b5761144b611426565b500490565b60008261145f5761145f611426565b500690565b634e487b7160e01b600052603260045260246000fd5b60006001600160a01b038087168352808616602084015250836040830152608060608301526114ac6080830184611106565b9695505050505050565b6000602082840312156114c857600080fd5b81516107aa816110a756fea2646970667358221220946e7730663853cc7f4944a6d3eb4cef21460f53ed2a582b1668f836ef53f5c064736f6c63430008090033",
  "linkReferences": {},
  "deployedLinkReferences": {}
}