{
  "_format": "hh-sol-artifact-1",
  "contractName": "NameNft",
  "sourceName": "examples/nft-name/NftName.sol",
  "abi": [
    {
      "inputs": [
        {
          "internalType": "address",
          "name": "gateway_",
          "type": "address"
        },
        {
          "internalType": "address",
          "name": "gasReceiver_",
          "type": "address"
        }
      ],
      "stateMutability": "nonpayable",
      "type": "constructor"
    },
    {
      "inputs": [],
      "name": "AlreadyInitialized",
      "type": "error"
    },
    {
      "inputs": [],
      "name": "InvalidAddress",
      "type": "error"
    },
    {
      "inputs": [],
      "name": "InvalidCodeHash",
      "type": "error"
    },
    {
      "inputs": [],
      "name": "InvalidImplementation",
      "type": "error"
    },
    {
      "inputs": [],
      "name": "InvalidOwner",
      "type": "error"
    },
    {
      "inputs": [],
      "name": "NotApprovedByGateway",
      "type": "error"
    },
    {
      "inputs": [],
      "name": "NotOwner",
      "type": "error"
    },
    {
      "inputs": [],
      "name": "NotProxy",
      "type": "error"
    },
    {
      "inputs": [],
      "name": "SetupFailed",
      "type": "error"
    },
    {
      "anonymous": false,
      "inputs": [
        {
          "indexed": true,
          "internalType": "address",
          "name": "newOwner",
          "type": "address"
        }
      ],
      "name": "OwnershipTransferred",
      "type": "event"
    },
    {
      "anonymous": false,
      "inputs": [
        {
          "indexed": true,
          "internalType": "address",
          "name": "newImplementation",
          "type": "address"
        }
      ],
      "name": "Upgraded",
      "type": "event"
    },
    {
      "inputs": [
        {
          "internalType": "string",
          "name": "chainName_",
          "type": "string"
        },
        {
          "internalType": "address",
          "name": "contractaddr",
          "type": "address"
        }
      ],
      "name": "addOrUpdateSupportedChain",
      "outputs": [],
      "stateMutability": "nonpayable",
      "type": "function"
    },
    {
      "inputs": [
        {
          "internalType": "address",
          "name": "",
          "type": "address"
        }
      ],
      "name": "addresslist",
      "outputs": [
        {
          "internalType": "string",
          "name": "",
          "type": "string"
        }
      ],
      "stateMutability": "view",
      "type": "function"
    },
    {
      "inputs": [
        {
          "internalType": "address",
          "name": "toaddr",
          "type": "address"
        },
        {
          "internalType": "string",
          "name": "tochain",
          "type": "string"
        },
        {
          "internalType": "string",
          "name": "nftname",
          "type": "string"
        }
      ],
      "name": "authorization",
      "outputs": [],
      "stateMutability": "payable",
      "type": "function"
    },
    {
      "inputs": [],
      "name": "chainName",
      "outputs": [
        {
          "internalType": "string",
          "name": "",
          "type": "string"
        }
      ],
      "stateMutability": "view",
      "type": "function"
    },
    {
      "inputs": [],
      "name": "contractId",
      "outputs": [
        {
          "internalType": "bytes32",
          "name": "",
          "type": "bytes32"
        }
      ],
      "stateMutability": "pure",
      "type": "function"
    },
    {
      "inputs": [
        {
          "internalType": "address",
          "name": "toaddr",
          "type": "address"
        },
        {
          "internalType": "string",
          "name": "tochain",
          "type": "string"
        },
        {
          "internalType": "string",
          "name": "nftname",
          "type": "string"
        }
      ],
      "name": "deauthorization",
      "outputs": [],
      "stateMutability": "payable",
      "type": "function"
    },
    {
      "inputs": [
        {
          "internalType": "string",
          "name": "chainName_",
          "type": "string"
        }
      ],
      "name": "deleteSupportedChain",
      "outputs": [],
      "stateMutability": "nonpayable",
      "type": "function"
    },
    {
      "inputs": [
        {
          "internalType": "bytes32",
          "name": "commandId",
          "type": "bytes32"
        },
        {
          "internalType": "string",
          "name": "sourceChain",
          "type": "string"
        },
        {
          "internalType": "string",
          "name": "sourceAddress",
          "type": "string"
        },
        {
          "internalType": "bytes",
          "name": "payload",
          "type": "bytes"
        }
      ],
      "name": "execute",
      "outputs": [],
      "stateMutability": "nonpayable",
      "type": "function"
    },
    {
      "inputs": [
        {
          "internalType": "bytes32",
          "name": "commandId",
          "type": "bytes32"
        },
        {
          "internalType": "string",
          "name": "sourceChain",
          "type": "string"
        },
        {
          "internalType": "string",
          "name": "sourceAddress",
          "type": "string"
        },
        {
          "internalType": "bytes",
          "name": "payload",
          "type": "bytes"
        },
        {
          "internalType": "string",
          "name": "tokenSymbol",
          "type": "string"
        },
        {
          "internalType": "uint256",
          "name": "amount",
          "type": "uint256"
        }
      ],
      "name": "executeWithToken",
      "outputs": [],
      "stateMutability": "nonpayable",
      "type": "function"
    },
    {
      "inputs": [],
      "name": "gasReceiver",
      "outputs": [
        {
          "internalType": "contract IAxelarGasService",
          "name": "",
          "type": "address"
        }
      ],
      "stateMutability": "view",
      "type": "function"
    },
    {
      "inputs": [],
      "name": "gateway",
      "outputs": [
        {
          "internalType": "contract IAxelarGateway",
          "name": "",
          "type": "address"
        }
      ],
      "stateMutability": "view",
      "type": "function"
    },
    {
      "inputs": [],
      "name": "implementation",
      "outputs": [
        {
          "internalType": "address",
          "name": "implementation_",
          "type": "address"
        }
      ],
      "stateMutability": "view",
      "type": "function"
    },
    {
      "inputs": [
        {
          "internalType": "string",
          "name": "",
          "type": "string"
        }
      ],
      "name": "mintingResponse",
      "outputs": [
        {
          "internalType": "uint256",
          "name": "",
          "type": "uint256"
        }
      ],
      "stateMutability": "view",
      "type": "function"
    },
    {
      "inputs": [
        {
          "internalType": "string",
          "name": "",
          "type": "string"
        }
      ],
      "name": "nftMinting",
      "outputs": [
        {
          "internalType": "address",
          "name": "",
          "type": "address"
        }
      ],
      "stateMutability": "view",
      "type": "function"
    },
    {
      "inputs": [
        {
          "internalType": "address",
          "name": "",
          "type": "address"
        }
      ],
      "name": "nftOwnerAddress",
      "outputs": [
        {
          "internalType": "string",
          "name": "name",
          "type": "string"
        },
        {
          "internalType": "address",
          "name": "userAddress",
          "type": "address"
        },
        {
          "internalType": "bool",
          "name": "isOwner",
          "type": "bool"
        },
        {
          "internalType": "bool",
          "name": "isRightToUse",
          "type": "bool"
        }
      ],
      "stateMutability": "view",
      "type": "function"
    },
    {
      "inputs": [
        {
          "internalType": "uint256",
          "name": "",
          "type": "uint256"
        }
      ],
      "name": "nftlist",
      "outputs": [
        {
          "internalType": "string",
          "name": "name",
          "type": "string"
        },
        {
          "internalType": "address",
          "name": "userAddress",
          "type": "address"
        },
        {
          "internalType": "bool",
          "name": "isOwner",
          "type": "bool"
        },
        {
          "internalType": "bool",
          "name": "isRightToUse",
          "type": "bool"
        }
      ],
      "stateMutability": "view",
      "type": "function"
    },
    {
      "inputs": [
        {
          "internalType": "uint256",
          "name": "",
          "type": "uint256"
        }
      ],
      "name": "original",
      "outputs": [
        {
          "internalType": "bytes",
          "name": "",
          "type": "bytes"
        }
      ],
      "stateMutability": "view",
      "type": "function"
    },
    {
      "inputs": [],
      "name": "owner",
      "outputs": [
        {
          "internalType": "address",
          "name": "owner_",
          "type": "address"
        }
      ],
      "stateMutability": "view",
      "type": "function"
    },
    {
      "inputs": [
        {
          "internalType": "address",
          "name": "addr",
          "type": "address"
        }
      ],
      "name": "queryByAddress",
      "outputs": [
        {
          "components": [
            {
              "internalType": "string",
              "name": "name",
              "type": "string"
            },
            {
              "internalType": "address",
              "name": "userAddress",
              "type": "address"
            },
            {
              "internalType": "bool",
              "name": "isOwner",
              "type": "bool"
            },
            {
              "internalType": "bool",
              "name": "isRightToUse",
              "type": "bool"
            }
          ],
          "internalType": "struct NameNft.NftName",
          "name": "",
          "type": "tuple"
        }
      ],
      "stateMutability": "view",
      "type": "function"
    },
    {
      "inputs": [
        {
          "internalType": "string",
          "name": "name",
          "type": "string"
        }
      ],
      "name": "queryByName",
      "outputs": [
        {
          "components": [
            {
              "internalType": "string",
              "name": "name",
              "type": "string"
            },
            {
              "internalType": "address",
              "name": "userAddress",
              "type": "address"
            },
            {
              "internalType": "bool",
              "name": "isOwner",
              "type": "bool"
            },
            {
              "internalType": "bool",
              "name": "isRightToUse",
              "type": "bool"
            }
          ],
          "internalType": "struct NameNft.NftName",
          "name": "",
          "type": "tuple"
        }
      ],
      "stateMutability": "view",
      "type": "function"
    },
    {
      "inputs": [
        {
          "internalType": "bytes",
          "name": "data",
          "type": "bytes"
        }
      ],
      "name": "setup",
      "outputs": [],
      "stateMutability": "nonpayable",
      "type": "function"
    },
    {
      "inputs": [
        {
          "internalType": "string",
          "name": "name",
          "type": "string"
        }
      ],
      "name": "startMint",
      "outputs": [],
      "stateMutability": "payable",
      "type": "function"
    },
    {
      "inputs": [
        {
          "internalType": "uint256",
          "name": "",
          "type": "uint256"
        }
      ],
      "name": "supportedchains",
      "outputs": [
        {
          "internalType": "string",
          "name": "chainName",
          "type": "string"
        },
        {
          "internalType": "address",
          "name": "contractaddr",
          "type": "address"
        }
      ],
      "stateMutability": "view",
      "type": "function"
    },
    {
      "inputs": [
        {
          "internalType": "address",
          "name": "toaddr",
          "type": "address"
        },
        {
          "internalType": "string",
          "name": "tochain",
          "type": "string"
        },
        {
          "internalType": "string",
          "name": "nftname",
          "type": "string"
        }
      ],
      "name": "transfer",
      "outputs": [],
      "stateMutability": "payable",
      "type": "function"
    },
    {
      "inputs": [
        {
          "internalType": "address",
          "name": "newOwner",
          "type": "address"
        }
      ],
      "name": "transferOwnership",
      "outputs": [],
      "stateMutability": "nonpayable",
      "type": "function"
    },
    {
      "inputs": [
        {
          "internalType": "address",
          "name": "newImplementation",
          "type": "address"
        },
        {
          "internalType": "bytes32",
          "name": "newImplementationCodeHash",
          "type": "bytes32"
        },
        {
          "internalType": "bytes",
          "name": "params",
          "type": "bytes"
        }
      ],
      "name": "upgrade",
      "outputs": [],
      "stateMutability": "nonpayable",
      "type": "function"
    }
  ],
  "bytecode": "0x60c06040523480156200001157600080fd5b5060405162003c6238038062003c62833981016040819052620000349162000093565b816001600160a01b0381166200005d5760405163e6c4247b60e01b815260040160405180910390fd5b6001600160a01b039081166080521660a05250620000cb565b80516001600160a01b03811681146200008e57600080fd5b919050565b60008060408385031215620000a757600080fd5b620000b28362000076565b9150620000c26020840162000076565b90509250929050565b60805160a051613b39620001296000396000818161039101528181610c3001528181610d2d01526111de015260008181610215015281816105ed0152818161092801528181610dc70152818161127901526120590152613b396000f3fe6080604052600436106101a05760003560e01c80638291286c116100e1578063a3499c731161008a578063dfd4b40111610064578063dfd4b40114610530578063f2fde38b14610550578063f32e534714610570578063f5bb63811461059057600080fd5b8063a3499c73146104c2578063cb2a5b92146104e2578063cb7ec3dc1461051057600080fd5b80638da5cb5b116100bb5780638da5cb5b146104365780639cd2161e1461046a5780639ded06df146104a257600080fd5b80638291286c146103c65780638824843e146104035780638af5b7db1461041657600080fd5b80635c60da1b1161014e57806370a7287b1161012857806370a7287b1461033f578063717eb03f1461035f57806380d14b4a1461037f57806381378af7146103b357600080fd5b80635c60da1b146102c8578063639d6923146102fc5780636c967a541461030f57600080fd5b80631c93b03a1161017f5780631c93b03a14610259578063205860311461027b57806349160658146102a857600080fd5b8062e9f9c7146101a5578063116191b6146102035780631a98b2e014610237575b600080fd5b3480156101b157600080fd5b506101e66101c0366004612eed565b80516020818301810180516006825292820191909301209152546001600160a01b031681565b6040516001600160a01b0390911681526020015b60405180910390f35b34801561020f57600080fd5b506101e67f000000000000000000000000000000000000000000000000000000000000000081565b34801561024357600080fd5b50610257610252366004612f87565b6105a3565b005b34801561026557600080fd5b5061026e6106ae565b6040516101fa91906130b9565b34801561028757600080fd5b5061029b6102963660046130d3565b61073c565b6040516101fa9190613115565b3480156102b457600080fd5b506102576102c3366004613168565b6108de565b3480156102d457600080fd5b507f360894a13ba1a3210667c828492db98dca3e2076cc3735a920a3ca505d382bbc546101e6565b61025761030a3660046130d3565b6109ee565b34801561031b57600080fd5b5061032f61032a36600461320c565b610e85565b6040516101fa9493929190613225565b34801561034b57600080fd5b5061026e61035a366004613274565b610f60565b34801561036b57600080fd5b5061026e61037a36600461320c565b610f79565b34801561038b57600080fd5b506101e67f000000000000000000000000000000000000000000000000000000000000000081565b6102576103c1366004613291565b610f92565b3480156103d257600080fd5b507f8b88dae839acea7ff6a270cef523f6c04d348796d1890294879850ff17ecd6cc5b6040519081526020016101fa565b610257610411366004613291565b6112ec565b34801561042257600080fd5b50610257610431366004613314565b611477565b34801561044257600080fd5b507f02016836a56b71f0d02689e69e326f4f4c1b9057164ef592671cf0d37c8040c0546101e6565b34801561047657600080fd5b506103f5610485366004612eed565b805160208183018101805160078252928201919093012091525481565b3480156104ae57600080fd5b506102576104bd3660046130d3565b6115e2565b3480156104ce57600080fd5b506102576104dd36600461336b565b61165b565b3480156104ee57600080fd5b506105026104fd36600461320c565b611977565b6040516101fa9291906133c7565b34801561051c57600080fd5b5061025761052b3660046130d3565b611a3c565b34801561053c57600080fd5b5061029b61054b366004613274565b611af6565b34801561055c57600080fd5b5061025761056b366004613274565b611ca5565b34801561057c57600080fd5b5061032f61058b366004613274565b611d8d565b61025761059e366004613291565b611da8565b600085856040516105b59291906133f2565b6040519081900381207f1876eed900000000000000000000000000000000000000000000000000000000825291506001600160a01b037f00000000000000000000000000000000000000000000000000000000000000001690631876eed990610632908e908e908e908e908e9089908d908d908d9060040161342b565b602060405180830381600087803b15801561064c57600080fd5b505af1158015610660573d6000803e3d6000fd5b505050506040513d601f19601f82011682018060405250810190610684919061349f565b6106a157604051631403112d60e21b815260040160405180910390fd5b5050505050505050505050565b600280546106bb906134ba565b80601f01602080910402602001604051908101604052809291908181526020018280546106e7906134ba565b80156107345780601f1061070957610100808354040283529160200191610734565b820191906000526020600020905b81548152906001019060200180831161071757829003601f168201915b505050505081565b60408051608081018252606080825260006020830181905292820183905281019190915260006107a184848080601f016020809104026020016040519081016040528093929190818152602001838380828437600092019190915250611f3392505050565b905060008113156108ab57600481815481106107bf576107bf6134f5565b90600052602060002090600202016040518060800160405290816000820180546107e8906134ba565b80601f0160208091040260200160405190810160405280929190818152602001828054610814906134ba565b80156108615780601f1061083657610100808354040283529160200191610861565b820191906000526020600020905b81548152906001019060200180831161084457829003601f168201915b5050509183525050600191909101546001600160a01b038116602083015260ff600160a01b8204811615156040840152600160a81b90910416151560609091015291506108d89050565b50506040805160a08101825260006080820181815282526020820181905291810182905260608101919091525b92915050565b600082826040516108f09291906133f2565b6040519081900381207f5f6970c300000000000000000000000000000000000000000000000000000000825291506001600160a01b037f00000000000000000000000000000000000000000000000000000000000000001690635f6970c390610967908b908b908b908b908b90899060040161350b565b602060405180830381600087803b15801561098157600080fd5b505af1158015610995573d6000803e3d6000fd5b505050506040513d601f19601f820116820180604052508101906109b9919061349f565b6109d657604051631403112d60e21b815260040160405180910390fd5b6109e4878787878787611faa565b5050505050505050565b610a2d82828080601f01602080910402602001604051908101604052809392919081815260200183838082843760009201919091525061227192505050565b610a7e5760405162461bcd60e51b815260206004820152601360248201527f6e616d6520616c726561647920696e207573650000000000000000000000000060448201526064015b60405180910390fd5b60006001600160a01b031660068383604051610a9b9291906133f2565b908152604051908190036020019020546001600160a01b031614610b015760405162461bcd60e51b815260206004820152601360248201527f6e616d65206973206d696e74696e67206e6f77000000000000000000000000006044820152606401610a75565b3360068383604051610b149291906133f2565b90815260405190819003602001902080546001600160a01b03929092166001600160a01b031990921691909117905560005b600354811015610e805760038181548110610b6357610b636134f5565b9060005260206000209060020201600001604051610b81919061354c565b60405180910390206002604051610b98919061354c565b604051809103902014610e6e576000808484604051602001610bbb9291906135be565b60408051601f1981840301815290829052610bd992916020016135e8565b60405160208183030381529060405290506000610c2460038481548110610c0257610c026134f5565b60009182526020909120600160029092020101546001600160a01b03166122ea565b90506001600160a01b037f000000000000000000000000000000000000000000000000000000000000000016630c93e3bb610c60600a34613635565b3060038781548110610c7457610c746134f5565b90600052602060002090600202016000018587336040518763ffffffff1660e01b8152600401610ca89594939291906136ce565b6000604051808303818588803b158015610cc157600080fd5b505af1158015610cd5573d6000803e3d6000fd5b505050505060006001808787604051602001610cf39392919061372d565b60408051601f1981840301815290829052610d1192916020016135e8565b60408051601f1981840301815291905290506001600160a01b037f000000000000000000000000000000000000000000000000000000000000000016630c93e3bb610d5d600a34613635565b610d66856125ba565b6002610d71306122ea565b86336040518763ffffffff1660e01b8152600401610d939594939291906136ce565b6000604051808303818588803b158015610dac57600080fd5b505af1158015610dc0573d6000803e3d6000fd5b50505050507f00000000000000000000000000000000000000000000000000000000000000006001600160a01b0316631c92115f60038681548110610e0757610e076134f5565b906000526020600020906002020160000184866040518463ffffffff1660e01b8152600401610e3893929190613752565b600060405180830381600087803b158015610e5257600080fd5b505af1158015610e66573d6000803e3d6000fd5b505050505050505b80610e7881613795565b915050610b46565b505050565b60048181548110610e9557600080fd5b9060005260206000209060020201600091509050806000018054610eb8906134ba565b80601f0160208091040260200160405190810160405280929190818152602001828054610ee4906134ba565b8015610f315780601f10610f0657610100808354040283529160200191610f31565b820191906000526020600020905b815481529060010190602001808311610f1457829003601f168201915b505050600190930154919250506001600160a01b0381169060ff600160a01b8204811691600160a81b90041684565b600160205260009081526040902080546106bb906134ba565b600060208190529081526040902080546106bb906134ba565b8181604051610fa29291906133f2565b604080519182900382203360009081526005602052919091209091610fc7919061354c565b6040518091039020146110085760405162461bcd60e51b81526020600482015260096024820152682727aa2fa7aba722a960b91b6044820152606401610a75565b6002604051611017919061354c565b6040518091039020848460405161102f9291906133f2565b604051809103902014156110855761108082828080601f0160208091040260200160405190810160405280939291908181526020018383808284376000920191909152508992503391506126b99050565b6112e5565b6110c484848080601f0160208091040260200160405190810160405280939291908181526020018383808284376000920191909152506126cd92505050565b6111045760405162461bcd60e51b81526020600482015260116024820152702727aa2fa9aaa82827a92a2fa1a420a4a760791b6044820152606401610a75565b61114582828080601f016020809104026020016040519081016040528093929190818152602001838380828437600092019190915250339250612746915050565b6000600483838860405160200161115e939291906137b0565b60408051601f198184030181529082905261117c92916020016135e8565b60408051601f198184030181526020601f880181900481028401810190925286835292506000916111da916111cc919089908990819084018382808284376000920191909152506127ea92505050565b6001600160a01b03166122ea565b90507f00000000000000000000000000000000000000000000000000000000000000006001600160a01b0316630c93e3bb343089898688336040518863ffffffff1660e01b8152600401611233969594939291906137dd565b6000604051808303818588803b15801561124c57600080fd5b505af1158015611260573d6000803e3d6000fd5b5050604051631c92115f60e01b81526001600160a01b037f0000000000000000000000000000000000000000000000000000000000000000169350631c92115f92506112b79150899089908690889060040161383e565b600060405180830381600087803b1580156112d157600080fd5b505af11580156106a1573d6000803e3d6000fd5b5050505050565b60026040516112fb919061354c565b604051809103902084846040516113139291906133f2565b604051809103902014156113695760405162461bcd60e51b815260206004820152601960248201527f43555252454e545f434841494e5f4e4f545f535550504f5254000000000000006044820152606401610a75565b81816040516113799291906133f2565b60408051918290038220336000908152600560205291909120909161139e919061354c565b6040518091039020146113df5760405162461bcd60e51b81526020600482015260096024820152682727aa2fa7aba722a960b91b6044820152606401610a75565b61141e84848080601f0160208091040260200160405190810160405280939291908181526020018383808284376000920191909152506126cd92505050565b61145e5760405162461bcd60e51b81526020600482015260116024820152702727aa2fa9aaa82827a92a2fa1a420a4a760791b6044820152606401610a75565b6000600383838860405160200161115e939291906137b0565b60005b60035481101561153c5760038181548110611497576114976134f5565b90600052602060002090600202016000016040516114b5919061354c565b604051809103902084846040516114cd9291906133f2565b6040518091039020141561152a5781600382815481106114ef576114ef6134f5565b906000526020600020906002020160010160006101000a8154816001600160a01b0302191690836001600160a01b0316021790555050505050565b8061153481613795565b91505061147a565b506040805160606020601f860181900402820181018352918101848152600392829190879087908190850183828082843760009201829052509385525050506001600160a01b0385166020928301528354600181018555938152819020825180519394600202909101926115b39284920190612d6a565b5060209190910151600190910180546001600160a01b0319166001600160a01b03909216919091179055505050565b600061160c7f360894a13ba1a3210667c828492db98dca3e2076cc3735a920a3ca505d382bbc5490565b6001600160a01b0316141561164d576040517fbf10dd3a00000000000000000000000000000000000000000000000000000000815260040160405180910390fd5b6116578282612888565b5050565b336116847f02016836a56b71f0d02689e69e326f4f4c1b9057164ef592671cf0d37c8040c05490565b6001600160a01b0316146116ab576040516330cd747160e01b815260040160405180910390fd5b306001600160a01b0316638291286c6040518163ffffffff1660e01b815260040160206040518083038186803b1580156116e457600080fd5b505afa1580156116f8573d6000803e3d6000fd5b505050506040513d601f19601f8201168201806040525081019061171c9190613883565b846001600160a01b0316638291286c6040518163ffffffff1660e01b815260040160206040518083038186803b15801561175557600080fd5b505afa158015611769573d6000803e3d6000fd5b505050506040513d601f19601f8201168201806040525081019061178d9190613883565b146117c4576040517f68155f9a00000000000000000000000000000000000000000000000000000000815260040160405180910390fd5b836001600160a01b03163f8314611807576040517f8f84fb2400000000000000000000000000000000000000000000000000000000815260040160405180910390fd5b801561191c576000846001600160a01b0316639ded06df60e01b84846040516024016118349291906135be565b60408051601f198184030181529181526020820180517bffffffffffffffffffffffffffffffffffffffffffffffffffffffff167fffffffff0000000000000000000000000000000000000000000000000000000090941693909317909252905161189f919061389c565b600060405180830381855af49150503d80600081146118da576040519150601f19603f3d011682016040523d82523d6000602084013e6118df565b606091505b505090508061191a576040517f97905dfb00000000000000000000000000000000000000000000000000000000815260040160405180910390fd5b505b6040516001600160a01b038516907fbc7cd75a20ee27fd9adebab32041f755214dbc6bffa90cc0225b39da2e5c2d3b90600090a25050507f360894a13ba1a3210667c828492db98dca3e2076cc3735a920a3ca505d382bbc55565b6003818154811061198757600080fd5b90600052602060002090600202016000915090508060000180546119aa906134ba565b80601f01602080910402602001604051908101604052809291908181526020018280546119d6906134ba565b8015611a235780601f106119f857610100808354040283529160200191611a23565b820191906000526020600020905b815481529060010190602001808311611a0657829003601f168201915b505050600190930154919250506001600160a01b031682565b60005b600354811015610e805760038181548110611a5c57611a5c6134f5565b9060005260206000209060020201600001604051611a7a919061354c565b60405180910390208383604051611a929291906133f2565b60405180910390201415611ae45760038181548110611ab357611ab36134f5565b60009182526020822060029091020190611acd8282612dee565b5060010180546001600160a01b0319169055505050565b80611aee81613795565b915050611a3f565b6040805160808101825260608082526000602083018190529282018390528101829052905b600454811015611c7457826001600160a01b031660048281548110611b4257611b426134f5565b60009182526020909120600160029092020101546001600160a01b03161415611c625760048181548110611b7857611b786134f5565b9060005260206000209060020201604051806080016040529081600082018054611ba1906134ba565b80601f0160208091040260200160405190810160405280929190818152602001828054611bcd906134ba565b8015611c1a5780601f10611bef57610100808354040283529160200191611c1a565b820191906000526020600020905b815481529060010190602001808311611bfd57829003601f168201915b5050509183525050600191909101546001600160a01b038116602083015260ff600160a01b8204811615156040840152600160a81b9091041615156060909101529392505050565b80611c6c81613795565b915050611b1b565b50506040805160a0810182526000608082018181528252602082018190529181018290526060810191909152919050565b33611cce7f02016836a56b71f0d02689e69e326f4f4c1b9057164ef592671cf0d37c8040c05490565b6001600160a01b031614611cf5576040516330cd747160e01b815260040160405180910390fd5b6001600160a01b038116611d35576040517f49e27cff00000000000000000000000000000000000000000000000000000000815260040160405180910390fd5b6040516001600160a01b038216907f04dba622d284ed0014ee4b9a6a68386be1a4c08a4913ae272de89199cc68616390600090a27f02016836a56b71f0d02689e69e326f4f4c1b9057164ef592671cf0d37c8040c055565b600560205260009081526040902080548190610eb8906134ba565b6002604051611db7919061354c565b60405180910390208484604051611dcf9291906133f2565b60405180910390201415611e255760405162461bcd60e51b815260206004820152601960248201527f43555252454e545f434841494e5f4e4f545f535550504f5254000000000000006044820152606401610a75565b8181604051611e359291906133f2565b604080519182900382203360009081526005602052919091209091611e5a919061354c565b604051809103902014611e9b5760405162461bcd60e51b81526020600482015260096024820152682727aa2fa7aba722a960b91b6044820152606401610a75565b611eda84848080601f0160208091040260200160405190810160405280939291908181526020018383808284376000920191909152506126cd92505050565b611f1a5760405162461bcd60e51b81526020600482015260116024820152702727aa2fa9aaa82827a92a2fa1a420a4a760791b6044820152606401610a75565b6000600283838860405160200161115e939291906137b0565b6000805b600454811015611fa057828051906020012060048281548110611f5c57611f5c6134f5565b9060005260206000209060020201600001604051611f7a919061354c565b60405180910390201415611f8e5792915050565b80611f9881613795565b915050611f37565b5060001992915050565b600080611fb9838501856138b8565b90925090506000826004811115611fd257611fd26135d2565b14156120d057600081806020019051810190611fee9190613965565b90506000611ffb82612271565b905060006001828460405160200161201492919061399a565b60408051601f198184030181529082905261203292916020016135e8565b60408051601f1981840301815290829052631c92115f60e01b825291506001600160a01b037f00000000000000000000000000000000000000000000000000000000000000001690631c92115f90612096908e908e908e908e9088906004016139b5565b600060405180830381600087803b1580156120b057600080fd5b505af11580156120c4573d6000803e3d6000fd5b505050505050506109e4565b60018260048111156120e4576120e46135d2565b14156121a8576000808280602001905181019061210191906139fc565b915091508161211857612113816128f7565b6121a1565b60035461212790600290613a40565b600782604051612137919061389c565b90815260200160405180910390205414156121555761211381612947565b600781604051612165919061389c565b90815260200160405180910390205460016121809190613a57565b600782604051612190919061389c565b908152604051908190036020019020555b50506109e4565b60028260048111156121bc576121bc6135d2565b14156121e757600080828060200190518101906121d99190613a6f565b915091506121a1828261297e565b60038260048111156121fb576121fb6135d2565b141561222657600080828060200190518101906122189190613a6f565b915091506121a18282612a6c565b600482600481111561223a5761223a6135d2565b14156109e457600080828060200190518101906122579190613a6f565b915091506122658282612b52565b50505050505050505050565b6000805b6004548110156122e15760048181548110612292576122926134f5565b90600052602060002090600202016000016040516122b0919061354c565b6040518091039020838051906020012014156122cf5750600092915050565b806122d981613795565b915050612275565b50600192915050565b604051606082811b6bffffffffffffffffffffffff191660208301529060009060340160408051601f19818403018152828201909152601082527f30313233343536373839616263646566000000000000000000000000000000006020830152805190925060009061235d906002613ac1565b612368906002613a57565b67ffffffffffffffff81111561238057612380612e40565b6040519080825280601f01601f1916602001820160405280156123aa576020820181803683370190505b5090507f3000000000000000000000000000000000000000000000000000000000000000816000815181106123e1576123e16134f5565b60200101906001600160f81b031916908160001a9053507f78000000000000000000000000000000000000000000000000000000000000008160018151811061242c5761242c6134f5565b60200101906001600160f81b031916908160001a90535060005b83518110156125b157826004858381518110612464576124646134f5565b016020015182517fff0000000000000000000000000000000000000000000000000000000000000090911690911c60f81c9081106124a4576124a46134f5565b01602001517fff0000000000000000000000000000000000000000000000000000000000000016826124d7836002613ac1565b6124e2906002613a57565b815181106124f2576124f26134f5565b60200101906001600160f81b031916908160001a9053508284828151811061251c5761251c6134f5565b602091010151815160f89190911c600f1690811061253c5761253c6134f5565b01602001517fff00000000000000000000000000000000000000000000000000000000000000168261256f836002613ac1565b61257a906003613a57565b8151811061258a5761258a6134f5565b60200101906001600160f81b031916908160001a9053506125aa81613795565b9050612446565b50949350505050565b80516000908290602a146125d15750600092915050565b60008060025b602a8110156126af578381815181106125f2576125f26134f5565b016020015160f81c915060618210801590612611575060668260ff1611155b1561262857612621605783613ae0565b9150612684565b60418260ff1610158015612640575060468260ff1611155b1561265057612621603783613ae0565b60308260ff1610158015612668575060398260ff1611155b1561267857612621603083613ae0565b50600095945050505050565b6002612691826029613a40565b60ff8416911b1b9290921791806126a781613795565b9150506125d7565b5090949350505050565b6126c38382612746565b610e808383612bbb565b6000805b60035481101561273d578280519060200120600382815481106126f6576126f66134f5565b9060005260206000209060020201600001604051612714919061354c565b6040518091039020141561272b5750600192915050565b8061273581613795565b9150506126d1565b50600092915050565b600061275183611f33565b905060048181548110612766576127666134f5565b600091825260208220600290910201906127808282612dee565b50600101805475ffffffffffffffffffffffffffffffffffffffffffff191690556001600160a01b0382166000908152600560205260408120906127c48282612dee565b50600101805475ffffffffffffffffffffffffffffffffffffffffffff19169055505050565b6000805b60035481101561273d57828051906020012060038281548110612813576128136134f5565b9060005260206000209060020201600001604051612831919061354c565b604051809103902014156128765760038181548110612852576128526134f5565b60009182526020909120600160029092020101546001600160a01b03169392505050565b8061288081613795565b9150506127ee565b600061289682840184612eed565b9050600280546128a5906134ba565b1590506128de576040517f0dc149f000000000000000000000000000000000000000000000000000000000815260040160405180910390fd5b80516128f1906002906020840190612d6a565b50505050565b600681604051612907919061389c565b90815260405190819003602001812080546001600160a01b031916905560079061293290839061389c565b90815260200160405180910390206000905550565b6000600682604051612959919061389c565b908152604051908190036020019020546001600160a01b031690506116578282612bbb565b604080516080810182528381526001600160a01b0383166020820152600091810191909152600160608201526129b383611f33565b6000191415610e8057600480546001810182556000919091528151805183926002027f8a35acfbc15ff81a39ae7d344fd709f28e8600b4aa8c65c6b64bfe7fe36bd19b0191612a0791839160200190612d6a565b5060208201516001909101805460408401516060909401511515600160a81b0260ff60a81b19941515600160a01b0274ffffffffffffffffffffffffffffffffffffffffff199092166001600160a01b03909416939093171792909216179055505050565b6000612a7783611f33565b905060008112158015612ac15750816001600160a01b031660048281548110612aa257612aa26134f5565b60009182526020909120600160029092020101546001600160a01b0316145b15610e8057600060048281548110612adb57612adb6134f5565b906000526020600020906002020160010160006101000a8154816001600160a01b0302191690836001600160a01b03160217905550600060048281548110612b2557612b256134f5565b906000526020600020906002020160010160156101000a81548160ff021916908315150217905550505050565b6000612b5d83611f33565b9050600081126126c35760048181548110612b7a57612b7a6134f5565b60009182526020822060029091020190612b948282612dee565b50600101805475ffffffffffffffffffffffffffffffffffffffffffff19169055610e8083835b604080516080810182528381526001600160a01b0383166020808301829052600183850181905260608401526000918252600581529290208151805192938493612c089284920190612d6a565b506020828101516001928301805460408601516060909601511515600160a81b0260ff60a81b19961515600160a01b0274ffffffffffffffffffffffffffffffffffffffffff199092166001600160a01b039094169390931717949094161790925560048054918201815560005282518051849360029093027f8a35acfbc15ff81a39ae7d344fd709f28e8600b4aa8c65c6b64bfe7fe36bd19b0192612cb2928492910190612d6a565b506020820151600190910180546040808501516060909501511515600160a81b0260ff60a81b19951515600160a01b0274ffffffffffffffffffffffffffffffffffffffffff199093166001600160a01b0390951694909417919091179390931691909117905551600690612d2890859061389c565b90815260405190819003602001812080546001600160a01b0319169055600790612d5390859061389c565b908152602001604051809103902060009055505050565b828054612d76906134ba565b90600052602060002090601f016020900481019282612d985760008555612dde565b82601f10612db157805160ff1916838001178555612dde565b82800160010185558215612dde579182015b82811115612dde578251825591602001919060010190612dc3565b50612dea929150612e2b565b5090565b508054612dfa906134ba565b6000825580601f10612e0a575050565b601f016020900490600052602060002090810190612e289190612e2b565b50565b5b80821115612dea5760008155600101612e2c565b634e487b7160e01b600052604160045260246000fd5b604051601f8201601f1916810167ffffffffffffffff81118282101715612e7f57612e7f612e40565b604052919050565b600067ffffffffffffffff821115612ea157612ea1612e40565b50601f01601f191660200190565b6000612ec2612ebd84612e87565b612e56565b9050828152838383011115612ed657600080fd5b828260208301376000602084830101529392505050565b600060208284031215612eff57600080fd5b813567ffffffffffffffff811115612f1657600080fd5b8201601f81018413612f2757600080fd5b612f3684823560208401612eaf565b949350505050565b60008083601f840112612f5057600080fd5b50813567ffffffffffffffff811115612f6857600080fd5b602083019150836020828501011115612f8057600080fd5b9250929050565b60008060008060008060008060008060c08b8d031215612fa657600080fd5b8a35995060208b013567ffffffffffffffff80821115612fc557600080fd5b612fd18e838f01612f3e565b909b50995060408d0135915080821115612fea57600080fd5b612ff68e838f01612f3e565b909950975060608d013591508082111561300f57600080fd5b61301b8e838f01612f3e565b909750955060808d013591508082111561303457600080fd5b506130418d828e01612f3e565b9150809450508092505060a08b013590509295989b9194979a5092959850565b60005b8381101561307c578181015183820152602001613064565b838111156128f15750506000910152565b600081518084526130a5816020860160208601613061565b601f01601f19169290920160200192915050565b6020815260006130cc602083018461308d565b9392505050565b600080602083850312156130e657600080fd5b823567ffffffffffffffff8111156130fd57600080fd5b61310985828601612f3e565b90969095509350505050565b60208152600082516080602084015261313160a084018261308d565b90506001600160a01b0360208501511660408401526040840151151560608401526060840151151560808401528091505092915050565b60008060008060008060006080888a03121561318357600080fd5b87359650602088013567ffffffffffffffff808211156131a257600080fd5b6131ae8b838c01612f3e565b909850965060408a01359150808211156131c757600080fd5b6131d38b838c01612f3e565b909650945060608a01359150808211156131ec57600080fd5b506131f98a828b01612f3e565b989b979a50959850939692959293505050565b60006020828403121561321e57600080fd5b5035919050565b608081526000613238608083018761308d565b6001600160a01b039590951660208301525091151560408301521515606090910152919050565b6001600160a01b0381168114612e2857600080fd5b60006020828403121561328657600080fd5b81356130cc8161325f565b6000806000806000606086880312156132a957600080fd5b85356132b48161325f565b9450602086013567ffffffffffffffff808211156132d157600080fd5b6132dd89838a01612f3e565b909650945060408801359150808211156132f657600080fd5b5061330388828901612f3e565b969995985093965092949392505050565b60008060006040848603121561332957600080fd5b833567ffffffffffffffff81111561334057600080fd5b61334c86828701612f3e565b90945092505060208401356133608161325f565b809150509250925092565b6000806000806060858703121561338157600080fd5b843561338c8161325f565b935060208501359250604085013567ffffffffffffffff8111156133af57600080fd5b6133bb87828801612f3e565b95989497509550505050565b6040815260006133da604083018561308d565b90506001600160a01b03831660208301529392505050565b8183823760009101908152919050565b81835281816020850137506000828201602090810191909152601f909101601f19169091010190565b89815260c06020820152600061344560c083018a8c613402565b828103604084015261345881898b613402565b90508660608401528281036080840152613473818688613402565b9150508260a08301529a9950505050505050505050565b8051801515811461349a57600080fd5b919050565b6000602082840312156134b157600080fd5b6130cc8261348a565b600181811c908216806134ce57607f821691505b602082108114156134ef57634e487b7160e01b600052602260045260246000fd5b50919050565b634e487b7160e01b600052603260045260246000fd5b868152608060208201526000613525608083018789613402565b8281036040840152613538818688613402565b915050826060830152979650505050505050565b600080835461355a816134ba565b600182811680156135725760018114613583576135b2565b60ff198416875282870194506135b2565b8760005260208060002060005b858110156135a95781548a820152908401908201613590565b50505082870194505b50929695505050505050565b602081526000612f36602083018486613402565b634e487b7160e01b600052602160045260246000fd5b60006005841061360857634e487b7160e01b600052602160045260246000fd5b83825260406020830152612f36604083018461308d565b634e487b7160e01b600052601160045260246000fd5b60008261365257634e487b7160e01b600052601260045260246000fd5b500490565b60008154613664816134ba565b8085526020600183811680156136815760018114613695576136c3565b60ff198516888401526040880195506136c3565b866000528260002060005b858110156136bb5781548a82018601529083019084016136a0565b890184019650505b505050505092915050565b60006001600160a01b03808816835260a060208401526136f160a0840188613657565b8381036040850152613703818861308d565b90508381036060850152613717818761308d565b9250508084166080840152509695505050505050565b8315158152604060208201526000613749604083018486613402565b95945050505050565b6060815260006137656060830186613657565b8281036020840152613777818661308d565b9050828103604084015261378b818561308d565b9695505050505050565b60006000198214156137a9576137a961361f565b5060010190565b6040815260006137c4604083018587613402565b90506001600160a01b0383166020830152949350505050565b60006001600160a01b03808916835260a0602084015261380160a08401888a613402565b8381036040850152613813818861308d565b90508381036060850152613827818761308d565b925050808416608084015250979650505050505050565b606081526000613852606083018688613402565b8281036020840152613864818661308d565b90508281036040840152613878818561308d565b979650505050505050565b60006020828403121561389557600080fd5b5051919050565b600082516138ae818460208701613061565b9190910192915050565b600080604083850312156138cb57600080fd5b8235600581106138da57600080fd5b9150602083013567ffffffffffffffff8111156138f657600080fd5b8301601f8101851361390757600080fd5b61391685823560208401612eaf565b9150509250929050565b600082601f83011261393157600080fd5b815161393f612ebd82612e87565b81815284602083860101111561395457600080fd5b612f36826020830160208701613061565b60006020828403121561397757600080fd5b815167ffffffffffffffff81111561398e57600080fd5b612f3684828501613920565b8215158152604060208201526000612f36604083018461308d565b6060815260006139c9606083018789613402565b82810360208401526139dc818688613402565b905082810360408401526139f0818561308d565b98975050505050505050565b60008060408385031215613a0f57600080fd5b613a188361348a565b9150602083015167ffffffffffffffff811115613a3457600080fd5b61391685828601613920565b600082821015613a5257613a5261361f565b500390565b60008219821115613a6a57613a6a61361f565b500190565b60008060408385031215613a8257600080fd5b825167ffffffffffffffff811115613a9957600080fd5b613aa585828601613920565b9250506020830151613ab68161325f565b809150509250929050565b6000816000190483118215151615613adb57613adb61361f565b500290565b600060ff821660ff841680821015613afa57613afa61361f565b9003939250505056fea264697066735822122004692a11667a7be4cc1d2508ca0af80080394acc919ff25f8d5d9f47f8e425c364736f6c63430008090033",
  "linkReferences": {},
  "deployedLinkReferences": {}
}