{
  "_format": "hh-sol-artifact-1",
  "contractName": "ExecutableImplementation",
  "sourceName": "examples/nonced-execution/ExecutableImplementation.sol",
  "abi": [
    {
      "inputs": [
        {
          "internalType": "address",
          "name": "gateway_",
          "type": "address"
        }
      ],
      "stateMutability": "nonpayable",
      "type": "constructor"
    },
    {
      "inputs": [],
      "name": "AlreadyInitialized",
      "type": "error"
    },
    {
      "inputs": [],
      "name": "IncorrectNonce",
      "type": "error"
    },
    {
      "inputs": [],
      "name": "InvalidAddress",
      "type": "error"
    },
    {
      "inputs": [],
      "name": "InvalidCodeHash",
      "type": "error"
    },
    {
      "inputs": [],
      "name": "InvalidImplementation",
      "type": "error"
    },
    {
      "inputs": [],
      "name": "InvalidOwner",
      "type": "error"
    },
    {
      "inputs": [],
      "name": "NotApprovedByGateway",
      "type": "error"
    },
    {
      "inputs": [],
      "name": "NotOwner",
      "type": "error"
    },
    {
      "inputs": [],
      "name": "NotProxy",
      "type": "error"
    },
    {
      "inputs": [],
      "name": "SetupFailed",
      "type": "error"
    },
    {
      "inputs": [
        {
          "internalType": "string",
          "name": "sourceAddress",
          "type": "string"
        }
      ],
      "name": "WrongSourceAddress",
      "type": "error"
    },
    {
      "anonymous": false,
      "inputs": [
        {
          "indexed": true,
          "internalType": "address",
          "name": "newOwner",
          "type": "address"
        }
      ],
      "name": "OwnershipTransferred",
      "type": "event"
    },
    {
      "anonymous": false,
      "inputs": [
        {
          "indexed": true,
          "internalType": "address",
          "name": "newImplementation",
          "type": "address"
        }
      ],
      "name": "Upgraded",
      "type": "event"
    },
    {
      "inputs": [],
      "name": "contractId",
      "outputs": [
        {
          "internalType": "bytes32",
          "name": "",
          "type": "bytes32"
        }
      ],
      "stateMutability": "pure",
      "type": "function"
    },
    {
      "inputs": [
        {
          "internalType": "bytes32",
          "name": "commandId",
          "type": "bytes32"
        },
        {
          "internalType": "string",
          "name": "sourceChain",
          "type": "string"
        },
        {
          "internalType": "string",
          "name": "sourceAddress",
          "type": "string"
        },
        {
          "internalType": "bytes",
          "name": "payload",
          "type": "bytes"
        }
      ],
      "name": "execute",
      "outputs": [],
      "stateMutability": "nonpayable",
      "type": "function"
    },
    {
      "inputs": [
        {
          "internalType": "bytes32",
          "name": "commandId",
          "type": "bytes32"
        },
        {
          "internalType": "string",
          "name": "sourceChain",
          "type": "string"
        },
        {
          "internalType": "string",
          "name": "sourceAddress",
          "type": "string"
        },
        {
          "internalType": "bytes",
          "name": "payload",
          "type": "bytes"
        },
        {
          "internalType": "string",
          "name": "tokenSymbol",
          "type": "string"
        },
        {
          "internalType": "uint256",
          "name": "amount",
          "type": "uint256"
        }
      ],
      "name": "executeWithToken",
      "outputs": [],
      "stateMutability": "nonpayable",
      "type": "function"
    },
    {
      "inputs": [],
      "name": "gateway",
      "outputs": [
        {
          "internalType": "contract IAxelarGateway",
          "name": "",
          "type": "address"
        }
      ],
      "stateMutability": "view",
      "type": "function"
    },
    {
      "inputs": [],
      "name": "implementation",
      "outputs": [
        {
          "internalType": "address",
          "name": "implementation_",
          "type": "address"
        }
      ],
      "stateMutability": "view",
      "type": "function"
    },
    {
      "inputs": [
        {
          "internalType": "string",
          "name": "",
          "type": "string"
        },
        {
          "internalType": "address",
          "name": "",
          "type": "address"
        }
      ],
      "name": "incomingNonces",
      "outputs": [
        {
          "internalType": "uint256",
          "name": "",
          "type": "uint256"
        }
      ],
      "stateMutability": "view",
      "type": "function"
    },
    {
      "inputs": [
        {
          "internalType": "string",
          "name": "",
          "type": "string"
        },
        {
          "internalType": "address",
          "name": "",
          "type": "address"
        },
        {
          "internalType": "uint256",
          "name": "",
          "type": "uint256"
        }
      ],
      "name": "messages",
      "outputs": [
        {
          "internalType": "string",
          "name": "",
          "type": "string"
        }
      ],
      "stateMutability": "view",
      "type": "function"
    },
    {
      "inputs": [],
      "name": "owner",
      "outputs": [
        {
          "internalType": "address",
          "name": "owner_",
          "type": "address"
        }
      ],
      "stateMutability": "view",
      "type": "function"
    },
    {
      "inputs": [],
      "name": "senderContract",
      "outputs": [
        {
          "internalType": "address",
          "name": "",
          "type": "address"
        }
      ],
      "stateMutability": "view",
      "type": "function"
    },
    {
      "inputs": [
        {
          "internalType": "bytes",
          "name": "data",
          "type": "bytes"
        }
      ],
      "name": "setup",
      "outputs": [],
      "stateMutability": "nonpayable",
      "type": "function"
    },
    {
      "inputs": [
        {
          "internalType": "address",
          "name": "newOwner",
          "type": "address"
        }
      ],
      "name": "transferOwnership",
      "outputs": [],
      "stateMutability": "nonpayable",
      "type": "function"
    },
    {
      "inputs": [
        {
          "internalType": "address",
          "name": "newImplementation",
          "type": "address"
        },
        {
          "internalType": "bytes32",
          "name": "newImplementationCodeHash",
          "type": "bytes32"
        },
        {
          "internalType": "bytes",
          "name": "params",
          "type": "bytes"
        }
      ],
      "name": "upgrade",
      "outputs": [],
      "stateMutability": "nonpayable",
      "type": "function"
    }
  ],
  "bytecode": "0x60a060405234801561001057600080fd5b506040516117e13803806117e183398101604081905261002f9161006c565b80806001600160a01b0381166100585760405163e6c4247b60e01b815260040160405180910390fd5b6001600160a01b03166080525061009c9050565b60006020828403121561007e57600080fd5b81516001600160a01b038116811461009557600080fd5b9392505050565b6080516117166100cb6000396000818160de015281816102b6015281816103d20152610bcd01526117166000f3fe608060405234801561001057600080fd5b50600436106100d45760003560e01c80638291286c11610081578063a3499c731161005b578063a3499c7314610226578063bdf3a19114610239578063f2fde38b1461025957600080fd5b80638291286c146101c65780638da5cb5b146101ec5780639ded06df1461021357600080fd5b80635c60da1b116100b25780635c60da1b1461014557806367f235ea1461016c57806379a286491461017f57600080fd5b8063116191b6146100d95780631a98b2e01461011d5780634916065814610132575b600080fd5b6101007f000000000000000000000000000000000000000000000000000000000000000081565b6040516001600160a01b0390911681526020015b60405180910390f35b61013061012b366004610f6d565b61026c565b005b610130610140366004611047565b610388565b7f360894a13ba1a3210667c828492db98dca3e2076cc3735a920a3ca505d382bbc54610100565b600154610100906001600160a01b031681565b6101b861018d3660046111d7565b8151602081840181018051600080835293830195830195909520949052929092528152604090205481565b604051908152602001610114565b7f8b88dae839acea7ff6a270cef523f6c04d348796d1890294879850ff17ecd6cc6101b8565b7f02016836a56b71f0d02689e69e326f4f4c1b9057164ef592671cf0d37c8040c054610100565b610130610221366004611229565b610498565b61013061023436600461126b565b610511565b61024c6102473660046112c7565b61082d565b604051610114919061137d565b610130610267366004611390565b6108e8565b6000858560405161027e9291906113ad565b6040519081900381207f1876eed900000000000000000000000000000000000000000000000000000000825291506001600160a01b037f00000000000000000000000000000000000000000000000000000000000000001690631876eed9906102fb908e908e908e908e908e9089908d908d908d906004016113e6565b602060405180830381600087803b15801561031557600080fd5b505af1158015610329573d6000803e3d6000fd5b505050506040513d601f19601f8201168201806040525081019061034d9190611445565b61036a57604051631403112d60e21b815260040160405180910390fd5b61037b8a8a8a8a8a8a8a8a8a6109d0565b5050505050505050505050565b6000828260405161039a9291906113ad565b6040519081900381207f5f6970c300000000000000000000000000000000000000000000000000000000825291506001600160a01b037f00000000000000000000000000000000000000000000000000000000000000001690635f6970c390610411908b908b908b908b908b908990600401611467565b602060405180830381600087803b15801561042b57600080fd5b505af115801561043f573d6000803e3d6000fd5b505050506040513d601f19601f820116820180604052508101906104639190611445565b61048057604051631403112d60e21b815260040160405180910390fd5b61048e878787878787610ad9565b5050505050505050565b60006104c27f360894a13ba1a3210667c828492db98dca3e2076cc3735a920a3ca505d382bbc5490565b6001600160a01b03161415610503576040517fbf10dd3a00000000000000000000000000000000000000000000000000000000815260040160405180910390fd5b61050d8282610c8a565b5050565b3361053a7f02016836a56b71f0d02689e69e326f4f4c1b9057164ef592671cf0d37c8040c05490565b6001600160a01b031614610561576040516330cd747160e01b815260040160405180910390fd5b306001600160a01b0316638291286c6040518163ffffffff1660e01b815260040160206040518083038186803b15801561059a57600080fd5b505afa1580156105ae573d6000803e3d6000fd5b505050506040513d601f19601f820116820180604052508101906105d291906114a8565b846001600160a01b0316638291286c6040518163ffffffff1660e01b815260040160206040518083038186803b15801561060b57600080fd5b505afa15801561061f573d6000803e3d6000fd5b505050506040513d601f19601f8201168201806040525081019061064391906114a8565b1461067a576040517f68155f9a00000000000000000000000000000000000000000000000000000000815260040160405180910390fd5b836001600160a01b03163f83146106bd576040517f8f84fb2400000000000000000000000000000000000000000000000000000000815260040160405180910390fd5b80156107d2576000846001600160a01b0316639ded06df60e01b84846040516024016106ea9291906114c1565b60408051601f198184030181529181526020820180517bffffffffffffffffffffffffffffffffffffffffffffffffffffffff167fffffffff0000000000000000000000000000000000000000000000000000000090941693909317909252905161075591906114dd565b600060405180830381855af49150503d8060008114610790576040519150601f19603f3d011682016040523d82523d6000602084013e610795565b606091505b50509050806107d0576040517f97905dfb00000000000000000000000000000000000000000000000000000000815260040160405180910390fd5b505b6040516001600160a01b038516907fbc7cd75a20ee27fd9adebab32041f755214dbc6bffa90cc0225b39da2e5c2d3b90600090a25050507f360894a13ba1a3210667c828492db98dca3e2076cc3735a920a3ca505d382bbc55565b82516020818501810180516002825292820195820195909520919094528352600091825260408083209093528152208054610867906114f9565b80601f0160208091040260200160405190810160405280929190818152602001828054610893906114f9565b80156108e05780601f106108b5576101008083540402835291602001916108e0565b820191906000526020600020905b8154815290600101906020018083116108c357829003601f168201915b505050505081565b336109117f02016836a56b71f0d02689e69e326f4f4c1b9057164ef592671cf0d37c8040c05490565b6001600160a01b031614610938576040516330cd747160e01b815260040160405180910390fd5b6001600160a01b038116610978576040517f49e27cff00000000000000000000000000000000000000000000000000000000815260040160405180910390fd5b6040516001600160a01b038216907f04dba622d284ed0014ee4b9a6a68386be1a4c08a4913ae272de89199cc68616390600090a27f02016836a56b71f0d02689e69e326f4f4c1b9057164ef592671cf0d37c8040c055565b600154604080516020601f8a018190048102820181019092528881526001600160a01b0390921691610a1c918a908a9081908401838280828437600092019190915250610d1a92505050565b6001600160a01b031614610a505786866040516302138ea560e21b8152600401610a479291906114c1565b60405180910390fd5b60008080610a6087890189611534565b92509250925060008c8c604051610a789291906113ad565b90815260408051602092819003830190206001600160a01b038516600090815292528120805491610aa8836115b7565b919050558314610acb57604051630ce9b1b160e31b815260040160405180910390fd5b505050505050505050505050565b600154604080516020601f87018190048102820181019092528581526001600160a01b0390921691610b25918790879081908401838280828437600092019190915250610d1a92505050565b6001600160a01b031614610b505783836040516302138ea560e21b8152600401610a479291906114c1565b60008080610b6084860186611534565b92509250925060008989604051610b789291906113ad565b90815260408051602092819003830190206001600160a01b038516600090815292528120805491610ba8836115b7565b919050558314610bcb57604051630ce9b1b160e31b815260040160405180910390fd5b7f00000000000000000000000000000000000000000000000000000000000000006001600160a01b0316631c92115f8a8a8a8a88604051602001610c1191815260200190565b6040516020818303038152906040526040518663ffffffff1660e01b8152600401610c409594939291906115d2565b600060405180830381600087803b158015610c5a57600080fd5b505af1158015610c6e573d6000803e3d6000fd5b50505050610c7f8989848685610e19565b505050505050505050565b6000610c9882840184611390565b6001549091506001600160a01b031615610cde576040517f0dc149f000000000000000000000000000000000000000000000000000000000815260040160405180910390fd5b600180547fffffffffffffffffffffffff0000000000000000000000000000000000000000166001600160a01b03929092169190911790555050565b80516000908290602a14610d315750600092915050565b60008060025b602a811015610e0f57838181518110610d5257610d52611619565b016020015160f81c915060618210801590610d71575060668260ff1611155b15610d8857610d8160578361162f565b9150610de4565b60418260ff1610158015610da0575060468260ff1611155b15610db057610d8160378361162f565b60308260ff1610158015610dc8575060398260ff1611155b15610dd857610d8160308361162f565b50600095945050505050565b6002610df1826029611652565b60ff8416911b1b929092179180610e07816115b7565b915050610d37565b5090949350505050565b600081806020019051810190610e2f9190611669565b90508060028787604051610e449291906113ad565b90815260408051602092819003830190206001600160a01b03881660009081529083528181208782528352208251610e829391929190910190610e8b565b50505050505050565b828054610e97906114f9565b90600052602060002090601f016020900481019282610eb95760008555610eff565b82601f10610ed257805160ff1916838001178555610eff565b82800160010185558215610eff579182015b82811115610eff578251825591602001919060010190610ee4565b50610f0b929150610f0f565b5090565b5b80821115610f0b5760008155600101610f10565b60008083601f840112610f3657600080fd5b50813567ffffffffffffffff811115610f4e57600080fd5b602083019150836020828501011115610f6657600080fd5b9250929050565b60008060008060008060008060008060c08b8d031215610f8c57600080fd5b8a35995060208b013567ffffffffffffffff80821115610fab57600080fd5b610fb78e838f01610f24565b909b50995060408d0135915080821115610fd057600080fd5b610fdc8e838f01610f24565b909950975060608d0135915080821115610ff557600080fd5b6110018e838f01610f24565b909750955060808d013591508082111561101a57600080fd5b506110278d828e01610f24565b9150809450508092505060a08b013590509295989b9194979a5092959850565b60008060008060008060006080888a03121561106257600080fd5b87359650602088013567ffffffffffffffff8082111561108157600080fd5b61108d8b838c01610f24565b909850965060408a01359150808211156110a657600080fd5b6110b28b838c01610f24565b909650945060608a01359150808211156110cb57600080fd5b506110d88a828b01610f24565b989b979a50959850939692959293505050565b634e487b7160e01b600052604160045260246000fd5b604051601f8201601f1916810167ffffffffffffffff8111828210171561112a5761112a6110eb565b604052919050565b600067ffffffffffffffff82111561114c5761114c6110eb565b50601f01601f191660200190565b600061116d61116884611132565b611101565b905082815283838301111561118157600080fd5b828260208301376000602084830101529392505050565b600082601f8301126111a957600080fd5b6111b88383356020850161115a565b9392505050565b6001600160a01b03811681146111d457600080fd5b50565b600080604083850312156111ea57600080fd5b823567ffffffffffffffff81111561120157600080fd5b61120d85828601611198565b925050602083013561121e816111bf565b809150509250929050565b6000806020838503121561123c57600080fd5b823567ffffffffffffffff81111561125357600080fd5b61125f85828601610f24565b90969095509350505050565b6000806000806060858703121561128157600080fd5b843561128c816111bf565b935060208501359250604085013567ffffffffffffffff8111156112af57600080fd5b6112bb87828801610f24565b95989497509550505050565b6000806000606084860312156112dc57600080fd5b833567ffffffffffffffff8111156112f357600080fd5b6112ff86828701611198565b9350506020840135611310816111bf565b929592945050506040919091013590565b60005b8381101561133c578181015183820152602001611324565b8381111561134b576000848401525b50505050565b60008151808452611369816020860160208601611321565b601f01601f19169290920160200192915050565b6020815260006111b86020830184611351565b6000602082840312156113a257600080fd5b81356111b8816111bf565b8183823760009101908152919050565b81835281816020850137506000828201602090810191909152601f909101601f19169091010190565b89815260c06020820152600061140060c083018a8c6113bd565b828103604084015261141381898b6113bd565b9050866060840152828103608084015261142e8186886113bd565b9150508260a08301529a9950505050505050505050565b60006020828403121561145757600080fd5b815180151581146111b857600080fd5b8681526080602082015260006114816080830187896113bd565b82810360408401526114948186886113bd565b915050826060830152979650505050505050565b6000602082840312156114ba57600080fd5b5051919050565b6020815260006114d56020830184866113bd565b949350505050565b600082516114ef818460208701611321565b9190910192915050565b600181811c9082168061150d57607f821691505b6020821081141561152e57634e487b7160e01b600052602260045260246000fd5b50919050565b60008060006060848603121561154957600080fd5b83359250602084013561155b816111bf565b9150604084013567ffffffffffffffff81111561157757600080fd5b8401601f8101861361158857600080fd5b6115978682356020840161115a565b9150509250925092565b634e487b7160e01b600052601160045260246000fd5b60006000198214156115cb576115cb6115a1565b5060010190565b6060815260006115e66060830187896113bd565b82810360208401526115f98186886113bd565b9050828103604084015261160d8185611351565b98975050505050505050565b634e487b7160e01b600052603260045260246000fd5b600060ff821660ff841680821015611649576116496115a1565b90039392505050565b600082821015611664576116646115a1565b500390565b60006020828403121561167b57600080fd5b815167ffffffffffffffff81111561169257600080fd5b8201601f810184136116a357600080fd5b80516116b161116882611132565b8181528560208385010111156116c657600080fd5b6116d7826020830160208601611321565b9594505050505056fea26469706673582212200630dd27d23ce026641d393c56887a807f7399f39c9ea16e637a758401cc03a864736f6c63430008090033",
  "linkReferences": {},
  "deployedLinkReferences": {}
}