{
  "_format": "hh-sol-artifact-1",
  "contractName": "NftLinker",
  "sourceName": "examples/nft-linker/NftLinker.sol",
  "abi": [
    {
      "inputs": [
        {
          "internalType": "address",
          "name": "gateway_",
          "type": "address"
        },
        {
          "internalType": "address",
          "name": "gasReceiver_",
          "type": "address"
        }
      ],
      "stateMutability": "nonpayable",
      "type": "constructor"
    },
    {
      "inputs": [],
      "name": "AlreadyInitialized",
      "type": "error"
    },
    {
      "inputs": [],
      "name": "InvalidAddress",
      "type": "error"
    },
    {
      "inputs": [],
      "name": "InvalidCodeHash",
      "type": "error"
    },
    {
      "inputs": [],
      "name": "InvalidImplementation",
      "type": "error"
    },
    {
      "inputs": [],
      "name": "InvalidOwner",
      "type": "error"
    },
    {
      "inputs": [],
      "name": "NotApprovedByGateway",
      "type": "error"
    },
    {
      "inputs": [],
      "name": "NotOwner",
      "type": "error"
    },
    {
      "inputs": [],
      "name": "NotProxy",
      "type": "error"
    },
    {
      "inputs": [],
      "name": "SetupFailed",
      "type": "error"
    },
    {
      "anonymous": false,
      "inputs": [
        {
          "indexed": true,
          "internalType": "address",
          "name": "owner",
          "type": "address"
        },
        {
          "indexed": true,
          "internalType": "address",
          "name": "approved",
          "type": "address"
        },
        {
          "indexed": true,
          "internalType": "uint256",
          "name": "tokenId",
          "type": "uint256"
        }
      ],
      "name": "Approval",
      "type": "event"
    },
    {
      "anonymous": false,
      "inputs": [
        {
          "indexed": true,
          "internalType": "address",
          "name": "owner",
          "type": "address"
        },
        {
          "indexed": true,
          "internalType": "address",
          "name": "operator",
          "type": "address"
        },
        {
          "indexed": false,
          "internalType": "bool",
          "name": "approved",
          "type": "bool"
        }
      ],
      "name": "ApprovalForAll",
      "type": "event"
    },
    {
      "anonymous": false,
      "inputs": [
        {
          "indexed": true,
          "internalType": "address",
          "name": "newOwner",
          "type": "address"
        }
      ],
      "name": "OwnershipTransferred",
      "type": "event"
    },
    {
      "anonymous": false,
      "inputs": [
        {
          "indexed": true,
          "internalType": "address",
          "name": "from",
          "type": "address"
        },
        {
          "indexed": true,
          "internalType": "address",
          "name": "to",
          "type": "address"
        },
        {
          "indexed": true,
          "internalType": "uint256",
          "name": "tokenId",
          "type": "uint256"
        }
      ],
      "name": "Transfer",
      "type": "event"
    },
    {
      "anonymous": false,
      "inputs": [
        {
          "indexed": true,
          "internalType": "address",
          "name": "newImplementation",
          "type": "address"
        }
      ],
      "name": "Upgraded",
      "type": "event"
    },
    {
      "inputs": [
        {
          "internalType": "address",
          "name": "",
          "type": "address"
        }
      ],
      "name": "addresslist",
      "outputs": [
        {
          "internalType": "string",
          "name": "",
          "type": "string"
        }
      ],
      "stateMutability": "view",
      "type": "function"
    },
    {
      "inputs": [
        {
          "internalType": "address",
          "name": "to",
          "type": "address"
        },
        {
          "internalType": "uint256",
          "name": "tokenId",
          "type": "uint256"
        }
      ],
      "name": "approve",
      "outputs": [],
      "stateMutability": "nonpayable",
      "type": "function"
    },
    {
      "inputs": [
        {
          "internalType": "address",
          "name": "owner",
          "type": "address"
        }
      ],
      "name": "balanceOf",
      "outputs": [
        {
          "internalType": "uint256",
          "name": "",
          "type": "uint256"
        }
      ],
      "stateMutability": "view",
      "type": "function"
    },
    {
      "inputs": [],
      "name": "chainName",
      "outputs": [
        {
          "internalType": "string",
          "name": "",
          "type": "string"
        }
      ],
      "stateMutability": "view",
      "type": "function"
    },
    {
      "inputs": [],
      "name": "contractId",
      "outputs": [
        {
          "internalType": "bytes32",
          "name": "",
          "type": "bytes32"
        }
      ],
      "stateMutability": "pure",
      "type": "function"
    },
    {
      "inputs": [
        {
          "internalType": "bytes32",
          "name": "commandId",
          "type": "bytes32"
        },
        {
          "internalType": "string",
          "name": "sourceChain",
          "type": "string"
        },
        {
          "internalType": "string",
          "name": "sourceAddress",
          "type": "string"
        },
        {
          "internalType": "bytes",
          "name": "payload",
          "type": "bytes"
        }
      ],
      "name": "execute",
      "outputs": [],
      "stateMutability": "nonpayable",
      "type": "function"
    },
    {
      "inputs": [
        {
          "internalType": "bytes32",
          "name": "commandId",
          "type": "bytes32"
        },
        {
          "internalType": "string",
          "name": "sourceChain",
          "type": "string"
        },
        {
          "internalType": "string",
          "name": "sourceAddress",
          "type": "string"
        },
        {
          "internalType": "bytes",
          "name": "payload",
          "type": "bytes"
        },
        {
          "internalType": "string",
          "name": "tokenSymbol",
          "type": "string"
        },
        {
          "internalType": "uint256",
          "name": "amount",
          "type": "uint256"
        }
      ],
      "name": "executeWithToken",
      "outputs": [],
      "stateMutability": "nonpayable",
      "type": "function"
    },
    {
      "inputs": [],
      "name": "gasReceiver",
      "outputs": [
        {
          "internalType": "contract IAxelarGasService",
          "name": "",
          "type": "address"
        }
      ],
      "stateMutability": "view",
      "type": "function"
    },
    {
      "inputs": [],
      "name": "gateway",
      "outputs": [
        {
          "internalType": "contract IAxelarGateway",
          "name": "",
          "type": "address"
        }
      ],
      "stateMutability": "view",
      "type": "function"
    },
    {
      "inputs": [
        {
          "internalType": "uint256",
          "name": "tokenId",
          "type": "uint256"
        }
      ],
      "name": "getApproved",
      "outputs": [
        {
          "internalType": "address",
          "name": "",
          "type": "address"
        }
      ],
      "stateMutability": "view",
      "type": "function"
    },
    {
      "inputs": [],
      "name": "implementation",
      "outputs": [
        {
          "internalType": "address",
          "name": "implementation_",
          "type": "address"
        }
      ],
      "stateMutability": "view",
      "type": "function"
    },
    {
      "inputs": [
        {
          "internalType": "address",
          "name": "owner",
          "type": "address"
        },
        {
          "internalType": "address",
          "name": "operator",
          "type": "address"
        }
      ],
      "name": "isApprovedForAll",
      "outputs": [
        {
          "internalType": "bool",
          "name": "",
          "type": "bool"
        }
      ],
      "stateMutability": "view",
      "type": "function"
    },
    {
      "inputs": [],
      "name": "name",
      "outputs": [
        {
          "internalType": "string",
          "name": "",
          "type": "string"
        }
      ],
      "stateMutability": "view",
      "type": "function"
    },
    {
      "inputs": [
        {
          "internalType": "uint256",
          "name": "",
          "type": "uint256"
        }
      ],
      "name": "original",
      "outputs": [
        {
          "internalType": "bytes",
          "name": "",
          "type": "bytes"
        }
      ],
      "stateMutability": "view",
      "type": "function"
    },
    {
      "inputs": [],
      "name": "owner",
      "outputs": [
        {
          "internalType": "address",
          "name": "owner_",
          "type": "address"
        }
      ],
      "stateMutability": "view",
      "type": "function"
    },
    {
      "inputs": [
        {
          "internalType": "uint256",
          "name": "tokenId",
          "type": "uint256"
        }
      ],
      "name": "ownerOf",
      "outputs": [
        {
          "internalType": "address",
          "name": "",
          "type": "address"
        }
      ],
      "stateMutability": "view",
      "type": "function"
    },
    {
      "inputs": [
        {
          "internalType": "address",
          "name": "from",
          "type": "address"
        },
        {
          "internalType": "address",
          "name": "to",
          "type": "address"
        },
        {
          "internalType": "uint256",
          "name": "tokenId",
          "type": "uint256"
        }
      ],
      "name": "safeTransferFrom",
      "outputs": [],
      "stateMutability": "nonpayable",
      "type": "function"
    },
    {
      "inputs": [
        {
          "internalType": "address",
          "name": "from",
          "type": "address"
        },
        {
          "internalType": "address",
          "name": "to",
          "type": "address"
        },
        {
          "internalType": "uint256",
          "name": "tokenId",
          "type": "uint256"
        },
        {
          "internalType": "bytes",
          "name": "data",
          "type": "bytes"
        }
      ],
      "name": "safeTransferFrom",
      "outputs": [],
      "stateMutability": "nonpayable",
      "type": "function"
    },
    {
      "inputs": [
        {
          "internalType": "address",
          "name": "operator",
          "type": "address"
        },
        {
          "internalType": "uint256",
          "name": "tokenId",
          "type": "uint256"
        },
        {
          "internalType": "string",
          "name": "destinationChain",
          "type": "string"
        },
        {
          "internalType": "address",
          "name": "destinationAddress",
          "type": "address"
        }
      ],
      "name": "sendNFT",
      "outputs": [],
      "stateMutability": "payable",
      "type": "function"
    },
    {
      "inputs": [
        {
          "internalType": "address",
          "name": "operator",
          "type": "address"
        },
        {
          "internalType": "bool",
          "name": "approved",
          "type": "bool"
        }
      ],
      "name": "setApprovalForAll",
      "outputs": [],
      "stateMutability": "nonpayable",
      "type": "function"
    },
    {
      "inputs": [
        {
          "internalType": "bytes",
          "name": "data",
          "type": "bytes"
        }
      ],
      "name": "setup",
      "outputs": [],
      "stateMutability": "nonpayable",
      "type": "function"
    },
    {
      "inputs": [],
      "name": "setvvalue",
      "outputs": [],
      "stateMutability": "nonpayable",
      "type": "function"
    },
    {
      "inputs": [
        {
          "internalType": "bytes4",
          "name": "interfaceId",
          "type": "bytes4"
        }
      ],
      "name": "supportsInterface",
      "outputs": [
        {
          "internalType": "bool",
          "name": "",
          "type": "bool"
        }
      ],
      "stateMutability": "view",
      "type": "function"
    },
    {
      "inputs": [],
      "name": "symbol",
      "outputs": [
        {
          "internalType": "string",
          "name": "",
          "type": "string"
        }
      ],
      "stateMutability": "view",
      "type": "function"
    },
    {
      "inputs": [
        {
          "internalType": "uint256",
          "name": "tokenId",
          "type": "uint256"
        }
      ],
      "name": "tokenURI",
      "outputs": [
        {
          "internalType": "string",
          "name": "",
          "type": "string"
        }
      ],
      "stateMutability": "view",
      "type": "function"
    },
    {
      "inputs": [
        {
          "internalType": "address",
          "name": "from",
          "type": "address"
        },
        {
          "internalType": "address",
          "name": "to",
          "type": "address"
        },
        {
          "internalType": "uint256",
          "name": "tokenId",
          "type": "uint256"
        }
      ],
      "name": "transferFrom",
      "outputs": [],
      "stateMutability": "nonpayable",
      "type": "function"
    },
    {
      "inputs": [
        {
          "internalType": "address",
          "name": "newOwner",
          "type": "address"
        }
      ],
      "name": "transferOwnership",
      "outputs": [],
      "stateMutability": "nonpayable",
      "type": "function"
    },
    {
      "inputs": [
        {
          "internalType": "address",
          "name": "newImplementation",
          "type": "address"
        },
        {
          "internalType": "bytes32",
          "name": "newImplementationCodeHash",
          "type": "bytes32"
        },
        {
          "internalType": "bytes",
          "name": "params",
          "type": "bytes"
        }
      ],
      "name": "upgrade",
      "outputs": [],
      "stateMutability": "nonpayable",
      "type": "function"
    },
    {
      "inputs": [],
      "name": "vvalue",
      "outputs": [
        {
          "internalType": "uint256",
          "name": "",
          "type": "uint256"
        }
      ],
      "stateMutability": "view",
      "type": "function"
    }
  ],
  "bytecode": "0x60c06040523480156200001157600080fd5b5060405162003591380380620035918339810160408190526200003491620001a6565b604080518082018252601181527020bc32b630b91027232a102634b735b2b960791b60208083019182528351808501909452600384526210539360ea1b908401528151859391620000899160009190620000e3565b5080516200009f906001906020840190620000e3565b5050506001600160a01b038116620000ca5760405163e6c4247b60e01b815260040160405180910390fd5b6001600160a01b039081166080521660a052506200021b565b828054620000f190620001de565b90600052602060002090601f01602090048101928262000115576000855562000160565b82601f106200013057805160ff191683800117855562000160565b8280016001018555821562000160579182015b828111156200016057825182559160200191906001019062000143565b506200016e92915062000172565b5090565b5b808211156200016e576000815560010162000173565b80516001600160a01b0381168114620001a157600080fd5b919050565b60008060408385031215620001ba57600080fd5b620001c58362000189565b9150620001d56020840162000189565b90509250929050565b600181811c90821680620001f357607f821691505b602082108114156200021557634e487b7160e01b600052602260045260246000fd5b50919050565b60805160a0516133266200026b6000396000818161042c015281816119880152611ac601526000818161028a015281816108d301528181610b0e01528181611a210152611b5f01526133266000f3fe6080604052600436106101c25760003560e01c806370a7287b116100f75780639ded06df11610095578063b88d4fde11610064578063b88d4fde14610553578063c87b56dd14610573578063e985e9c514610593578063f2fde38b146105dc57600080fd5b80639ded06df146104dd578063a22cb465146104fd578063a3499c731461051d578063a3fad6461461053d57600080fd5b80638291286c116100d15780638291286c1461044e5780638da5cb5b1461048157806393349876146104b557806395d89b41146104c857600080fd5b806370a7287b146103da578063717eb03f146103fa57806380d14b4a1461041a57600080fd5b80631ef4a6c511610164578063491606581161013e57806349160658146103385780635c60da1b146103585780636352211e1461038c57806370a08231146103ac57600080fd5b80631ef4a6c5146102e157806323b872dd146102f857806342842e0e1461031857600080fd5b8063095ea7b3116101a0578063095ea7b314610256578063116191b6146102785780631a98b2e0146102ac5780631c93b03a146102cc57600080fd5b806301ffc9a7146101c757806306fdde03146101fc578063081812fc1461021e575b600080fd5b3480156101d357600080fd5b506101e76101e23660046126d1565b6105fc565b60405190151581526020015b60405180910390f35b34801561020857600080fd5b50610211610699565b6040516101f39190612746565b34801561022a57600080fd5b5061023e610239366004612759565b61072b565b6040516001600160a01b0390911681526020016101f3565b34801561026257600080fd5b50610276610271366004612787565b610752565b005b34801561028457600080fd5b5061023e7f000000000000000000000000000000000000000000000000000000000000000081565b3480156102b857600080fd5b506102766102c73660046127fc565b610889565b3480156102d857600080fd5b50610211610994565b3480156102ed57600080fd5b50610276600a600655565b34801561030457600080fd5b506102766103133660046128d6565b610a22565b34801561032457600080fd5b506102766103333660046128d6565b610aa9565b34801561034457600080fd5b50610276610353366004612917565b610ac4565b34801561036457600080fd5b507f360894a13ba1a3210667c828492db98dca3e2076cc3735a920a3ca505d382bbc5461023e565b34801561039857600080fd5b5061023e6103a7366004612759565b610bd4565b3480156103b857600080fd5b506103cc6103c73660046129bb565b610c39565b6040519081526020016101f3565b3480156103e657600080fd5b506102116103f53660046129bb565b610cd3565b34801561040657600080fd5b50610211610415366004612759565b610cec565b34801561042657600080fd5b5061023e7f000000000000000000000000000000000000000000000000000000000000000081565b34801561045a57600080fd5b507f8b88dae839acea7ff6a270cef523f6c04d348796d1890294879850ff17ecd6cc6103cc565b34801561048d57600080fd5b507f02016836a56b71f0d02689e69e326f4f4c1b9057164ef592671cf0d37c8040c05461023e565b6102766104c3366004612aa5565b610d05565b3480156104d457600080fd5b50610211610e0e565b3480156104e957600080fd5b506102766104f8366004612b11565b610e1d565b34801561050957600080fd5b50610276610518366004612b61565b610e96565b34801561052957600080fd5b50610276610538366004612b9a565b610ea1565b34801561054957600080fd5b506103cc60065481565b34801561055f57600080fd5b5061027661056e366004612bf6565b6111a5565b34801561057f57600080fd5b5061021161058e366004612759565b61122d565b34801561059f57600080fd5b506101e76105ae366004612c76565b6001600160a01b03918216600090815260056020908152604080832093909416825291909152205460ff1690565b3480156105e857600080fd5b506102766105f73660046129bb565b6112a1565b60006001600160e01b031982167f80ac58cd00000000000000000000000000000000000000000000000000000000148061065f57506001600160e01b031982167f5b5e139f00000000000000000000000000000000000000000000000000000000145b8061069357507f01ffc9a7000000000000000000000000000000000000000000000000000000006001600160e01b03198316145b92915050565b6060600080546106a890612ca4565b80601f01602080910402602001604051908101604052809291908181526020018280546106d490612ca4565b80156107215780601f106106f657610100808354040283529160200191610721565b820191906000526020600020905b81548152906001019060200180831161070457829003601f168201915b5050505050905090565b600061073682611389565b506000908152600460205260409020546001600160a01b031690565b600061075d82610bd4565b9050806001600160a01b0316836001600160a01b031614156107ec5760405162461bcd60e51b815260206004820152602160248201527f4552433732313a20617070726f76616c20746f2063757272656e74206f776e6560448201527f720000000000000000000000000000000000000000000000000000000000000060648201526084015b60405180910390fd5b336001600160a01b0382161480610808575061080881336105ae565b61087a5760405162461bcd60e51b815260206004820152603e60248201527f4552433732313a20617070726f76652063616c6c6572206973206e6f7420746f60448201527f6b656e206f776e6572206e6f7220617070726f76656420666f7220616c6c000060648201526084016107e3565b61088483836113f0565b505050565b6000858560405161089b929190612cdf565b6040519081900381207f1876eed900000000000000000000000000000000000000000000000000000000825291506001600160a01b037f00000000000000000000000000000000000000000000000000000000000000001690631876eed990610918908e908e908e908e908e9089908d908d908d90600401612d18565b602060405180830381600087803b15801561093257600080fd5b505af1158015610946573d6000803e3d6000fd5b505050506040513d601f19601f8201168201806040525081019061096a9190612d77565b61098757604051631403112d60e21b815260040160405180910390fd5b5050505050505050505050565b600980546109a190612ca4565b80601f01602080910402602001604051908101604052809291908181526020018280546109cd90612ca4565b8015610a1a5780601f106109ef57610100808354040283529160200191610a1a565b820191906000526020600020905b8154815290600101906020018083116109fd57829003601f168201915b505050505081565b610a2c338261146b565b610a9e5760405162461bcd60e51b815260206004820152602e60248201527f4552433732313a2063616c6c6572206973206e6f7420746f6b656e206f776e6560448201527f72206e6f7220617070726f76656400000000000000000000000000000000000060648201526084016107e3565b6108848383836114ea565b610884838383604051806020016040528060008152506111a5565b60008282604051610ad6929190612cdf565b6040519081900381207f5f6970c300000000000000000000000000000000000000000000000000000000825291506001600160a01b037f00000000000000000000000000000000000000000000000000000000000000001690635f6970c390610b4d908b908b908b908b908b908990600401612d94565b602060405180830381600087803b158015610b6757600080fd5b505af1158015610b7b573d6000803e3d6000fd5b505050506040513d601f19601f82011682018060405250810190610b9f9190612d77565b610bbc57604051631403112d60e21b815260040160405180910390fd5b610bca8787878787876116c4565b5050505050505050565b6000818152600260205260408120546001600160a01b0316806106935760405162461bcd60e51b815260206004820152601860248201527f4552433732313a20696e76616c696420746f6b656e204944000000000000000060448201526064016107e3565b60006001600160a01b038216610cb75760405162461bcd60e51b815260206004820152602960248201527f4552433732313a2061646472657373207a65726f206973206e6f74206120766160448201527f6c6964206f776e6572000000000000000000000000000000000000000000000060648201526084016107e3565b506001600160a01b031660009081526003602052604090205490565b600860205260009081526040902080546109a190612ca4565b600760205260009081526040902080546109a190612ca4565b6001600160a01b038416301415610d865733610d2084610bd4565b6001600160a01b031614610d765760405162461bcd60e51b815260206004820152600e60248201527f4e4f545f594f55525f544f4b454e00000000000000000000000000000000000060448201526064016107e3565b610d81838383611891565b610e08565b6001600160a01b0384166323b872dd336040516001600160e01b031960e084901b1681526001600160a01b03909116600482015230602482015260448101869052606401600060405180830381600087803b158015610de457600080fd5b505af1158015610df8573d6000803e3d6000fd5b50505050610e0884848484611a8b565b50505050565b6060600180546106a890612ca4565b6000610e477f360894a13ba1a3210667c828492db98dca3e2076cc3735a920a3ca505d382bbc5490565b6001600160a01b03161415610e88576040517fbf10dd3a00000000000000000000000000000000000000000000000000000000815260040160405180910390fd5b610e928282611bc9565b5050565b610e92338383611c3d565b33610eca7f02016836a56b71f0d02689e69e326f4f4c1b9057164ef592671cf0d37c8040c05490565b6001600160a01b031614610ef1576040516330cd747160e01b815260040160405180910390fd5b306001600160a01b0316638291286c6040518163ffffffff1660e01b815260040160206040518083038186803b158015610f2a57600080fd5b505afa158015610f3e573d6000803e3d6000fd5b505050506040513d601f19601f82011682018060405250810190610f629190612dd5565b846001600160a01b0316638291286c6040518163ffffffff1660e01b815260040160206040518083038186803b158015610f9b57600080fd5b505afa158015610faf573d6000803e3d6000fd5b505050506040513d601f19601f82011682018060405250810190610fd39190612dd5565b1461100a576040517f68155f9a00000000000000000000000000000000000000000000000000000000815260040160405180910390fd5b836001600160a01b03163f831461104d576040517f8f84fb2400000000000000000000000000000000000000000000000000000000815260040160405180910390fd5b801561114a576000846001600160a01b0316639ded06df60e01b848460405160240161107a929190612dee565b60408051601f198184030181529181526020820180517bffffffffffffffffffffffffffffffffffffffffffffffffffffffff166001600160e01b03199094169390931790925290516110cd9190612e02565b600060405180830381855af49150503d8060008114611108576040519150601f19603f3d011682016040523d82523d6000602084013e61110d565b606091505b5050905080611148576040517f97905dfb00000000000000000000000000000000000000000000000000000000815260040160405180910390fd5b505b6040516001600160a01b038516907fbc7cd75a20ee27fd9adebab32041f755214dbc6bffa90cc0225b39da2e5c2d3b90600090a25050507f360894a13ba1a3210667c828492db98dca3e2076cc3735a920a3ca505d382bbc55565b6111af338361146b565b6112215760405162461bcd60e51b815260206004820152602e60248201527f4552433732313a2063616c6c6572206973206e6f7420746f6b656e206f776e6560448201527f72206e6f7220617070726f76656400000000000000000000000000000000000060648201526084016107e3565b610e0884848484611d0c565b606061123882611389565b600061124f60408051602081019091526000815290565b9050600081511161126f576040518060200160405280600081525061129a565b8061127984611d8a565b60405160200161128a929190612e1e565b6040516020818303038152906040525b9392505050565b336112ca7f02016836a56b71f0d02689e69e326f4f4c1b9057164ef592671cf0d37c8040c05490565b6001600160a01b0316146112f1576040516330cd747160e01b815260040160405180910390fd5b6001600160a01b038116611331576040517f49e27cff00000000000000000000000000000000000000000000000000000000815260040160405180910390fd5b6040516001600160a01b038216907f04dba622d284ed0014ee4b9a6a68386be1a4c08a4913ae272de89199cc68616390600090a27f02016836a56b71f0d02689e69e326f4f4c1b9057164ef592671cf0d37c8040c055565b6000818152600260205260409020546001600160a01b03166113ed5760405162461bcd60e51b815260206004820152601860248201527f4552433732313a20696e76616c696420746f6b656e204944000000000000000060448201526064016107e3565b50565b6000818152600460205260409020805473ffffffffffffffffffffffffffffffffffffffff19166001600160a01b038416908117909155819061143282610bd4565b6001600160a01b03167f8c5be1e5ebec7d5bd14f71427d1e84f3dd0314c0f7b2291e5b200ac8c7c3b92560405160405180910390a45050565b60008061147783610bd4565b9050806001600160a01b0316846001600160a01b031614806114be57506001600160a01b0380821660009081526005602090815260408083209388168352929052205460ff165b806114e25750836001600160a01b03166114d78461072b565b6001600160a01b0316145b949350505050565b826001600160a01b03166114fd82610bd4565b6001600160a01b0316146115795760405162461bcd60e51b815260206004820152602560248201527f4552433732313a207472616e736665722066726f6d20696e636f72726563742060448201527f6f776e657200000000000000000000000000000000000000000000000000000060648201526084016107e3565b6001600160a01b0382166115f45760405162461bcd60e51b8152602060048201526024808201527f4552433732313a207472616e7366657220746f20746865207a65726f2061646460448201527f726573730000000000000000000000000000000000000000000000000000000060648201526084016107e3565b6115ff6000826113f0565b6001600160a01b0383166000908152600360205260408120805460019290611628908490612e63565b90915550506001600160a01b0382166000908152600360205260408120805460019290611656908490612e7a565b9091555050600081815260026020526040808220805473ffffffffffffffffffffffffffffffffffffffff19166001600160a01b0386811691821790925591518493918716917fddf252ad1be2c89b69c2b068fc378daa952ba7f163c4a11628f55a4df523b3ef91a4505050565b306001600160a01b031661170d85858080601f016020809104026020016040519081016040528093929190818152602001838380828437600092019190915250611e8892505050565b6001600160a01b0316146117635760405162461bcd60e51b815260206004820152600c60248201527f4e4f545f415f4c494e4b4552000000000000000000000000000000000000000060448201526064016107e3565b600080808061177485870187612e92565b9350935093509350600960405161178b9190612ef3565b604051809103902084805190602001201415611827576040517f23b872dd0000000000000000000000000000000000000000000000000000000081523060048201526001600160a01b038281166024830152604482018490528416906323b872dd90606401600060405180830381600087803b15801561180a57600080fd5b505af115801561181e573d6000803e3d6000fd5b50505050611885565b600084848460405160200161183e93929190612f65565b60408051601f19818403018152918152815160208084019182206000818152600790925292902083519394509192611877929190612622565b506118828382611f87565b50505b50505050505050505050565b61189a83611fa1565b60008381526007602052604081208054829182916118b790612ca4565b80601f01602080910402602001604051908101604052809291908181526020018280546118e390612ca4565b80156119305780601f1061190557610100808354040283529160200191611930565b820191906000526020600020905b81548152906001019060200180831161191357829003601f168201915b50505050508060200190518101906119489190612f93565b925092509250600083838387604051602001611967949392919061302a565b60408051601f198184030181529190529050600061198430612049565b90507f00000000000000000000000000000000000000000000000000000000000000006001600160a01b0316630c93e3bb34308a8587336040518763ffffffff1660e01b81526004016119db959493929190613066565b6000604051808303818588803b1580156119f457600080fd5b505af1158015611a08573d6000803e3d6000fd5b5050604051631c92115f60e01b81526001600160a01b037f0000000000000000000000000000000000000000000000000000000000000000169350631c92115f9250611a5d91508a90859087906004016130c5565b600060405180830381600087803b158015611a7757600080fd5b505af1158015611882573d6000803e3d6000fd5b60006009858584604051602001611aa59493929190613108565b60408051601f1981840301815291905290506000611ac230612049565b90507f00000000000000000000000000000000000000000000000000000000000000006001600160a01b0316630c93e3bb3430878587336040518763ffffffff1660e01b8152600401611b19959493929190613066565b6000604051808303818588803b158015611b3257600080fd5b505af1158015611b46573d6000803e3d6000fd5b5050604051631c92115f60e01b81526001600160a01b037f0000000000000000000000000000000000000000000000000000000000000000169350631c92115f9250611b9b91508790859087906004016130c5565b600060405180830381600087803b158015611bb557600080fd5b505af1158015611885573d6000803e3d6000fd5b6000611bd7828401846131bb565b905060098054611be690612ca4565b159050611c1f576040517f0dc149f000000000000000000000000000000000000000000000000000000000815260040160405180910390fd5b8051611c32906009906020840190612622565b505060646006555050565b816001600160a01b0316836001600160a01b03161415611c9f5760405162461bcd60e51b815260206004820152601960248201527f4552433732313a20617070726f766520746f2063616c6c65720000000000000060448201526064016107e3565b6001600160a01b03838116600081815260056020908152604080832094871680845294825291829020805460ff191686151590811790915591519182527f17307eab39ab6107e8899845ad3d59bd9653f200f220920489ca2b5937696c31910160405180910390a3505050565b611d178484846114ea565b611d23848484846122fd565b610e085760405162461bcd60e51b815260206004820152603260248201527f4552433732313a207472616e7366657220746f206e6f6e20455243373231526560448201527131b2b4bb32b91034b6b83632b6b2b73a32b960711b60648201526084016107e3565b606081611dae5750506040805180820190915260018152600360fc1b602082015290565b8160005b8115611dd85780611dc2816131f0565b9150611dd19050600a83613221565b9150611db2565b60008167ffffffffffffffff811115611df357611df36129d8565b6040519080825280601f01601f191660200182016040528015611e1d576020820181803683370190505b5090505b84156114e257611e32600183612e63565b9150611e3f600a86613235565b611e4a906030612e7a565b60f81b818381518110611e5f57611e5f613249565b60200101906001600160f81b031916908160001a905350611e81600a86613221565b9450611e21565b80516000908290602a14611e9f5750600092915050565b60008060025b602a811015611f7d57838181518110611ec057611ec0613249565b016020015160f81c915060618210801590611edf575060668260ff1611155b15611ef657611eef60578361325f565b9150611f52565b60418260ff1610158015611f0e575060468260ff1611155b15611f1e57611eef60378361325f565b60308260ff1610158015611f36575060398260ff1611155b15611f4657611eef60308361325f565b50600095945050505050565b6002611f5f826029612e63565b60ff8416911b1b929092179180611f75816131f0565b915050611ea5565b5090949350505050565b610e92828260405180602001604052806000815250612455565b6000611fac82610bd4565b9050611fb96000836113f0565b6001600160a01b0381166000908152600360205260408120805460019290611fe2908490612e63565b9091555050600082815260026020526040808220805473ffffffffffffffffffffffffffffffffffffffff19169055518391906001600160a01b038416907fddf252ad1be2c89b69c2b068fc378daa952ba7f163c4a11628f55a4df523b3ef908390a45050565b604051606082811b6bffffffffffffffffffffffff191660208301529060009060340160408051601f19818403018152828201909152601082527f3031323334353637383961626364656600000000000000000000000000000000602083015280519092506000906120bc906002613282565b6120c7906002612e7a565b67ffffffffffffffff8111156120df576120df6129d8565b6040519080825280601f01601f191660200182016040528015612109576020820181803683370190505b509050600360fc1b8160008151811061212457612124613249565b60200101906001600160f81b031916908160001a9053507f78000000000000000000000000000000000000000000000000000000000000008160018151811061216f5761216f613249565b60200101906001600160f81b031916908160001a90535060005b83518110156122f4578260048583815181106121a7576121a7613249565b016020015182517fff0000000000000000000000000000000000000000000000000000000000000090911690911c60f81c9081106121e7576121e7613249565b01602001517fff00000000000000000000000000000000000000000000000000000000000000168261221a836002613282565b612225906002612e7a565b8151811061223557612235613249565b60200101906001600160f81b031916908160001a9053508284828151811061225f5761225f613249565b602091010151815160f89190911c600f1690811061227f5761227f613249565b01602001517fff0000000000000000000000000000000000000000000000000000000000000016826122b2836002613282565b6122bd906003612e7a565b815181106122cd576122cd613249565b60200101906001600160f81b031916908160001a9053506122ed816131f0565b9050612189565b50949350505050565b60006001600160a01b0384163b1561244a57604051630a85bd0160e11b81526001600160a01b0385169063150b7a02906123419033908990889088906004016132a1565b602060405180830381600087803b15801561235b57600080fd5b505af192505050801561238b575060408051601f3d908101601f19168201909252612388918101906132d3565b60015b612430573d8080156123b9576040519150601f19603f3d011682016040523d82523d6000602084013e6123be565b606091505b5080516124285760405162461bcd60e51b815260206004820152603260248201527f4552433732313a207472616e7366657220746f206e6f6e20455243373231526560448201527131b2b4bb32b91034b6b83632b6b2b73a32b960711b60648201526084016107e3565b805181602001fd5b6001600160e01b031916630a85bd0160e11b1490506114e2565b506001949350505050565b61245f83836124d3565b61246c60008484846122fd565b6108845760405162461bcd60e51b815260206004820152603260248201527f4552433732313a207472616e7366657220746f206e6f6e20455243373231526560448201527131b2b4bb32b91034b6b83632b6b2b73a32b960711b60648201526084016107e3565b6001600160a01b0382166125295760405162461bcd60e51b815260206004820181905260248201527f4552433732313a206d696e7420746f20746865207a65726f206164647265737360448201526064016107e3565b6000818152600260205260409020546001600160a01b03161561258e5760405162461bcd60e51b815260206004820152601c60248201527f4552433732313a20746f6b656e20616c7265616479206d696e7465640000000060448201526064016107e3565b6001600160a01b03821660009081526003602052604081208054600192906125b7908490612e7a565b9091555050600081815260026020526040808220805473ffffffffffffffffffffffffffffffffffffffff19166001600160a01b03861690811790915590518392907fddf252ad1be2c89b69c2b068fc378daa952ba7f163c4a11628f55a4df523b3ef908290a45050565b82805461262e90612ca4565b90600052602060002090601f0160209004810192826126505760008555612696565b82601f1061266957805160ff1916838001178555612696565b82800160010185558215612696579182015b8281111561269657825182559160200191906001019061267b565b506126a29291506126a6565b5090565b5b808211156126a257600081556001016126a7565b6001600160e01b0319811681146113ed57600080fd5b6000602082840312156126e357600080fd5b813561129a816126bb565b60005b838110156127095781810151838201526020016126f1565b83811115610e085750506000910152565b600081518084526127328160208601602086016126ee565b601f01601f19169290920160200192915050565b60208152600061129a602083018461271a565b60006020828403121561276b57600080fd5b5035919050565b6001600160a01b03811681146113ed57600080fd5b6000806040838503121561279a57600080fd5b82356127a581612772565b946020939093013593505050565b60008083601f8401126127c557600080fd5b50813567ffffffffffffffff8111156127dd57600080fd5b6020830191508360208285010111156127f557600080fd5b9250929050565b60008060008060008060008060008060c08b8d03121561281b57600080fd5b8a35995060208b013567ffffffffffffffff8082111561283a57600080fd5b6128468e838f016127b3565b909b50995060408d013591508082111561285f57600080fd5b61286b8e838f016127b3565b909950975060608d013591508082111561288457600080fd5b6128908e838f016127b3565b909750955060808d01359150808211156128a957600080fd5b506128b68d828e016127b3565b9150809450508092505060a08b013590509295989b9194979a5092959850565b6000806000606084860312156128eb57600080fd5b83356128f681612772565b9250602084013561290681612772565b929592945050506040919091013590565b60008060008060008060006080888a03121561293257600080fd5b87359650602088013567ffffffffffffffff8082111561295157600080fd5b61295d8b838c016127b3565b909850965060408a013591508082111561297657600080fd5b6129828b838c016127b3565b909650945060608a013591508082111561299b57600080fd5b506129a88a828b016127b3565b989b979a50959850939692959293505050565b6000602082840312156129cd57600080fd5b813561129a81612772565b634e487b7160e01b600052604160045260246000fd5b604051601f8201601f1916810167ffffffffffffffff81118282101715612a1757612a176129d8565b604052919050565b600067ffffffffffffffff821115612a3957612a396129d8565b50601f01601f191660200190565b6000612a5a612a5584612a1f565b6129ee565b9050828152838383011115612a6e57600080fd5b828260208301376000602084830101529392505050565b600082601f830112612a9657600080fd5b61129a83833560208501612a47565b60008060008060808587031215612abb57600080fd5b8435612ac681612772565b935060208501359250604085013567ffffffffffffffff811115612ae957600080fd5b612af587828801612a85565b9250506060850135612b0681612772565b939692955090935050565b60008060208385031215612b2457600080fd5b823567ffffffffffffffff811115612b3b57600080fd5b612b47858286016127b3565b90969095509350505050565b80151581146113ed57600080fd5b60008060408385031215612b7457600080fd5b8235612b7f81612772565b91506020830135612b8f81612b53565b809150509250929050565b60008060008060608587031215612bb057600080fd5b8435612bbb81612772565b935060208501359250604085013567ffffffffffffffff811115612bde57600080fd5b612bea878288016127b3565b95989497509550505050565b60008060008060808587031215612c0c57600080fd5b8435612c1781612772565b93506020850135612c2781612772565b925060408501359150606085013567ffffffffffffffff811115612c4a57600080fd5b8501601f81018713612c5b57600080fd5b612c6a87823560208401612a47565b91505092959194509250565b60008060408385031215612c8957600080fd5b8235612c9481612772565b91506020830135612b8f81612772565b600181811c90821680612cb857607f821691505b60208210811415612cd957634e487b7160e01b600052602260045260246000fd5b50919050565b8183823760009101908152919050565b81835281816020850137506000828201602090810191909152601f909101601f19169091010190565b89815260c060208201526000612d3260c083018a8c612cef565b8281036040840152612d4581898b612cef565b90508660608401528281036080840152612d60818688612cef565b9150508260a08301529a9950505050505050505050565b600060208284031215612d8957600080fd5b815161129a81612b53565b868152608060208201526000612dae608083018789612cef565b8281036040840152612dc1818688612cef565b915050826060830152979650505050505050565b600060208284031215612de757600080fd5b5051919050565b6020815260006114e2602083018486612cef565b60008251612e148184602087016126ee565b9190910192915050565b60008351612e308184602088016126ee565b835190830190612e448183602088016126ee565b01949350505050565b634e487b7160e01b600052601160045260246000fd5b600082821015612e7557612e75612e4d565b500390565b60008219821115612e8d57612e8d612e4d565b500190565b60008060008060808587031215612ea857600080fd5b843567ffffffffffffffff811115612ebf57600080fd5b612ecb87828801612a85565b9450506020850135612edc81612772565b9250604085013591506060850135612b0681612772565b6000808354612f0181612ca4565b60018281168015612f195760018114612f2a57612f59565b60ff19841687528287019450612f59565b8760005260208060002060005b85811015612f505781548a820152908401908201612f37565b50505082870194505b50929695505050505050565b606081526000612f78606083018661271a565b6001600160a01b039490941660208301525060400152919050565b600080600060608486031215612fa857600080fd5b835167ffffffffffffffff811115612fbf57600080fd5b8401601f81018613612fd057600080fd5b8051612fde612a5582612a1f565b818152876020838501011115612ff357600080fd5b6130048260208301602086016126ee565b809550505050602084015161301881612772565b80925050604084015190509250925092565b60808152600061303d608083018761271a565b6001600160a01b0395861660208401526040830194909452509216606090920191909152919050565b60006001600160a01b03808816835260a0602084015261308960a084018861271a565b838103604085015261309b818861271a565b905083810360608501526130af818761271a565b9250508084166080840152509695505050505050565b6060815260006130d8606083018661271a565b82810360208401526130ea818661271a565b905082810360408401526130fe818561271a565b9695505050505050565b60808152600080865461311a81612ca4565b80608086015260a060018084166000811461313c576001811461315057613181565b60ff1985168884015260c088019550613181565b8b60005260208060002060005b868110156131785781548b820187015290840190820161315d565b8a018501975050505b505050506001600160a01b03871660208501525090508360408301526131b260608301846001600160a01b03169052565b95945050505050565b6000602082840312156131cd57600080fd5b813567ffffffffffffffff8111156131e457600080fd5b6114e284828501612a85565b600060001982141561320457613204612e4d565b5060010190565b634e487b7160e01b600052601260045260246000fd5b6000826132305761323061320b565b500490565b6000826132445761324461320b565b500690565b634e487b7160e01b600052603260045260246000fd5b600060ff821660ff84168082101561327957613279612e4d565b90039392505050565b600081600019048311821515161561329c5761329c612e4d565b500290565b60006001600160a01b038087168352808616602084015250836040830152608060608301526130fe608083018461271a565b6000602082840312156132e557600080fd5b815161129a816126bb56fea2646970667358221220e9b5efa3998274886a97c483ab1c742240afbea4f59f23b8eef8ffa21cc9c13664736f6c63430008090033",
  "linkReferences": {},
  "deployedLinkReferences": {}
}