{
  "_format": "hh-sol-artifact-1",
  "contractName": "NoncedContractCallSender",
  "sourceName": "examples/nonced-execution/NoncedContractCallSender.sol",
  "abi": [
    {
      "inputs": [],
      "name": "AlreadyInitialized",
      "type": "error"
    },
    {
      "inputs": [],
      "name": "executableContract",
      "outputs": [
        {
          "internalType": "string",
          "name": "",
          "type": "string"
        }
      ],
      "stateMutability": "view",
      "type": "function"
    },
    {
      "inputs": [],
      "name": "gasReceiver",
      "outputs": [
        {
          "internalType": "contract IAxelarGasService",
          "name": "",
          "type": "address"
        }
      ],
      "stateMutability": "view",
      "type": "function"
    },
    {
      "inputs": [],
      "name": "gateway",
      "outputs": [
        {
          "internalType": "contract IAxelarGateway",
          "name": "",
          "type": "address"
        }
      ],
      "stateMutability": "view",
      "type": "function"
    },
    {
      "inputs": [
        {
          "internalType": "address",
          "name": "gateway_",
          "type": "address"
        },
        {
          "internalType": "address",
          "name": "gasReceiver_",
          "type": "address"
        },
        {
          "internalType": "string",
          "name": "executableContract_",
          "type": "string"
        }
      ],
      "name": "init",
      "outputs": [],
      "stateMutability": "nonpayable",
      "type": "function"
    },
    {
      "inputs": [
        {
          "internalType": "string",
          "name": "",
          "type": "string"
        },
        {
          "internalType": "address",
          "name": "",
          "type": "address"
        }
      ],
      "name": "outgoingNonces",
      "outputs": [
        {
          "internalType": "uint256",
          "name": "",
          "type": "uint256"
        }
      ],
      "stateMutability": "view",
      "type": "function"
    },
    {
      "inputs": [
        {
          "internalType": "string",
          "name": "destinationChain",
          "type": "string"
        },
        {
          "internalType": "bytes",
          "name": "payload",
          "type": "bytes"
        }
      ],
      "name": "sendContractCall",
      "outputs": [],
      "stateMutability": "payable",
      "type": "function"
    },
    {
      "inputs": [
        {
          "internalType": "string",
          "name": "destinationChain",
          "type": "string"
        },
        {
          "internalType": "bytes",
          "name": "payload",
          "type": "bytes"
        },
        {
          "internalType": "string",
          "name": "symbol",
          "type": "string"
        },
        {
          "internalType": "uint256",
          "name": "amount",
          "type": "uint256"
        }
      ],
      "name": "sendContractCallWithToken",
      "outputs": [],
      "stateMutability": "payable",
      "type": "function"
    }
  ],
  "bytecode": "0x608060405234801561001057600080fd5b50610d73806100206000396000f3fe6080604052600436106100705760003560e01c806379b25aea1161004e57806379b25aea146100f657806380d14b4a14610109578063b4bd944c14610129578063f08e69111461013c57600080fd5b8063116191b6146100755780632d8a7d72146100b25780635c9a6d37146100d4575b600080fd5b34801561008157600080fd5b50600054610095906001600160a01b031681565b6040516001600160a01b0390911681526020015b60405180910390f35b3480156100be57600080fd5b506100c7610192565b6040516100a99190610806565b3480156100e057600080fd5b506100f46100ef3660046108df565b610220565b005b6100f4610104366004610986565b6102f3565b34801561011557600080fd5b50600354610095906001600160a01b031681565b6100f4610137366004610a29565b610511565b34801561014857600080fd5b50610184610157366004610a95565b81516020818401810180516001825292820194820194909420919093529091526000908152604090205481565b6040519081526020016100a9565b6002805461019f90610ae3565b80601f01602080910402602001604051908101604052809291908181526020018280546101cb90610ae3565b80156102185780601f106101ed57610100808354040283529160200191610218565b820191906000526020600020905b8154815290600101906020018083116101fb57829003601f168201915b505050505081565b6000546001600160a01b031615158061024357506003546001600160a01b031615155b8061025b57506002805461025690610ae3565b151590505b15610292576040517f0dc149f000000000000000000000000000000000000000000000000000000000815260040160405180910390fd5b600080546001600160a01b038086167fffffffffffffffffffffffff000000000000000000000000000000000000000092831617909255600380549285169290911691909117905580516102ed906002906020840190610720565b50505050565b600060018888604051610307929190610b1e565b90815260408051602092819003830190203360009081529252812080549161032e83610b2e565b919050553387876040516020016103489493929190610b80565b604051602081830303815290604052905060006002805461036890610ae3565b80601f016020809104026020016040519081016040528092919081815260200182805461039490610ae3565b80156103e15780601f106103b6576101008083540402835291602001916103e1565b820191906000526020600020905b8154815290600101906020018083116103c457829003601f168201915b50505050509050600034111561047f576003546040517fc62c20020000000000000000000000000000000000000000000000000000000081526001600160a01b039091169063c62c20029061044c9030908d908d9087908e908e908e908e908e903390600401610bb3565b600060405180830381600087803b15801561046657600080fd5b505af115801561047a573d6000803e3d6000fd5b505050505b6000546040517fb54170840000000000000000000000000000000000000000000000000000000081526001600160a01b039091169063b5417084906104d4908c908c90869088908c908c908c90600401610c33565b600060405180830381600087803b1580156104ee57600080fd5b505af1158015610502573d6000803e3d6000fd5b50505050505050505050505050565b600060018585604051610525929190610b1e565b90815260408051602092819003830190203360009081529252812080549161054c83610b2e565b919050553384846040516020016105669493929190610b80565b604051602081830303815290604052905060006002805461058690610ae3565b80601f01602080910402602001604051908101604052809291908181526020018280546105b290610ae3565b80156105ff5780601f106105d4576101008083540402835291602001916105ff565b820191906000526020600020905b8154815290600101906020018083116105e257829003601f168201915b505050505090506000341115610697576003546040517f0c93e3bb0000000000000000000000000000000000000000000000000000000081526001600160a01b0390911690630c93e3bb9034906106649030908b908b9088908a903390600401610c97565b6000604051808303818588803b15801561067d57600080fd5b505af1158015610691573d6000803e3d6000fd5b50505050505b6000546040517f1c92115f0000000000000000000000000000000000000000000000000000000081526001600160a01b0390911690631c92115f906106e6908990899086908890600401610cf8565b600060405180830381600087803b15801561070057600080fd5b505af1158015610714573d6000803e3d6000fd5b50505050505050505050565b82805461072c90610ae3565b90600052602060002090601f01602090048101928261074e5760008555610794565b82601f1061076757805160ff1916838001178555610794565b82800160010185558215610794579182015b82811115610794578251825591602001919060010190610779565b506107a09291506107a4565b5090565b5b808211156107a057600081556001016107a5565b6000815180845260005b818110156107df576020818501810151868301820152016107c3565b818111156107f1576000602083870101525b50601f01601f19169290920160200192915050565b60208152600061081960208301846107b9565b9392505050565b80356001600160a01b038116811461083757600080fd5b919050565b634e487b7160e01b600052604160045260246000fd5b600082601f83011261086357600080fd5b813567ffffffffffffffff8082111561087e5761087e61083c565b604051601f8301601f19908116603f011681019082821181831017156108a6576108a661083c565b816040528381528660208588010111156108bf57600080fd5b836020870160208301376000602085830101528094505050505092915050565b6000806000606084860312156108f457600080fd5b6108fd84610820565b925061090b60208501610820565b9150604084013567ffffffffffffffff81111561092757600080fd5b61093386828701610852565b9150509250925092565b60008083601f84011261094f57600080fd5b50813567ffffffffffffffff81111561096757600080fd5b60208301915083602082850101111561097f57600080fd5b9250929050565b60008060008060008060006080888a0312156109a157600080fd5b873567ffffffffffffffff808211156109b957600080fd5b6109c58b838c0161093d565b909950975060208a01359150808211156109de57600080fd5b6109ea8b838c0161093d565b909750955060408a0135915080821115610a0357600080fd5b50610a108a828b0161093d565b989b979a50959894979596606090950135949350505050565b60008060008060408587031215610a3f57600080fd5b843567ffffffffffffffff80821115610a5757600080fd5b610a638883890161093d565b90965094506020870135915080821115610a7c57600080fd5b50610a898782880161093d565b95989497509550505050565b60008060408385031215610aa857600080fd5b823567ffffffffffffffff811115610abf57600080fd5b610acb85828601610852565b925050610ada60208401610820565b90509250929050565b600181811c90821680610af757607f821691505b60208210811415610b1857634e487b7160e01b600052602260045260246000fd5b50919050565b8183823760009101908152919050565b6000600019821415610b5057634e487b7160e01b600052601160045260246000fd5b5060010190565b81835281816020850137506000828201602090810191909152601f909101601f19169091010190565b8481526001600160a01b0384166020820152606060408201526000610ba9606083018486610b57565b9695505050505050565b60006001600160a01b03808d16835260e06020840152610bd760e084018c8e610b57565b8381036040850152610be9818c6107b9565b90508381036060850152610bfe818a8c610b57565b90508381036080850152610c1381888a610b57565b60a0850196909652509290921660c0909101525098975050505050505050565b60a081526000610c4760a08301898b610b57565b8281036020840152610c5981896107b9565b90508281036040840152610c6d81886107b9565b90508281036060840152610c82818688610b57565b91505082608083015298975050505050505050565b60006001600160a01b03808916835260a06020840152610cbb60a08401888a610b57565b8381036040850152610ccd81886107b9565b90508381036060850152610ce181876107b9565b925050808416608084015250979650505050505050565b606081526000610d0c606083018688610b57565b8281036020840152610d1e81866107b9565b90508281036040840152610d3281856107b9565b97965050505050505056fea264697066735822122041c6296d7d33be5c00f9c299f50247337aac34be1b9e468f8654fe6d13d6093964736f6c63430008090033",
  "linkReferences": {},
  "deployedLinkReferences": {}
}