{
  "_format": "hh-sol-artifact-1",
  "contractName": "ERC20CrossChain",
  "sourceName": "examples/cross-chain-token/ERC20CrossChain.sol",
  "abi": [
    {
      "inputs": [
        {
          "internalType": "address",
          "name": "gateway_",
          "type": "address"
        },
        {
          "internalType": "address",
          "name": "gasReceiver_",
          "type": "address"
        },
        {
          "internalType": "uint8",
          "name": "decimals_",
          "type": "uint8"
        }
      ],
      "stateMutability": "nonpayable",
      "type": "constructor"
    },
    {
      "inputs": [],
      "name": "AlreadyInitialized",
      "type": "error"
    },
    {
      "inputs": [],
      "name": "InvalidAccount",
      "type": "error"
    },
    {
      "inputs": [],
      "name": "InvalidAddress",
      "type": "error"
    },
    {
      "inputs": [],
      "name": "InvalidCodeHash",
      "type": "error"
    },
    {
      "inputs": [],
      "name": "InvalidImplementation",
      "type": "error"
    },
    {
      "inputs": [],
      "name": "InvalidOwner",
      "type": "error"
    },
    {
      "inputs": [],
      "name": "NotApprovedByGateway",
      "type": "error"
    },
    {
      "inputs": [],
      "name": "NotOwner",
      "type": "error"
    },
    {
      "inputs": [],
      "name": "NotProxy",
      "type": "error"
    },
    {
      "inputs": [],
      "name": "SetupFailed",
      "type": "error"
    },
    {
      "anonymous": false,
      "inputs": [
        {
          "indexed": true,
          "internalType": "address",
          "name": "owner",
          "type": "address"
        },
        {
          "indexed": true,
          "internalType": "address",
          "name": "spender",
          "type": "address"
        },
        {
          "indexed": false,
          "internalType": "uint256",
          "name": "value",
          "type": "uint256"
        }
      ],
      "name": "Approval",
      "type": "event"
    },
    {
      "anonymous": false,
      "inputs": [
        {
          "indexed": false,
          "internalType": "string",
          "name": "sourceChain",
          "type": "string"
        },
        {
          "indexed": false,
          "internalType": "string",
          "name": "sourceAddress",
          "type": "string"
        }
      ],
      "name": "FalseSender",
      "type": "event"
    },
    {
      "anonymous": false,
      "inputs": [
        {
          "indexed": true,
          "internalType": "address",
          "name": "newOwner",
          "type": "address"
        }
      ],
      "name": "OwnershipTransferred",
      "type": "event"
    },
    {
      "anonymous": false,
      "inputs": [
        {
          "indexed": true,
          "internalType": "address",
          "name": "from",
          "type": "address"
        },
        {
          "indexed": true,
          "internalType": "address",
          "name": "to",
          "type": "address"
        },
        {
          "indexed": false,
          "internalType": "uint256",
          "name": "value",
          "type": "uint256"
        }
      ],
      "name": "Transfer",
      "type": "event"
    },
    {
      "anonymous": false,
      "inputs": [
        {
          "indexed": true,
          "internalType": "address",
          "name": "newImplementation",
          "type": "address"
        }
      ],
      "name": "Upgraded",
      "type": "event"
    },
    {
      "inputs": [
        {
          "internalType": "address",
          "name": "",
          "type": "address"
        },
        {
          "internalType": "address",
          "name": "",
          "type": "address"
        }
      ],
      "name": "allowance",
      "outputs": [
        {
          "internalType": "uint256",
          "name": "",
          "type": "uint256"
        }
      ],
      "stateMutability": "view",
      "type": "function"
    },
    {
      "inputs": [
        {
          "internalType": "address",
          "name": "spender",
          "type": "address"
        },
        {
          "internalType": "uint256",
          "name": "amount",
          "type": "uint256"
        }
      ],
      "name": "approve",
      "outputs": [
        {
          "internalType": "bool",
          "name": "",
          "type": "bool"
        }
      ],
      "stateMutability": "nonpayable",
      "type": "function"
    },
    {
      "inputs": [
        {
          "internalType": "address",
          "name": "",
          "type": "address"
        }
      ],
      "name": "balanceOf",
      "outputs": [
        {
          "internalType": "uint256",
          "name": "",
          "type": "uint256"
        }
      ],
      "stateMutability": "view",
      "type": "function"
    },
    {
      "inputs": [],
      "name": "contractId",
      "outputs": [
        {
          "internalType": "bytes32",
          "name": "",
          "type": "bytes32"
        }
      ],
      "stateMutability": "pure",
      "type": "function"
    },
    {
      "inputs": [],
      "name": "decimals",
      "outputs": [
        {
          "internalType": "uint8",
          "name": "",
          "type": "uint8"
        }
      ],
      "stateMutability": "view",
      "type": "function"
    },
    {
      "inputs": [
        {
          "internalType": "address",
          "name": "spender",
          "type": "address"
        },
        {
          "internalType": "uint256",
          "name": "subtractedValue",
          "type": "uint256"
        }
      ],
      "name": "decreaseAllowance",
      "outputs": [
        {
          "internalType": "bool",
          "name": "",
          "type": "bool"
        }
      ],
      "stateMutability": "nonpayable",
      "type": "function"
    },
    {
      "inputs": [
        {
          "internalType": "bytes32",
          "name": "commandId",
          "type": "bytes32"
        },
        {
          "internalType": "string",
          "name": "sourceChain",
          "type": "string"
        },
        {
          "internalType": "string",
          "name": "sourceAddress",
          "type": "string"
        },
        {
          "internalType": "bytes",
          "name": "payload",
          "type": "bytes"
        }
      ],
      "name": "execute",
      "outputs": [],
      "stateMutability": "nonpayable",
      "type": "function"
    },
    {
      "inputs": [
        {
          "internalType": "bytes32",
          "name": "commandId",
          "type": "bytes32"
        },
        {
          "internalType": "string",
          "name": "sourceChain",
          "type": "string"
        },
        {
          "internalType": "string",
          "name": "sourceAddress",
          "type": "string"
        },
        {
          "internalType": "bytes",
          "name": "payload",
          "type": "bytes"
        },
        {
          "internalType": "string",
          "name": "tokenSymbol",
          "type": "string"
        },
        {
          "internalType": "uint256",
          "name": "amount",
          "type": "uint256"
        }
      ],
      "name": "executeWithToken",
      "outputs": [],
      "stateMutability": "nonpayable",
      "type": "function"
    },
    {
      "inputs": [],
      "name": "gasReceiver",
      "outputs": [
        {
          "internalType": "contract IAxelarGasService",
          "name": "",
          "type": "address"
        }
      ],
      "stateMutability": "view",
      "type": "function"
    },
    {
      "inputs": [],
      "name": "gateway",
      "outputs": [
        {
          "internalType": "contract IAxelarGateway",
          "name": "",
          "type": "address"
        }
      ],
      "stateMutability": "view",
      "type": "function"
    },
    {
      "inputs": [
        {
          "internalType": "uint256",
          "name": "amount",
          "type": "uint256"
        }
      ],
      "name": "giveMe",
      "outputs": [],
      "stateMutability": "nonpayable",
      "type": "function"
    },
    {
      "inputs": [],
      "name": "implementation",
      "outputs": [
        {
          "internalType": "address",
          "name": "implementation_",
          "type": "address"
        }
      ],
      "stateMutability": "view",
      "type": "function"
    },
    {
      "inputs": [
        {
          "internalType": "address",
          "name": "spender",
          "type": "address"
        },
        {
          "internalType": "uint256",
          "name": "addedValue",
          "type": "uint256"
        }
      ],
      "name": "increaseAllowance",
      "outputs": [
        {
          "internalType": "bool",
          "name": "",
          "type": "bool"
        }
      ],
      "stateMutability": "nonpayable",
      "type": "function"
    },
    {
      "inputs": [],
      "name": "name",
      "outputs": [
        {
          "internalType": "string",
          "name": "",
          "type": "string"
        }
      ],
      "stateMutability": "view",
      "type": "function"
    },
    {
      "inputs": [],
      "name": "owner",
      "outputs": [
        {
          "internalType": "address",
          "name": "owner_",
          "type": "address"
        }
      ],
      "stateMutability": "view",
      "type": "function"
    },
    {
      "inputs": [
        {
          "internalType": "bytes",
          "name": "data",
          "type": "bytes"
        }
      ],
      "name": "setup",
      "outputs": [],
      "stateMutability": "nonpayable",
      "type": "function"
    },
    {
      "inputs": [],
      "name": "symbol",
      "outputs": [
        {
          "internalType": "string",
          "name": "",
          "type": "string"
        }
      ],
      "stateMutability": "view",
      "type": "function"
    },
    {
      "inputs": [],
      "name": "totalSupply",
      "outputs": [
        {
          "internalType": "uint256",
          "name": "",
          "type": "uint256"
        }
      ],
      "stateMutability": "view",
      "type": "function"
    },
    {
      "inputs": [
        {
          "internalType": "address",
          "name": "recipient",
          "type": "address"
        },
        {
          "internalType": "uint256",
          "name": "amount",
          "type": "uint256"
        }
      ],
      "name": "transfer",
      "outputs": [
        {
          "internalType": "bool",
          "name": "",
          "type": "bool"
        }
      ],
      "stateMutability": "nonpayable",
      "type": "function"
    },
    {
      "inputs": [
        {
          "internalType": "address",
          "name": "sender",
          "type": "address"
        },
        {
          "internalType": "address",
          "name": "recipient",
          "type": "address"
        },
        {
          "internalType": "uint256",
          "name": "amount",
          "type": "uint256"
        }
      ],
      "name": "transferFrom",
      "outputs": [
        {
          "internalType": "bool",
          "name": "",
          "type": "bool"
        }
      ],
      "stateMutability": "nonpayable",
      "type": "function"
    },
    {
      "inputs": [
        {
          "internalType": "address",
          "name": "newOwner",
          "type": "address"
        }
      ],
      "name": "transferOwnership",
      "outputs": [],
      "stateMutability": "nonpayable",
      "type": "function"
    },
    {
      "inputs": [
        {
          "internalType": "string",
          "name": "destinationChain",
          "type": "string"
        },
        {
          "internalType": "address",
          "name": "destinationAddress",
          "type": "address"
        },
        {
          "internalType": "uint256",
          "name": "amount",
          "type": "uint256"
        }
      ],
      "name": "transferRemote",
      "outputs": [],
      "stateMutability": "payable",
      "type": "function"
    },
    {
      "inputs": [
        {
          "internalType": "address",
          "name": "newImplementation",
          "type": "address"
        },
        {
          "internalType": "bytes32",
          "name": "newImplementationCodeHash",
          "type": "bytes32"
        },
        {
          "internalType": "bytes",
          "name": "params",
          "type": "bytes"
        }
      ],
      "name": "upgrade",
      "outputs": [],
      "stateMutability": "nonpayable",
      "type": "function"
    }
  ],
  "bytecode": "0x60e06040523480156200001157600080fd5b506040516200224d3803806200224d833981016040819052620000349162000191565b6040805160208082018352600080835283519182019093529182529082856001600160a01b0381166200007a5760405163e6c4247b60e01b815260040160405180910390fd5b6001600160a01b031660805282516200009b906003906020860190620000ce565b508151620000b1906004906020850190620000ce565b5060ff1660a0525050506001600160a01b031660c0525062000221565b828054620000dc90620001e4565b90600052602060002090601f0160209004810192826200010057600085556200014b565b82601f106200011b57805160ff19168380011785556200014b565b828001600101855582156200014b579182015b828111156200014b5782518255916020019190600101906200012e565b50620001599291506200015d565b5090565b5b808211156200015957600081556001016200015e565b80516001600160a01b03811681146200018c57600080fd5b919050565b600080600060608486031215620001a757600080fd5b620001b28462000174565b9250620001c26020850162000174565b9150604084015160ff81168114620001d957600080fd5b809150509250925092565b600181811c90821680620001f957607f821691505b602082108114156200021b57634e487b7160e01b600052602260045260246000fd5b50919050565b60805160a05160c051611fe06200026d600039600081816103be0152610905015260006102a40152600081816101f201528181610622015281816107c801526109a90152611fe06000f3fe6080604052600436106101805760003560e01c80635c60da1b116100d65780639ded06df1161007f578063a9059cbb11610059578063a9059cbb146104bc578063dd62ed3e146104dc578063f2fde38b1461051457600080fd5b80639ded06df1461045c578063a3499c731461047c578063a457c2d71461049c57600080fd5b80638291286c116100b05780638291286c146103e05780638da5cb5b1461041357806395d89b411461044757600080fd5b80635c60da1b1461034b57806370a082311461037f57806380d14b4a146103ac57600080fd5b806323b872dd1161013857806344dee17f1161011257806344dee17f146102f8578063491606581461031857806355d55dc11461033857600080fd5b806323b872dd14610272578063313ce5671461029257806339509351146102d857600080fd5b8063116191b611610169578063116191b6146101e057806318160ddd1461022c5780631a98b2e01461025057600080fd5b806306fdde0314610185578063095ea7b3146101b0575b600080fd5b34801561019157600080fd5b5061019a610534565b6040516101a791906117ca565b60405180910390f35b3480156101bc57600080fd5b506101d06101cb3660046117f9565b6105c2565b60405190151581526020016101a7565b3480156101ec57600080fd5b506102147f000000000000000000000000000000000000000000000000000000000000000081565b6040516001600160a01b0390911681526020016101a7565b34801561023857600080fd5b5061024260025481565b6040519081526020016101a7565b34801561025c57600080fd5b5061027061026b36600461186e565b6105d8565b005b34801561027e57600080fd5b506101d061028d366004611948565b6106e3565b34801561029e57600080fd5b506102c67f000000000000000000000000000000000000000000000000000000000000000081565b60405160ff90911681526020016101a7565b3480156102e457600080fd5b506101d06102f33660046117f9565b61073a565b34801561030457600080fd5b50610270610313366004611989565b610771565b34801561032457600080fd5b506102706103333660046119a2565b61077e565b610270610346366004611a46565b61088e565b34801561035757600080fd5b507f360894a13ba1a3210667c828492db98dca3e2076cc3735a920a3ca505d382bbc54610214565b34801561038b57600080fd5b5061024261039a366004611aa3565b60006020819052908152604090205481565b3480156103b857600080fd5b506102147f000000000000000000000000000000000000000000000000000000000000000081565b3480156103ec57600080fd5b507f8b88dae839acea7ff6a270cef523f6c04d348796d1890294879850ff17ecd6cc610242565b34801561041f57600080fd5b507f02016836a56b71f0d02689e69e326f4f4c1b9057164ef592671cf0d37c8040c054610214565b34801561045357600080fd5b5061019a610a1e565b34801561046857600080fd5b50610270610477366004611ac0565b610a2b565b34801561048857600080fd5b50610270610497366004611b02565b610aa4565b3480156104a857600080fd5b506101d06104b73660046117f9565b610dc0565b3480156104c857600080fd5b506101d06104d73660046117f9565b610df7565b3480156104e857600080fd5b506102426104f7366004611b5e565b600160209081526000928352604080842090915290825290205481565b34801561052057600080fd5b5061027061052f366004611aa3565b610e04565b6003805461054190611b97565b80601f016020809104026020016040519081016040528092919081815260200182805461056d90611b97565b80156105ba5780601f1061058f576101008083540402835291602001916105ba565b820191906000526020600020905b81548152906001019060200180831161059d57829003601f168201915b505050505081565b60006105cf338484610eec565b50600192915050565b600085856040516105ea929190611bd2565b6040519081900381207f1876eed900000000000000000000000000000000000000000000000000000000825291506001600160a01b037f00000000000000000000000000000000000000000000000000000000000000001690631876eed990610667908e908e908e908e908e9089908d908d908d90600401611c0b565b602060405180830381600087803b15801561068157600080fd5b505af1158015610695573d6000803e3d6000fd5b505050506040513d601f19601f820116820180604052508101906106b99190611c6a565b6106d657604051631403112d60e21b815260040160405180910390fd5b5050505050505050505050565b6001600160a01b0383166000908152600160209081526040808320338452909152812054600019811461072457610724853361071f8685611ca2565b610eec565b61072f858585610f89565b506001949350505050565b3360008181526001602090815260408083206001600160a01b038716845290915281205490916105cf91859061071f908690611cb9565b61077b3382611065565b50565b60008282604051610790929190611bd2565b6040519081900381207f5f6970c300000000000000000000000000000000000000000000000000000000825291506001600160a01b037f00000000000000000000000000000000000000000000000000000000000000001690635f6970c390610807908b908b908b908b908b908990600401611cd1565b602060405180830381600087803b15801561082157600080fd5b505af1158015610835573d6000803e3d6000fd5b505050506040513d601f19601f820116820180604052508101906108599190611c6a565b61087657604051631403112d60e21b815260040160405180910390fd5b610884878787878787611116565b5050505050505050565b61089833826111d4565b604080516001600160a01b0384166020820152808201839052815180820383018152606090910190915260006108cd3061127f565b90503415610979576040517f0c93e3bb0000000000000000000000000000000000000000000000000000000081526001600160a01b037f00000000000000000000000000000000000000000000000000000000000000001690630c93e3bb9034906109469030908b908b9088908a903390600401611d12565b6000604051808303818588803b15801561095f57600080fd5b505af1158015610973573d6000803e3d6000fd5b50505050505b6040517f1c92115f0000000000000000000000000000000000000000000000000000000081526001600160a01b037f00000000000000000000000000000000000000000000000000000000000000001690631c92115f906109e4908990899086908890600401611d73565b600060405180830381600087803b1580156109fe57600080fd5b505af1158015610a12573d6000803e3d6000fd5b50505050505050505050565b6004805461054190611b97565b6000610a557f360894a13ba1a3210667c828492db98dca3e2076cc3735a920a3ca505d382bbc5490565b6001600160a01b03161415610a96576040517fbf10dd3a00000000000000000000000000000000000000000000000000000000815260040160405180910390fd5b610aa0828261154f565b5050565b33610acd7f02016836a56b71f0d02689e69e326f4f4c1b9057164ef592671cf0d37c8040c05490565b6001600160a01b031614610af4576040516330cd747160e01b815260040160405180910390fd5b306001600160a01b0316638291286c6040518163ffffffff1660e01b815260040160206040518083038186803b158015610b2d57600080fd5b505afa158015610b41573d6000803e3d6000fd5b505050506040513d601f19601f82011682018060405250810190610b659190611db8565b846001600160a01b0316638291286c6040518163ffffffff1660e01b815260040160206040518083038186803b158015610b9e57600080fd5b505afa158015610bb2573d6000803e3d6000fd5b505050506040513d601f19601f82011682018060405250810190610bd69190611db8565b14610c0d576040517f68155f9a00000000000000000000000000000000000000000000000000000000815260040160405180910390fd5b836001600160a01b03163f8314610c50576040517f8f84fb2400000000000000000000000000000000000000000000000000000000815260040160405180910390fd5b8015610d65576000846001600160a01b0316639ded06df60e01b8484604051602401610c7d929190611dd1565b60408051601f198184030181529181526020820180517bffffffffffffffffffffffffffffffffffffffffffffffffffffffff167fffffffff00000000000000000000000000000000000000000000000000000000909416939093179092529051610ce89190611ded565b600060405180830381855af49150503d8060008114610d23576040519150601f19603f3d011682016040523d82523d6000602084013e610d28565b606091505b5050905080610d63576040517f97905dfb00000000000000000000000000000000000000000000000000000000815260040160405180910390fd5b505b6040516001600160a01b038516907fbc7cd75a20ee27fd9adebab32041f755214dbc6bffa90cc0225b39da2e5c2d3b90600090a25050507f360894a13ba1a3210667c828492db98dca3e2076cc3735a920a3ca505d382bbc55565b3360008181526001602090815260408083206001600160a01b038716845290915281205490916105cf91859061071f908690611ca2565b60006105cf338484610f89565b33610e2d7f02016836a56b71f0d02689e69e326f4f4c1b9057164ef592671cf0d37c8040c05490565b6001600160a01b031614610e54576040516330cd747160e01b815260040160405180910390fd5b6001600160a01b038116610e94576040517f49e27cff00000000000000000000000000000000000000000000000000000000815260040160405180910390fd5b6040516001600160a01b038216907f04dba622d284ed0014ee4b9a6a68386be1a4c08a4913ae272de89199cc68616390600090a27f02016836a56b71f0d02689e69e326f4f4c1b9057164ef592671cf0d37c8040c055565b6001600160a01b0383161580610f0957506001600160a01b038216155b15610f2757604051630da30f6560e31b815260040160405180910390fd5b6001600160a01b0383811660008181526001602090815260408083209487168084529482529182902085905590518481527f8c5be1e5ebec7d5bd14f71427d1e84f3dd0314c0f7b2291e5b200ac8c7c3b92591015b60405180910390a3505050565b6001600160a01b0383161580610fa657506001600160a01b038216155b15610fc457604051630da30f6560e31b815260040160405180910390fd5b6001600160a01b03831660009081526020819052604081208054839290610fec908490611ca2565b90915550506001600160a01b03821660009081526020819052604081208054839290611019908490611cb9565b92505081905550816001600160a01b0316836001600160a01b03167fddf252ad1be2c89b69c2b068fc378daa952ba7f163c4a11628f55a4df523b3ef83604051610f7c91815260200190565b6001600160a01b03821661108c57604051630da30f6560e31b815260040160405180910390fd5b806002600082825461109e9190611cb9565b90915550506001600160a01b038216600090815260208190526040812080548392906110cb908490611cb9565b90915550506040518181526001600160a01b038316906000907fddf252ad1be2c89b69c2b068fc378daa952ba7f163c4a11628f55a4df523b3ef906020015b60405180910390a35050565b306001600160a01b031661115f85858080601f0160208091040260200160405190810160405280939291908181526020018383808284376000920191909152506115d692505050565b6001600160a01b0316146111af577f03daa0914739c74a32f06993c062b0ec6a2c0b8a39b5a0b8bff2a12ef55b9dc5848486866040516111a29493929190611e09565b60405180910390a16111cc565b6000806111be838501856117f9565b915091506108848282611065565b505050505050565b6001600160a01b0382166111fb57604051630da30f6560e31b815260040160405180910390fd5b6001600160a01b03821660009081526020819052604081208054839290611223908490611ca2565b92505081905550806002600082825461123c9190611ca2565b90915550506040518181526000906001600160a01b038416907fddf252ad1be2c89b69c2b068fc378daa952ba7f163c4a11628f55a4df523b3ef9060200161110a565b604051606082811b6bffffffffffffffffffffffff191660208301529060009060340160408051601f19818403018152828201909152601082527f3031323334353637383961626364656600000000000000000000000000000000602083015280519092506000906112f2906002611e30565b6112fd906002611cb9565b67ffffffffffffffff81111561131557611315611e4f565b6040519080825280601f01601f19166020018201604052801561133f576020820181803683370190505b5090507f30000000000000000000000000000000000000000000000000000000000000008160008151811061137657611376611e65565b60200101906001600160f81b031916908160001a9053507f7800000000000000000000000000000000000000000000000000000000000000816001815181106113c1576113c1611e65565b60200101906001600160f81b031916908160001a90535060005b8351811015611546578260048583815181106113f9576113f9611e65565b016020015182517fff0000000000000000000000000000000000000000000000000000000000000090911690911c60f81c90811061143957611439611e65565b01602001517fff00000000000000000000000000000000000000000000000000000000000000168261146c836002611e30565b611477906002611cb9565b8151811061148757611487611e65565b60200101906001600160f81b031916908160001a905350828482815181106114b1576114b1611e65565b602091010151815160f89190911c600f169081106114d1576114d1611e65565b01602001517fff000000000000000000000000000000000000000000000000000000000000001682611504836002611e30565b61150f906003611cb9565b8151811061151f5761151f611e65565b60200101906001600160f81b031916908160001a90535061153f81611e7b565b90506113db565b50949350505050565b60008061155e83850185611f23565b915091506003805461156f90611b97565b1590506115a8576040517f0dc149f000000000000000000000000000000000000000000000000000000000815260040160405180910390fd5b81516115bb9060039060208501906116d5565b5080516115cf9060049060208401906116d5565b5050505050565b80516000908290602a146115ed5750600092915050565b60008060025b602a8110156116cb5783818151811061160e5761160e611e65565b016020015160f81c91506061821080159061162d575060668260ff1611155b156116445761163d605783611f87565b91506116a0565b60418260ff161015801561165c575060468260ff1611155b1561166c5761163d603783611f87565b60308260ff1610158015611684575060398260ff1611155b156116945761163d603083611f87565b50600095945050505050565b60026116ad826029611ca2565b60ff8416911b1b9290921791806116c381611e7b565b9150506115f3565b5090949350505050565b8280546116e190611b97565b90600052602060002090601f0160209004810192826117035760008555611749565b82601f1061171c57805160ff1916838001178555611749565b82800160010185558215611749579182015b8281111561174957825182559160200191906001019061172e565b50611755929150611759565b5090565b5b80821115611755576000815560010161175a565b60005b83811015611789578181015183820152602001611771565b83811115611798576000848401525b50505050565b600081518084526117b681602086016020860161176e565b601f01601f19169290920160200192915050565b6020815260006117dd602083018461179e565b9392505050565b6001600160a01b038116811461077b57600080fd5b6000806040838503121561180c57600080fd5b8235611817816117e4565b946020939093013593505050565b60008083601f84011261183757600080fd5b50813567ffffffffffffffff81111561184f57600080fd5b60208301915083602082850101111561186757600080fd5b9250929050565b60008060008060008060008060008060c08b8d03121561188d57600080fd5b8a35995060208b013567ffffffffffffffff808211156118ac57600080fd5b6118b88e838f01611825565b909b50995060408d01359150808211156118d157600080fd5b6118dd8e838f01611825565b909950975060608d01359150808211156118f657600080fd5b6119028e838f01611825565b909750955060808d013591508082111561191b57600080fd5b506119288d828e01611825565b9150809450508092505060a08b013590509295989b9194979a5092959850565b60008060006060848603121561195d57600080fd5b8335611968816117e4565b92506020840135611978816117e4565b929592945050506040919091013590565b60006020828403121561199b57600080fd5b5035919050565b60008060008060008060006080888a0312156119bd57600080fd5b87359650602088013567ffffffffffffffff808211156119dc57600080fd5b6119e88b838c01611825565b909850965060408a0135915080821115611a0157600080fd5b611a0d8b838c01611825565b909650945060608a0135915080821115611a2657600080fd5b50611a338a828b01611825565b989b979a50959850939692959293505050565b60008060008060608587031215611a5c57600080fd5b843567ffffffffffffffff811115611a7357600080fd5b611a7f87828801611825565b9095509350506020850135611a93816117e4565b9396929550929360400135925050565b600060208284031215611ab557600080fd5b81356117dd816117e4565b60008060208385031215611ad357600080fd5b823567ffffffffffffffff811115611aea57600080fd5b611af685828601611825565b90969095509350505050565b60008060008060608587031215611b1857600080fd5b8435611b23816117e4565b935060208501359250604085013567ffffffffffffffff811115611b4657600080fd5b611b5287828801611825565b95989497509550505050565b60008060408385031215611b7157600080fd5b8235611b7c816117e4565b91506020830135611b8c816117e4565b809150509250929050565b600181811c90821680611bab57607f821691505b60208210811415611bcc57634e487b7160e01b600052602260045260246000fd5b50919050565b8183823760009101908152919050565b81835281816020850137506000828201602090810191909152601f909101601f19169091010190565b89815260c060208201526000611c2560c083018a8c611be2565b8281036040840152611c3881898b611be2565b90508660608401528281036080840152611c53818688611be2565b9150508260a08301529a9950505050505050505050565b600060208284031215611c7c57600080fd5b815180151581146117dd57600080fd5b634e487b7160e01b600052601160045260246000fd5b600082821015611cb457611cb4611c8c565b500390565b60008219821115611ccc57611ccc611c8c565b500190565b868152608060208201526000611ceb608083018789611be2565b8281036040840152611cfe818688611be2565b915050826060830152979650505050505050565b60006001600160a01b03808916835260a06020840152611d3660a08401888a611be2565b8381036040850152611d48818861179e565b90508381036060850152611d5c818761179e565b925050808416608084015250979650505050505050565b606081526000611d87606083018688611be2565b8281036020840152611d99818661179e565b90508281036040840152611dad818561179e565b979650505050505050565b600060208284031215611dca57600080fd5b5051919050565b602081526000611de5602083018486611be2565b949350505050565b60008251611dff81846020870161176e565b9190910192915050565b604081526000611e1d604083018688611be2565b8281036020840152611dad818587611be2565b6000816000190483118215151615611e4a57611e4a611c8c565b500290565b634e487b7160e01b600052604160045260246000fd5b634e487b7160e01b600052603260045260246000fd5b6000600019821415611e8f57611e8f611c8c565b5060010190565b600082601f830112611ea757600080fd5b813567ffffffffffffffff80821115611ec257611ec2611e4f565b604051601f8301601f19908116603f01168101908282118183101715611eea57611eea611e4f565b81604052838152866020858801011115611f0357600080fd5b836020870160208301376000602085830101528094505050505092915050565b60008060408385031215611f3657600080fd5b823567ffffffffffffffff80821115611f4e57600080fd5b611f5a86838701611e96565b93506020850135915080821115611f7057600080fd5b50611f7d85828601611e96565b9150509250929050565b600060ff821660ff841680821015611fa157611fa1611c8c565b9003939250505056fea264697066735822122011cea4c0a51abfaae48df5703558fe69047a1fa94430a0b89af722f9eb9221a364736f6c63430008090033",
  "linkReferences": {},
  "deployedLinkReferences": {}
}