{
  "_format": "hh-sol-artifact-1",
  "contractName": "CompoundInterface",
  "sourceName": "examples/cross-chain-lending/CompoundInterface.sol",
  "abi": [
    {
      "inputs": [
        {
          "internalType": "address",
          "name": "gateway_",
          "type": "address"
        },
        {
          "internalType": "contract Comptroller",
          "name": "comptroller_",
          "type": "address"
        },
        {
          "internalType": "string[]",
          "name": "supportedTokens",
          "type": "string[]"
        },
        {
          "internalType": "address[]",
          "name": "cTokens",
          "type": "address[]"
        }
      ],
      "stateMutability": "nonpayable",
      "type": "constructor"
    },
    {
      "inputs": [],
      "name": "AlreadyForecalled",
      "type": "error"
    },
    {
      "inputs": [],
      "name": "InvalidAddress",
      "type": "error"
    },
    {
      "inputs": [],
      "name": "NotApprovedByGateway",
      "type": "error"
    },
    {
      "inputs": [],
      "name": "TransferFailed",
      "type": "error"
    },
    {
      "inputs": [],
      "name": "FORECALLERS_SALT",
      "outputs": [
        {
          "internalType": "uint256",
          "name": "",
          "type": "uint256"
        }
      ],
      "stateMutability": "view",
      "type": "function"
    },
    {
      "inputs": [
        {
          "internalType": "uint256",
          "name": "amount",
          "type": "uint256"
        },
        {
          "internalType": "bytes",
          "name": "",
          "type": "bytes"
        }
      ],
      "name": "amountPostFee",
      "outputs": [
        {
          "internalType": "uint256",
          "name": "",
          "type": "uint256"
        }
      ],
      "stateMutability": "nonpayable",
      "type": "function"
    },
    {
      "inputs": [
        {
          "internalType": "string",
          "name": "",
          "type": "string"
        },
        {
          "internalType": "string",
          "name": "",
          "type": "string"
        }
      ],
      "name": "cBalances",
      "outputs": [
        {
          "internalType": "uint256",
          "name": "",
          "type": "uint256"
        }
      ],
      "stateMutability": "view",
      "type": "function"
    },
    {
      "inputs": [],
      "name": "comptroller",
      "outputs": [
        {
          "internalType": "contract Comptroller",
          "name": "",
          "type": "address"
        }
      ],
      "stateMutability": "view",
      "type": "function"
    },
    {
      "inputs": [
        {
          "internalType": "bytes32",
          "name": "commandId",
          "type": "bytes32"
        },
        {
          "internalType": "string",
          "name": "sourceChain",
          "type": "string"
        },
        {
          "internalType": "string",
          "name": "sourceAddress",
          "type": "string"
        },
        {
          "internalType": "bytes",
          "name": "payload",
          "type": "bytes"
        }
      ],
      "name": "execute",
      "outputs": [],
      "stateMutability": "nonpayable",
      "type": "function"
    },
    {
      "inputs": [
        {
          "internalType": "bytes32",
          "name": "commandId",
          "type": "bytes32"
        },
        {
          "internalType": "string",
          "name": "sourceChain",
          "type": "string"
        },
        {
          "internalType": "string",
          "name": "sourceAddress",
          "type": "string"
        },
        {
          "internalType": "bytes",
          "name": "payload",
          "type": "bytes"
        },
        {
          "internalType": "string",
          "name": "tokenSymbol",
          "type": "string"
        },
        {
          "internalType": "uint256",
          "name": "amount",
          "type": "uint256"
        }
      ],
      "name": "executeWithToken",
      "outputs": [],
      "stateMutability": "nonpayable",
      "type": "function"
    },
    {
      "inputs": [
        {
          "internalType": "string",
          "name": "sourceChain",
          "type": "string"
        },
        {
          "internalType": "string",
          "name": "sourceAddress",
          "type": "string"
        },
        {
          "internalType": "bytes",
          "name": "payload",
          "type": "bytes"
        }
      ],
      "name": "forecall",
      "outputs": [],
      "stateMutability": "nonpayable",
      "type": "function"
    },
    {
      "inputs": [
        {
          "internalType": "string",
          "name": "sourceChain",
          "type": "string"
        },
        {
          "internalType": "string",
          "name": "sourceAddress",
          "type": "string"
        },
        {
          "internalType": "bytes",
          "name": "payload",
          "type": "bytes"
        },
        {
          "internalType": "string",
          "name": "tokenSymbol",
          "type": "string"
        },
        {
          "internalType": "uint256",
          "name": "amount",
          "type": "uint256"
        }
      ],
      "name": "forecallWithToken",
      "outputs": [],
      "stateMutability": "nonpayable",
      "type": "function"
    },
    {
      "inputs": [],
      "name": "gateway",
      "outputs": [
        {
          "internalType": "contract IAxelarGateway",
          "name": "",
          "type": "address"
        }
      ],
      "stateMutability": "view",
      "type": "function"
    },
    {
      "inputs": [
        {
          "internalType": "string",
          "name": "sourceChain",
          "type": "string"
        },
        {
          "internalType": "string",
          "name": "sourceAddress",
          "type": "string"
        },
        {
          "internalType": "bytes",
          "name": "payload",
          "type": "bytes"
        }
      ],
      "name": "getForecaller",
      "outputs": [
        {
          "internalType": "address",
          "name": "forecaller",
          "type": "address"
        }
      ],
      "stateMutability": "view",
      "type": "function"
    },
    {
      "inputs": [
        {
          "internalType": "string",
          "name": "sourceChain",
          "type": "string"
        },
        {
          "internalType": "string",
          "name": "sourceAddress",
          "type": "string"
        },
        {
          "internalType": "bytes",
          "name": "payload",
          "type": "bytes"
        },
        {
          "internalType": "string",
          "name": "symbol",
          "type": "string"
        },
        {
          "internalType": "uint256",
          "name": "amount",
          "type": "uint256"
        }
      ],
      "name": "getForecallerWithToken",
      "outputs": [
        {
          "internalType": "address",
          "name": "forecaller",
          "type": "address"
        }
      ],
      "stateMutability": "view",
      "type": "function"
    },
    {
      "inputs": [
        {
          "internalType": "string",
          "name": "sourceChain",
          "type": "string"
        },
        {
          "internalType": "string",
          "name": "",
          "type": "string"
        },
        {
          "internalType": "string",
          "name": "repayTokenSymbol",
          "type": "string"
        },
        {
          "internalType": "uint256",
          "name": "repayAmount",
          "type": "uint256"
        },
        {
          "internalType": "bytes",
          "name": "params",
          "type": "bytes"
        }
      ],
      "name": "repayAndRedeem",
      "outputs": [],
      "stateMutability": "nonpayable",
      "type": "function"
    },
    {
      "inputs": [
        {
          "internalType": "string",
          "name": "sourceChain",
          "type": "string"
        },
        {
          "internalType": "string",
          "name": "",
          "type": "string"
        },
        {
          "internalType": "string",
          "name": "supplyTokenSymbol",
          "type": "string"
        },
        {
          "internalType": "uint256",
          "name": "supplyAmount",
          "type": "uint256"
        },
        {
          "internalType": "bytes",
          "name": "params",
          "type": "bytes"
        }
      ],
      "name": "supplyAndBorrow",
      "outputs": [],
      "stateMutability": "nonpayable",
      "type": "function"
    }
  ],
  "bytecode": "0x60c06040523480156200001157600080fd5b5060405162002b3138038062002b3183398101604081905262000034916200032b565b836001600160a01b0381166200005d5760405163e6c4247b60e01b815260040160405180910390fd5b6001600160a01b03166080528051825114620000b35760405162461bcd60e51b8152602060048201526011602482015270098cadccee8d0e640dad2e6e6dac2e8c6d607b1b604482015260640160405180910390fd5b6001600160a01b03831660a05260005b82518110156200015c57818181518110620000e257620000e262000494565b6020026020010151600184838151811062000101576200010162000494565b6020026020010151604051620001189190620004aa565b90815260405190819003602001902080546001600160a01b03929092166001600160a01b0319909216919091179055806200015381620004c8565b915050620000c3565b5060a0516001600160a01b031663c2998238826040518263ffffffff1660e01b81526004016200018d9190620004f2565b600060405180830381600087803b158015620001a857600080fd5b505af1158015620001bd573d6000803e3d6000fd5b505050506040513d6000823e601f3d908101601f19168201604052620001e7919081019062000541565b5050505050620005da565b6001600160a01b03811681146200020857600080fd5b50565b634e487b7160e01b600052604160045260246000fd5b604051601f8201601f191681016001600160401b03811182821017156200024c576200024c6200020b565b604052919050565b60006001600160401b038211156200027057620002706200020b565b5060051b60200190565b60005b83811015620002975781810151838201526020016200027d565b83811115620002a7576000848401525b50505050565b600082601f830112620002bf57600080fd5b81516020620002d8620002d28362000254565b62000221565b82815260059290921b84018101918181019086841115620002f857600080fd5b8286015b84811015620003205780516200031281620001f2565b8352918301918301620002fc565b509695505050505050565b600080600080608085870312156200034257600080fd5b84516200034f81620001f2565b809450506020808601516200036481620001f2565b60408701519094506001600160401b03808211156200038257600080fd5b818801915088601f8301126200039757600080fd5b8151620003a8620002d28262000254565b81815260059190911b8301840190848101908b831115620003c857600080fd5b8585015b838110156200045d57805185811115620003e65760008081fd5b8601603f81018e13620003f95760008081fd5b87810151868111156200041057620004106200020b565b62000424601f8201601f19168a0162000221565b8181528f60408385010111156200043b5760008081fd5b6200044d828b8301604086016200027a565b85525050918601918601620003cc565b5060608b015190975094505050808311156200047857600080fd5b50506200048887828801620002ad565b91505092959194509250565b634e487b7160e01b600052603260045260246000fd5b60008251620004be8184602087016200027a565b9190910192915050565b6000600019821415620004eb57634e487b7160e01b600052601160045260246000fd5b5060010190565b6020808252825182820181905260009190848201906040850190845b81811015620005355783516001600160a01b0316835292840192918401916001016200050e565b50909695505050505050565b600060208083850312156200055557600080fd5b82516001600160401b038111156200056c57600080fd5b8301601f810185136200057e57600080fd5b80516200058f620002d28262000254565b81815260059190911b82018301908381019087831115620005af57600080fd5b928401925b82841015620005cf57835182529284019290840190620005b4565b979650505050505050565b60805160a0516124dd6200065460003960006101fa01526000818161014e01528181610333015281816104380152818161053b0152818161074b01528181610e2f01528181611010015281816113720152818161141901528181611516015281816118ab015281816119e00152611a8301526124dd6000f3fe608060405234801561001057600080fd5b50600436106100df5760003560e01c80634b2e84c61161008c578063e521a35b11610066578063e521a35b1461022f578063e888e86c14610242578063f609617d14610255578063facd28a91461026857600080fd5b80634b2e84c6146101ad5780635fe3b567146101f5578063d02244341461021c57600080fd5b80631a98b2e0116100bd5780631a98b2e0146101705780633ca2fd8e14610185578063491606581461019a57600080fd5b806309cc027b146100e45780630d38218a14610114578063116191b614610149575b600080fd5b6100f76100f2366004611b37565b61027b565b6040516001600160a01b0390911681526020015b60405180910390f35b61013b7fdb79ee324babd8834c3c1a1a2739c004fce73b812ac9f637241ff47b19e4b71f81565b60405190815260200161010b565b6100f77f000000000000000000000000000000000000000000000000000000000000000081565b61018361017e366004611c03565b6102e9565b005b61013b610193366004611cdd565b5090919050565b6101836101a8366004611d29565b6104f1565b61013b6101bb366004611e92565b8151602081840181018051600082529282019482019490942091909352815180830184018051928152908401929093019190912091525481565b6100f77f000000000000000000000000000000000000000000000000000000000000000081565b61018361022a366004611ef6565b610625565b61018361023d366004611f90565b610673565b610183610250366004611b37565b610731565b610183610263366004611f90565b61083d565b6100f7610276366004611ef6565b6108ea565b6000808a8a8a8a8a8a8a8a8a7fdb79ee324babd8834c3c1a1a2739c004fce73b812ac9f637241ff47b19e4b71f6040516020016102c19a99989796959493929190612080565b60408051601f198184030181529190528051602090910120549b9a5050505050505050505050565b600085856040516102fb9291906120eb565b6040519081900381207f1876eed900000000000000000000000000000000000000000000000000000000825291506001600160a01b037f00000000000000000000000000000000000000000000000000000000000000001690631876eed990610378908e908e908e908e908e9089908d908d908d906004016120fb565b602060405180830381600087803b15801561039257600080fd5b505af11580156103a6573d6000803e3d6000fd5b505050506040513d601f19601f820116820180604052508101906103ca919061215a565b6103e757604051631403112d60e21b815260040160405180910390fd5b60006103fa8b8b8b8b8b8b8b8b8b61027b565b90506001600160a01b038116156104d25761041e8b8b8b8b8b8b8b8b8b600061094f565b6040516349ad89fb60e11b81526000906001600160a01b037f0000000000000000000000000000000000000000000000000000000000000000169063935b13f69061046f9089908990600401612183565b60206040518083038186803b15801561048757600080fd5b505afa15801561049b573d6000803e3d6000fd5b505050506040513d601f19601f820116820180604052508101906104bf919061219f565b90506104cc8183866109bc565b506104e3565b6104e38b8b8b8b8b8b8b8b8b610b2b565b505050505050505050505050565b600082826040516105039291906120eb565b6040519081900381207f5f6970c300000000000000000000000000000000000000000000000000000000825291506001600160a01b037f00000000000000000000000000000000000000000000000000000000000000001690635f6970c39061057a908b908b908b908b908b9089906004016121c8565b602060405180830381600087803b15801561059457600080fd5b505af11580156105a8573d6000803e3d6000fd5b505050506040513d601f19601f820116820180604052508101906105cc919061215a565b6105e957604051631403112d60e21b815260040160405180910390fd5b60006105f98888888888886108ea565b90506001600160a01b0381161561061a5761061a8888888888886000610d8b565b505050505050505050565b60006106358787878787876108ea565b6001600160a01b03161461065c5760405163035b7d5560e41b815260040160405180910390fd5b61066b86868686868633610d8b565b505050505050565b3330146106ed5760405162461bcd60e51b815260206004820152603160248201527f46756e6374696f6e206d7573742062652063616c6c656420627920746865207360448201527f616d6520636f6e7472616374206f6e6c7900000000000000000000000000000060648201526084015b60405180910390fd5b600080600083806020019051810190610706919061227e565b925092509250610717878787610def565b6107248b8b838686610fd2565b5050505050505050505050565b6040516349ad89fb60e11b81526000906001600160a01b037f0000000000000000000000000000000000000000000000000000000000000000169063935b13f6906107829087908790600401612183565b60206040518083038186803b15801561079a57600080fd5b505afa1580156107ae573d6000803e3d6000fd5b505050506040513d601f19601f820116820180604052508101906107d2919061219f565b9050816107e0823383611484565b60006107f38c8c8c8c8c8c8c8c8c61027b565b6001600160a01b03161461081a5760405163035b7d5560e41b815260040160405180910390fd5b61082c8b8b8b8b8b8b8b8b8b3361094f565b6107248b8b8b8b8b8b8b8b89610b2b565b3330146108b25760405162461bcd60e51b815260206004820152603160248201527f46756e6374696f6e206d7573742062652063616c6c656420627920746865207360448201527f616d6520636f6e7472616374206f6e6c7900000000000000000000000000000060648201526084016106e4565b6000806000838060200190518101906108cb919061227e565b9250925092506108dd878787846114d6565b6107248b8b83868661186d565b6000808787878787877fdb79ee324babd8834c3c1a1a2739c004fce73b812ac9f637241ff47b19e4b71f60405160200161092a97969594939291906122eb565b60408051601f1981840301815291905280516020909101205498975050505050505050565b60008a8a8a8a8a8a8a8a8a7fdb79ee324babd8834c3c1a1a2739c004fce73b812ac9f637241ff47b19e4b71f6040516020016109949a99989796959493929190612080565b6040516020818303038152906040528051906020012090508181555050505050505050505050565b6040516001600160a01b0383811660248301526044820183905260009182918616907fa9059cbb00000000000000000000000000000000000000000000000000000000906064015b60408051601f198184030181529181526020820180517bffffffffffffffffffffffffffffffffffffffffffffffffffffffff167fffffffff00000000000000000000000000000000000000000000000000000000909416939093179092529051610a6f919061233c565b6000604051808303816000865af19150503d8060008114610aac576040519150601f19603f3d011682016040523d82523d6000602084013e610ab1565b606091505b50915091506000828015610add575081511580610add575081806020019051810190610add919061215a565b9050801580610af457506001600160a01b0386163b155b1561066b576040517f90b8ec1800000000000000000000000000000000000000000000000000000000815260040160405180910390fd5b600080610b3a86880188611e92565b9150915060007f73d8cb69fd3e6fb626850133eeb817026df2481a2ad38804ed80ac10f560072383805190602001201415610b9657507ff609617d00000000000000000000000000000000000000000000000000000000610c33565b825160208401207ffb37ddd22b2e66bdd322100a2670dfcd6e55b2107fb5a8dda4eb256486b672ff1415610beb57507fe521a35b00000000000000000000000000000000000000000000000000000000610c33565b60405162461bcd60e51b815260206004820152601560248201527f496e76616c69642066756e6374696f6e206e616d65000000000000000000000060448201526064016106e4565b600080306001600160a01b0316838f8f8f8f8d8d8d8c604051602401610c60989796959493929190612384565b60408051601f198184030181529181526020820180517bffffffffffffffffffffffffffffffffffffffffffffffffffffffff167fffffffff00000000000000000000000000000000000000000000000000000000909416939093179092529051610ccb919061233c565b6000604051808303816000865af19150503d8060008114610d08576040519150601f19603f3d011682016040523d82523d6000602084013e610d0d565b606091505b509150915081610d7b578051610d6f5781610d6a5760405162461bcd60e51b815260206004820152601560248201527f4661696c65642077697468206e6f20726561736f6e000000000000000000000060448201526064016106e4565b610d7b565b60208101815182018082fd5b5050505050505050505050505050565b60008787878787877fdb79ee324babd8834c3c1a1a2739c004fce73b812ac9f637241ff47b19e4b71f604051602001610dca97969594939291906122eb565b6040516020818303038152906040528051906020012090508181555050505050505050565b600060018484604051610e039291906120eb565b908152604051908190036020018120546349ad89fb60e11b82526001600160a01b0390811692506000917f00000000000000000000000000000000000000000000000000000000000000009091169063935b13f690610e689088908890600401612183565b60206040518083038186803b158015610e8057600080fd5b505afa158015610e94573d6000803e3d6000fd5b505050506040513d601f19601f82011682018060405250810190610eb8919061219f565b60405163095ea7b360e01b81526001600160a01b038481166004830152602482018690529192509082169063095ea7b390604401602060405180830381600087803b158015610f0657600080fd5b505af1158015610f1a573d6000803e3d6000fd5b505050506040513d601f19601f82011682018060405250810190610f3e919061215a565b506040517f0e752702000000000000000000000000000000000000000000000000000000008152600481018490526001600160a01b03831690630e75270290602401602060405180830381600087803b158015610f9a57600080fd5b505af1158015610fae573d6000803e3d6000fd5b505050506040513d601f19601f8201168201806040525081019061066b91906123e9565b6000600183604051610fe4919061233c565b908152604051908190036020018120546349ad89fb60e11b82526001600160a01b0390811692506000917f00000000000000000000000000000000000000000000000000000000000000009091169063935b13f690611047908790600401612402565b60206040518083038186803b15801561105f57600080fd5b505afa158015611073573d6000803e3d6000fd5b505050506040513d601f19601f82011682018060405250810190611097919061219f565b9050826000866040516110aa919061233c565b9081526020016040518091039020856040516110c6919061233c565b90815260200160405180910390205410156111235760405162461bcd60e51b815260206004820152601260248201527f4e6f7420656e6f7567682062616c616e6365000000000000000000000000000060448201526064016106e4565b82600086604051611134919061233c565b908152602001604051809103902085604051611150919061233c565b9081526020016040518091039020600082825461116d919061242b565b90915550506040516370a0823160e01b81523060048201526000906001600160a01b038316906370a082319060240160206040518083038186803b1580156111b457600080fd5b505afa1580156111c8573d6000803e3d6000fd5b505050506040513d601f19601f820116820180604052508101906111ec91906123e9565b6040517fdb006a75000000000000000000000000000000000000000000000000000000008152600481018690529091506000906001600160a01b0385169063db006a7590602401602060405180830381600087803b15801561124d57600080fd5b505af1158015611261573d6000803e3d6000fd5b505050506040513d601f19601f8201168201806040525081019061128591906123e9565b905080156112d55760405162461bcd60e51b815260206004820152601e60248201527f4572726f722072656465656d696e6720666f7220756e6465726c79696e67000060448201526064016106e4565b6040516370a0823160e01b815230600482015260009083906001600160a01b038616906370a082319060240160206040518083038186803b15801561131957600080fd5b505afa15801561132d573d6000803e3d6000fd5b505050506040513d601f19601f8201168201806040525081019061135191906123e9565b61135b919061242b565b60405163095ea7b360e01b81526001600160a01b037f000000000000000000000000000000000000000000000000000000000000000081166004830152602482018390529192509085169063095ea7b390604401602060405180830381600087803b1580156113c957600080fd5b505af11580156113dd573d6000803e3d6000fd5b505050506040513d601f19601f82011682018060405250810190611401919061215a565b506040516326ef699d60e01b81526001600160a01b037f000000000000000000000000000000000000000000000000000000000000000016906326ef699d90611456908d908d908d908d908890600401612442565b600060405180830381600087803b15801561147057600080fd5b505af1158015610d7b573d6000803e3d6000fd5b6040516001600160a01b0383811660248301523060448301526064820183905260009182918616907f23b872dd0000000000000000000000000000000000000000000000000000000090608401610a04565b6000600185856040516114ea9291906120eb565b908152604051908190036020018120546349ad89fb60e11b82526001600160a01b0390811692506000917f00000000000000000000000000000000000000000000000000000000000000009091169063935b13f69061154f9089908990600401612183565b60206040518083038186803b15801561156757600080fd5b505afa15801561157b573d6000803e3d6000fd5b505050506040513d601f19601f8201168201806040525081019061159f919061219f565b60405163095ea7b360e01b81526001600160a01b038481166004830152602482018790529192509082169063095ea7b390604401602060405180830381600087803b1580156115ed57600080fd5b505af1158015611601573d6000803e3d6000fd5b505050506040513d601f19601f82011682018060405250810190611625919061215a565b506040516370a0823160e01b81523060048201526000906001600160a01b038416906370a082319060240160206040518083038186803b15801561166857600080fd5b505afa15801561167c573d6000803e3d6000fd5b505050506040513d601f19601f820116820180604052508101906116a091906123e9565b6040517fa0712d68000000000000000000000000000000000000000000000000000000008152600481018790529091506000906001600160a01b0385169063a0712d6890602401602060405180830381600087803b15801561170157600080fd5b505af1158015611715573d6000803e3d6000fd5b505050506040513d601f19601f8201168201806040525081019061173991906123e9565b905080156117895760405162461bcd60e51b815260206004820152601560248201527f4572726f72206d696e74696e672063546f6b656e73000000000000000000000060448201526064016106e4565b6040516370a0823160e01b815230600482015260009083906001600160a01b038716906370a082319060240160206040518083038186803b1580156117cd57600080fd5b505afa1580156117e1573d6000803e3d6000fd5b505050506040513d601f19601f8201168201806040525081019061180591906123e9565b61180f919061242b565b905080600087604051611822919061233c565b90815260200160405180910390208a8a6040516118409291906120eb565b9081526020016040518091039020600082825461185d919061248f565b9091555050505050505050505050565b600060018360405161187f919061233c565b908152604051908190036020018120546349ad89fb60e11b82526001600160a01b0390811692506000917f00000000000000000000000000000000000000000000000000000000000000009091169063935b13f6906118e2908790600401612402565b60206040518083038186803b1580156118fa57600080fd5b505afa15801561190e573d6000803e3d6000fd5b505050506040513d601f19601f82011682018060405250810190611932919061219f565b6040517fc5ebeaec000000000000000000000000000000000000000000000000000000008152600481018590529091506001600160a01b0383169063c5ebeaec90602401602060405180830381600087803b15801561199057600080fd5b505af11580156119a4573d6000803e3d6000fd5b505050506040513d601f19601f820116820180604052508101906119c891906123e9565b5060405163095ea7b360e01b81526001600160a01b037f0000000000000000000000000000000000000000000000000000000000000000811660048301526024820185905282169063095ea7b390604401602060405180830381600087803b158015611a3357600080fd5b505af1158015611a47573d6000803e3d6000fd5b505050506040513d601f19601f82011682018060405250810190611a6b919061215a565b506040516326ef699d60e01b81526001600160a01b037f000000000000000000000000000000000000000000000000000000000000000016906326ef699d90611ac0908a908a908a908a908a90600401612442565b600060405180830381600087803b158015611ada57600080fd5b505af1158015610724573d6000803e3d6000fd5b60008083601f840112611b0057600080fd5b50813567ffffffffffffffff811115611b1857600080fd5b602083019150836020828501011115611b3057600080fd5b9250929050565b600080600080600080600080600060a08a8c031215611b5557600080fd5b893567ffffffffffffffff80821115611b6d57600080fd5b611b798d838e01611aee565b909b50995060208c0135915080821115611b9257600080fd5b611b9e8d838e01611aee565b909950975060408c0135915080821115611bb757600080fd5b611bc38d838e01611aee565b909750955060608c0135915080821115611bdc57600080fd5b50611be98c828d01611aee565b9a9d999c50979a9699959894979660800135949350505050565b60008060008060008060008060008060c08b8d031215611c2257600080fd5b8a35995060208b013567ffffffffffffffff80821115611c4157600080fd5b611c4d8e838f01611aee565b909b50995060408d0135915080821115611c6657600080fd5b611c728e838f01611aee565b909950975060608d0135915080821115611c8b57600080fd5b611c978e838f01611aee565b909750955060808d0135915080821115611cb057600080fd5b50611cbd8d828e01611aee565b9150809450508092505060a08b013590509295989b9194979a5092959850565b600080600060408486031215611cf257600080fd5b83359250602084013567ffffffffffffffff811115611d1057600080fd5b611d1c86828701611aee565b9497909650939450505050565b60008060008060008060006080888a031215611d4457600080fd5b87359650602088013567ffffffffffffffff80821115611d6357600080fd5b611d6f8b838c01611aee565b909850965060408a0135915080821115611d8857600080fd5b611d948b838c01611aee565b909650945060608a0135915080821115611dad57600080fd5b50611dba8a828b01611aee565b989b979a50959850939692959293505050565b634e487b7160e01b600052604160045260246000fd5b604051601f8201601f1916810167ffffffffffffffff81118282101715611e0c57611e0c611dcd565b604052919050565b600067ffffffffffffffff821115611e2e57611e2e611dcd565b50601f01601f191660200190565b600082601f830112611e4d57600080fd5b8135611e60611e5b82611e14565b611de3565b818152846020838601011115611e7557600080fd5b816020850160208301376000918101602001919091529392505050565b60008060408385031215611ea557600080fd5b823567ffffffffffffffff80821115611ebd57600080fd5b611ec986838701611e3c565b93506020850135915080821115611edf57600080fd5b50611eec85828601611e3c565b9150509250929050565b60008060008060008060608789031215611f0f57600080fd5b863567ffffffffffffffff80821115611f2757600080fd5b611f338a838b01611aee565b90985096506020890135915080821115611f4c57600080fd5b611f588a838b01611aee565b90965094506040890135915080821115611f7157600080fd5b50611f7e89828a01611aee565b979a9699509497509295939492505050565b60008060008060008060008060a0898b031215611fac57600080fd5b883567ffffffffffffffff80821115611fc457600080fd5b611fd08c838d01611aee565b909a50985060208b0135915080821115611fe957600080fd5b611ff58c838d01611aee565b909850965060408b013591508082111561200e57600080fd5b61201a8c838d01611aee565b909650945060608b0135935060808b013591508082111561203a57600080fd5b506120478b828c01611e3c565b9150509295985092959890939650565b81835281816020850137506000828201602090810191909152601f909101601f19169091010190565b60c08152600061209460c083018c8e612057565b82810360208401526120a7818b8d612057565b905082810360408401526120bc81898b612057565b905082810360608401526120d1818789612057565b6080840195909552505060a0015298975050505050505050565b8183823760009101908152919050565b89815260c06020820152600061211560c083018a8c612057565b828103604084015261212881898b612057565b90508660608401528281036080840152612143818688612057565b9150508260a08301529a9950505050505050505050565b60006020828403121561216c57600080fd5b8151801515811461217c57600080fd5b9392505050565b602081526000612197602083018486612057565b949350505050565b6000602082840312156121b157600080fd5b81516001600160a01b038116811461217c57600080fd5b8681526080602082015260006121e2608083018789612057565b82810360408401526121f5818688612057565b915050826060830152979650505050505050565b60005b8381101561222457818101518382015260200161220c565b83811115612233576000848401525b50505050565b600082601f83011261224a57600080fd5b8151612258611e5b82611e14565b81815284602083860101111561226d57600080fd5b612197826020830160208701612209565b60008060006060848603121561229357600080fd5b835167ffffffffffffffff808211156122ab57600080fd5b6122b787838801612239565b94506020860151935060408601519150808211156122d457600080fd5b506122e186828701612239565b9150509250925092565b6080815260006122ff60808301898b612057565b828103602084015261231281888a612057565b90508281036040840152612327818688612057565b91505082606083015298975050505050505050565b6000825161234e818460208701612209565b9190910192915050565b60008151808452612370816020860160208601612209565b601f01601f19169290920160200192915050565b60a08152600061239860a083018a8c612057565b82810360208401526123ab81898b612057565b905082810360408401526123c0818789612057565b905084606084015282810360808401526123da8185612358565b9b9a5050505050505050505050565b6000602082840312156123fb57600080fd5b5051919050565b60208152600061217c6020830184612358565b634e487b7160e01b600052601160045260246000fd5b60008282101561243d5761243d612415565b500390565b608081526000612456608083018789612057565b82810360208401526124688187612358565b9050828103604084015261247c8186612358565b9150508260608301529695505050505050565b600082198211156124a2576124a2612415565b50019056fea2646970667358221220f2d71a85a3720d1100e5594a5f0d8702b43956e92daaf1853517173b2522640564736f6c63430008090033",
  "linkReferences": {},
  "deployedLinkReferences": {}
}