{
  "_format": "hh-sol-artifact-1",
  "contractName": "NameNft",
  "sourceName": "examples/nft-name/NftName.sol",
  "abi": [
    {
      "inputs": [
        {
          "internalType": "address",
          "name": "gateway_",
          "type": "address"
        },
        {
          "internalType": "address",
          "name": "gasReceiver_",
          "type": "address"
        }
      ],
      "stateMutability": "nonpayable",
      "type": "constructor"
    },
    {
      "inputs": [],
      "name": "AlreadyInitialized",
      "type": "error"
    },
    {
      "inputs": [],
      "name": "InvalidAddress",
      "type": "error"
    },
    {
      "inputs": [],
      "name": "InvalidCodeHash",
      "type": "error"
    },
    {
      "inputs": [],
      "name": "InvalidImplementation",
      "type": "error"
    },
    {
      "inputs": [],
      "name": "InvalidOwner",
      "type": "error"
    },
    {
      "inputs": [],
      "name": "NotApprovedByGateway",
      "type": "error"
    },
    {
      "inputs": [],
      "name": "NotOwner",
      "type": "error"
    },
    {
      "inputs": [],
      "name": "NotProxy",
      "type": "error"
    },
    {
      "inputs": [],
      "name": "SetupFailed",
      "type": "error"
    },
    {
      "anonymous": false,
      "inputs": [
        {
          "indexed": true,
          "internalType": "address",
          "name": "newOwner",
          "type": "address"
        }
      ],
      "name": "OwnershipTransferred",
      "type": "event"
    },
    {
      "anonymous": false,
      "inputs": [
        {
          "indexed": true,
          "internalType": "string",
          "name": "msg1",
          "type": "string"
        },
        {
          "indexed": true,
          "internalType": "uint256",
          "name": "msg2",
          "type": "uint256"
        }
      ],
      "name": "TestEvent",
      "type": "event"
    },
    {
      "anonymous": false,
      "inputs": [
        {
          "indexed": true,
          "internalType": "address",
          "name": "newImplementation",
          "type": "address"
        }
      ],
      "name": "Upgraded",
      "type": "event"
    },
    {
      "inputs": [
        {
          "internalType": "string",
          "name": "chainName_",
          "type": "string"
        },
        {
          "internalType": "address",
          "name": "contractaddr",
          "type": "address"
        }
      ],
      "name": "addOrUpdateSupportedChain",
      "outputs": [],
      "stateMutability": "nonpayable",
      "type": "function"
    },
    {
      "inputs": [
        {
          "internalType": "address",
          "name": "",
          "type": "address"
        }
      ],
      "name": "addresslist",
      "outputs": [
        {
          "internalType": "string",
          "name": "",
          "type": "string"
        }
      ],
      "stateMutability": "view",
      "type": "function"
    },
    {
      "inputs": [
        {
          "internalType": "address",
          "name": "toaddr",
          "type": "address"
        },
        {
          "internalType": "string",
          "name": "tochain",
          "type": "string"
        },
        {
          "internalType": "string",
          "name": "nftname",
          "type": "string"
        }
      ],
      "name": "authorization",
      "outputs": [],
      "stateMutability": "payable",
      "type": "function"
    },
    {
      "inputs": [],
      "name": "chainName",
      "outputs": [
        {
          "internalType": "string",
          "name": "",
          "type": "string"
        }
      ],
      "stateMutability": "view",
      "type": "function"
    },
    {
      "inputs": [],
      "name": "contractId",
      "outputs": [
        {
          "internalType": "bytes32",
          "name": "",
          "type": "bytes32"
        }
      ],
      "stateMutability": "pure",
      "type": "function"
    },
    {
      "inputs": [
        {
          "internalType": "address",
          "name": "toaddr",
          "type": "address"
        },
        {
          "internalType": "string",
          "name": "tochain",
          "type": "string"
        },
        {
          "internalType": "string",
          "name": "nftname",
          "type": "string"
        }
      ],
      "name": "deauthorization",
      "outputs": [],
      "stateMutability": "payable",
      "type": "function"
    },
    {
      "inputs": [
        {
          "internalType": "string",
          "name": "chainName_",
          "type": "string"
        }
      ],
      "name": "deleteSupportedChain",
      "outputs": [],
      "stateMutability": "nonpayable",
      "type": "function"
    },
    {
      "inputs": [
        {
          "internalType": "bytes32",
          "name": "commandId",
          "type": "bytes32"
        },
        {
          "internalType": "string",
          "name": "sourceChain",
          "type": "string"
        },
        {
          "internalType": "string",
          "name": "sourceAddress",
          "type": "string"
        },
        {
          "internalType": "bytes",
          "name": "payload",
          "type": "bytes"
        }
      ],
      "name": "execute",
      "outputs": [],
      "stateMutability": "nonpayable",
      "type": "function"
    },
    {
      "inputs": [
        {
          "internalType": "bytes32",
          "name": "commandId",
          "type": "bytes32"
        },
        {
          "internalType": "string",
          "name": "sourceChain",
          "type": "string"
        },
        {
          "internalType": "string",
          "name": "sourceAddress",
          "type": "string"
        },
        {
          "internalType": "bytes",
          "name": "payload",
          "type": "bytes"
        },
        {
          "internalType": "string",
          "name": "tokenSymbol",
          "type": "string"
        },
        {
          "internalType": "uint256",
          "name": "amount",
          "type": "uint256"
        }
      ],
      "name": "executeWithToken",
      "outputs": [],
      "stateMutability": "nonpayable",
      "type": "function"
    },
    {
      "inputs": [],
      "name": "gasReceiver",
      "outputs": [
        {
          "internalType": "contract IAxelarGasService",
          "name": "",
          "type": "address"
        }
      ],
      "stateMutability": "view",
      "type": "function"
    },
    {
      "inputs": [],
      "name": "gateway",
      "outputs": [
        {
          "internalType": "contract IAxelarGateway",
          "name": "",
          "type": "address"
        }
      ],
      "stateMutability": "view",
      "type": "function"
    },
    {
      "inputs": [],
      "name": "implementation",
      "outputs": [
        {
          "internalType": "address",
          "name": "implementation_",
          "type": "address"
        }
      ],
      "stateMutability": "view",
      "type": "function"
    },
    {
      "inputs": [
        {
          "internalType": "string",
          "name": "",
          "type": "string"
        }
      ],
      "name": "mintingResponse",
      "outputs": [
        {
          "internalType": "uint256",
          "name": "",
          "type": "uint256"
        }
      ],
      "stateMutability": "view",
      "type": "function"
    },
    {
      "inputs": [
        {
          "internalType": "string",
          "name": "",
          "type": "string"
        }
      ],
      "name": "nftMinting",
      "outputs": [
        {
          "internalType": "address",
          "name": "",
          "type": "address"
        }
      ],
      "stateMutability": "view",
      "type": "function"
    },
    {
      "inputs": [
        {
          "internalType": "address",
          "name": "",
          "type": "address"
        }
      ],
      "name": "nftOwnerAddress",
      "outputs": [
        {
          "internalType": "string",
          "name": "name",
          "type": "string"
        },
        {
          "internalType": "address",
          "name": "userAddress",
          "type": "address"
        },
        {
          "internalType": "bool",
          "name": "isOwner",
          "type": "bool"
        },
        {
          "internalType": "bool",
          "name": "isRightToUse",
          "type": "bool"
        }
      ],
      "stateMutability": "view",
      "type": "function"
    },
    {
      "inputs": [
        {
          "internalType": "uint256",
          "name": "",
          "type": "uint256"
        }
      ],
      "name": "nftlist",
      "outputs": [
        {
          "internalType": "string",
          "name": "name",
          "type": "string"
        },
        {
          "internalType": "address",
          "name": "userAddress",
          "type": "address"
        },
        {
          "internalType": "bool",
          "name": "isOwner",
          "type": "bool"
        },
        {
          "internalType": "bool",
          "name": "isRightToUse",
          "type": "bool"
        }
      ],
      "stateMutability": "view",
      "type": "function"
    },
    {
      "inputs": [
        {
          "internalType": "uint256",
          "name": "",
          "type": "uint256"
        }
      ],
      "name": "original",
      "outputs": [
        {
          "internalType": "bytes",
          "name": "",
          "type": "bytes"
        }
      ],
      "stateMutability": "view",
      "type": "function"
    },
    {
      "inputs": [],
      "name": "owner",
      "outputs": [
        {
          "internalType": "address",
          "name": "owner_",
          "type": "address"
        }
      ],
      "stateMutability": "view",
      "type": "function"
    },
    {
      "inputs": [
        {
          "internalType": "address",
          "name": "addr",
          "type": "address"
        }
      ],
      "name": "queryByAddress",
      "outputs": [
        {
          "components": [
            {
              "internalType": "string",
              "name": "name",
              "type": "string"
            },
            {
              "internalType": "address",
              "name": "userAddress",
              "type": "address"
            },
            {
              "internalType": "bool",
              "name": "isOwner",
              "type": "bool"
            },
            {
              "internalType": "bool",
              "name": "isRightToUse",
              "type": "bool"
            }
          ],
          "internalType": "struct NameNft.NftName",
          "name": "",
          "type": "tuple"
        }
      ],
      "stateMutability": "view",
      "type": "function"
    },
    {
      "inputs": [
        {
          "internalType": "string",
          "name": "name",
          "type": "string"
        }
      ],
      "name": "queryByName",
      "outputs": [
        {
          "components": [
            {
              "internalType": "string",
              "name": "name",
              "type": "string"
            },
            {
              "internalType": "address",
              "name": "userAddress",
              "type": "address"
            },
            {
              "internalType": "bool",
              "name": "isOwner",
              "type": "bool"
            },
            {
              "internalType": "bool",
              "name": "isRightToUse",
              "type": "bool"
            }
          ],
          "internalType": "struct NameNft.NftName",
          "name": "",
          "type": "tuple"
        }
      ],
      "stateMutability": "view",
      "type": "function"
    },
    {
      "inputs": [
        {
          "internalType": "bytes",
          "name": "data",
          "type": "bytes"
        }
      ],
      "name": "setup",
      "outputs": [],
      "stateMutability": "nonpayable",
      "type": "function"
    },
    {
      "inputs": [
        {
          "internalType": "string",
          "name": "name",
          "type": "string"
        }
      ],
      "name": "startMint",
      "outputs": [],
      "stateMutability": "payable",
      "type": "function"
    },
    {
      "inputs": [
        {
          "internalType": "uint256",
          "name": "",
          "type": "uint256"
        }
      ],
      "name": "supportedchains",
      "outputs": [
        {
          "internalType": "string",
          "name": "chainName",
          "type": "string"
        },
        {
          "internalType": "address",
          "name": "contractaddr",
          "type": "address"
        }
      ],
      "stateMutability": "view",
      "type": "function"
    },
    {
      "inputs": [
        {
          "internalType": "address",
          "name": "toaddr",
          "type": "address"
        },
        {
          "internalType": "string",
          "name": "tochain",
          "type": "string"
        },
        {
          "internalType": "string",
          "name": "nftname",
          "type": "string"
        }
      ],
      "name": "transfer",
      "outputs": [],
      "stateMutability": "payable",
      "type": "function"
    },
    {
      "inputs": [
        {
          "internalType": "address",
          "name": "newOwner",
          "type": "address"
        }
      ],
      "name": "transferOwnership",
      "outputs": [],
      "stateMutability": "nonpayable",
      "type": "function"
    },
    {
      "inputs": [
        {
          "internalType": "address",
          "name": "newImplementation",
          "type": "address"
        },
        {
          "internalType": "bytes32",
          "name": "newImplementationCodeHash",
          "type": "bytes32"
        },
        {
          "internalType": "bytes",
          "name": "params",
          "type": "bytes"
        }
      ],
      "name": "upgrade",
      "outputs": [],
      "stateMutability": "nonpayable",
      "type": "function"
    }
  ],
  "bytecode": "0x60c06040523480156200001157600080fd5b5060405162003d1938038062003d19833981016040819052620000349162000093565b816001600160a01b0381166200005d5760405163e6c4247b60e01b815260040160405180910390fd5b6001600160a01b039081166080521660a05250620000cb565b80516001600160a01b03811681146200008e57600080fd5b919050565b60008060408385031215620000a757600080fd5b620000b28362000076565b9150620000c26020840162000076565b90509250929050565b60805160a051613bf0620001296000396000818161039101528181610ce701528181610de40152611295015260008181610215015281816105ed0152818161092701528181610e7e0152818161133001526121100152613bf06000f3fe6080604052600436106101a05760003560e01c80638291286c116100e1578063a3499c731161008a578063dfd4b40111610064578063dfd4b40114610530578063f2fde38b14610550578063f32e534714610570578063f5bb63811461059057600080fd5b8063a3499c73146104c2578063cb2a5b92146104e2578063cb7ec3dc1461051057600080fd5b80638da5cb5b116100bb5780638da5cb5b146104365780639cd2161e1461046a5780639ded06df146104a257600080fd5b80638291286c146103c65780638824843e146104035780638af5b7db1461041657600080fd5b80635c60da1b1161014e57806370a7287b1161012857806370a7287b1461033f578063717eb03f1461035f57806380d14b4a1461037f57806381378af7146103b357600080fd5b80635c60da1b146102c8578063639d6923146102fc5780636c967a541461030f57600080fd5b80631c93b03a1161017f5780631c93b03a14610259578063205860311461027b57806349160658146102a857600080fd5b8062e9f9c7146101a5578063116191b6146102035780631a98b2e014610237575b600080fd5b3480156101b157600080fd5b506101e66101c0366004612fa4565b80516020818301810180516006825292820191909301209152546001600160a01b031681565b6040516001600160a01b0390911681526020015b60405180910390f35b34801561020f57600080fd5b506101e67f000000000000000000000000000000000000000000000000000000000000000081565b34801561024357600080fd5b5061025761025236600461303e565b6105a3565b005b34801561026557600080fd5b5061026e6106ae565b6040516101fa9190613170565b34801561028757600080fd5b5061029b61029636600461318a565b61073c565b6040516101fa91906131cc565b3480156102b457600080fd5b506102576102c336600461321f565b6108dd565b3480156102d457600080fd5b507f360894a13ba1a3210667c828492db98dca3e2076cc3735a920a3ca505d382bbc546101e6565b61025761030a36600461318a565b6109ed565b34801561031b57600080fd5b5061032f61032a3660046132c3565b610f3c565b6040516101fa94939291906132dc565b34801561034b57600080fd5b5061026e61035a36600461332b565b611017565b34801561036b57600080fd5b5061026e61037a3660046132c3565b611030565b34801561038b57600080fd5b506101e67f000000000000000000000000000000000000000000000000000000000000000081565b6102576103c1366004613348565b611049565b3480156103d257600080fd5b507f8b88dae839acea7ff6a270cef523f6c04d348796d1890294879850ff17ecd6cc5b6040519081526020016101fa565b610257610411366004613348565b6113a3565b34801561042257600080fd5b506102576104313660046133cb565b61152e565b34801561044257600080fd5b507f02016836a56b71f0d02689e69e326f4f4c1b9057164ef592671cf0d37c8040c0546101e6565b34801561047657600080fd5b506103f5610485366004612fa4565b805160208183018101805160078252928201919093012091525481565b3480156104ae57600080fd5b506102576104bd36600461318a565b611699565b3480156104ce57600080fd5b506102576104dd366004613422565b611712565b3480156104ee57600080fd5b506105026104fd3660046132c3565b611a2e565b6040516101fa92919061347e565b34801561051c57600080fd5b5061025761052b36600461318a565b611af3565b34801561053c57600080fd5b5061029b61054b36600461332b565b611bad565b34801561055c57600080fd5b5061025761056b36600461332b565b611d5c565b34801561057c57600080fd5b5061032f61058b36600461332b565b611e44565b61025761059e366004613348565b611e5f565b600085856040516105b59291906134a9565b6040519081900381207f1876eed900000000000000000000000000000000000000000000000000000000825291506001600160a01b037f00000000000000000000000000000000000000000000000000000000000000001690631876eed990610632908e908e908e908e908e9089908d908d908d906004016134e2565b602060405180830381600087803b15801561064c57600080fd5b505af1158015610660573d6000803e3d6000fd5b505050506040513d601f19601f820116820180604052508101906106849190613556565b6106a157604051631403112d60e21b815260040160405180910390fd5b5050505050505050505050565b600280546106bb90613571565b80601f01602080910402602001604051908101604052809291908181526020018280546106e790613571565b80156107345780601f1061070957610100808354040283529160200191610734565b820191906000526020600020905b81548152906001019060200180831161071757829003601f168201915b505050505081565b60408051608081018252606080825260006020830181905292820183905281019190915260006107a184848080601f016020809104026020016040519081016040528093929190818152602001838380828437600092019190915250611fea92505050565b9050600081126108aa57600481815481106107be576107be6135ac565b90600052602060002090600202016040518060800160405290816000820180546107e790613571565b80601f016020809104026020016040519081016040528092919081815260200182805461081390613571565b80156108605780601f1061083557610100808354040283529160200191610860565b820191906000526020600020905b81548152906001019060200180831161084357829003601f168201915b5050509183525050600191909101546001600160a01b038116602083015260ff600160a01b8204811615156040840152600160a81b90910416151560609091015291506108d79050565b50506040805160a08101825260006080820181815282526020820181905291810182905260608101919091525b92915050565b600082826040516108ef9291906134a9565b6040519081900381207f5f6970c300000000000000000000000000000000000000000000000000000000825291506001600160a01b037f00000000000000000000000000000000000000000000000000000000000000001690635f6970c390610966908b908b908b908b908b9089906004016135c2565b602060405180830381600087803b15801561098057600080fd5b505af1158015610994573d6000803e3d6000fd5b505050506040513d601f19601f820116820180604052508101906109b89190613556565b6109d557604051631403112d60e21b815260040160405180910390fd5b6109e3878787878787612061565b5050505050505050565b6040517f61616161616161616161000000000000000000000000000000000000000000008152600190600a01604051908190038120907f8664091c72f432694e9c2916dc0b31a5ca242dce1b20da674b6f228f24c08abd90600090a36040517f62626262626262626262000000000000000000000000000000000000000000008152600290600a01604051908190038120907f8664091c72f432694e9c2916dc0b31a5ca242dce1b20da674b6f228f24c08abd90600090a3610ae482828080601f01602080910402602001604051908101604052809392919081815260200183838082843760009201919091525061232892505050565b610b355760405162461bcd60e51b815260206004820152601360248201527f6e616d6520616c726561647920696e207573650000000000000000000000000060448201526064015b60405180910390fd5b60006001600160a01b031660068383604051610b529291906134a9565b908152604051908190036020019020546001600160a01b031614610bb85760405162461bcd60e51b815260206004820152601360248201527f6e616d65206973206d696e74696e67206e6f77000000000000000000000000006044820152606401610b2c565b3360068383604051610bcb9291906134a9565b90815260405190819003602001902080546001600160a01b03929092166001600160a01b031990921691909117905560005b600354811015610f375760038181548110610c1a57610c1a6135ac565b9060005260206000209060020201600001604051610c389190613603565b60405180910390206002604051610c4f9190613603565b604051809103902014610f25576000808484604051602001610c72929190613675565b60408051601f1981840301815290829052610c90929160200161369f565b60405160208183030381529060405290506000610cdb60038481548110610cb957610cb96135ac565b60009182526020909120600160029092020101546001600160a01b03166123a1565b90506001600160a01b037f000000000000000000000000000000000000000000000000000000000000000016630c93e3bb610d17600a346136ec565b3060038781548110610d2b57610d2b6135ac565b90600052602060002090600202016000018587336040518763ffffffff1660e01b8152600401610d5f959493929190613785565b6000604051808303818588803b158015610d7857600080fd5b505af1158015610d8c573d6000803e3d6000fd5b505050505060006001808787604051602001610daa939291906137e4565b60408051601f1981840301815290829052610dc8929160200161369f565b60408051601f1981840301815291905290506001600160a01b037f000000000000000000000000000000000000000000000000000000000000000016630c93e3bb610e14600a346136ec565b610e1d85612671565b6002610e28306123a1565b86336040518763ffffffff1660e01b8152600401610e4a959493929190613785565b6000604051808303818588803b158015610e6357600080fd5b505af1158015610e77573d6000803e3d6000fd5b50505050507f00000000000000000000000000000000000000000000000000000000000000006001600160a01b0316631c92115f60038681548110610ebe57610ebe6135ac565b906000526020600020906002020160000184866040518463ffffffff1660e01b8152600401610eef93929190613809565b600060405180830381600087803b158015610f0957600080fd5b505af1158015610f1d573d6000803e3d6000fd5b505050505050505b80610f2f8161384c565b915050610bfd565b505050565b60048181548110610f4c57600080fd5b9060005260206000209060020201600091509050806000018054610f6f90613571565b80601f0160208091040260200160405190810160405280929190818152602001828054610f9b90613571565b8015610fe85780601f10610fbd57610100808354040283529160200191610fe8565b820191906000526020600020905b815481529060010190602001808311610fcb57829003601f168201915b505050600190930154919250506001600160a01b0381169060ff600160a01b8204811691600160a81b90041684565b600160205260009081526040902080546106bb90613571565b600060208190529081526040902080546106bb90613571565b81816040516110599291906134a9565b60408051918290038220336000908152600560205291909120909161107e9190613603565b6040518091039020146110bf5760405162461bcd60e51b81526020600482015260096024820152682727aa2fa7aba722a960b91b6044820152606401610b2c565b60026040516110ce9190613603565b604051809103902084846040516110e69291906134a9565b6040518091039020141561113c5761113782828080601f0160208091040260200160405190810160405280939291908181526020018383808284376000920191909152508992503391506127709050565b61139c565b61117b84848080601f01602080910402602001604051908101604052809392919081815260200183838082843760009201919091525061278492505050565b6111bb5760405162461bcd60e51b81526020600482015260116024820152702727aa2fa9aaa82827a92a2fa1a420a4a760791b6044820152606401610b2c565b6111fc82828080601f0160208091040260200160405190810160405280939291908181526020018383808284376000920191909152503392506127fd915050565b6000600483838860405160200161121593929190613867565b60408051601f1981840301815290829052611233929160200161369f565b60408051601f198184030181526020601f8801819004810284018101909252868352925060009161129191611283919089908990819084018382808284376000920191909152506128a192505050565b6001600160a01b03166123a1565b90507f00000000000000000000000000000000000000000000000000000000000000006001600160a01b0316630c93e3bb343089898688336040518863ffffffff1660e01b81526004016112ea96959493929190613894565b6000604051808303818588803b15801561130357600080fd5b505af1158015611317573d6000803e3d6000fd5b5050604051631c92115f60e01b81526001600160a01b037f0000000000000000000000000000000000000000000000000000000000000000169350631c92115f925061136e915089908990869088906004016138f5565b600060405180830381600087803b15801561138857600080fd5b505af11580156106a1573d6000803e3d6000fd5b5050505050565b60026040516113b29190613603565b604051809103902084846040516113ca9291906134a9565b604051809103902014156114205760405162461bcd60e51b815260206004820152601960248201527f43555252454e545f434841494e5f4e4f545f535550504f5254000000000000006044820152606401610b2c565b81816040516114309291906134a9565b6040805191829003822033600090815260056020529190912090916114559190613603565b6040518091039020146114965760405162461bcd60e51b81526020600482015260096024820152682727aa2fa7aba722a960b91b6044820152606401610b2c565b6114d584848080601f01602080910402602001604051908101604052809392919081815260200183838082843760009201919091525061278492505050565b6115155760405162461bcd60e51b81526020600482015260116024820152702727aa2fa9aaa82827a92a2fa1a420a4a760791b6044820152606401610b2c565b6000600383838860405160200161121593929190613867565b60005b6003548110156115f3576003818154811061154e5761154e6135ac565b906000526020600020906002020160000160405161156c9190613603565b604051809103902084846040516115849291906134a9565b604051809103902014156115e15781600382815481106115a6576115a66135ac565b906000526020600020906002020160010160006101000a8154816001600160a01b0302191690836001600160a01b0316021790555050505050565b806115eb8161384c565b915050611531565b506040805160606020601f860181900402820181018352918101848152600392829190879087908190850183828082843760009201829052509385525050506001600160a01b03851660209283015283546001810185559381528190208251805193946002029091019261166a9284920190612e21565b5060209190910151600190910180546001600160a01b0319166001600160a01b03909216919091179055505050565b60006116c37f360894a13ba1a3210667c828492db98dca3e2076cc3735a920a3ca505d382bbc5490565b6001600160a01b03161415611704576040517fbf10dd3a00000000000000000000000000000000000000000000000000000000815260040160405180910390fd5b61170e828261293f565b5050565b3361173b7f02016836a56b71f0d02689e69e326f4f4c1b9057164ef592671cf0d37c8040c05490565b6001600160a01b031614611762576040516330cd747160e01b815260040160405180910390fd5b306001600160a01b0316638291286c6040518163ffffffff1660e01b815260040160206040518083038186803b15801561179b57600080fd5b505afa1580156117af573d6000803e3d6000fd5b505050506040513d601f19601f820116820180604052508101906117d3919061393a565b846001600160a01b0316638291286c6040518163ffffffff1660e01b815260040160206040518083038186803b15801561180c57600080fd5b505afa158015611820573d6000803e3d6000fd5b505050506040513d601f19601f82011682018060405250810190611844919061393a565b1461187b576040517f68155f9a00000000000000000000000000000000000000000000000000000000815260040160405180910390fd5b836001600160a01b03163f83146118be576040517f8f84fb2400000000000000000000000000000000000000000000000000000000815260040160405180910390fd5b80156119d3576000846001600160a01b0316639ded06df60e01b84846040516024016118eb929190613675565b60408051601f198184030181529181526020820180517bffffffffffffffffffffffffffffffffffffffffffffffffffffffff167fffffffff000000000000000000000000000000000000000000000000000000009094169390931790925290516119569190613953565b600060405180830381855af49150503d8060008114611991576040519150601f19603f3d011682016040523d82523d6000602084013e611996565b606091505b50509050806119d1576040517f97905dfb00000000000000000000000000000000000000000000000000000000815260040160405180910390fd5b505b6040516001600160a01b038516907fbc7cd75a20ee27fd9adebab32041f755214dbc6bffa90cc0225b39da2e5c2d3b90600090a25050507f360894a13ba1a3210667c828492db98dca3e2076cc3735a920a3ca505d382bbc55565b60038181548110611a3e57600080fd5b9060005260206000209060020201600091509050806000018054611a6190613571565b80601f0160208091040260200160405190810160405280929190818152602001828054611a8d90613571565b8015611ada5780601f10611aaf57610100808354040283529160200191611ada565b820191906000526020600020905b815481529060010190602001808311611abd57829003601f168201915b505050600190930154919250506001600160a01b031682565b60005b600354811015610f375760038181548110611b1357611b136135ac565b9060005260206000209060020201600001604051611b319190613603565b60405180910390208383604051611b499291906134a9565b60405180910390201415611b9b5760038181548110611b6a57611b6a6135ac565b60009182526020822060029091020190611b848282612ea5565b5060010180546001600160a01b0319169055505050565b80611ba58161384c565b915050611af6565b6040805160808101825260608082526000602083018190529282018390528101829052905b600454811015611d2b57826001600160a01b031660048281548110611bf957611bf96135ac565b60009182526020909120600160029092020101546001600160a01b03161415611d195760048181548110611c2f57611c2f6135ac565b9060005260206000209060020201604051806080016040529081600082018054611c5890613571565b80601f0160208091040260200160405190810160405280929190818152602001828054611c8490613571565b8015611cd15780601f10611ca657610100808354040283529160200191611cd1565b820191906000526020600020905b815481529060010190602001808311611cb457829003601f168201915b5050509183525050600191909101546001600160a01b038116602083015260ff600160a01b8204811615156040840152600160a81b9091041615156060909101529392505050565b80611d238161384c565b915050611bd2565b50506040805160a0810182526000608082018181528252602082018190529181018290526060810191909152919050565b33611d857f02016836a56b71f0d02689e69e326f4f4c1b9057164ef592671cf0d37c8040c05490565b6001600160a01b031614611dac576040516330cd747160e01b815260040160405180910390fd5b6001600160a01b038116611dec576040517f49e27cff00000000000000000000000000000000000000000000000000000000815260040160405180910390fd5b6040516001600160a01b038216907f04dba622d284ed0014ee4b9a6a68386be1a4c08a4913ae272de89199cc68616390600090a27f02016836a56b71f0d02689e69e326f4f4c1b9057164ef592671cf0d37c8040c055565b600560205260009081526040902080548190610f6f90613571565b6002604051611e6e9190613603565b60405180910390208484604051611e869291906134a9565b60405180910390201415611edc5760405162461bcd60e51b815260206004820152601960248201527f43555252454e545f434841494e5f4e4f545f535550504f5254000000000000006044820152606401610b2c565b8181604051611eec9291906134a9565b604080519182900382203360009081526005602052919091209091611f119190613603565b604051809103902014611f525760405162461bcd60e51b81526020600482015260096024820152682727aa2fa7aba722a960b91b6044820152606401610b2c565b611f9184848080601f01602080910402602001604051908101604052809392919081815260200183838082843760009201919091525061278492505050565b611fd15760405162461bcd60e51b81526020600482015260116024820152702727aa2fa9aaa82827a92a2fa1a420a4a760791b6044820152606401610b2c565b6000600283838860405160200161121593929190613867565b6000805b60045481101561205757828051906020012060048281548110612013576120136135ac565b90600052602060002090600202016000016040516120319190613603565b604051809103902014156120455792915050565b8061204f8161384c565b915050611fee565b5060001992915050565b6000806120708385018561396f565b9092509050600082600481111561208957612089613689565b1415612187576000818060200190518101906120a59190613a1c565b905060006120b282612328565b90506000600182846040516020016120cb929190613a51565b60408051601f19818403018152908290526120e9929160200161369f565b60408051601f1981840301815290829052631c92115f60e01b825291506001600160a01b037f00000000000000000000000000000000000000000000000000000000000000001690631c92115f9061214d908e908e908e908e908890600401613a6c565b600060405180830381600087803b15801561216757600080fd5b505af115801561217b573d6000803e3d6000fd5b505050505050506109e3565b600182600481111561219b5761219b613689565b141561225f57600080828060200190518101906121b89190613ab3565b91509150816121cf576121ca816129ae565b612258565b6003546121de90600290613af7565b6007826040516121ee9190613953565b908152602001604051809103902054141561220c576121ca816129fe565b60078160405161221c9190613953565b90815260200160405180910390205460016122379190613b0e565b6007826040516122479190613953565b908152604051908190036020019020555b50506109e3565b600282600481111561227357612273613689565b141561229e57600080828060200190518101906122909190613b26565b915091506122588282612a35565b60038260048111156122b2576122b2613689565b14156122dd57600080828060200190518101906122cf9190613b26565b915091506122588282612b23565b60048260048111156122f1576122f1613689565b14156109e3576000808280602001905181019061230e9190613b26565b9150915061231c8282612c09565b50505050505050505050565b6000805b6004548110156123985760048181548110612349576123496135ac565b90600052602060002090600202016000016040516123679190613603565b6040518091039020838051906020012014156123865750600092915050565b806123908161384c565b91505061232c565b50600192915050565b604051606082811b6bffffffffffffffffffffffff191660208301529060009060340160408051601f19818403018152828201909152601082527f303132333435363738396162636465660000000000000000000000000000000060208301528051909250600090612414906002613b78565b61241f906002613b0e565b67ffffffffffffffff81111561243757612437612ef7565b6040519080825280601f01601f191660200182016040528015612461576020820181803683370190505b5090507f300000000000000000000000000000000000000000000000000000000000000081600081518110612498576124986135ac565b60200101906001600160f81b031916908160001a9053507f7800000000000000000000000000000000000000000000000000000000000000816001815181106124e3576124e36135ac565b60200101906001600160f81b031916908160001a90535060005b83518110156126685782600485838151811061251b5761251b6135ac565b016020015182517fff0000000000000000000000000000000000000000000000000000000000000090911690911c60f81c90811061255b5761255b6135ac565b01602001517fff00000000000000000000000000000000000000000000000000000000000000168261258e836002613b78565b612599906002613b0e565b815181106125a9576125a96135ac565b60200101906001600160f81b031916908160001a905350828482815181106125d3576125d36135ac565b602091010151815160f89190911c600f169081106125f3576125f36135ac565b01602001517fff000000000000000000000000000000000000000000000000000000000000001682612626836002613b78565b612631906003613b0e565b81518110612641576126416135ac565b60200101906001600160f81b031916908160001a9053506126618161384c565b90506124fd565b50949350505050565b80516000908290602a146126885750600092915050565b60008060025b602a811015612766578381815181106126a9576126a96135ac565b016020015160f81c9150606182108015906126c8575060668260ff1611155b156126df576126d8605783613b97565b915061273b565b60418260ff16101580156126f7575060468260ff1611155b15612707576126d8603783613b97565b60308260ff161015801561271f575060398260ff1611155b1561272f576126d8603083613b97565b50600095945050505050565b6002612748826029613af7565b60ff8416911b1b92909217918061275e8161384c565b91505061268e565b5090949350505050565b61277a83826127fd565b610f378383612c72565b6000805b6003548110156127f4578280519060200120600382815481106127ad576127ad6135ac565b90600052602060002090600202016000016040516127cb9190613603565b604051809103902014156127e25750600192915050565b806127ec8161384c565b915050612788565b50600092915050565b600061280883611fea565b90506004818154811061281d5761281d6135ac565b600091825260208220600290910201906128378282612ea5565b50600101805475ffffffffffffffffffffffffffffffffffffffffffff191690556001600160a01b03821660009081526005602052604081209061287b8282612ea5565b50600101805475ffffffffffffffffffffffffffffffffffffffffffff19169055505050565b6000805b6003548110156127f4578280519060200120600382815481106128ca576128ca6135ac565b90600052602060002090600202016000016040516128e89190613603565b6040518091039020141561292d5760038181548110612909576129096135ac565b60009182526020909120600160029092020101546001600160a01b03169392505050565b806129378161384c565b9150506128a5565b600061294d82840184612fa4565b90506002805461295c90613571565b159050612995576040517f0dc149f000000000000000000000000000000000000000000000000000000000815260040160405180910390fd5b80516129a8906002906020840190612e21565b50505050565b6006816040516129be9190613953565b90815260405190819003602001812080546001600160a01b03191690556007906129e9908390613953565b90815260200160405180910390206000905550565b6000600682604051612a109190613953565b908152604051908190036020019020546001600160a01b0316905061170e8282612c72565b604080516080810182528381526001600160a01b038316602082015260009181019190915260016060820152612a6a83611fea565b6000191415610f3757600480546001810182556000919091528151805183926002027f8a35acfbc15ff81a39ae7d344fd709f28e8600b4aa8c65c6b64bfe7fe36bd19b0191612abe91839160200190612e21565b5060208201516001909101805460408401516060909401511515600160a81b0260ff60a81b19941515600160a01b0274ffffffffffffffffffffffffffffffffffffffffff199092166001600160a01b03909416939093171792909216179055505050565b6000612b2e83611fea565b905060008112158015612b785750816001600160a01b031660048281548110612b5957612b596135ac565b60009182526020909120600160029092020101546001600160a01b0316145b15610f3757600060048281548110612b9257612b926135ac565b906000526020600020906002020160010160006101000a8154816001600160a01b0302191690836001600160a01b03160217905550600060048281548110612bdc57612bdc6135ac565b906000526020600020906002020160010160156101000a81548160ff021916908315150217905550505050565b6000612c1483611fea565b90506000811261277a5760048181548110612c3157612c316135ac565b60009182526020822060029091020190612c4b8282612ea5565b50600101805475ffffffffffffffffffffffffffffffffffffffffffff19169055610f3783835b604080516080810182528381526001600160a01b0383166020808301829052600183850181905260608401526000918252600581529290208151805192938493612cbf9284920190612e21565b506020828101516001928301805460408601516060909601511515600160a81b0260ff60a81b19961515600160a01b0274ffffffffffffffffffffffffffffffffffffffffff199092166001600160a01b039094169390931717949094161790925560048054918201815560005282518051849360029093027f8a35acfbc15ff81a39ae7d344fd709f28e8600b4aa8c65c6b64bfe7fe36bd19b0192612d69928492910190612e21565b506020820151600190910180546040808501516060909501511515600160a81b0260ff60a81b19951515600160a01b0274ffffffffffffffffffffffffffffffffffffffffff199093166001600160a01b0390951694909417919091179390931691909117905551600690612ddf908590613953565b90815260405190819003602001812080546001600160a01b0319169055600790612e0a908590613953565b908152602001604051809103902060009055505050565b828054612e2d90613571565b90600052602060002090601f016020900481019282612e4f5760008555612e95565b82601f10612e6857805160ff1916838001178555612e95565b82800160010185558215612e95579182015b82811115612e95578251825591602001919060010190612e7a565b50612ea1929150612ee2565b5090565b508054612eb190613571565b6000825580601f10612ec1575050565b601f016020900490600052602060002090810190612edf9190612ee2565b50565b5b80821115612ea15760008155600101612ee3565b634e487b7160e01b600052604160045260246000fd5b604051601f8201601f1916810167ffffffffffffffff81118282101715612f3657612f36612ef7565b604052919050565b600067ffffffffffffffff821115612f5857612f58612ef7565b50601f01601f191660200190565b6000612f79612f7484612f3e565b612f0d565b9050828152838383011115612f8d57600080fd5b828260208301376000602084830101529392505050565b600060208284031215612fb657600080fd5b813567ffffffffffffffff811115612fcd57600080fd5b8201601f81018413612fde57600080fd5b612fed84823560208401612f66565b949350505050565b60008083601f84011261300757600080fd5b50813567ffffffffffffffff81111561301f57600080fd5b60208301915083602082850101111561303757600080fd5b9250929050565b60008060008060008060008060008060c08b8d03121561305d57600080fd5b8a35995060208b013567ffffffffffffffff8082111561307c57600080fd5b6130888e838f01612ff5565b909b50995060408d01359150808211156130a157600080fd5b6130ad8e838f01612ff5565b909950975060608d01359150808211156130c657600080fd5b6130d28e838f01612ff5565b909750955060808d01359150808211156130eb57600080fd5b506130f88d828e01612ff5565b9150809450508092505060a08b013590509295989b9194979a5092959850565b60005b8381101561313357818101518382015260200161311b565b838111156129a85750506000910152565b6000815180845261315c816020860160208601613118565b601f01601f19169290920160200192915050565b6020815260006131836020830184613144565b9392505050565b6000806020838503121561319d57600080fd5b823567ffffffffffffffff8111156131b457600080fd5b6131c085828601612ff5565b90969095509350505050565b6020815260008251608060208401526131e860a0840182613144565b90506001600160a01b0360208501511660408401526040840151151560608401526060840151151560808401528091505092915050565b60008060008060008060006080888a03121561323a57600080fd5b87359650602088013567ffffffffffffffff8082111561325957600080fd5b6132658b838c01612ff5565b909850965060408a013591508082111561327e57600080fd5b61328a8b838c01612ff5565b909650945060608a01359150808211156132a357600080fd5b506132b08a828b01612ff5565b989b979a50959850939692959293505050565b6000602082840312156132d557600080fd5b5035919050565b6080815260006132ef6080830187613144565b6001600160a01b039590951660208301525091151560408301521515606090910152919050565b6001600160a01b0381168114612edf57600080fd5b60006020828403121561333d57600080fd5b813561318381613316565b60008060008060006060868803121561336057600080fd5b853561336b81613316565b9450602086013567ffffffffffffffff8082111561338857600080fd5b61339489838a01612ff5565b909650945060408801359150808211156133ad57600080fd5b506133ba88828901612ff5565b969995985093965092949392505050565b6000806000604084860312156133e057600080fd5b833567ffffffffffffffff8111156133f757600080fd5b61340386828701612ff5565b909450925050602084013561341781613316565b809150509250925092565b6000806000806060858703121561343857600080fd5b843561344381613316565b935060208501359250604085013567ffffffffffffffff81111561346657600080fd5b61347287828801612ff5565b95989497509550505050565b6040815260006134916040830185613144565b90506001600160a01b03831660208301529392505050565b8183823760009101908152919050565b81835281816020850137506000828201602090810191909152601f909101601f19169091010190565b89815260c0602082015260006134fc60c083018a8c6134b9565b828103604084015261350f81898b6134b9565b9050866060840152828103608084015261352a8186886134b9565b9150508260a08301529a9950505050505050505050565b8051801515811461355157600080fd5b919050565b60006020828403121561356857600080fd5b61318382613541565b600181811c9082168061358557607f821691505b602082108114156135a657634e487b7160e01b600052602260045260246000fd5b50919050565b634e487b7160e01b600052603260045260246000fd5b8681526080602082015260006135dc6080830187896134b9565b82810360408401526135ef8186886134b9565b915050826060830152979650505050505050565b600080835461361181613571565b60018281168015613629576001811461363a57613669565b60ff19841687528287019450613669565b8760005260208060002060005b858110156136605781548a820152908401908201613647565b50505082870194505b50929695505050505050565b602081526000612fed6020830184866134b9565b634e487b7160e01b600052602160045260246000fd5b6000600584106136bf57634e487b7160e01b600052602160045260246000fd5b83825260406020830152612fed6040830184613144565b634e487b7160e01b600052601160045260246000fd5b60008261370957634e487b7160e01b600052601260045260246000fd5b500490565b6000815461371b81613571565b808552602060018381168015613738576001811461374c5761377a565b60ff1985168884015260408801955061377a565b866000528260002060005b858110156137725781548a8201860152908301908401613757565b890184019650505b505050505092915050565b60006001600160a01b03808816835260a060208401526137a860a084018861370e565b83810360408501526137ba8188613144565b905083810360608501526137ce8187613144565b9250508084166080840152509695505050505050565b83151581526040602082015260006138006040830184866134b9565b95945050505050565b60608152600061381c606083018661370e565b828103602084015261382e8186613144565b905082810360408401526138428185613144565b9695505050505050565b6000600019821415613860576138606136d6565b5060010190565b60408152600061387b6040830185876134b9565b90506001600160a01b0383166020830152949350505050565b60006001600160a01b03808916835260a060208401526138b860a08401888a6134b9565b83810360408501526138ca8188613144565b905083810360608501526138de8187613144565b925050808416608084015250979650505050505050565b6060815260006139096060830186886134b9565b828103602084015261391b8186613144565b9050828103604084015261392f8185613144565b979650505050505050565b60006020828403121561394c57600080fd5b5051919050565b60008251613965818460208701613118565b9190910192915050565b6000806040838503121561398257600080fd5b82356005811061399157600080fd5b9150602083013567ffffffffffffffff8111156139ad57600080fd5b8301601f810185136139be57600080fd5b6139cd85823560208401612f66565b9150509250929050565b600082601f8301126139e857600080fd5b81516139f6612f7482612f3e565b818152846020838601011115613a0b57600080fd5b612fed826020830160208701613118565b600060208284031215613a2e57600080fd5b815167ffffffffffffffff811115613a4557600080fd5b612fed848285016139d7565b8215158152604060208201526000612fed6040830184613144565b606081526000613a806060830187896134b9565b8281036020840152613a938186886134b9565b90508281036040840152613aa78185613144565b98975050505050505050565b60008060408385031215613ac657600080fd5b613acf83613541565b9150602083015167ffffffffffffffff811115613aeb57600080fd5b6139cd858286016139d7565b600082821015613b0957613b096136d6565b500390565b60008219821115613b2157613b216136d6565b500190565b60008060408385031215613b3957600080fd5b825167ffffffffffffffff811115613b5057600080fd5b613b5c858286016139d7565b9250506020830151613b6d81613316565b809150509250929050565b6000816000190483118215151615613b9257613b926136d6565b500290565b600060ff821660ff841680821015613bb157613bb16136d6565b9003939250505056fea2646970667358221220bc52d3b02c17d244a7198b07631558c03b597832dfa5ef18876f42d7b943e50b64736f6c63430008090033",
  "linkReferences": {},
  "deployedLinkReferences": {}
}