{
  "_format": "hh-sol-artifact-1",
  "contractName": "NameNft",
  "sourceName": "examples/nft-name/NftName.sol",
  "abi": [
    {
      "inputs": [
        {
          "internalType": "address",
          "name": "gateway_",
          "type": "address"
        },
        {
          "internalType": "address",
          "name": "gasReceiver_",
          "type": "address"
        }
      ],
      "stateMutability": "nonpayable",
      "type": "constructor"
    },
    {
      "inputs": [],
      "name": "AlreadyInitialized",
      "type": "error"
    },
    {
      "inputs": [],
      "name": "InvalidAddress",
      "type": "error"
    },
    {
      "inputs": [],
      "name": "InvalidCodeHash",
      "type": "error"
    },
    {
      "inputs": [],
      "name": "InvalidImplementation",
      "type": "error"
    },
    {
      "inputs": [],
      "name": "InvalidOwner",
      "type": "error"
    },
    {
      "inputs": [],
      "name": "NotApprovedByGateway",
      "type": "error"
    },
    {
      "inputs": [],
      "name": "NotOwner",
      "type": "error"
    },
    {
      "inputs": [],
      "name": "NotProxy",
      "type": "error"
    },
    {
      "inputs": [],
      "name": "SetupFailed",
      "type": "error"
    },
    {
      "anonymous": false,
      "inputs": [
        {
          "indexed": true,
          "internalType": "address",
          "name": "newOwner",
          "type": "address"
        }
      ],
      "name": "OwnershipTransferred",
      "type": "event"
    },
    {
      "anonymous": false,
      "inputs": [
        {
          "indexed": true,
          "internalType": "uint256",
          "name": "msgId",
          "type": "uint256"
        },
        {
          "indexed": true,
          "internalType": "enum NameNft.PayloadType",
          "name": "msgType",
          "type": "uint8"
        },
        {
          "indexed": true,
          "internalType": "enum NameNft.MessageResult",
          "name": "result",
          "type": "uint8"
        }
      ],
      "name": "ResponseEvent",
      "type": "event"
    },
    {
      "anonymous": false,
      "inputs": [
        {
          "indexed": true,
          "internalType": "address",
          "name": "newImplementation",
          "type": "address"
        }
      ],
      "name": "Upgraded",
      "type": "event"
    },
    {
      "inputs": [
        {
          "internalType": "string",
          "name": "chainName_",
          "type": "string"
        },
        {
          "internalType": "address",
          "name": "contractaddr",
          "type": "address"
        }
      ],
      "name": "addOrUpdateSupportedChain",
      "outputs": [],
      "stateMutability": "nonpayable",
      "type": "function"
    },
    {
      "inputs": [
        {
          "internalType": "address",
          "name": "",
          "type": "address"
        }
      ],
      "name": "addresslist",
      "outputs": [
        {
          "internalType": "string",
          "name": "",
          "type": "string"
        }
      ],
      "stateMutability": "view",
      "type": "function"
    },
    {
      "inputs": [
        {
          "internalType": "address",
          "name": "toaddr",
          "type": "address"
        },
        {
          "internalType": "string",
          "name": "tochain",
          "type": "string"
        },
        {
          "internalType": "string",
          "name": "nftname",
          "type": "string"
        },
        {
          "internalType": "uint256",
          "name": "msgId",
          "type": "uint256"
        }
      ],
      "name": "authorization",
      "outputs": [],
      "stateMutability": "payable",
      "type": "function"
    },
    {
      "inputs": [],
      "name": "chainName",
      "outputs": [
        {
          "internalType": "string",
          "name": "",
          "type": "string"
        }
      ],
      "stateMutability": "view",
      "type": "function"
    },
    {
      "inputs": [],
      "name": "contractId",
      "outputs": [
        {
          "internalType": "bytes32",
          "name": "",
          "type": "bytes32"
        }
      ],
      "stateMutability": "pure",
      "type": "function"
    },
    {
      "inputs": [
        {
          "internalType": "address",
          "name": "toaddr",
          "type": "address"
        },
        {
          "internalType": "string",
          "name": "tochain",
          "type": "string"
        },
        {
          "internalType": "string",
          "name": "nftname",
          "type": "string"
        },
        {
          "internalType": "uint256",
          "name": "msgId",
          "type": "uint256"
        }
      ],
      "name": "deauthorization",
      "outputs": [],
      "stateMutability": "payable",
      "type": "function"
    },
    {
      "inputs": [
        {
          "internalType": "string",
          "name": "chainName_",
          "type": "string"
        }
      ],
      "name": "deleteSupportedChain",
      "outputs": [],
      "stateMutability": "nonpayable",
      "type": "function"
    },
    {
      "inputs": [
        {
          "internalType": "bytes32",
          "name": "commandId",
          "type": "bytes32"
        },
        {
          "internalType": "string",
          "name": "sourceChain",
          "type": "string"
        },
        {
          "internalType": "string",
          "name": "sourceAddress",
          "type": "string"
        },
        {
          "internalType": "bytes",
          "name": "payload",
          "type": "bytes"
        }
      ],
      "name": "execute",
      "outputs": [],
      "stateMutability": "nonpayable",
      "type": "function"
    },
    {
      "inputs": [
        {
          "internalType": "bytes32",
          "name": "commandId",
          "type": "bytes32"
        },
        {
          "internalType": "string",
          "name": "sourceChain",
          "type": "string"
        },
        {
          "internalType": "string",
          "name": "sourceAddress",
          "type": "string"
        },
        {
          "internalType": "bytes",
          "name": "payload",
          "type": "bytes"
        },
        {
          "internalType": "string",
          "name": "tokenSymbol",
          "type": "string"
        },
        {
          "internalType": "uint256",
          "name": "amount",
          "type": "uint256"
        }
      ],
      "name": "executeWithToken",
      "outputs": [],
      "stateMutability": "nonpayable",
      "type": "function"
    },
    {
      "inputs": [],
      "name": "gasReceiver",
      "outputs": [
        {
          "internalType": "contract IAxelarGasService",
          "name": "",
          "type": "address"
        }
      ],
      "stateMutability": "view",
      "type": "function"
    },
    {
      "inputs": [],
      "name": "gateway",
      "outputs": [
        {
          "internalType": "contract IAxelarGateway",
          "name": "",
          "type": "address"
        }
      ],
      "stateMutability": "view",
      "type": "function"
    },
    {
      "inputs": [],
      "name": "implementation",
      "outputs": [
        {
          "internalType": "address",
          "name": "implementation_",
          "type": "address"
        }
      ],
      "stateMutability": "view",
      "type": "function"
    },
    {
      "inputs": [
        {
          "internalType": "string",
          "name": "",
          "type": "string"
        }
      ],
      "name": "mintingResponse",
      "outputs": [
        {
          "internalType": "uint256",
          "name": "",
          "type": "uint256"
        }
      ],
      "stateMutability": "view",
      "type": "function"
    },
    {
      "inputs": [
        {
          "internalType": "string",
          "name": "",
          "type": "string"
        }
      ],
      "name": "nftMinting",
      "outputs": [
        {
          "internalType": "address",
          "name": "",
          "type": "address"
        }
      ],
      "stateMutability": "view",
      "type": "function"
    },
    {
      "inputs": [
        {
          "internalType": "uint256",
          "name": "",
          "type": "uint256"
        }
      ],
      "name": "nftlist",
      "outputs": [
        {
          "internalType": "string",
          "name": "name",
          "type": "string"
        },
        {
          "internalType": "address",
          "name": "userAddress",
          "type": "address"
        },
        {
          "internalType": "bool",
          "name": "isOwner",
          "type": "bool"
        },
        {
          "internalType": "bool",
          "name": "isRightToUse",
          "type": "bool"
        }
      ],
      "stateMutability": "view",
      "type": "function"
    },
    {
      "inputs": [
        {
          "internalType": "uint256",
          "name": "",
          "type": "uint256"
        }
      ],
      "name": "original",
      "outputs": [
        {
          "internalType": "bytes",
          "name": "",
          "type": "bytes"
        }
      ],
      "stateMutability": "view",
      "type": "function"
    },
    {
      "inputs": [],
      "name": "owner",
      "outputs": [
        {
          "internalType": "address",
          "name": "owner_",
          "type": "address"
        }
      ],
      "stateMutability": "view",
      "type": "function"
    },
    {
      "inputs": [
        {
          "internalType": "address",
          "name": "addr",
          "type": "address"
        }
      ],
      "name": "queryByAddress",
      "outputs": [
        {
          "components": [
            {
              "internalType": "string",
              "name": "name",
              "type": "string"
            },
            {
              "internalType": "address",
              "name": "userAddress",
              "type": "address"
            },
            {
              "internalType": "bool",
              "name": "isOwner",
              "type": "bool"
            },
            {
              "internalType": "bool",
              "name": "isRightToUse",
              "type": "bool"
            }
          ],
          "internalType": "struct NameNft.NftName[]",
          "name": "",
          "type": "tuple[]"
        }
      ],
      "stateMutability": "view",
      "type": "function"
    },
    {
      "inputs": [
        {
          "internalType": "string",
          "name": "name",
          "type": "string"
        }
      ],
      "name": "queryByName",
      "outputs": [
        {
          "components": [
            {
              "internalType": "string",
              "name": "name",
              "type": "string"
            },
            {
              "internalType": "address",
              "name": "userAddress",
              "type": "address"
            },
            {
              "internalType": "bool",
              "name": "isOwner",
              "type": "bool"
            },
            {
              "internalType": "bool",
              "name": "isRightToUse",
              "type": "bool"
            }
          ],
          "internalType": "struct NameNft.NftName",
          "name": "",
          "type": "tuple"
        }
      ],
      "stateMutability": "view",
      "type": "function"
    },
    {
      "inputs": [
        {
          "internalType": "bytes",
          "name": "data",
          "type": "bytes"
        }
      ],
      "name": "setup",
      "outputs": [],
      "stateMutability": "nonpayable",
      "type": "function"
    },
    {
      "inputs": [
        {
          "internalType": "string",
          "name": "name",
          "type": "string"
        },
        {
          "internalType": "uint256",
          "name": "msgId",
          "type": "uint256"
        }
      ],
      "name": "startMint",
      "outputs": [],
      "stateMutability": "payable",
      "type": "function"
    },
    {
      "inputs": [
        {
          "internalType": "uint256",
          "name": "",
          "type": "uint256"
        }
      ],
      "name": "supportedchains",
      "outputs": [
        {
          "internalType": "string",
          "name": "chainName",
          "type": "string"
        },
        {
          "internalType": "address",
          "name": "contractaddr",
          "type": "address"
        }
      ],
      "stateMutability": "view",
      "type": "function"
    },
    {
      "inputs": [
        {
          "internalType": "address",
          "name": "toaddr",
          "type": "address"
        },
        {
          "internalType": "string",
          "name": "tochain",
          "type": "string"
        },
        {
          "internalType": "string",
          "name": "nftname",
          "type": "string"
        },
        {
          "internalType": "uint256",
          "name": "msgId",
          "type": "uint256"
        }
      ],
      "name": "transfer",
      "outputs": [],
      "stateMutability": "payable",
      "type": "function"
    },
    {
      "inputs": [
        {
          "internalType": "address",
          "name": "newOwner",
          "type": "address"
        }
      ],
      "name": "transferOwnership",
      "outputs": [],
      "stateMutability": "nonpayable",
      "type": "function"
    },
    {
      "inputs": [
        {
          "internalType": "address",
          "name": "newImplementation",
          "type": "address"
        },
        {
          "internalType": "bytes32",
          "name": "newImplementationCodeHash",
          "type": "bytes32"
        },
        {
          "internalType": "bytes",
          "name": "params",
          "type": "bytes"
        }
      ],
      "name": "upgrade",
      "outputs": [],
      "stateMutability": "nonpayable",
      "type": "function"
    }
  ],
  "bytecode": "0x60c06040523480156200001157600080fd5b5060405162003fde38038062003fde833981016040819052620000349162000093565b816001600160a01b0381166200005d5760405163e6c4247b60e01b815260040160405180910390fd5b6001600160a01b039081166080521660a05250620000cb565b80516001600160a01b03811681146200008e57600080fd5b919050565b60008060408385031215620000a757600080fd5b620000b28362000076565b9150620000c26020840162000076565b90509250929050565b60805160a051613eb562000129600039600081816103ac01528181610b1501528181611d2b0152611e2b01526000818161020a015281816105cf01528181610bb001528181610c7501528181611ec501526127320152613eb56000f3fe6080604052600436106101955760003560e01c8063717eb03f116100e15780639ded06df1161008a578063cb7ec3dc11610064578063cb7ec3dc14610505578063dfd4b40114610525578063e89bd12414610552578063f2fde38b1461056557600080fd5b80639ded06df14610497578063a3499c73146104b7578063cb2a5b92146104d757600080fd5b80638af5b7db116100bb5780638af5b7db1461040b5780638da5cb5b1461042b5780639cd2161e1461045f57600080fd5b8063717eb03f1461037a57806380d14b4a1461039a5780638291286c146103ce57600080fd5b806349160658116101435780635c60da1b1161011d5780635c60da1b146102f65780636c967a541461032a57806370a7287b1461035a57600080fd5b806349160658146102b0578063510d82ec146102d05780635acec497146102e357600080fd5b80631c93b03a116101745780631c93b03a1461024e578063205860311461027057806341b385691461029d57600080fd5b8062e9f9c71461019a578063116191b6146101f85780631a98b2e01461022c575b600080fd5b3480156101a657600080fd5b506101db6101b5366004613184565b80516020818301810180516005825292820191909301209152546001600160a01b031681565b6040516001600160a01b0390911681526020015b60405180910390f35b34801561020457600080fd5b506101db7f000000000000000000000000000000000000000000000000000000000000000081565b34801561023857600080fd5b5061024c61024736600461321e565b610585565b005b34801561025a57600080fd5b50610263610690565b6040516101ef9190613350565b34801561027c57600080fd5b5061029061028b36600461336a565b61071e565b6040516101ef91906133f8565b61024c6102ab366004613420565b6108bf565b3480156102bc57600080fd5b5061024c6102cb3660046134ab565b610c2b565b61024c6102de366004613420565b610d3b565b61024c6102f1366004613420565b610ec8565b34801561030257600080fd5b507f360894a13ba1a3210667c828492db98dca3e2076cc3735a920a3ca505d382bbc546101db565b34801561033657600080fd5b5061034a61034536600461354f565b611055565b6040516101ef9493929190613568565b34801561036657600080fd5b506102636103753660046135a2565b611130565b34801561038657600080fd5b5061026361039536600461354f565b611149565b3480156103a657600080fd5b506101db7f000000000000000000000000000000000000000000000000000000000000000081565b3480156103da57600080fd5b507f8b88dae839acea7ff6a270cef523f6c04d348796d1890294879850ff17ecd6cc5b6040519081526020016101ef565b34801561041757600080fd5b5061024c6104263660046135bf565b611162565b34801561043757600080fd5b507f02016836a56b71f0d02689e69e326f4f4c1b9057164ef592671cf0d37c8040c0546101db565b34801561046b57600080fd5b506103fd61047a366004613184565b805160208183018101805160068252928201919093012091525481565b3480156104a357600080fd5b5061024c6104b236600461336a565b6112cd565b3480156104c357600080fd5b5061024c6104d2366004613616565b611346565b3480156104e357600080fd5b506104f76104f236600461354f565b611662565b6040516101ef929190613672565b34801561051157600080fd5b5061024c61052036600461336a565b611727565b34801561053157600080fd5b506105456105403660046135a2565b6117e6565b6040516101ef919061369d565b61024c6105603660046136ff565b611a57565b34801561057157600080fd5b5061024c6105803660046135a2565b611f84565b6000858560405161059792919061374b565b6040519081900381207f1876eed900000000000000000000000000000000000000000000000000000000825291506001600160a01b037f00000000000000000000000000000000000000000000000000000000000000001690631876eed990610614908e908e908e908e908e9089908d908d908d90600401613784565b602060405180830381600087803b15801561062e57600080fd5b505af1158015610642573d6000803e3d6000fd5b505050506040513d601f19601f8201168201806040525081019061066691906137f8565b61068357604051631403112d60e21b815260040160405180910390fd5b5050505050505050505050565b6002805461069d90613813565b80601f01602080910402602001604051908101604052809291908181526020018280546106c990613813565b80156107165780601f106106eb57610100808354040283529160200191610716565b820191906000526020600020905b8154815290600101906020018083116106f957829003601f168201915b505050505081565b604080516080810182526060808252600060208301819052928201839052810191909152600061078384848080601f01602080910402602001604051908101604052809392919081815260200183838082843760009201919091525061207792505050565b90506000811261088c57600481815481106107a0576107a061384e565b90600052602060002090600202016040518060800160405290816000820180546107c990613813565b80601f01602080910402602001604051908101604052809291908181526020018280546107f590613813565b80156108425780601f1061081757610100808354040283529160200191610842565b820191906000526020600020905b81548152906001019060200180831161082557829003601f168201915b5050509183525050600191909101546001600160a01b038116602083015260ff600160a01b8204811615156040840152600160a81b90910416151560609091015291506108b99050565b50506040805160a08101825260006080820181815282526020820181905291810182905260608101919091525b92915050565b6108ff3384848080601f0160208091040260200160405190810160405280939291908181526020018383808284376000920191909152506120ee92505050565b61093c5760405162461bcd60e51b81526020600482015260096024820152682727aa2fa7aba722a960b91b60448201526064015b60405180910390fd5b600260405161094b9190613864565b6040518091039020858560405161096392919061374b565b604051809103902014156109ba576109b583838080601f0160208091040260200160405190810160405280939291908181526020018383808284376000920191909152508a92503391508590506121ac565b610c23565b6109f985858080601f0160208091040260200160405190810160405280939291908181526020018383808284376000920191909152506121f592505050565b610a395760405162461bcd60e51b81526020600482015260116024820152702727aa2fa9aaa82827a92a2fa1a420a4a760791b6044820152606401610933565b610a7a83838080601f01602080910402602001604051908101604052809392919081815260200183838082843760009201919091525033925061226e915050565b60006005848489604051602001610a93939291906138d6565b60408051601f1981840301815290829052610ab392918590602001613919565b60408051601f198184030181526020601f89018190048102840181019092528783529250600091610b1191610b0391908a908a908190840183828082843760009201919091525061231092505050565b6001600160a01b03166123ae565b90507f00000000000000000000000000000000000000000000000000000000000000006001600160a01b0316630c93e3bb34308a8a8688336040518863ffffffff1660e01b8152600401610b6a96959493929190613960565b6000604051808303818588803b158015610b8357600080fd5b505af1158015610b97573d6000803e3d6000fd5b5050604051631c92115f60e01b81526001600160a01b037f0000000000000000000000000000000000000000000000000000000000000000169350631c92115f9250610bee91508a908a90869088906004016139c1565b600060405180830381600087803b158015610c0857600080fd5b505af1158015610c1c573d6000803e3d6000fd5b5050505050505b505050505050565b60008282604051610c3d92919061374b565b6040519081900381207f5f6970c300000000000000000000000000000000000000000000000000000000825291506001600160a01b037f00000000000000000000000000000000000000000000000000000000000000001690635f6970c390610cb4908b908b908b908b908b908990600401613a06565b602060405180830381600087803b158015610cce57600080fd5b505af1158015610ce2573d6000803e3d6000fd5b505050506040513d601f19601f82011682018060405250810190610d0691906137f8565b610d2357604051631403112d60e21b815260040160405180910390fd5b610d3187878787878761267e565b5050505050505050565b6002604051610d4a9190613864565b60405180910390208585604051610d6292919061374b565b60405180910390201415610db85760405162461bcd60e51b815260206004820152601960248201527f43555252454e545f434841494e5f4e4f545f535550504f5254000000000000006044820152606401610933565b610df83384848080601f0160208091040260200160405190810160405280939291908181526020018383808284376000920191909152506120ee92505050565b610e305760405162461bcd60e51b81526020600482015260096024820152682727aa2fa7aba722a960b91b6044820152606401610933565b610e6f85858080601f0160208091040260200160405190810160405280939291908181526020018383808284376000920191909152506121f592505050565b610eaf5760405162461bcd60e51b81526020600482015260116024820152702727aa2fa9aaa82827a92a2fa1a420a4a760791b6044820152606401610933565b60006004848489604051602001610a93939291906138d6565b6002604051610ed79190613864565b60405180910390208585604051610eef92919061374b565b60405180910390201415610f455760405162461bcd60e51b815260206004820152601960248201527f43555252454e545f434841494e5f4e4f545f535550504f5254000000000000006044820152606401610933565b610f853384848080601f0160208091040260200160405190810160405280939291908181526020018383808284376000920191909152506120ee92505050565b610fbd5760405162461bcd60e51b81526020600482015260096024820152682727aa2fa7aba722a960b91b6044820152606401610933565b610ffc85858080601f0160208091040260200160405190810160405280939291908181526020018383808284376000920191909152506121f592505050565b61103c5760405162461bcd60e51b81526020600482015260116024820152702727aa2fa9aaa82827a92a2fa1a420a4a760791b6044820152606401610933565b60006003848489604051602001610a93939291906138d6565b6004818154811061106557600080fd5b906000526020600020906002020160009150905080600001805461108890613813565b80601f01602080910402602001604051908101604052809291908181526020018280546110b490613813565b80156111015780601f106110d657610100808354040283529160200191611101565b820191906000526020600020905b8154815290600101906020018083116110e457829003601f168201915b505050600190930154919250506001600160a01b0381169060ff600160a01b8204811691600160a81b90041684565b6001602052600090815260409020805461069d90613813565b6000602081905290815260409020805461069d90613813565b60005b60035481101561122757600381815481106111825761118261384e565b90600052602060002090600202016000016040516111a09190613864565b604051809103902084846040516111b892919061374b565b604051809103902014156112155781600382815481106111da576111da61384e565b906000526020600020906002020160010160006101000a8154816001600160a01b0302191690836001600160a01b0316021790555050505050565b8061121f81613a5d565b915050611165565b506040805160606020601f860181900402820181018352918101848152600392829190879087908190850183828082843760009201829052509385525050506001600160a01b03851660209283015283546001810185559381528190208251805193946002029091019261129e9284920190613001565b5060209190910151600190910180546001600160a01b0319166001600160a01b03909216919091179055505050565b60006112f77f360894a13ba1a3210667c828492db98dca3e2076cc3735a920a3ca505d382bbc5490565b6001600160a01b03161415611338576040517fbf10dd3a00000000000000000000000000000000000000000000000000000000815260040160405180910390fd5b6113428282612943565b5050565b3361136f7f02016836a56b71f0d02689e69e326f4f4c1b9057164ef592671cf0d37c8040c05490565b6001600160a01b031614611396576040516330cd747160e01b815260040160405180910390fd5b306001600160a01b0316638291286c6040518163ffffffff1660e01b815260040160206040518083038186803b1580156113cf57600080fd5b505afa1580156113e3573d6000803e3d6000fd5b505050506040513d601f19601f820116820180604052508101906114079190613a78565b846001600160a01b0316638291286c6040518163ffffffff1660e01b815260040160206040518083038186803b15801561144057600080fd5b505afa158015611454573d6000803e3d6000fd5b505050506040513d601f19601f820116820180604052508101906114789190613a78565b146114af576040517f68155f9a00000000000000000000000000000000000000000000000000000000815260040160405180910390fd5b836001600160a01b03163f83146114f2576040517f8f84fb2400000000000000000000000000000000000000000000000000000000815260040160405180910390fd5b8015611607576000846001600160a01b0316639ded06df60e01b848460405160240161151f929190613a91565b60408051601f198184030181529181526020820180517bffffffffffffffffffffffffffffffffffffffffffffffffffffffff167fffffffff0000000000000000000000000000000000000000000000000000000090941693909317909252905161158a9190613aa5565b600060405180830381855af49150503d80600081146115c5576040519150601f19603f3d011682016040523d82523d6000602084013e6115ca565b606091505b5050905080611605576040517f97905dfb00000000000000000000000000000000000000000000000000000000815260040160405180910390fd5b505b6040516001600160a01b038516907fbc7cd75a20ee27fd9adebab32041f755214dbc6bffa90cc0225b39da2e5c2d3b90600090a25050507f360894a13ba1a3210667c828492db98dca3e2076cc3735a920a3ca505d382bbc55565b6003818154811061167257600080fd5b906000526020600020906002020160009150905080600001805461169590613813565b80601f01602080910402602001604051908101604052809291908181526020018280546116c190613813565b801561170e5780601f106116e35761010080835404028352916020019161170e565b820191906000526020600020905b8154815290600101906020018083116116f157829003601f168201915b505050600190930154919250506001600160a01b031682565b60005b6003548110156117e157600381815481106117475761174761384e565b90600052602060002090600202016000016040516117659190613864565b6040518091039020838360405161177d92919061374b565b604051809103902014156117cf576003818154811061179e5761179e61384e565b600091825260208220600290910201906117b88282613085565b5060010180546001600160a01b0319169055505050565b806117d981613a5d565b91505061172a565b505050565b60606000805b60045481101561185657836001600160a01b0316600482815481106118135761181361384e565b60009182526020909120600160029092020101546001600160a01b03161415611844578161184081613a5d565b9250505b8061184e81613a5d565b9150506117ec565b5060008167ffffffffffffffff811115611872576118726130d7565b6040519080825280602002602001820160405280156118c557816020015b604080516080810182526060808252600060208084018290529383018190529082015282526000199092019101816118905790505b5090506000915060005b600454811015611a4f57846001600160a01b0316600482815481106118f6576118f661384e565b60009182526020909120600160029092020101546001600160a01b03161415611a3d576004818154811061192c5761192c61384e565b906000526020600020906002020160405180608001604052908160008201805461195590613813565b80601f016020809104026020016040519081016040528092919081815260200182805461198190613813565b80156119ce5780601f106119a3576101008083540402835291602001916119ce565b820191906000526020600020905b8154815290600101906020018083116119b157829003601f168201915b5050509183525050600191909101546001600160a01b038116602083015260ff600160a01b8204811615156040840152600160a81b9091041615156060909101528251839085908110611a2357611a2361384e565b60200260200101819052508280611a3990613a5d565b9350505b80611a4781613a5d565b9150506118cf565b509392505050565b6040805160208101825260009052517fc5d2460186f7233c927e7db2dcc703c0e500b653ca82273b7bfad8045d85a47090611a95908590859061374b565b60405180910390201415611aeb5760405162461bcd60e51b815260206004820152600c60248201527f6e616d65206973206e756c6c00000000000000000000000000000000000000006044820152606401610933565b611b2a83838080601f0160208091040260200160405190810160405280939291908181526020018383808284376000920191909152506129ac92505050565b611b765760405162461bcd60e51b815260206004820152601260248201527f6e616d6520686173206265656e207573656400000000000000000000000000006044820152606401610933565b60006001600160a01b031660058484604051611b9392919061374b565b908152604051908190036020019020546001600160a01b031614611bf95760405162461bcd60e51b815260206004820152601360248201527f6e616d65206973206d696e74696e67206e6f77000000000000000000000000006044820152606401610933565b3360058484604051611c0c92919061374b565b90815260405190819003602001902080546001600160a01b03929092166001600160a01b031990921691909117905560005b600354811015611f7e5760038181548110611c5b57611c5b61384e565b9060005260206000209060020201600001604051611c799190613864565b60405180910390206002604051611c909190613864565b604051809103902014611f6c57600060018585604051602001611cb4929190613a91565b60408051601f1981840301815290829052611cd492918690602001613919565b60405160208183030381529060405290506000611d1f60038481548110611cfd57611cfd61384e565b60009182526020909120600160029092020101546001600160a01b03166123ae565b90506001600160a01b037f000000000000000000000000000000000000000000000000000000000000000016630c93e3bb611d5b600a34613ac1565b3060038781548110611d6f57611d6f61384e565b90600052602060002090600202016000018587336040518763ffffffff1660e01b8152600401611da3959493929190613b5a565b6000604051808303818588803b158015611dbc57600080fd5b505af1158015611dd0573d6000803e3d6000fd5b50505050506000600260018888604051602001611def93929190613bb9565b60408051601f1981840301815290829052611e0f92918890602001613919565b60408051601f1981840301815291905290506001600160a01b037f000000000000000000000000000000000000000000000000000000000000000016630c93e3bb611e5b600a34613ac1565b611e6485612a25565b6002611e6f306123ae565b86336040518763ffffffff1660e01b8152600401611e91959493929190613b5a565b6000604051808303818588803b158015611eaa57600080fd5b505af1158015611ebe573d6000803e3d6000fd5b50505050507f00000000000000000000000000000000000000000000000000000000000000006001600160a01b0316631c92115f60038681548110611f0557611f0561384e565b906000526020600020906002020160000184866040518463ffffffff1660e01b8152600401611f3693929190613bde565b600060405180830381600087803b158015611f5057600080fd5b505af1158015611f64573d6000803e3d6000fd5b505050505050505b80611f7681613a5d565b915050611c3e565b50505050565b33611fad7f02016836a56b71f0d02689e69e326f4f4c1b9057164ef592671cf0d37c8040c05490565b6001600160a01b031614611fd4576040516330cd747160e01b815260040160405180910390fd5b6001600160a01b038116612014576040517f49e27cff00000000000000000000000000000000000000000000000000000000815260040160405180910390fd5b6040516001600160a01b038216907f04dba622d284ed0014ee4b9a6a68386be1a4c08a4913ae272de89199cc68616390600090a27f02016836a56b71f0d02689e69e326f4f4c1b9057164ef592671cf0d37c8040c055565b505050505050505050565b6000805b6004548110156120e4578280519060200120600482815481106120a0576120a061384e565b90600052602060002090600202016000016040516120be9190613864565b604051809103902014156120d25792915050565b806120dc81613a5d565b91505061207b565b5060001992915050565b6000805b6004548110156121a2576004818154811061210f5761210f61384e565b906000526020600020906002020160000160405161212d9190613864565b604051809103902083805190602001201480156121815750836001600160a01b0316600482815481106121625761216261384e565b60009182526020909120600160029092020101546001600160a01b0316145b156121905760019150506108b9565b8061219a81613a5d565b9150506120f2565b5060009392505050565b6121b6848361226e565b6121c08484612b24565b6000600560405183907ff999075cd59051aadc61ceeb9ce83bc2bf4612f544567215d6a9db0c3b556a6a90600090a450505050565b6000805b6003548110156122655782805190602001206003828154811061221e5761221e61384e565b906000526020600020906002020160000160405161223c9190613864565b604051809103902014156122535750600192915050565b8061225d81613a5d565b9150506121f9565b50600092915050565b61227881836120ee565b6122b05760405162461bcd60e51b81526020600482015260096024820152682727aa2fa7aba722a960b91b6044820152606401610933565b60006122bb83612077565b9050600481815481106122d0576122d061384e565b600091825260208220600290910201906122ea8282613085565b50600101805475ffffffffffffffffffffffffffffffffffffffffffff19169055505050565b6000805b600354811015612265578280519060200120600382815481106123395761233961384e565b90600052602060002090600202016000016040516123579190613864565b6040518091039020141561239c57600381815481106123785761237861384e565b60009182526020909120600160029092020101546001600160a01b03169392505050565b806123a681613a5d565b915050612314565b604051606082811b6bffffffffffffffffffffffff191660208301529060009060340160408051601f19818403018152828201909152601082527f303132333435363738396162636465660000000000000000000000000000000060208301528051909250600090612421906002613c21565b61242c906002613c40565b67ffffffffffffffff811115612444576124446130d7565b6040519080825280601f01601f19166020018201604052801561246e576020820181803683370190505b5090507f3000000000000000000000000000000000000000000000000000000000000000816000815181106124a5576124a561384e565b60200101906001600160f81b031916908160001a9053507f7800000000000000000000000000000000000000000000000000000000000000816001815181106124f0576124f061384e565b60200101906001600160f81b031916908160001a90535060005b8351811015612675578260048583815181106125285761252861384e565b016020015182517fff0000000000000000000000000000000000000000000000000000000000000090911690911c60f81c9081106125685761256861384e565b01602001517fff00000000000000000000000000000000000000000000000000000000000000168261259b836002613c21565b6125a6906002613c40565b815181106125b6576125b661384e565b60200101906001600160f81b031916908160001a905350828482815181106125e0576125e061384e565b602091010151815160f89190911c600f169081106126005761260061384e565b01602001517fff000000000000000000000000000000000000000000000000000000000000001682612633836002613c21565b61263e906003613c40565b8151811061264e5761264e61384e565b60200101906001600160f81b031916908160001a90535061266e81613a5d565b905061250a565b50949350505050565b6000808061268e84860186613c58565b9194509250905060018360058111156126a9576126a9613903565b14156127a9576000828060200190518101906126c59190613d0e565b905060006126d2826129ac565b90506000600282846040516020016126eb929190613d43565b60408051601f198184030181529082905261270b92918790602001613919565b60408051601f1981840301815290829052631c92115f60e01b825291506001600160a01b037f00000000000000000000000000000000000000000000000000000000000000001690631c92115f9061276f908f908f908f908f908890600401613d5e565b600060405180830381600087803b15801561278957600080fd5b505af115801561279d573d6000803e3d6000fd5b5050505050505061206c565b60028360058111156127bd576127bd613903565b141561288357600080838060200190518101906127da9190613da5565b91509150816127f2576127ed8184612c55565b61287c565b60035461280190600290613df3565b6006826040516128119190613aa5565b9081526020016040518091039020541415612830576127ed8184612cd6565b6006816040516128409190613aa5565b908152602001604051809103902054600161285b9190613c40565b60068260405161286b9190613aa5565b908152604051908190036020019020555b505061206c565b600383600581111561289757612897613903565b14156128c357600080838060200190518101906128b49190613e0a565b9150915061287c828285612d40565b60048360058111156128d7576128d7613903565b141561290357600080838060200190518101906128f49190613e0a565b9150915061287c828285612e94565b600583600581111561291757612917613903565b141561206c57600080838060200190518101906129349190613e0a565b91509150610683828285612f8a565b600061295182840184613184565b90506002805461296090613813565b159050612999576040517f0dc149f000000000000000000000000000000000000000000000000000000000815260040160405180910390fd5b8051611f7e906002906020840190613001565b6000805b600454811015612a1c57600481815481106129cd576129cd61384e565b90600052602060002090600202016000016040516129eb9190613864565b604051809103902083805190602001201415612a0a5750600092915050565b80612a1481613a5d565b9150506129b0565b50600192915050565b80516000908290602a14612a3c5750600092915050565b60008060025b602a811015612b1a57838181518110612a5d57612a5d61384e565b016020015160f81c915060618210801590612a7c575060668260ff1611155b15612a9357612a8c605783613e5c565b9150612aef565b60418260ff1610158015612aab575060468260ff1611155b15612abb57612a8c603783613e5c565b60308260ff1610158015612ad3575060398260ff1611155b15612ae357612a8c603083613e5c565b50600095945050505050565b6002612afc826029613df3565b60ff8416911b1b929092179180612b1281613a5d565b915050612a42565b5090949350505050565b604080516080810182528381526001600160a01b038316602080830191909152600192820183905260608201839052600480549384018155600052815180519293849360029091027f8a35acfbc15ff81a39ae7d344fd709f28e8600b4aa8c65c6b64bfe7fe36bd19b0192612b9d928492910190613001565b506020820151600190910180546040808501516060909501511515600160a81b0260ff60a81b19951515600160a01b0274ffffffffffffffffffffffffffffffffffffffffff199093166001600160a01b0390951694909417919091179390931691909117905551600590612c13908590613aa5565b90815260405190819003602001812080546001600160a01b0319169055600690612c3e908590613aa5565b908152602001604051809103902060009055505050565b600582604051612c659190613aa5565b90815260405190819003602001812080546001600160a01b0319169055600690612c90908490613aa5565b908152604051908190036020019020600090556001600060405183907ff999075cd59051aadc61ceeb9ce83bc2bf4612f544567215d6a9db0c3b556a6a90600090a45050565b6000600583604051612ce89190613aa5565b908152604051908190036020019020546001600160a01b03169050612d0d8382612b24565b60008060405184907ff999075cd59051aadc61ceeb9ce83bc2bf4612f544567215d6a9db0c3b556a6a90600090a4505050565b604080516080810182528481526001600160a01b038416602082015260009181019190915260016060820152612d7584612077565b6000191415612e5e57600480546001810182556000919091528151805183926002027f8a35acfbc15ff81a39ae7d344fd709f28e8600b4aa8c65c6b64bfe7fe36bd19b0191612dc991839160200190613001565b5060208201516001909101805460408401516060909401511515600160a81b0260ff60a81b19941515600160a01b0274ffffffffffffffffffffffffffffffffffffffffff199092166001600160a01b03909416939093171792909216179055600060035b60405184907ff999075cd59051aadc61ceeb9ce83bc2bf4612f544567215d6a9db0c3b556a6a90600090a4611f7e565b600160035b60405184907ff999075cd59051aadc61ceeb9ce83bc2bf4612f544567215d6a9db0c3b556a6a90600090a450505050565b6000612e9f84612077565b905060008112158015612ee95750826001600160a01b031660048281548110612eca57612eca61384e565b60009182526020909120600160029092020101546001600160a01b0316145b15612f8157600060048281548110612f0357612f0361384e565b906000526020600020906002020160010160006101000a8154816001600160a01b0302191690836001600160a01b03160217905550600060048281548110612f4d57612f4d61384e565b6000918252602082206001600290920201018054921515600160a81b0260ff60a81b19909316929092179091556004612e2e565b60016004612e63565b6000612f9584612077565b905060008112612fee5760048181548110612fb257612fb261384e565b60009182526020822060029091020190612fcc8282613085565b50600101805475ffffffffffffffffffffffffffffffffffffffffffff191690555b612ff88484612b24565b60006005612e63565b82805461300d90613813565b90600052602060002090601f01602090048101928261302f5760008555613075565b82601f1061304857805160ff1916838001178555613075565b82800160010185558215613075579182015b8281111561307557825182559160200191906001019061305a565b506130819291506130c2565b5090565b50805461309190613813565b6000825580601f106130a1575050565b601f0160209004906000526020600020908101906130bf91906130c2565b50565b5b8082111561308157600081556001016130c3565b634e487b7160e01b600052604160045260246000fd5b604051601f8201601f1916810167ffffffffffffffff81118282101715613116576131166130d7565b604052919050565b600067ffffffffffffffff821115613138576131386130d7565b50601f01601f191660200190565b60006131596131548461311e565b6130ed565b905082815283838301111561316d57600080fd5b828260208301376000602084830101529392505050565b60006020828403121561319657600080fd5b813567ffffffffffffffff8111156131ad57600080fd5b8201601f810184136131be57600080fd5b6131cd84823560208401613146565b949350505050565b60008083601f8401126131e757600080fd5b50813567ffffffffffffffff8111156131ff57600080fd5b60208301915083602082850101111561321757600080fd5b9250929050565b60008060008060008060008060008060c08b8d03121561323d57600080fd5b8a35995060208b013567ffffffffffffffff8082111561325c57600080fd5b6132688e838f016131d5565b909b50995060408d013591508082111561328157600080fd5b61328d8e838f016131d5565b909950975060608d01359150808211156132a657600080fd5b6132b28e838f016131d5565b909750955060808d01359150808211156132cb57600080fd5b506132d88d828e016131d5565b9150809450508092505060a08b013590509295989b9194979a5092959850565b60005b838110156133135781810151838201526020016132fb565b83811115611f7e5750506000910152565b6000815180845261333c8160208601602086016132f8565b601f01601f19169290920160200192915050565b6020815260006133636020830184613324565b9392505050565b6000806020838503121561337d57600080fd5b823567ffffffffffffffff81111561339457600080fd5b6133a0858286016131d5565b90969095509350505050565b60008151608084526133c16080850182613324565b90506001600160a01b0360208401511660208501526040830151151560408501526060830151151560608501528091505092915050565b60208152600061336360208301846133ac565b6001600160a01b03811681146130bf57600080fd5b6000806000806000806080878903121561343957600080fd5b86356134448161340b565b9550602087013567ffffffffffffffff8082111561346157600080fd5b61346d8a838b016131d5565b9097509550604089013591508082111561348657600080fd5b5061349389828a016131d5565b979a9699509497949695606090950135949350505050565b60008060008060008060006080888a0312156134c657600080fd5b87359650602088013567ffffffffffffffff808211156134e557600080fd5b6134f18b838c016131d5565b909850965060408a013591508082111561350a57600080fd5b6135168b838c016131d5565b909650945060608a013591508082111561352f57600080fd5b5061353c8a828b016131d5565b989b979a50959850939692959293505050565b60006020828403121561356157600080fd5b5035919050565b60808152600061357b6080830187613324565b6001600160a01b039590951660208301525091151560408301521515606090910152919050565b6000602082840312156135b457600080fd5b81356133638161340b565b6000806000604084860312156135d457600080fd5b833567ffffffffffffffff8111156135eb57600080fd5b6135f7868287016131d5565b909450925050602084013561360b8161340b565b809150509250925092565b6000806000806060858703121561362c57600080fd5b84356136378161340b565b935060208501359250604085013567ffffffffffffffff81111561365a57600080fd5b613666878288016131d5565b95989497509550505050565b6040815260006136856040830185613324565b90506001600160a01b03831660208301529392505050565b6000602080830181845280855180835260408601915060408160051b870101925083870160005b828110156136f257603f198886030184526136e08583516133ac565b945092850192908501906001016136c4565b5092979650505050505050565b60008060006040848603121561371457600080fd5b833567ffffffffffffffff81111561372b57600080fd5b613737868287016131d5565b909790965060209590950135949350505050565b8183823760009101908152919050565b81835281816020850137506000828201602090810191909152601f909101601f19169091010190565b89815260c06020820152600061379e60c083018a8c61375b565b82810360408401526137b181898b61375b565b905086606084015282810360808401526137cc81868861375b565b9150508260a08301529a9950505050505050505050565b805180151581146137f357600080fd5b919050565b60006020828403121561380a57600080fd5b613363826137e3565b600181811c9082168061382757607f821691505b6020821081141561384857634e487b7160e01b600052602260045260246000fd5b50919050565b634e487b7160e01b600052603260045260246000fd5b600080835461387281613813565b6001828116801561388a576001811461389b576138ca565b60ff198416875282870194506138ca565b8760005260208060002060005b858110156138c15781548a8201529084019082016138a8565b50505082870194505b50929695505050505050565b6040815260006138ea60408301858761375b565b90506001600160a01b0383166020830152949350505050565b634e487b7160e01b600052602160045260246000fd5b60006006851061393957634e487b7160e01b600052602160045260246000fd5b848252606060208301526139506060830185613324565b9050826040830152949350505050565b60006001600160a01b03808916835260a0602084015261398460a08401888a61375b565b83810360408501526139968188613324565b905083810360608501526139aa8187613324565b925050808416608084015250979650505050505050565b6060815260006139d560608301868861375b565b82810360208401526139e78186613324565b905082810360408401526139fb8185613324565b979650505050505050565b868152608060208201526000613a2060808301878961375b565b8281036040840152613a3381868861375b565b915050826060830152979650505050505050565b634e487b7160e01b600052601160045260246000fd5b6000600019821415613a7157613a71613a47565b5060010190565b600060208284031215613a8a57600080fd5b5051919050565b6020815260006131cd60208301848661375b565b60008251613ab78184602087016132f8565b9190910192915050565b600082613ade57634e487b7160e01b600052601260045260246000fd5b500490565b60008154613af081613813565b808552602060018381168015613b0d5760018114613b2157613b4f565b60ff19851688840152604088019550613b4f565b866000528260002060005b85811015613b475781548a8201860152908301908401613b2c565b890184019650505b505050505092915050565b60006001600160a01b03808816835260a06020840152613b7d60a0840188613ae3565b8381036040850152613b8f8188613324565b90508381036060850152613ba38187613324565b9250508084166080840152509695505050505050565b8315158152604060208201526000613bd560408301848661375b565b95945050505050565b606081526000613bf16060830186613ae3565b8281036020840152613c038186613324565b90508281036040840152613c178185613324565b9695505050505050565b6000816000190483118215151615613c3b57613c3b613a47565b500290565b60008219821115613c5357613c53613a47565b500190565b600080600060608486031215613c6d57600080fd5b833560068110613c7c57600080fd5b9250602084013567ffffffffffffffff811115613c9857600080fd5b8401601f81018613613ca957600080fd5b613cb886823560208401613146565b925050604084013590509250925092565b600082601f830112613cda57600080fd5b8151613ce86131548261311e565b818152846020838601011115613cfd57600080fd5b6131cd8260208301602087016132f8565b600060208284031215613d2057600080fd5b815167ffffffffffffffff811115613d3757600080fd5b6131cd84828501613cc9565b82151581526040602082015260006131cd6040830184613324565b606081526000613d7260608301878961375b565b8281036020840152613d8581868861375b565b90508281036040840152613d998185613324565b98975050505050505050565b60008060408385031215613db857600080fd5b613dc1836137e3565b9150602083015167ffffffffffffffff811115613ddd57600080fd5b613de985828601613cc9565b9150509250929050565b600082821015613e0557613e05613a47565b500390565b60008060408385031215613e1d57600080fd5b825167ffffffffffffffff811115613e3457600080fd5b613e4085828601613cc9565b9250506020830151613e518161340b565b809150509250929050565b600060ff821660ff841680821015613e7657613e76613a47565b9003939250505056fea26469706673582212201d5614e7bdb16fade3f60f54a2f75dc78cfec2b95dee52945cae8c0de5c190f264736f6c63430008090033",
  "linkReferences": {},
  "deployedLinkReferences": {}
}