{
  "_format": "hh-sol-artifact-1",
  "contractName": "NameNft",
  "sourceName": "examples/nft-name/NftName.sol",
  "abi": [
    {
      "inputs": [
        {
          "internalType": "address",
          "name": "gateway_",
          "type": "address"
        },
        {
          "internalType": "address",
          "name": "gasReceiver_",
          "type": "address"
        }
      ],
      "stateMutability": "nonpayable",
      "type": "constructor"
    },
    {
      "inputs": [],
      "name": "AlreadyInitialized",
      "type": "error"
    },
    {
      "inputs": [],
      "name": "InvalidAddress",
      "type": "error"
    },
    {
      "inputs": [],
      "name": "InvalidCodeHash",
      "type": "error"
    },
    {
      "inputs": [],
      "name": "InvalidImplementation",
      "type": "error"
    },
    {
      "inputs": [],
      "name": "InvalidOwner",
      "type": "error"
    },
    {
      "inputs": [],
      "name": "NotApprovedByGateway",
      "type": "error"
    },
    {
      "inputs": [],
      "name": "NotOwner",
      "type": "error"
    },
    {
      "inputs": [],
      "name": "NotProxy",
      "type": "error"
    },
    {
      "inputs": [],
      "name": "SetupFailed",
      "type": "error"
    },
    {
      "anonymous": false,
      "inputs": [
        {
          "indexed": true,
          "internalType": "address",
          "name": "newOwner",
          "type": "address"
        }
      ],
      "name": "OwnershipTransferred",
      "type": "event"
    },
    {
      "anonymous": false,
      "inputs": [
        {
          "indexed": true,
          "internalType": "uint256",
          "name": "msgId",
          "type": "uint256"
        },
        {
          "indexed": true,
          "internalType": "enum NameNft.PayloadType",
          "name": "msgType",
          "type": "uint8"
        },
        {
          "indexed": true,
          "internalType": "enum NameNft.MessageResult",
          "name": "result",
          "type": "uint8"
        }
      ],
      "name": "ResponseEvent",
      "type": "event"
    },
    {
      "anonymous": false,
      "inputs": [
        {
          "indexed": true,
          "internalType": "address",
          "name": "newImplementation",
          "type": "address"
        }
      ],
      "name": "Upgraded",
      "type": "event"
    },
    {
      "inputs": [
        {
          "internalType": "string",
          "name": "chainName_",
          "type": "string"
        },
        {
          "internalType": "address",
          "name": "contractaddr",
          "type": "address"
        }
      ],
      "name": "addOrUpdateSupportedChain",
      "outputs": [],
      "stateMutability": "nonpayable",
      "type": "function"
    },
    {
      "inputs": [
        {
          "internalType": "address",
          "name": "",
          "type": "address"
        }
      ],
      "name": "addresslist",
      "outputs": [
        {
          "internalType": "string",
          "name": "",
          "type": "string"
        }
      ],
      "stateMutability": "view",
      "type": "function"
    },
    {
      "inputs": [
        {
          "internalType": "address",
          "name": "toaddr",
          "type": "address"
        },
        {
          "internalType": "string",
          "name": "tochain",
          "type": "string"
        },
        {
          "internalType": "string",
          "name": "nftname",
          "type": "string"
        },
        {
          "internalType": "uint256",
          "name": "msgId",
          "type": "uint256"
        }
      ],
      "name": "authorization",
      "outputs": [],
      "stateMutability": "payable",
      "type": "function"
    },
    {
      "inputs": [],
      "name": "chainName",
      "outputs": [
        {
          "internalType": "string",
          "name": "",
          "type": "string"
        }
      ],
      "stateMutability": "view",
      "type": "function"
    },
    {
      "inputs": [],
      "name": "contractId",
      "outputs": [
        {
          "internalType": "bytes32",
          "name": "",
          "type": "bytes32"
        }
      ],
      "stateMutability": "pure",
      "type": "function"
    },
    {
      "inputs": [
        {
          "internalType": "address",
          "name": "toaddr",
          "type": "address"
        },
        {
          "internalType": "string",
          "name": "tochain",
          "type": "string"
        },
        {
          "internalType": "string",
          "name": "nftname",
          "type": "string"
        },
        {
          "internalType": "uint256",
          "name": "msgId",
          "type": "uint256"
        }
      ],
      "name": "deauthorization",
      "outputs": [],
      "stateMutability": "payable",
      "type": "function"
    },
    {
      "inputs": [
        {
          "internalType": "string",
          "name": "chainName_",
          "type": "string"
        }
      ],
      "name": "deleteSupportedChain",
      "outputs": [],
      "stateMutability": "nonpayable",
      "type": "function"
    },
    {
      "inputs": [
        {
          "internalType": "bytes32",
          "name": "commandId",
          "type": "bytes32"
        },
        {
          "internalType": "string",
          "name": "sourceChain",
          "type": "string"
        },
        {
          "internalType": "string",
          "name": "sourceAddress",
          "type": "string"
        },
        {
          "internalType": "bytes",
          "name": "payload",
          "type": "bytes"
        }
      ],
      "name": "execute",
      "outputs": [],
      "stateMutability": "nonpayable",
      "type": "function"
    },
    {
      "inputs": [
        {
          "internalType": "bytes32",
          "name": "commandId",
          "type": "bytes32"
        },
        {
          "internalType": "string",
          "name": "sourceChain",
          "type": "string"
        },
        {
          "internalType": "string",
          "name": "sourceAddress",
          "type": "string"
        },
        {
          "internalType": "bytes",
          "name": "payload",
          "type": "bytes"
        },
        {
          "internalType": "string",
          "name": "tokenSymbol",
          "type": "string"
        },
        {
          "internalType": "uint256",
          "name": "amount",
          "type": "uint256"
        }
      ],
      "name": "executeWithToken",
      "outputs": [],
      "stateMutability": "nonpayable",
      "type": "function"
    },
    {
      "inputs": [],
      "name": "gasReceiver",
      "outputs": [
        {
          "internalType": "contract IAxelarGasService",
          "name": "",
          "type": "address"
        }
      ],
      "stateMutability": "view",
      "type": "function"
    },
    {
      "inputs": [],
      "name": "gateway",
      "outputs": [
        {
          "internalType": "contract IAxelarGateway",
          "name": "",
          "type": "address"
        }
      ],
      "stateMutability": "view",
      "type": "function"
    },
    {
      "inputs": [],
      "name": "implementation",
      "outputs": [
        {
          "internalType": "address",
          "name": "implementation_",
          "type": "address"
        }
      ],
      "stateMutability": "view",
      "type": "function"
    },
    {
      "inputs": [
        {
          "internalType": "string",
          "name": "",
          "type": "string"
        }
      ],
      "name": "mintingResponse",
      "outputs": [
        {
          "internalType": "uint256",
          "name": "",
          "type": "uint256"
        }
      ],
      "stateMutability": "view",
      "type": "function"
    },
    {
      "inputs": [
        {
          "internalType": "string",
          "name": "",
          "type": "string"
        }
      ],
      "name": "nftMinting",
      "outputs": [
        {
          "internalType": "address",
          "name": "",
          "type": "address"
        }
      ],
      "stateMutability": "view",
      "type": "function"
    },
    {
      "inputs": [
        {
          "internalType": "uint256",
          "name": "",
          "type": "uint256"
        }
      ],
      "name": "nftlist",
      "outputs": [
        {
          "internalType": "string",
          "name": "name",
          "type": "string"
        },
        {
          "internalType": "address",
          "name": "userAddress",
          "type": "address"
        },
        {
          "internalType": "bool",
          "name": "isOwner",
          "type": "bool"
        },
        {
          "internalType": "bool",
          "name": "isRightToUse",
          "type": "bool"
        }
      ],
      "stateMutability": "view",
      "type": "function"
    },
    {
      "inputs": [
        {
          "internalType": "uint256",
          "name": "",
          "type": "uint256"
        }
      ],
      "name": "original",
      "outputs": [
        {
          "internalType": "bytes",
          "name": "",
          "type": "bytes"
        }
      ],
      "stateMutability": "view",
      "type": "function"
    },
    {
      "inputs": [],
      "name": "owner",
      "outputs": [
        {
          "internalType": "address",
          "name": "owner_",
          "type": "address"
        }
      ],
      "stateMutability": "view",
      "type": "function"
    },
    {
      "inputs": [
        {
          "internalType": "address",
          "name": "addr",
          "type": "address"
        }
      ],
      "name": "queryByAddress",
      "outputs": [
        {
          "components": [
            {
              "internalType": "string",
              "name": "name",
              "type": "string"
            },
            {
              "internalType": "address",
              "name": "userAddress",
              "type": "address"
            },
            {
              "internalType": "bool",
              "name": "isOwner",
              "type": "bool"
            },
            {
              "internalType": "bool",
              "name": "isRightToUse",
              "type": "bool"
            }
          ],
          "internalType": "struct NameNft.NftName[]",
          "name": "",
          "type": "tuple[]"
        }
      ],
      "stateMutability": "view",
      "type": "function"
    },
    {
      "inputs": [
        {
          "internalType": "string",
          "name": "name",
          "type": "string"
        }
      ],
      "name": "queryByName",
      "outputs": [
        {
          "components": [
            {
              "internalType": "string",
              "name": "name",
              "type": "string"
            },
            {
              "internalType": "address",
              "name": "userAddress",
              "type": "address"
            },
            {
              "internalType": "bool",
              "name": "isOwner",
              "type": "bool"
            },
            {
              "internalType": "bool",
              "name": "isRightToUse",
              "type": "bool"
            }
          ],
          "internalType": "struct NameNft.NftName",
          "name": "",
          "type": "tuple"
        }
      ],
      "stateMutability": "view",
      "type": "function"
    },
    {
      "inputs": [
        {
          "internalType": "bytes",
          "name": "data",
          "type": "bytes"
        }
      ],
      "name": "setup",
      "outputs": [],
      "stateMutability": "nonpayable",
      "type": "function"
    },
    {
      "inputs": [
        {
          "internalType": "string",
          "name": "name",
          "type": "string"
        },
        {
          "internalType": "uint256",
          "name": "msgId",
          "type": "uint256"
        }
      ],
      "name": "startMint",
      "outputs": [],
      "stateMutability": "payable",
      "type": "function"
    },
    {
      "inputs": [
        {
          "internalType": "uint256",
          "name": "",
          "type": "uint256"
        }
      ],
      "name": "supportedchains",
      "outputs": [
        {
          "internalType": "string",
          "name": "chainName",
          "type": "string"
        },
        {
          "internalType": "address",
          "name": "contractaddr",
          "type": "address"
        }
      ],
      "stateMutability": "view",
      "type": "function"
    },
    {
      "inputs": [
        {
          "internalType": "address",
          "name": "toaddr",
          "type": "address"
        },
        {
          "internalType": "string",
          "name": "tochain",
          "type": "string"
        },
        {
          "internalType": "string",
          "name": "nftname",
          "type": "string"
        },
        {
          "internalType": "uint256",
          "name": "msgId",
          "type": "uint256"
        }
      ],
      "name": "transfer",
      "outputs": [],
      "stateMutability": "payable",
      "type": "function"
    },
    {
      "inputs": [
        {
          "internalType": "address",
          "name": "newOwner",
          "type": "address"
        }
      ],
      "name": "transferOwnership",
      "outputs": [],
      "stateMutability": "nonpayable",
      "type": "function"
    },
    {
      "inputs": [
        {
          "internalType": "address",
          "name": "newImplementation",
          "type": "address"
        },
        {
          "internalType": "bytes32",
          "name": "newImplementationCodeHash",
          "type": "bytes32"
        },
        {
          "internalType": "bytes",
          "name": "params",
          "type": "bytes"
        }
      ],
      "name": "upgrade",
      "outputs": [],
      "stateMutability": "nonpayable",
      "type": "function"
    }
  ],
  "bytecode": "0x60c06040523480156200001157600080fd5b5060405162003f4a38038062003f4a833981016040819052620000349162000093565b816001600160a01b0381166200005d5760405163e6c4247b60e01b815260040160405180910390fd5b6001600160a01b039081166080521660a05250620000cb565b80516001600160a01b03811681146200008e57600080fd5b919050565b60008060408385031215620000a757600080fd5b620000b28362000076565b9150620000c26020840162000076565b90509250929050565b60805160a051613e2162000129600039600081816103ac01528181610b1501528181611c970152611d9701526000818161020a015281816105cf01528181610bb001528181610c7501528181611e31015261269e0152613e216000f3fe6080604052600436106101955760003560e01c8063717eb03f116100e15780639ded06df1161008a578063cb7ec3dc11610064578063cb7ec3dc14610505578063dfd4b40114610525578063e89bd12414610552578063f2fde38b1461056557600080fd5b80639ded06df14610497578063a3499c73146104b7578063cb2a5b92146104d757600080fd5b80638af5b7db116100bb5780638af5b7db1461040b5780638da5cb5b1461042b5780639cd2161e1461045f57600080fd5b8063717eb03f1461037a57806380d14b4a1461039a5780638291286c146103ce57600080fd5b806349160658116101435780635c60da1b1161011d5780635c60da1b146102f65780636c967a541461032a57806370a7287b1461035a57600080fd5b806349160658146102b0578063510d82ec146102d05780635acec497146102e357600080fd5b80631c93b03a116101745780631c93b03a1461024e578063205860311461027057806341b385691461029d57600080fd5b8062e9f9c71461019a578063116191b6146101f85780631a98b2e01461022c575b600080fd5b3480156101a657600080fd5b506101db6101b53660046130f0565b80516020818301810180516005825292820191909301209152546001600160a01b031681565b6040516001600160a01b0390911681526020015b60405180910390f35b34801561020457600080fd5b506101db7f000000000000000000000000000000000000000000000000000000000000000081565b34801561023857600080fd5b5061024c61024736600461318a565b610585565b005b34801561025a57600080fd5b50610263610690565b6040516101ef91906132bc565b34801561027c57600080fd5b5061029061028b3660046132d6565b61071e565b6040516101ef9190613364565b61024c6102ab36600461338c565b6108bf565b3480156102bc57600080fd5b5061024c6102cb366004613417565b610c2b565b61024c6102de36600461338c565b610d3b565b61024c6102f136600461338c565b610ec8565b34801561030257600080fd5b507f360894a13ba1a3210667c828492db98dca3e2076cc3735a920a3ca505d382bbc546101db565b34801561033657600080fd5b5061034a6103453660046134bb565b611055565b6040516101ef94939291906134d4565b34801561036657600080fd5b5061026361037536600461350e565b611130565b34801561038657600080fd5b506102636103953660046134bb565b611149565b3480156103a657600080fd5b506101db7f000000000000000000000000000000000000000000000000000000000000000081565b3480156103da57600080fd5b507f8b88dae839acea7ff6a270cef523f6c04d348796d1890294879850ff17ecd6cc5b6040519081526020016101ef565b34801561041757600080fd5b5061024c61042636600461352b565b611162565b34801561043757600080fd5b507f02016836a56b71f0d02689e69e326f4f4c1b9057164ef592671cf0d37c8040c0546101db565b34801561046b57600080fd5b506103fd61047a3660046130f0565b805160208183018101805160068252928201919093012091525481565b3480156104a357600080fd5b5061024c6104b23660046132d6565b6112cd565b3480156104c357600080fd5b5061024c6104d2366004613582565b611346565b3480156104e357600080fd5b506104f76104f23660046134bb565b611662565b6040516101ef9291906135de565b34801561051157600080fd5b5061024c6105203660046132d6565b611727565b34801561053157600080fd5b5061054561054036600461350e565b6117e6565b6040516101ef9190613609565b61024c61056036600461366b565b611a57565b34801561057157600080fd5b5061024c61058036600461350e565b611ef0565b600085856040516105979291906136b7565b6040519081900381207f1876eed900000000000000000000000000000000000000000000000000000000825291506001600160a01b037f00000000000000000000000000000000000000000000000000000000000000001690631876eed990610614908e908e908e908e908e9089908d908d908d906004016136f0565b602060405180830381600087803b15801561062e57600080fd5b505af1158015610642573d6000803e3d6000fd5b505050506040513d601f19601f820116820180604052508101906106669190613764565b61068357604051631403112d60e21b815260040160405180910390fd5b5050505050505050505050565b6002805461069d9061377f565b80601f01602080910402602001604051908101604052809291908181526020018280546106c99061377f565b80156107165780601f106106eb57610100808354040283529160200191610716565b820191906000526020600020905b8154815290600101906020018083116106f957829003601f168201915b505050505081565b604080516080810182526060808252600060208301819052928201839052810191909152600061078384848080601f016020809104026020016040519081016040528093929190818152602001838380828437600092019190915250611fe392505050565b90506000811261088c57600481815481106107a0576107a06137ba565b90600052602060002090600202016040518060800160405290816000820180546107c99061377f565b80601f01602080910402602001604051908101604052809291908181526020018280546107f59061377f565b80156108425780601f1061081757610100808354040283529160200191610842565b820191906000526020600020905b81548152906001019060200180831161082557829003601f168201915b5050509183525050600191909101546001600160a01b038116602083015260ff600160a01b8204811615156040840152600160a81b90910416151560609091015291506108b99050565b50506040805160a08101825260006080820181815282526020820181905291810182905260608101919091525b92915050565b6108ff3384848080601f01602080910402602001604051908101604052809392919081815260200183838082843760009201919091525061205a92505050565b61093c5760405162461bcd60e51b81526020600482015260096024820152682727aa2fa7aba722a960b91b60448201526064015b60405180910390fd5b600260405161094b91906137d0565b604051809103902085856040516109639291906136b7565b604051809103902014156109ba576109b583838080601f0160208091040260200160405190810160405280939291908181526020018383808284376000920191909152508a9250339150859050612118565b610c23565b6109f985858080601f01602080910402602001604051908101604052809392919081815260200183838082843760009201919091525061216192505050565b610a395760405162461bcd60e51b81526020600482015260116024820152702727aa2fa9aaa82827a92a2fa1a420a4a760791b6044820152606401610933565b610a7a83838080601f0160208091040260200160405190810160405280939291908181526020018383808284376000920191909152503392506121da915050565b60006005848489604051602001610a9393929190613842565b60408051601f1981840301815290829052610ab392918590602001613885565b60408051601f198184030181526020601f89018190048102840181019092528783529250600091610b1191610b0391908a908a908190840183828082843760009201919091525061227c92505050565b6001600160a01b031661231a565b90507f00000000000000000000000000000000000000000000000000000000000000006001600160a01b0316630c93e3bb34308a8a8688336040518863ffffffff1660e01b8152600401610b6a969594939291906138cc565b6000604051808303818588803b158015610b8357600080fd5b505af1158015610b97573d6000803e3d6000fd5b5050604051631c92115f60e01b81526001600160a01b037f0000000000000000000000000000000000000000000000000000000000000000169350631c92115f9250610bee91508a908a908690889060040161392d565b600060405180830381600087803b158015610c0857600080fd5b505af1158015610c1c573d6000803e3d6000fd5b5050505050505b505050505050565b60008282604051610c3d9291906136b7565b6040519081900381207f5f6970c300000000000000000000000000000000000000000000000000000000825291506001600160a01b037f00000000000000000000000000000000000000000000000000000000000000001690635f6970c390610cb4908b908b908b908b908b908990600401613972565b602060405180830381600087803b158015610cce57600080fd5b505af1158015610ce2573d6000803e3d6000fd5b505050506040513d601f19601f82011682018060405250810190610d069190613764565b610d2357604051631403112d60e21b815260040160405180910390fd5b610d318787878787876125ea565b5050505050505050565b6002604051610d4a91906137d0565b60405180910390208585604051610d629291906136b7565b60405180910390201415610db85760405162461bcd60e51b815260206004820152601960248201527f43555252454e545f434841494e5f4e4f545f535550504f5254000000000000006044820152606401610933565b610df83384848080601f01602080910402602001604051908101604052809392919081815260200183838082843760009201919091525061205a92505050565b610e305760405162461bcd60e51b81526020600482015260096024820152682727aa2fa7aba722a960b91b6044820152606401610933565b610e6f85858080601f01602080910402602001604051908101604052809392919081815260200183838082843760009201919091525061216192505050565b610eaf5760405162461bcd60e51b81526020600482015260116024820152702727aa2fa9aaa82827a92a2fa1a420a4a760791b6044820152606401610933565b60006004848489604051602001610a9393929190613842565b6002604051610ed791906137d0565b60405180910390208585604051610eef9291906136b7565b60405180910390201415610f455760405162461bcd60e51b815260206004820152601960248201527f43555252454e545f434841494e5f4e4f545f535550504f5254000000000000006044820152606401610933565b610f853384848080601f01602080910402602001604051908101604052809392919081815260200183838082843760009201919091525061205a92505050565b610fbd5760405162461bcd60e51b81526020600482015260096024820152682727aa2fa7aba722a960b91b6044820152606401610933565b610ffc85858080601f01602080910402602001604051908101604052809392919081815260200183838082843760009201919091525061216192505050565b61103c5760405162461bcd60e51b81526020600482015260116024820152702727aa2fa9aaa82827a92a2fa1a420a4a760791b6044820152606401610933565b60006003848489604051602001610a9393929190613842565b6004818154811061106557600080fd5b90600052602060002090600202016000915090508060000180546110889061377f565b80601f01602080910402602001604051908101604052809291908181526020018280546110b49061377f565b80156111015780601f106110d657610100808354040283529160200191611101565b820191906000526020600020905b8154815290600101906020018083116110e457829003601f168201915b505050600190930154919250506001600160a01b0381169060ff600160a01b8204811691600160a81b90041684565b6001602052600090815260409020805461069d9061377f565b6000602081905290815260409020805461069d9061377f565b60005b6003548110156112275760038181548110611182576111826137ba565b90600052602060002090600202016000016040516111a091906137d0565b604051809103902084846040516111b89291906136b7565b604051809103902014156112155781600382815481106111da576111da6137ba565b906000526020600020906002020160010160006101000a8154816001600160a01b0302191690836001600160a01b0316021790555050505050565b8061121f816139c9565b915050611165565b506040805160606020601f860181900402820181018352918101848152600392829190879087908190850183828082843760009201829052509385525050506001600160a01b03851660209283015283546001810185559381528190208251805193946002029091019261129e9284920190612f6d565b5060209190910151600190910180546001600160a01b0319166001600160a01b03909216919091179055505050565b60006112f77f360894a13ba1a3210667c828492db98dca3e2076cc3735a920a3ca505d382bbc5490565b6001600160a01b03161415611338576040517fbf10dd3a00000000000000000000000000000000000000000000000000000000815260040160405180910390fd5b61134282826128af565b5050565b3361136f7f02016836a56b71f0d02689e69e326f4f4c1b9057164ef592671cf0d37c8040c05490565b6001600160a01b031614611396576040516330cd747160e01b815260040160405180910390fd5b306001600160a01b0316638291286c6040518163ffffffff1660e01b815260040160206040518083038186803b1580156113cf57600080fd5b505afa1580156113e3573d6000803e3d6000fd5b505050506040513d601f19601f8201168201806040525081019061140791906139e4565b846001600160a01b0316638291286c6040518163ffffffff1660e01b815260040160206040518083038186803b15801561144057600080fd5b505afa158015611454573d6000803e3d6000fd5b505050506040513d601f19601f8201168201806040525081019061147891906139e4565b146114af576040517f68155f9a00000000000000000000000000000000000000000000000000000000815260040160405180910390fd5b836001600160a01b03163f83146114f2576040517f8f84fb2400000000000000000000000000000000000000000000000000000000815260040160405180910390fd5b8015611607576000846001600160a01b0316639ded06df60e01b848460405160240161151f9291906139fd565b60408051601f198184030181529181526020820180517bffffffffffffffffffffffffffffffffffffffffffffffffffffffff167fffffffff0000000000000000000000000000000000000000000000000000000090941693909317909252905161158a9190613a11565b600060405180830381855af49150503d80600081146115c5576040519150601f19603f3d011682016040523d82523d6000602084013e6115ca565b606091505b5050905080611605576040517f97905dfb00000000000000000000000000000000000000000000000000000000815260040160405180910390fd5b505b6040516001600160a01b038516907fbc7cd75a20ee27fd9adebab32041f755214dbc6bffa90cc0225b39da2e5c2d3b90600090a25050507f360894a13ba1a3210667c828492db98dca3e2076cc3735a920a3ca505d382bbc55565b6003818154811061167257600080fd5b90600052602060002090600202016000915090508060000180546116959061377f565b80601f01602080910402602001604051908101604052809291908181526020018280546116c19061377f565b801561170e5780601f106116e35761010080835404028352916020019161170e565b820191906000526020600020905b8154815290600101906020018083116116f157829003601f168201915b505050600190930154919250506001600160a01b031682565b60005b6003548110156117e15760038181548110611747576117476137ba565b906000526020600020906002020160000160405161176591906137d0565b6040518091039020838360405161177d9291906136b7565b604051809103902014156117cf576003818154811061179e5761179e6137ba565b600091825260208220600290910201906117b88282612ff1565b5060010180546001600160a01b0319169055505050565b806117d9816139c9565b91505061172a565b505050565b60606000805b60045481101561185657836001600160a01b031660048281548110611813576118136137ba565b60009182526020909120600160029092020101546001600160a01b031614156118445781611840816139c9565b9250505b8061184e816139c9565b9150506117ec565b5060008167ffffffffffffffff81111561187257611872613043565b6040519080825280602002602001820160405280156118c557816020015b604080516080810182526060808252600060208084018290529383018190529082015282526000199092019101816118905790505b5090506000915060005b600454811015611a4f57846001600160a01b0316600482815481106118f6576118f66137ba565b60009182526020909120600160029092020101546001600160a01b03161415611a3d576004818154811061192c5761192c6137ba565b90600052602060002090600202016040518060800160405290816000820180546119559061377f565b80601f01602080910402602001604051908101604052809291908181526020018280546119819061377f565b80156119ce5780601f106119a3576101008083540402835291602001916119ce565b820191906000526020600020905b8154815290600101906020018083116119b157829003601f168201915b5050509183525050600191909101546001600160a01b038116602083015260ff600160a01b8204811615156040840152600160a81b9091041615156060909101528251839085908110611a2357611a236137ba565b60200260200101819052508280611a39906139c9565b9350505b80611a47816139c9565b9150506118cf565b509392505050565b611a9683838080601f01602080910402602001604051908101604052809392919081815260200183838082843760009201919091525061291892505050565b611ae25760405162461bcd60e51b815260206004820152601360248201527f6e616d6520616c726561647920696e20757365000000000000000000000000006044820152606401610933565b60006001600160a01b031660058484604051611aff9291906136b7565b908152604051908190036020019020546001600160a01b031614611b655760405162461bcd60e51b815260206004820152601360248201527f6e616d65206973206d696e74696e67206e6f77000000000000000000000000006044820152606401610933565b3360058484604051611b789291906136b7565b90815260405190819003602001902080546001600160a01b03929092166001600160a01b031990921691909117905560005b600354811015611eea5760038181548110611bc757611bc76137ba565b9060005260206000209060020201600001604051611be591906137d0565b60405180910390206002604051611bfc91906137d0565b604051809103902014611ed857600060018585604051602001611c209291906139fd565b60408051601f1981840301815290829052611c4092918690602001613885565b60405160208183030381529060405290506000611c8b60038481548110611c6957611c696137ba565b60009182526020909120600160029092020101546001600160a01b031661231a565b90506001600160a01b037f000000000000000000000000000000000000000000000000000000000000000016630c93e3bb611cc7600a34613a2d565b3060038781548110611cdb57611cdb6137ba565b90600052602060002090600202016000018587336040518763ffffffff1660e01b8152600401611d0f959493929190613ac6565b6000604051808303818588803b158015611d2857600080fd5b505af1158015611d3c573d6000803e3d6000fd5b50505050506000600260018888604051602001611d5b93929190613b25565b60408051601f1981840301815290829052611d7b92918890602001613885565b60408051601f1981840301815291905290506001600160a01b037f000000000000000000000000000000000000000000000000000000000000000016630c93e3bb611dc7600a34613a2d565b611dd085612991565b6002611ddb3061231a565b86336040518763ffffffff1660e01b8152600401611dfd959493929190613ac6565b6000604051808303818588803b158015611e1657600080fd5b505af1158015611e2a573d6000803e3d6000fd5b50505050507f00000000000000000000000000000000000000000000000000000000000000006001600160a01b0316631c92115f60038681548110611e7157611e716137ba565b906000526020600020906002020160000184866040518463ffffffff1660e01b8152600401611ea293929190613b4a565b600060405180830381600087803b158015611ebc57600080fd5b505af1158015611ed0573d6000803e3d6000fd5b505050505050505b80611ee2816139c9565b915050611baa565b50505050565b33611f197f02016836a56b71f0d02689e69e326f4f4c1b9057164ef592671cf0d37c8040c05490565b6001600160a01b031614611f40576040516330cd747160e01b815260040160405180910390fd5b6001600160a01b038116611f80576040517f49e27cff00000000000000000000000000000000000000000000000000000000815260040160405180910390fd5b6040516001600160a01b038216907f04dba622d284ed0014ee4b9a6a68386be1a4c08a4913ae272de89199cc68616390600090a27f02016836a56b71f0d02689e69e326f4f4c1b9057164ef592671cf0d37c8040c055565b505050505050505050565b6000805b6004548110156120505782805190602001206004828154811061200c5761200c6137ba565b906000526020600020906002020160000160405161202a91906137d0565b6040518091039020141561203e5792915050565b80612048816139c9565b915050611fe7565b5060001992915050565b6000805b60045481101561210e576004818154811061207b5761207b6137ba565b906000526020600020906002020160000160405161209991906137d0565b604051809103902083805190602001201480156120ed5750836001600160a01b0316600482815481106120ce576120ce6137ba565b60009182526020909120600160029092020101546001600160a01b0316145b156120fc5760019150506108b9565b80612106816139c9565b91505061205e565b5060009392505050565b61212284836121da565b61212c8484612a90565b6000600560405183907ff999075cd59051aadc61ceeb9ce83bc2bf4612f544567215d6a9db0c3b556a6a90600090a450505050565b6000805b6003548110156121d15782805190602001206003828154811061218a5761218a6137ba565b90600052602060002090600202016000016040516121a891906137d0565b604051809103902014156121bf5750600192915050565b806121c9816139c9565b915050612165565b50600092915050565b6121e4818361205a565b61221c5760405162461bcd60e51b81526020600482015260096024820152682727aa2fa7aba722a960b91b6044820152606401610933565b600061222783611fe3565b90506004818154811061223c5761223c6137ba565b600091825260208220600290910201906122568282612ff1565b50600101805475ffffffffffffffffffffffffffffffffffffffffffff19169055505050565b6000805b6003548110156121d1578280519060200120600382815481106122a5576122a56137ba565b90600052602060002090600202016000016040516122c391906137d0565b6040518091039020141561230857600381815481106122e4576122e46137ba565b60009182526020909120600160029092020101546001600160a01b03169392505050565b80612312816139c9565b915050612280565b604051606082811b6bffffffffffffffffffffffff191660208301529060009060340160408051601f19818403018152828201909152601082527f30313233343536373839616263646566000000000000000000000000000000006020830152805190925060009061238d906002613b8d565b612398906002613bac565b67ffffffffffffffff8111156123b0576123b0613043565b6040519080825280601f01601f1916602001820160405280156123da576020820181803683370190505b5090507f300000000000000000000000000000000000000000000000000000000000000081600081518110612411576124116137ba565b60200101906001600160f81b031916908160001a9053507f78000000000000000000000000000000000000000000000000000000000000008160018151811061245c5761245c6137ba565b60200101906001600160f81b031916908160001a90535060005b83518110156125e157826004858381518110612494576124946137ba565b016020015182517fff0000000000000000000000000000000000000000000000000000000000000090911690911c60f81c9081106124d4576124d46137ba565b01602001517fff000000000000000000000000000000000000000000000000000000000000001682612507836002613b8d565b612512906002613bac565b81518110612522576125226137ba565b60200101906001600160f81b031916908160001a9053508284828151811061254c5761254c6137ba565b602091010151815160f89190911c600f1690811061256c5761256c6137ba565b01602001517fff00000000000000000000000000000000000000000000000000000000000000168261259f836002613b8d565b6125aa906003613bac565b815181106125ba576125ba6137ba565b60200101906001600160f81b031916908160001a9053506125da816139c9565b9050612476565b50949350505050565b600080806125fa84860186613bc4565b9194509250905060018360058111156126155761261561386f565b1415612715576000828060200190518101906126319190613c7a565b9050600061263e82612918565b9050600060028284604051602001612657929190613caf565b60408051601f198184030181529082905261267792918790602001613885565b60408051601f1981840301815290829052631c92115f60e01b825291506001600160a01b037f00000000000000000000000000000000000000000000000000000000000000001690631c92115f906126db908f908f908f908f908890600401613cca565b600060405180830381600087803b1580156126f557600080fd5b505af1158015612709573d6000803e3d6000fd5b50505050505050611fd8565b60028360058111156127295761272961386f565b14156127ef57600080838060200190518101906127469190613d11565b915091508161275e576127598184612bc1565b6127e8565b60035461276d90600290613d5f565b60068260405161277d9190613a11565b908152602001604051809103902054141561279c576127598184612c42565b6006816040516127ac9190613a11565b90815260200160405180910390205460016127c79190613bac565b6006826040516127d79190613a11565b908152604051908190036020019020555b5050611fd8565b60038360058111156128035761280361386f565b141561282f57600080838060200190518101906128209190613d76565b915091506127e8828285612cac565b60048360058111156128435761284361386f565b141561286f57600080838060200190518101906128609190613d76565b915091506127e8828285612e00565b60058360058111156128835761288361386f565b1415611fd857600080838060200190518101906128a09190613d76565b91509150610683828285612ef6565b60006128bd828401846130f0565b9050600280546128cc9061377f565b159050612905576040517f0dc149f000000000000000000000000000000000000000000000000000000000815260040160405180910390fd5b8051611eea906002906020840190612f6d565b6000805b6004548110156129885760048181548110612939576129396137ba565b906000526020600020906002020160000160405161295791906137d0565b6040518091039020838051906020012014156129765750600092915050565b80612980816139c9565b91505061291c565b50600192915050565b80516000908290602a146129a85750600092915050565b60008060025b602a811015612a86578381815181106129c9576129c96137ba565b016020015160f81c9150606182108015906129e8575060668260ff1611155b156129ff576129f8605783613dc8565b9150612a5b565b60418260ff1610158015612a17575060468260ff1611155b15612a27576129f8603783613dc8565b60308260ff1610158015612a3f575060398260ff1611155b15612a4f576129f8603083613dc8565b50600095945050505050565b6002612a68826029613d5f565b60ff8416911b1b929092179180612a7e816139c9565b9150506129ae565b5090949350505050565b604080516080810182528381526001600160a01b038316602080830191909152600192820183905260608201839052600480549384018155600052815180519293849360029091027f8a35acfbc15ff81a39ae7d344fd709f28e8600b4aa8c65c6b64bfe7fe36bd19b0192612b09928492910190612f6d565b506020820151600190910180546040808501516060909501511515600160a81b0260ff60a81b19951515600160a01b0274ffffffffffffffffffffffffffffffffffffffffff199093166001600160a01b0390951694909417919091179390931691909117905551600590612b7f908590613a11565b90815260405190819003602001812080546001600160a01b0319169055600690612baa908590613a11565b908152602001604051809103902060009055505050565b600582604051612bd19190613a11565b90815260405190819003602001812080546001600160a01b0319169055600690612bfc908490613a11565b908152604051908190036020019020600090556001600060405183907ff999075cd59051aadc61ceeb9ce83bc2bf4612f544567215d6a9db0c3b556a6a90600090a45050565b6000600583604051612c549190613a11565b908152604051908190036020019020546001600160a01b03169050612c798382612a90565b60008060405184907ff999075cd59051aadc61ceeb9ce83bc2bf4612f544567215d6a9db0c3b556a6a90600090a4505050565b604080516080810182528481526001600160a01b038416602082015260009181019190915260016060820152612ce184611fe3565b6000191415612dca57600480546001810182556000919091528151805183926002027f8a35acfbc15ff81a39ae7d344fd709f28e8600b4aa8c65c6b64bfe7fe36bd19b0191612d3591839160200190612f6d565b5060208201516001909101805460408401516060909401511515600160a81b0260ff60a81b19941515600160a01b0274ffffffffffffffffffffffffffffffffffffffffff199092166001600160a01b03909416939093171792909216179055600060035b60405184907ff999075cd59051aadc61ceeb9ce83bc2bf4612f544567215d6a9db0c3b556a6a90600090a4611eea565b600160035b60405184907ff999075cd59051aadc61ceeb9ce83bc2bf4612f544567215d6a9db0c3b556a6a90600090a450505050565b6000612e0b84611fe3565b905060008112158015612e555750826001600160a01b031660048281548110612e3657612e366137ba565b60009182526020909120600160029092020101546001600160a01b0316145b15612eed57600060048281548110612e6f57612e6f6137ba565b906000526020600020906002020160010160006101000a8154816001600160a01b0302191690836001600160a01b03160217905550600060048281548110612eb957612eb96137ba565b6000918252602082206001600290920201018054921515600160a81b0260ff60a81b19909316929092179091556004612d9a565b60016004612dcf565b6000612f0184611fe3565b905060008112612f5a5760048181548110612f1e57612f1e6137ba565b60009182526020822060029091020190612f388282612ff1565b50600101805475ffffffffffffffffffffffffffffffffffffffffffff191690555b612f648484612a90565b60006005612dcf565b828054612f799061377f565b90600052602060002090601f016020900481019282612f9b5760008555612fe1565b82601f10612fb457805160ff1916838001178555612fe1565b82800160010185558215612fe1579182015b82811115612fe1578251825591602001919060010190612fc6565b50612fed92915061302e565b5090565b508054612ffd9061377f565b6000825580601f1061300d575050565b601f01602090049060005260206000209081019061302b919061302e565b50565b5b80821115612fed576000815560010161302f565b634e487b7160e01b600052604160045260246000fd5b604051601f8201601f1916810167ffffffffffffffff8111828210171561308257613082613043565b604052919050565b600067ffffffffffffffff8211156130a4576130a4613043565b50601f01601f191660200190565b60006130c56130c08461308a565b613059565b90508281528383830111156130d957600080fd5b828260208301376000602084830101529392505050565b60006020828403121561310257600080fd5b813567ffffffffffffffff81111561311957600080fd5b8201601f8101841361312a57600080fd5b613139848235602084016130b2565b949350505050565b60008083601f84011261315357600080fd5b50813567ffffffffffffffff81111561316b57600080fd5b60208301915083602082850101111561318357600080fd5b9250929050565b60008060008060008060008060008060c08b8d0312156131a957600080fd5b8a35995060208b013567ffffffffffffffff808211156131c857600080fd5b6131d48e838f01613141565b909b50995060408d01359150808211156131ed57600080fd5b6131f98e838f01613141565b909950975060608d013591508082111561321257600080fd5b61321e8e838f01613141565b909750955060808d013591508082111561323757600080fd5b506132448d828e01613141565b9150809450508092505060a08b013590509295989b9194979a5092959850565b60005b8381101561327f578181015183820152602001613267565b83811115611eea5750506000910152565b600081518084526132a8816020860160208601613264565b601f01601f19169290920160200192915050565b6020815260006132cf6020830184613290565b9392505050565b600080602083850312156132e957600080fd5b823567ffffffffffffffff81111561330057600080fd5b61330c85828601613141565b90969095509350505050565b600081516080845261332d6080850182613290565b90506001600160a01b0360208401511660208501526040830151151560408501526060830151151560608501528091505092915050565b6020815260006132cf6020830184613318565b6001600160a01b038116811461302b57600080fd5b600080600080600080608087890312156133a557600080fd5b86356133b081613377565b9550602087013567ffffffffffffffff808211156133cd57600080fd5b6133d98a838b01613141565b909750955060408901359150808211156133f257600080fd5b506133ff89828a01613141565b979a9699509497949695606090950135949350505050565b60008060008060008060006080888a03121561343257600080fd5b87359650602088013567ffffffffffffffff8082111561345157600080fd5b61345d8b838c01613141565b909850965060408a013591508082111561347657600080fd5b6134828b838c01613141565b909650945060608a013591508082111561349b57600080fd5b506134a88a828b01613141565b989b979a50959850939692959293505050565b6000602082840312156134cd57600080fd5b5035919050565b6080815260006134e76080830187613290565b6001600160a01b039590951660208301525091151560408301521515606090910152919050565b60006020828403121561352057600080fd5b81356132cf81613377565b60008060006040848603121561354057600080fd5b833567ffffffffffffffff81111561355757600080fd5b61356386828701613141565b909450925050602084013561357781613377565b809150509250925092565b6000806000806060858703121561359857600080fd5b84356135a381613377565b935060208501359250604085013567ffffffffffffffff8111156135c657600080fd5b6135d287828801613141565b95989497509550505050565b6040815260006135f16040830185613290565b90506001600160a01b03831660208301529392505050565b6000602080830181845280855180835260408601915060408160051b870101925083870160005b8281101561365e57603f1988860301845261364c858351613318565b94509285019290850190600101613630565b5092979650505050505050565b60008060006040848603121561368057600080fd5b833567ffffffffffffffff81111561369757600080fd5b6136a386828701613141565b909790965060209590950135949350505050565b8183823760009101908152919050565b81835281816020850137506000828201602090810191909152601f909101601f19169091010190565b89815260c06020820152600061370a60c083018a8c6136c7565b828103604084015261371d81898b6136c7565b905086606084015282810360808401526137388186886136c7565b9150508260a08301529a9950505050505050505050565b8051801515811461375f57600080fd5b919050565b60006020828403121561377657600080fd5b6132cf8261374f565b600181811c9082168061379357607f821691505b602082108114156137b457634e487b7160e01b600052602260045260246000fd5b50919050565b634e487b7160e01b600052603260045260246000fd5b60008083546137de8161377f565b600182811680156137f6576001811461380757613836565b60ff19841687528287019450613836565b8760005260208060002060005b8581101561382d5781548a820152908401908201613814565b50505082870194505b50929695505050505050565b6040815260006138566040830185876136c7565b90506001600160a01b0383166020830152949350505050565b634e487b7160e01b600052602160045260246000fd5b6000600685106138a557634e487b7160e01b600052602160045260246000fd5b848252606060208301526138bc6060830185613290565b9050826040830152949350505050565b60006001600160a01b03808916835260a060208401526138f060a08401888a6136c7565b83810360408501526139028188613290565b905083810360608501526139168187613290565b925050808416608084015250979650505050505050565b6060815260006139416060830186886136c7565b82810360208401526139538186613290565b905082810360408401526139678185613290565b979650505050505050565b86815260806020820152600061398c6080830187896136c7565b828103604084015261399f8186886136c7565b915050826060830152979650505050505050565b634e487b7160e01b600052601160045260246000fd5b60006000198214156139dd576139dd6139b3565b5060010190565b6000602082840312156139f657600080fd5b5051919050565b6020815260006131396020830184866136c7565b60008251613a23818460208701613264565b9190910192915050565b600082613a4a57634e487b7160e01b600052601260045260246000fd5b500490565b60008154613a5c8161377f565b808552602060018381168015613a795760018114613a8d57613abb565b60ff19851688840152604088019550613abb565b866000528260002060005b85811015613ab35781548a8201860152908301908401613a98565b890184019650505b505050505092915050565b60006001600160a01b03808816835260a06020840152613ae960a0840188613a4f565b8381036040850152613afb8188613290565b90508381036060850152613b0f8187613290565b9250508084166080840152509695505050505050565b8315158152604060208201526000613b416040830184866136c7565b95945050505050565b606081526000613b5d6060830186613a4f565b8281036020840152613b6f8186613290565b90508281036040840152613b838185613290565b9695505050505050565b6000816000190483118215151615613ba757613ba76139b3565b500290565b60008219821115613bbf57613bbf6139b3565b500190565b600080600060608486031215613bd957600080fd5b833560068110613be857600080fd5b9250602084013567ffffffffffffffff811115613c0457600080fd5b8401601f81018613613c1557600080fd5b613c24868235602084016130b2565b925050604084013590509250925092565b600082601f830112613c4657600080fd5b8151613c546130c08261308a565b818152846020838601011115613c6957600080fd5b613139826020830160208701613264565b600060208284031215613c8c57600080fd5b815167ffffffffffffffff811115613ca357600080fd5b61313984828501613c35565b82151581526040602082015260006131396040830184613290565b606081526000613cde6060830187896136c7565b8281036020840152613cf18186886136c7565b90508281036040840152613d058185613290565b98975050505050505050565b60008060408385031215613d2457600080fd5b613d2d8361374f565b9150602083015167ffffffffffffffff811115613d4957600080fd5b613d5585828601613c35565b9150509250929050565b600082821015613d7157613d716139b3565b500390565b60008060408385031215613d8957600080fd5b825167ffffffffffffffff811115613da057600080fd5b613dac85828601613c35565b9250506020830151613dbd81613377565b809150509250929050565b600060ff821660ff841680821015613de257613de26139b3565b9003939250505056fea2646970667358221220c78a7031d365a8c90635ef4c65ad88f4ad8b50452541be20539bb6fe3a3cad5064736f6c63430008090033",
  "linkReferences": {},
  "deployedLinkReferences": {}
}